:1000000000000420750300005D03000029A100002A
:1000100061030000630300006503000000000000AE
:100020000000000000000000000000006703000066
:1000300069030000000000006B0300006D03000076
:10004000F11B00006F030000F9230000692300008A
:100050008D2300006F0300006D140000A93B000019
:10006000254600003D46000055460000ED3A0000E0
:100070006F0300009D3500006F0300006F03000058
:10008000B9690000498B000029270000D523000032
:100090006F0300006F0300006F0300006F03000098
:1000A0006F0300006F0300006D46000085460000EE
:1000B0002D26000045180000000000000000000090
:1000C0006F030000452600005D260000B1230000FC
:1000D000013B0000E91500006F030000BD67000050
:1000E0006F030000213500006F03000000000000D6
:1000F000000000007526000000000000094000001C
:1001000000000000000000000000000000000000EF
:1001100000000000000000000000000000000000DF
:1001200000000000000000000000000000000000CF
:1001300000000000000000000000000000000000BF
:1001400000000000000000000000000000000000AF
:10015000000000000000000000000000000000009F
:10016000000000000000000000000000000000008F
:10017000000000000000000000000000000000007F
:10018000000000000000000000000000000000006F
:10019000000000000000000000000000000000005F
:1001A000000000000000000000000000000000004F
:1001B000000000000000000000000000000000003F
:1001C000000000000000000000000000000000002F
:1001D000000000000000000000000000000000001F
:1001E000000000000000000000000000000000000F
:1001F00000000000000000000000000000000000FF
:10020000354936480A1A02D0072291438D463449AF
:1002100034480A1A06D00722914381F30988022242
:1002200082F3148830483149314A00F044F83148AB
:100230003149324A00F03FF831483249324A00F041
:100240003AF832483249334A00F035F832483349F7
:10025000334A00F030F833483349344A00F02BF881
:1002600033483449344A00F026F8344834490022EF
:1002700000F02CF833483449002200F027F83348C6
:100280003349091A082902DB002202604160314A21
:1002900090471F481F49884205D00268043003B4C4
:1002A000904703BCF7E700208646EC46002000217B
:1002B000294A9047FEE7884207D0521A05D00378B2
:1002C00001300B700131013AF9D17047884202D0F8
:1002D00002700130FAE770470000042000E00320BC
:1002E00000000420000004209C6401000C02002097
:1002F00064050020D0030000D0030000581701005F
:100300009C6401000C0200200C020020181C01005B
:10031000181C0100181C0100181C0100181C010009
:10032000181C0100181C0100181C01009C6401002D
:10033000F4670100640500206405002064050020C6
:10034000644B0020644B0020644B0020644B002071
:10035000646B00209D030000510C0100FEE7FEE7E6
:10036000FEE7FEE7FEE7FEE7FEE7FEE7FEE7FEE765
:1003700000F002B8FFF7FCBF0F484FF007018843B9
:1003800085460E4880470E48016841F470010160BF
:10039000BFF34F8FBFF36F8FFFF732BF09480A4992
:1003A0000A4A884207D0521A05D0037801300B70F0
:1003B0000131013AF9D17047000004203DF80000F6
:1003C00088ED00E00C1A0100000000200C02002063
:1003D00000B583B00190019B1B68184600F040F8FF
:1003E0000346002B04D10B494FF4F67009F0CCFF03
:1003F000019B1B681F2B02D84FF0A04306E0019B16
:100400001B6803F01F02019B1A60034B184603B0E0
:100410005DF804FB181C01000003005000B585B016
:10042000019001AB1846FFF7D3FF0390039BD3F86D
:1004300004350293029BDA43019B012101FA03F385
:100440001A40039BC3F80825019B01229A40029B96
:100450001A40039BC3F80C2500BF05B05DF804FBF0
:1004600084B00190019B5B09029300230393029BDC
:10047000002B03D0029B012B04D007E04FF0FF3389
:10048000039303E04FF6FF73039300BF019B03F058
:100490001F030193039A019B22FA03F303F0010364
:1004A000002B14BF01230023DBB2184604B07047B1
:1004B00000B583B00190019B032B03D907495F204E
:1004C00009F062FF064A019B13441B781846FFF7A8
:1004D000A5FF00BF03B05DF804FB00BF481C01008E
:1004E000881C0100044BD3F80034002B14BF0123F7
:1004F0000023DBB2184670470000014008B500F049
:10050000E5FC00BF08BD000008B500F0F9FC024B97
:1005100000225A7000BF08BD6405002000B583B0FA
:1005200000230193164B1B78002B02D085230193E7
:1005300018E0134B00229A60114B00225A60104BB6
:1005400000221A610E4B0022DA600E4800F062FCB5
:10055000019000F087FC0A4B002283F82020084B12
:1005600001221A70FFF7BEFF0346002B02D0044B96
:1005700001229A70019B184603B05DF804FB00BF8E
:1005800064050020BD07000084B001900091019B2C
:100590001B68039306E0039A009B9A420DD0039BCD
:1005A0001B680393039B002BF5D1019B1A68009BEA
:1005B0001A60019B009A1A6000E000BF04B0704707
:1005C00084B00190019B1B680393039B002B03D015
:1005D000039B1A68019B1A60039B184604B070477E
:1005E00000B583B00190224B1B78002B03D1214929
:1005F000F62009F0C9FE1E4B9B78DBB2002B12D00F
:10060000019B002B03D0019B5B68012098470020D1
:1006100008F052FA164BDB680133154AD36000200C
:1006200008F05EFA17E0002008F046FA019B002B64
:1006300003D001991048FFF7A7FF0D4BDB68002B93
:1006400001D100F029FC0A4BDB680133084AD36072
:10065000002008F045FA064BDB68002B04D1054961
:100660004FF4897009F090FE00BF03B05DF804FB01
:1006700064050020941C01007405002000B583B0BF
:100680000190234B1B78002B04D1224940F23310F8
:1006900009F07AFE1E4B5B78DBB2002B12D0019B77
:1006A000002B03D0019B5B6800209847002008F0D6
:1006B00003FA174B5B680133154A5360002008F0BA
:1006C0000FFA17E0002008F0F7F9019B002B03D088
:1006D00001991148FFF758FF0D4B5B68002B01D1C2
:1006E000FFF70CFF0A4B5B680133094A5360002097
:1006F00008F0F6F9064B5B68002B04D1054940F27F
:100700004F1009F041FE00BF03B05DF804FB00BFCD
:1007100064050020941C01006C05002008B5124BF4
:100720001B78002B04D111494FF4AA7009F02CFE5C
:100730000D4B5B68002B04D10C4940F2551009F0B9
:1007400023FE002008F0B8F9074B5B68013B064A1E
:100750005360054B5B68002B01D1FFF7D5FE0020ED
:1007600008F0BEF900BF08BD64050020941C01001C
:1007700000B585B003468DF807309DF80730002B93
:1007800002D10C4B039301E00B4B03930398FFF74B
:1007900017FF0290029B002B06D0029B5B689DF81E
:1007A000072010469847F1E700BF00BF05B05DF88D
:1007B00004FB00BF6C0500207405002000B585B067
:1007C00003468DF807309DF80730002B05D11F4BED
:1007D00001225A700020FFF7CBFF9DF80730012B54
:1007E00005D11A4B01229A700120FFF7C1FF9DF835
:1007F0000730022B02D11648FFF740FF9DF8073063
:10080000032B1ED1FFF78AFF104B93F82030DBB289
:10081000042B0CBF012300238DF80F300B4B00225B
:1008200083F82020094BDB69002B0AD0074BDB69DA
:100830009DF80F20002A01D0032200E0022210467A
:10084000984700BF05B05DF804FB00BF64050020B9
:100850007805002000B585B00190019B002B0AD0DF
:10086000074B43F001030393019B9B010293039BFE
:100870000298984700E000BF05B05DF804FB00BF98
:10088000801D010000B583B00190019B1B681846D4
:1008900000F077F80346002B04D10B494FF4F670B3
:1008A00009F072FD019B1B681F2B02D84FF0A0437B
:1008B00006E0019B1B6803F01F02019B1A60034BBB
:1008C000184603B05DF804FB501D01000003005002
:1008D00000B585B0019001AB1846FFF7D3FF039038
:1008E000019B012202FA03F31946039800F035F840
:1008F00000BF05B05DF804FB00B585B0019001AB09
:100900001846FFF7BFFF0390019B012202FA03F391
:100910001946039800F02BF800BF05B05DF804FB02
:1009200000B585B0019001AB1846FFF7ABFF03900F
:10093000039800F00AF80246019B22FA03F303F041
:100940000103184605B05DF804FB82B00190019BDD
:10095000D3F81035184602B0704782B0019000916C
:10096000019B009AC3F8082500BF02B0704782B00F
:1009700001900091019B009AC3F80C2500BF02B0C2
:10098000704784B00190019B5B090293002303939D
:10099000029B002B03D0029B012B04D007E04FF0F9
:1009A000FF33039303E04FF6FF73039300BF019BF4
:1009B00003F01F030193039A019B22FA03F303F050
:1009C0000103002B14BF01230023DBB2184604B03F
:1009D000704700B585B001904FF0A042019B1B68A5
:1009E00003F5E07340F20C6142F823104FF0A0428F
:1009F000019B5B6803F5E07340F20C6142F8231041
:100A0000019B1B681846FFF763FF019B5B68184654
:100A1000FFF75EFF4FF0A042019B1B6803F5E073F8
:100A200040F20D6142F823104FF0A042019B5B6839
:100A300003F5E07340F20D6142F823100420FFF744
:100A400009FF002303931EE0019B5B681846FFF734
:100A500067FF0346002B03D0039B002B17D124E034
:100A6000019B1B681846FFF747FF0420FFF7F2FEC3
:100A7000019B1B681846FFF72BFF0420FFF7EAFED7
:100A8000039B01330393039B082BDDDD00E000BFD4
:100A9000019B5B681846FFF72FFF0420FFF7DAFE83
:100AA000019B5B681846FFF713FF05B05DF804FB78
:100AB00000B589B001900091009B0793019B1B78C2
:100AC0008DF80C30019B1B798DF81030019B5B7900
:100AD0008DF81130019B9B68DBB28DF81230019BC1
:100AE000DB68DBB28DF81330019B1B690593019B1A
:100AF0005B690693074A079B52F823300649079A19
:100B000051F8221003AA1046984700BF09B05DF8BB
:100B100004FB00BFD8050020E005002000B587B029
:100B20000390029101920093039B1B780593124955
:100B3000059B019A41F823201049059B009A41F832
:100B40002320029B5B7B002B02D00298FFF741FF22
:100B500000230493039B181D019B002B01D0084A1E
:100B600000E00022059B029903F076FF0490049BAD
:100B7000184607B05DF804FBD8050020E00500200A
:100B8000B10A000010B487B001900091019B009A57
:100B900053E8004F04EA020043E8000191F0000F1F
:100BA000F6D1059404900391059B184607B05DF8B3
:100BB000044B704782B003468DF807309DF907302B
:100BC000002B0CDB9DF8073003F01F0205499DF94F
:100BD00007305B09012000FA02F241F8232000BF30
:100BE00002B0704700E100E082B0034600918DF84A
:100BF00007309DF90730002B0ADB009BDAB20C4965
:100C00009DF907305201D2B20B4483F800230BE068
:100C1000009BDAB207499DF8073003F00F03043B4D
:100C20005201D2B20B441A7600BF02B0704700BF27
:100C300000E100E000ED00E082B00190019B1B0BA1
:100C40005BB2184602B0704700B583B003460A464F
:100C50008DF8073013468DF806309DF80630072BC7
:100C600003D908496B2009F08FFB9DF806209DF9F8
:100C7000073011461846FFF7B7FF00BF03B05DF815
:100C800004FB00BF881D010000B583B003468DF84A
:100C900007309DF907301846FFF78CFF00BF03B0FF
:100CA0005DF804FB82B003468DF807300F4A9DF9CA
:100CB0000730002B00DA1F335B115BB252F82320A0
:100CC0009DF90730594203F01F0301F01F0158BF7F
:100CD0004B425BB222FA03F303F00103002B14BF73
:100CE00001230023DBB2184602B0704700E100E0A8
:100CF00082B001904FF08042019BC2F8043300BFE4
:100D000002B0704782B001904FF08042019BC2F860
:100D1000083300BF02B0704782B003468DF8073039
:100D20009DF8073003F1804301221A6000BF02B032
:100D3000704784B00346ADF80630BDF8063003F1C5
:100D4000804300221A60BDF8063003F180431B681F
:100D50000393039B00BF04B0704782B00346ADF815
:100D60000630BDF8063003F180431B68002B14BF2A
:100D700001230023DBB2184602B0704782B0019015
:100D80004FF08042019BC2F8183500BF02B0704797
:100D900082B003468DF807304FF08043D3F80C340F
:100DA00003F001129DF8073043F480339A420CBFE0
:100DB00001230023DBB2184602B0704700B583B0B0
:100DC00006238DF807304FF08040FFF735FF0346CC
:100DD0001846FFF767FF034683F00103DBB2002BE1
:100DE00013D04FF08040FFF727FF03461A469DF8C7
:100DF000073019461046FFF727FF4FF08040FFF7F6
:100E00001BFF03461846FFF73FFF00BF03B05DF826
:100E100004FB000000B585B00190019B002B03D1BD
:100E20000E49A42009F0B0FA002303930C4B1B7960
:100E3000002B02D0852303930BE0094B00229A710B
:100E4000074A019B1360064B01221A71044B0022D2
:100E50005A71039B184605B05DF804FBC01D0100E4
:100E6000E805002008B5094B1B79002B03D1084980
:100E7000BD2009F089FAFFF7A1FF0020FFF77EFFF0
:100E8000044B01221A7000BF08BD00BFE805002016
:100E9000C01D0100F005002008B50A4B1B79002B8E
:100EA00003D10949EA2009F06FFA4FF48270FFF785
:100EB00040FF0220FFF71CFF0820FFF72DFF00BFB7
:100EC00008BD00BFE8050020C01D010008B50A4BA1
:100ED0001B79002B04D109494FF4817009F054FAB1
:100EE0004FF48070FFF725FF0120FFF701FF00207E
:100EF000FFF712FF00BF08BDE8050020C01D01007C
:100F000008B50F4B1B79002B04D10E494FF48570A7
:100F100009F03AFA0120FFF7F5FE4FF48070FFF771
:100F200008FF0420FFF7F8FE00BF0120FFF730FFA5
:100F30000346002BF9D1024B00225A7100BF08BDB5
:100F4000E8050020C01D010008B54FF48070FFF7D0
:100F500004FF0346002B14D04FF48070FFF7E9FE26
:100F60000120FFF7CFFE264B5B7983F00103DBB254
:100F7000002B06D0224B01225A71214B1B68002006
:100F800098474FF48270FFF7E8FE0346002B0AD023
:100F90004FF48270FFF7CDFE0220FFF7B3FE184B2F
:100FA0001B68012098474FF48870FFF7D6FE034670
:100FB000002B0AD04FF48870FFF7BBFE1020FFF71C
:100FC000A1FE0F4B1B68022098474FF48670FFF775
:100FD000C4FE0346002B10D00A4B00221A604FF4C7
:100FE0008670FFF7A6FE0820FFF78CFE044B002258
:100FF0009A71034B1B680320984700BF08BD00BFD0
:10100000E8050020340C004000B583B00346ADF87D
:101010000630BDF80630184600F026F803461B6877
:10102000012B0CBF01230023DBB2184603B05DF88F
:1010300004FB00B585B00346ADF80630BDF80630B8
:10104000184600F011F803461A4600231360BDF855
:101050000630184600F008F803461B680393039B0C
:1010600000BF05B05DF804FB82B00346ADF8063062
:10107000BDF8063003F1804303F5C043184602B0C3
:101080007047000082B00190034BD3F80423019B0A
:101090001340184602B070470060004082B00190D3
:1010A000054A019B03F5A27352F823301B0A03F093
:1010B0003F03184602B070470060004082B00190C4
:1010C000064A019B03F5A27352F823301B0C03F070
:1010D0000303DBB2184602B0704700BF0060004057
:1010E00000B583B00190019B1B68184600F0AAF878
:1010F0000346002B04D10B494FF4F67009F044F974
:10110000019B1B681F2B02D84FF0A04306E0019BF8
:101110001B6803F01F02019B1A60034B184603B0C3
:101120005DF804FBBC1E01000003005000B585B053
:1011300001900B468DF8033001AB1846FFF7D0FF46
:101140000390019A039B02F5E07253F82230019A52
:1011500023F44031039B02F5E07243F82210019A18
:10116000039B02F5E07253F822309DF8032012042D
:101170001146019A1943039B02F5E07243F82210CD
:1011800000BF05B05DF804FB00B585B0019001AB70
:101190001846FFF7A5FF0390019A039B02F5E07242
:1011A00053F822301B0C03F00303DBB2184605B0E2
:1011B0005DF804FB88B0039002910192164A05ABDA
:1011C00092E8030083E80300039B079319E0079B61
:1011D0009B0020336B4453F80C3CD3F82025019B33
:1011E0001A60079B9B0020336B4453F80C3C019A18
:1011F0001268C3F82025019B04330193079B013338
:101200000793039A029B1344079A9A42DFD300BFC5
:1012100000BF08B0704700BFEC1E010000B585B0EC
:10122000019001AB1846FFF75BFF0390019B012281
:1012300002FA03F31A46039BC3F8202500BF05B04A
:101240005DF804FB84B00190019B5B0902930023CD
:101250000393029B002B03D0029B012B04D007E0D9
:101260004FF0FF33039303E04FF6FF73039300BF88
:10127000019B03F01F030193039A019B22FA03F3DE
:1012800003F00103002B14BF01230023DBB2184637
:1012900004B0704784B001900091009B0393019BC0
:1012A000DB080293019B03F0070301930122019BDA
:1012B00002FA03F30399029A0A441278134018467B
:1012C00004B0704782B00190044A019B134430334C
:1012D00093F90030184602B0704700BFF4050020B3
:1012E00082B00190034A019B52F82330184602B0A5
:1012F000704700BFF405002084B00190074A019BAD
:101300001344603393F900308DF80F309DF80F309F
:1013100023F0C003184604B0704700BFF405002056
:1013200084B00190074A019B1344603393F9003065
:101330008DF80F309DF80F309B09DBB2184604B0D2
:10134000704700BFF405002000B585B00190019AF8
:1013500002210020FFF72EFF002303930BE0039BE5
:101360009B00019A13441B68002B01D0012306E067
:10137000039B01330393039B012BF0D900231846F1
:1013800005B05DF804FB000000B587B001900023B4
:1013900005935BE0344A059B1344603393F90030B6
:1013A000B3F1FF3F4ED00598FFF7A6FF04900199D7
:1013B0000498FFF76FFF0346002B44D00598FFF712
:1013C000AFFF03468DF80F300498FFF7DDFE0346AC
:1013D0008DF80E309DF80E30022B01D1032300E072
:1013E00002238DF80D309DF80D3019460498FFF753
:1013F0009DFE0498FFF712FF0498FFF763FF034672
:101400001846FFF76DFF0290029B002B1BD09DF842
:101410000F30032B0FD09DF80E30022B03D19DF817
:101420000F30012B07D09DF80E30032B0BD19DF808
:101430000F30022B07D19DF80F20029B1146049814
:10144000984700E000BF059B01330593059B032BE4
:10145000A0D90198FFF778FF0346002B97D100BF72
:1014600000BF07B05DF804FBF405002000B58BB0A9
:101470000023089301AB00221A605A604FF4807376
:10148000ADF81A30012309930023079321E0BDF83A
:101490001A301846FFF7B8FD0346002B0ED0099806
:1014A000FFF7F0FD0346002B08D0BDF81A301846B0
:1014B000FFF7BFFD089A099B13430893099B5B0044
:1014C0000993BDF81A300433ADF81A30079B013385
:1014D0000793079B072BDAD94FF4BE70FFF794FDF3
:1014E0000346002B0DD04FF4BE70FFF7A2FD089B02
:1014F00043F00043089301AB1A4602210020FFF796
:1015000059FE089BDBB2002B29D00123099300234D
:10151000079321E0099A089B1340002B16D00798E7
:10152000FFF7BCFD05900798FFF7C8FD03468DF84F
:1015300013300798FFF7D4FE0390039B002B05D0D0
:101540009DF81320039B114605989847099B5B0063
:101550000993079B01330793079B072BDAD9089B55
:10156000002B03DA01AB1846FFF70EFF00BF0BB0EC
:101570005DF804FB84B001900B46ADF80230BDF875
:101580000230019A134400221A60BDF80230019A19
:1015900013441B680393039B00BF04B0704782B0E1
:1015A00001900B46ADF80230BDF80230019A1344A9
:1015B0001B68002B14BF01230023DBB2184602B0C6
:1015C000704782B001900091019B009AC3F80823F4
:1015D00000BF02B0704782B00190019B0022C3F8A7
:1015E000002500BF02B0704700B583B04FF48A7188
:1015F0007648FFF7D4FF0346002B1CD04FF48A71C6
:101600007248FFF7B7FF724A537943F008035371EA
:101610006F4B5B7903F00203DBB2002B0BD06C4BFA
:101620005B7903F01003DBB2002B04D0684A5379D6
:1016300043F0200353714FF482716448FFF7AFFF0A
:101640000346002B1CD04FF482716048FFF792FFD5
:101650005F4A537943F0040353715D4B5B7903F0A8
:101660000103DBB2002B0BD0594B5B7903F0100365
:10167000DBB2002B04D0564A537943F02003537158
:101680004FF484715148FFF78AFF0346002B19D0AD
:101690004FF484714D48FFF76DFF04214B48FFF76D
:1016A00090FF4A48FFF797FF494B1B6800214948C4
:1016B0009847474B1B68002147489847444B0122F5
:1016C0001A717EE0424B5B7903F00203DBB2002B20
:1016D00014D03F4B5B7903F00103DBB2002B0DD03C
:1016E0003B4B5B7903F00803DBB2002B06D0384B91
:1016F0005B7903F00403DBB2002B21D1344B5B791F
:10170000C3F30003DBB283F00103DBB2002B06D08E
:101710002F4B5B7903F00803DBB2002B10D12C4B6D
:101720005B79C3F34003DBB283F00103DBB2002B30
:1017300047D0274B5B7903F00403DBB2002B40D08A
:10174000234A53796FF3C3035371214A53796FF3DB
:10175000820353711E4B5B7903F02003DBB2002B35
:101760000FD01B4A53796FF345135371184A5379BD
:1017700043F010035371164B1B680121002098475A
:101780001FE0134A6B46103292E8030083E803001F
:101790000F4B0F4A1033083292E8030083E803002E
:1017A0000B4B00229A600A4B0022DA60084A5379F8
:1017B00043F010035371064B1B686A460121104623
:1017C000984700BF03B05DF804FB00BF0050024023
:1017D00060060020700600206806002082B00346E4
:1017E000ADF80630BDF8063003F1804303F5E83369
:1017F0001B68002B14BF01230023DBB2184602B084
:10180000704784B00346ADF80630BDF8063003F1EA
:10181000804303F5E83300221A60BDF8063003F177
:10182000804303F5E8331B680393039B00BF04B0B8
:1018300070470000024B0022C3F8002500BF70472C
:1018400000D0014000B58FB04FF48070FFF7C6FFA5
:101850000346002B68D04FF48070FFF7D2FF6C4B2B
:101860009B7C8DF836306A4B9B7C03F00103002B88
:101870000CBF01230023DBB28DF835309DF83530E5
:10188000634A9B0013445B68002B04D1604B5B7C74
:10189000DBB2022B2BD100238DF830305C4B0022C1
:1018A000DA745B4B5B7CDBB2022B05D100230B931C
:1018B000574B01225A7411E09DF83630544A9B0070
:1018C00013445B680B939DF83630514A9B001344D8
:1018D00000225A604E4A9DF83530937401238DF8EA
:1018E00028304B4B1B680AAA1046984713E0484B18
:1018F000DB7C002B0FD100238DF81C3000230893D4
:1019000001238DF82430424B0122DA74404B1B68CE
:1019100007AA104698473E4B5B7CDBB2022B5DD199
:101920003B4B01225A7459E04FF48270FFF756FF87
:101930000346002B52D04FF48270FFF762FFFFF78F
:1019400079FF334B00225A7400238DF8183000239E
:101950008DF810302E4B9B7C2D4A9B0013445B6806
:10196000002B12D02A4B9B7C294A9B0013445B68B6
:101970000593274B9B7C264A9B00134400225A6008
:10198000234B1B6804AA10469847214B9B7C03F00D
:101990000103002B0CBF01230023DBB28DF837308D
:1019A0009DF837301A4A9B0013445B68002B12D015
:1019B0009DF83730164A9B0013445B6805939DF8E9
:1019C0003730134A9B00134400225A60104B1B68A7
:1019D00004AA104698470E4B00229A740C4B1B7DAC
:1019E000DBB2002B0FD001238DF8043000230293CB
:1019F00000238DF80C30064B00221A75044B1B682F
:101A000001AA1046984700BF0FB05DF804FB00BF65
:101A10007806002084B00346ADF80630BDF80630E5
:101A200003F1804300221A60BDF8063003F18043C1
:101A30001B680393039B00BF04B0704782B003464A
:101A4000ADF80630BDF8063003F180431B68002B6B
:101A500014BF01230023DBB2184602B0704700B563
:101A600085B00346ADF80630BDF806301846FFF7DE
:101A7000E5FF03468DF80F309DF80F30002B04D0A2
:101A8000BDF806301846FFF7C5FF9DF80F30184621
:101A900005B05DF804FB4FF08043D3F804331846DB
:101AA0007047000000B583B0FFF7F5FF0190019B80
:101AB00003F00403002B12D04FF48470FFF7CFFF24
:101AC0000346002B0BD0464B1B68002B04D1454925
:101AD0004FF48B7008F058FC414B1B689847019BF2
:101AE00003F02003002B13D04FF48A70FFF7B7FFE9
:101AF0000346002B0CD03C4B1B68002B04D139490A
:101B000040F21F1008F040FC374B1B68002098473C
:101B1000019B03F04003002B13D04FF48C70FFF7B0
:101B20009EFF0346002B0CD02F4B1B68002B04D1CB
:101B30002C494FF4937008F027FC2B4B1B680120B5
:101B40009847019B03F08003002B13D04FF48E7055
:101B5000FFF785FF0346002B0CD0244B1B68002B9E
:101B600004D1204940F22F1008F00EFC1F4B1B68D7
:101B700000209847019B03F48073002B13D04FF48F
:101B80009070FFF76CFF0346002B0CD0174B1B68BF
:101B9000002B04D113494FF49B7008F0F5FB134B55
:101BA0001B6801209847019B03F40073002B13D09E
:101BB0004FF49270FFF753FF0346002B0CD00B4BF2
:101BC0001B68002B04D1074940F23D1008F0DCFBF4
:101BD000064B1B680220984700BF03B05DF804FB6A
:101BE0009006002084210100940600209806002021
:101BF00008B5FFF757FFFFF7A7F900BF08BD0000C2
:101C000082B003468DF807309DF80730044A012161
:101C100001FA03F3C2F8043500BF02B0704700BFF9
:101C200000F0014082B003468DF807309DF8073080
:101C3000044A012101FA03F3C2F8083500BF02B0DB
:101C4000704700BF00F0014084B00346029101924A
:101C50008DF80F3008499DF80F30A233029A41F8F1
:101C60003320054A9DF80F30A233DB001344019A5C
:101C70005A6000BF04B0704700F0014082B00346D4
:101C800000918DF8073005499DF8073003F5117371
:101C9000009A41F8232000BF02B0704700F00140D5
:101CA00082B001900B468DF80330094A9DF803304D
:101CB00003F5007352F8231005489DF80330019A8C
:101CC0000A4303F5007340F8232000BF02B07047B9
:101CD00000F0014082B003468DF80730044A9DF8B9
:101CE0000730012142F8331000BF02B0704700BF37
:101CF00000F0014082B003468DF80730044A9DF899
:101D00000730DB00134401225A6000BF02B0704765
:101D100000F0014082B003468DF807309DF807308F
:101D2000012202FA03F3184602B0704782B003465C
:101D30008DF807309DF80730012202FA03F31846A8
:101D400002B0704700B583B003468DF807309DF8A8
:101D500007301846FFF7DEFF0346C3F31303002BDB
:101D600014BF01230023DBB2184603B05DF804FB67
:101D700082B001900123184602B0704700B583B0CD
:101D800003468DF807309DF807301846FFF7C2FF6D
:101D900003461846FFF7ECFF0346184603B05DF80C
:101DA00004FB00B583B003468DF807309DF807307B
:101DB0001846FFF7BBFF034603F03F03002B14BF99
:101DC00001230023DBB2184603B05DF804FB0000DA
:101DD00000B583B003468DF807309DF807301846EC
:101DE000FFF798FF0246064B1B681340002B14BFF9
:101DF00001230023DBB2184603B05DF804FB00BFEB
:101E00009C06002000B583B003468DF807309DF88E
:101E100007301846FFF77EFF0246044B1B6813434A
:101E2000024A136000BF03B05DF804FB9C0600206B
:101E300000B583B003468DF807309DF8073018468B
:101E4000FFF768FF0346DA43044B1B681340034A5D
:101E5000136000BF03B05DF804FB00BF9C060020C8
:101E600010B582B003468DF80730094B1B781C462D
:101E70009DF807301846FFF759FF03462340002B13
:101E800014BF01230023DBB2184602B010BD00BF0F
:101E9000A006002000B583B003468DF807309DF8FA
:101EA00007301846FFF742FF0346DAB2044B1B78AF
:101EB0001343DAB2024B1A7000BF03B05DF804FBA3
:101EC000A006002000B583B003468DF807309DF8CA
:101ED00007301846FFF72AFF0346DB43DAB2054B0B
:101EE0001B781340DAB2034B1A7000BF03B05DF8E1
:101EF00004FB00BFA006002000B587B001900023BE
:101F000005930023049304230593244B0493002397
:101F10008DF80F3037E0002006F0CEFD9DF80F3031
:101F20001846FFF7F7FE0246049B1340002B15D01E
:101F30009DF80F301846FFF74BFF034683F001036F
:101F4000DBB2002B0AD09DF80F301846FFF75AFF7E
:101F5000019B9DF80F201A7000230593002006F0C6
:101F6000BFFD059B002B12D09DF80F301846FFF7E0
:101F7000D1FE0346DB43049A134004939DF80F30CF
:101F800001338DF80F30049B002BC4D100E000BF5B
:101F9000059B184607B05DF804FB00BFFFFF0F006C
:101FA00000B585B003468DF80730002303939DF8F4
:101FB00007301846FFF7C6FE034683F00103DBB285
:101FC000002B02D0072303930FE09DF8073018463B
:101FD000FFF728FE002006F06FFD9DF80730184639
:101FE000FFF726FF002006F07BFD039B184605B097
:101FF0005DF804FB00B587B00346029101928DF8AD
:102000000F30029B002B02D0019B002B01D10E232D
:1020100025E0002305939DF80F301846FFF792FE48
:10202000034683F00103DBB2002B02D007230593A4
:1020300014E09DF80F301846FFF7CAFE034683F000
:102040000103DBB2002B02D00823059306E09DF8C4
:102050000F30019A02991846FFF7F6FD059B1846C6
:1020600007B05DF804FB00B585B0034600918DF81C
:102070000730002303939DF807301846FFF7A8FEAA
:10208000034683F00103DBB2002B02D00823039345
:1020900005E09DF8073000991846FFF7EFFD039B18
:1020A000184605B05DF804FB00B585B003468DF811
:1020B0000730002303939DF807301846FFF75EFEB4
:1020C000034683F00103DBB2002B02D00723039306
:1020D0001AE09DF807301846FFF734FE0346002B40
:1020E0000DD09DF807301846FFF772FE034683F0C7
:1020F0000103DBB2002B02D00823039304E09DF818
:1021000007301846FFF77CFD039B184605B05DF8C5
:1021100004FB00B585B003468DF807300023039318
:102120009DF807301846FFF729FE034683F00103A8
:10213000DBB2002B02D0072303931CE09DF807308D
:102140001846FFF7FFFD0346002B0DD09DF8073022
:102150001846FFF73DFE034683F00103DBB2002B78
:1021600002D00823039306E09DF807301846FFF7D6
:1021700059FD00230393039B184605B05DF804FB4B
:1021800000B587B0019000230593042303933F23F8
:10219000059300238DF8133037E0002006F08CFC07
:1021A0009DF813301846FFF7C1FD0246059B13400A
:1021B000002B15D09DF813301846FFF751FE03464B
:1021C00083F00103DBB2002B0AD09DF813301846D0
:1021D000FFF760FE019B9DF813201A700023039304
:1021E000002006F07DFC039B002B12D09DF81330DD
:1021F0001846FFF79BFD0346DB43059A1340059302
:102200009DF8133001338DF81330059B002BC4D19A
:1022100000E000BF039B184607B05DF804FB00B563
:1022200085B003468DF80730002303939DF80730EF
:102230001846FFF7B6FD034683F00103DBB2002B1F
:1022400001D0072303939DF807301846FFF708FED7
:10225000034683F00103DBB2002B02D00823039373
:102260000FE09DF807301846FFF744FD002006F008
:1022700023FC9DF807301846FFF724FE002006F0E7
:102280002FFC039B184605B05DF804FB00B585B034
:1022900003468DF80730002303939DF80730184656
:1022A000FFF77FFD034683F00103DBB2002B02D072
:1022B0000723039312E09DF807301846FFF7D0FD7F
:1022C000034683F00103DBB2002B02D00823039303
:1022D00004E09DF807301846FFF7FCFC039B184606
:1022E00005B05DF804FB00B585B001900B468DF894
:1022F0000330002303939DF803301846FFF751FD88
:10230000034683F00103DBB2002B02D007230393C3
:1023100025E09DF803301846FFF7A2FD034683F041
:102320000103DBB2002B02D00823039317E00198CE
:10233000FFF71EFD034683F00103DBB2002B02D042
:10234000072303930BE0002006F0B6FB9DF8033053
:1023500019460198FFF7A4FC002006F0C1FB039B7F
:10236000184605B05DF804FB08B5064B1B68002B4A
:1023700003D10549452008F007F8024B1B68984730
:1023800000BF08BDA4060020D821010008B5064BF7
:102390001B68002B03D10549482007F0F5FF024BCD
:1023A0001B68984700BF08BDAC060020D82101007B
:1023B00008B5064B1B68002B03D105494B2007F0DD
:1023C000E3FF024B1B68984700BF08BDB40600201E
:1023D000D821010008B5064B1B68002B03D1054925
:1023E0004E2007F0D1FF024B1B68984700BF08BD85
:1023F000BC060020D821010008B5064B1B68002B45
:1024000003D10549512007F0BFFF024B1B689847D5
:1024100000BF08BDC4060020D821010082B0019091
:10242000019B104A934201D10F4B18E0019BB3F17D
:10243000402F01D10D4B12E0019B0D4A934201D177
:102440000C4B0CE0019B0C4A934201D10B4B06E074
:10245000019B0B4A934201D10A4B00E0002318462E
:1024600002B0704700300040A4060020AC060020F7
:1024700000300240B406002000300140BC060020BD
:1024800000200040C406002000B587B001900091F4
:10249000019B002B03D11849772007F075FF0198A5
:1024A000FFF7BCFF0590059B002B1ED000238DF885
:1024B0001330002006F000FB059B1B79002B03D096
:1024C00001238DF8133005E0059B009A1A60059BE7
:1024D00001221A71002006F003FB9DF81330002B37
:1024E00003D011230393039B02E000230393039B78
:1024F000184607B05DF804FBD821010084B00190B4
:102500000B46ADF80230BDF80230019A13440022A8
:102510001A60BDF80230019A13441B680393039BB1
:1025200000BF04B0704782B001900B46ADF8023096
:10253000BDF80230019A13441B68002B14BF01231D
:102540000023DBB2184602B0704700B583B001909B
:1025500000914FF488710198FFF7E5FF0346002BC7
:1025600012D04FF488710198FFF7C8FF009B5B7988
:1025700003F00403002B07D0009B1B68002B03D043
:10258000009B1B68012098474FF48A710198FFF760
:10259000CAFF0346002B12D04FF48A710198FFF74F
:1025A000ADFF009B5B7903F00803002B07D0009B75
:1025B0001B68002B03D0009B1B68022098474FF438
:1025C0008E710198FFF7AFFF0346002B12D04FF436
:1025D0008E710198FFF792FF009B5B7903F0100367
:1025E000002B07D1009B1B68002B03D0009B1B68AE
:1025F000002098474FF482710198FFF794FF03463B
:10260000002B0FD04FF482710198FFF777FF009BEA
:1026100001221A71009B1B68002B03D0009B1B68D2
:102620000320984700BF03B05DF804FB08B50349D9
:102630000348FFF78AFF00BF08BD00BFCC0600209B
:1026400000C0014008B503490348FFF77EFF00BF03
:1026500008BD00BFD40600200010024008B50349A1
:102660000348FFF772FF00BF08BD00BFDC06002073
:102670000020024008B503490348FFF766FF00BF8A
:1026800008BD00BFE406002000D0024082B003462F
:102690008DF80730044BD3F804239DF8073013401E
:1026A000184602B0704700BF0020014084B00346C6
:1026B000ADF80630BDF8063003F1804303F59033E2
:1026C00000221A60BDF8063003F1804303F5903311
:1026D0001B680393039B00BF04B0704782B003469E
:1026E000ADF80630BDF8063003F1804303F59033B2
:1026F0001B68184602B07047024BD3F80C351846D9
:10270000704700BF00200140024BD3F8183518462F
:10271000704700BF00200140024BD3F848351846EF
:10272000704700BF0020014000B583B04FF48070B7
:10273000FFF7D4FF0346002B19D00120FFF7A6FFB7
:102740000346002B13D04FF48070FFF7AFFF4FF418
:102750008073ADF80030FFF7CFFF03465BB28DF812
:102760000230264B1B686A4692E8030098474FF4F4
:102770008270FFF7B3FF0346002B1FD00220FFF744
:1027800085FF0346002B19D04FF48270FFF78EFFB0
:102790004FF48273ADF80030FFF7B6FF03461BB26B
:1027A000ADF80230FFF7B8FF03469BB2ADF8043036
:1027B000124B1B686A4692E8030098474FF48470F6
:1027C000FFF78CFF0346002B13D00420FFF75EFFBA
:1027D0000346002B0DD04FF48470FFF767FF4FF4D2
:1027E0008473ADF80030054B1B686A4692E803001D
:1027F000984700BF03B05DF804FB00BFEC06002063
:1028000082B003468DF807309DF90730002B0CDBB2
:102810009DF8073003F01F0205499DF907305B0959
:10282000012000FA02F241F8232000BF02B07047F5
:1028300000E100E082B003468DF807309DF90730D3
:10284000002B13DB9DF8073003F01F0209499DF9A7
:1028500007305B09012000FA02F2203341F82320FF
:10286000BFF34F8F00BFBFF36F8F00BF00BF02B039
:10287000704700BF00E100E082B0034600918DF890
:1028800007309DF90730002B0ADB009BDAB20C49B8
:102890009DF907305201D2B20B4483F800230BE0BC
:1028A000009BDAB207499DF8073003F00F03043BA1
:1028B0005201D2B20B441A7600BF02B0704700BF7B
:1028C00000E100E000ED00E082B00190019B03F028
:1028D0006043B3F1005F0CBF01230023DBB2184655
:1028E00002B0704782B00190019B03F00303002BFC
:1028F0000CBF01230023DBB2184602B07047000072
:1029000000B583B003460A468DF8073013468DF8AC
:1029100006309DF80630072B03D908496B2007F0D5
:1029200033FD9DF806209DF9073011461846FFF744
:10293000A3FF00BF03B05DF804FB00BFB02301009C
:1029400000B583B003468DF807309DF9073018466F
:10295000FFF756FF00BF03B05DF804FB00B583B07E
:1029600003468DF807309DF907301846FFF762FFE0
:1029700000BF03B05DF804FB00B585B00190019B7A
:10298000002B0AD0074B43F001030393019B9B01EB
:102990000293039B0298984700E000BF05B05DF8E2
:1029A00004FB00BF6024010082B001900B468DF84B
:1029B00003309DF80330019A134401221A6000BFCE
:1029C00002B0704782B001900B46ADF80230BDF8FE
:1029D0000230019A134400221A6000BF02B070470F
:1029E00082B001900B46ADF80230BDF80230019A7A
:1029F00013441B68002B14BF01230023DBB21846CD
:102A000002B0704782B001900091019B009AC3F818
:102A1000042300BF02B0704782B001900091019B77
:102A2000009AC3F8082300BF02B0704782B001903B
:102A3000019B0122C3F8002500BF02B070470000CF
:102A400082B00190044B01221A60019B0022C3F85E
:102A5000002500BF02B070475490024082B0019040
:102A60000091009B1B78FF2B03D0009B1B781A461C
:102A700001E04FF0FF32019BC3F82425009B5B78F7
:102A8000FF2B03D0009B5B781A4601E04FF0FF322A
:102A9000019BC3F82825009B9B78FF2B03D0009B4C
:102AA0009B781A4601E04FF0FF32019BC3F83025B6
:102AB000009BDB78FF2B03D0009BDB781A4601E0FC
:102AC0004FF0FF32019BC3F83425009B1B79FF2B8D
:102AD00003D0009B1B791A4601E04FF0FF32019BA7
:102AE000C3F83825009B5B79FF2B03D0009B5B79F3
:102AF0001A4601E04FF0FF32019BC3F83C2500BFAE
:102B000002B0704782B001900091019BD3F8243548
:102B1000DAB2009B1A70019BD3F82835DAB2009B19
:102B20005A70019BD3F83035DAB2009B9A70019B42
:102B3000D3F83435DAB2009BDA70019BD3F838351C
:102B4000DAB2009B1A71019BD3F83C35DAB2009BD4
:102B50005A7100BF02B0704782B001900091019B92
:102B6000009AC3F8402500BF02B0704784B00190BE
:102B70000091009B1B780393009B5B78DB00039A1A
:102B800013430393009B9B789B01039A1343039386
:102B9000009BDB78002B01D0802300E00023039A08
:102BA00013430393019B039AC3F8442500BF04B069
:102BB000704784B001900091019BD3F8003623F058
:102BC0007F4323F0FF030393009B1B781A46039B6C
:102BD00013430393009B5B78002B02D04FF080736C
:102BE00000E00023039A13430393009B9B785B064A
:102BF000039A13430393009BDB781B07039A134349
:102C00000393019B039AC3F8002600BF04B07047EA
:102C100084B00390029101920093039B009AC3F841
:102C20001025029A039BC3F81425039B019AC3F84D
:102C3000182500BF04B0704784B003900291019240
:102C40000093039B009AC3F80425029A039BC3F8E0
:102C50000825039B019AC3F80C2500BF04B07047F8
:102C600084B00390029113468DF80730039B029ABB
:102C7000C3F81C259DF80720039BC3F8202500BF3F
:102C800004B0704786B003900B4601928DF80B306C
:102C900000230593019B04939DF80B30013B082B07
:102CA00056D801A252F823F0512D00003B2D000010
:102CB0002D2D00001F2D0000112D0000F72C00000D
:102CC000E92C0000DB2C0000CD2C0000049B073316
:102CD0001B781B06059A13430593049B06331B7848
:102CE0001B04059A13430593049B05331B781B02B1
:102CF000059A13430593049B04331B781A46059BDE
:102D000013430593039B059AC3F83C2600230593C0
:102D1000049B03331B781B06059A13430593049BFE
:102D200002331B781B04059A13430593049B01335C
:102D30001B781B02059A13430593049B1B781A46C4
:102D4000059B13430593039B059AC3F8382600E0BF
:102D500000BF00BF06B0704788B003900B460192D9
:102D60008DF80B30019B0793039BD3F83C360693F9
:102D7000039BD3F8383605939DF80B30013B082BA5
:102D800042D801A252F823F0092E0000FF2D0000C6
:102D9000F32D0000E72D0000DB2D0000D12D0000F9
:102DA000C52D0000B92D0000AD2D0000069B1A0EA8
:102DB000079B0733D2B21A70069B1A0C079B063387
:102DC000D2B21A70069B1A0A079B0533D2B21A7048
:102DD000079B0433069AD2B21A70059B1A0E079B02
:102DE0000333D2B21A70059B1A0C079B0233D2B27E
:102DF0001A70059B1A0A079B0133D2B21A70059B01
:102E0000DAB2079B1A7000E000BF00BF08B070473D
:102E100082B001900091009B1B781A46009B5B7862
:102E20001B021A43009B9B781B031A43009BDB7811
:102E30005B031A43009B1B799B031A43009B5B793E
:102E4000DB031A43019BC3F8342600BF02B070476E
:102E500082B00190019BD3F8343603F44033B3F5CC
:102E6000803F0CBF01230023DBB2184602B070473D
:102E700084B001900B468DF8033013468DF8023074
:102E80009DF803301B0243F4803303939DF8023016
:102E9000002B02D04FF4003300E00023039A1343C9
:102EA0000393019B039AC3F8342600BF04B0704714
:102EB00000B583B00190019B1B68184600F060F8D4
:102EC0000346002B04D10B494FF4F67007F05CFA6F
:102ED000019B1B681F2B02D84FF0A04306E0019B0B
:102EE0001B6803F01F02019B1A60034B184603B0D6
:102EF0005DF804FBE02301000003005000B585B03D
:102F00000190084611461A4603468DF803300B46D9
:102F10008DF8023013468DF8013001AB1846FFF7EB
:102F2000C7FF03909DF803209DF802305B001A4311
:102F30009DF801309B001A439DF818301B0242EAAD
:102F400003019DF81C301B04019A1943039B02F5F1
:102F5000E07243F8221000BF05B05DF804FB00B535
:102F600085B00390002301930023009300230122E6
:102F700000210398FFF7C2FF00BF05B05DF804FB16
:102F800084B00190019B5B09029300230393029B91
:102F9000002B03D0029B012B04D007E04FF0FF333E
:102FA000039303E04FF6FF73039300BF019B03F00D
:102FB0001F030193039A019B22FA03F303F0010319
:102FC000002B14BF01230023DBB2184604B0704766
:102FD00000B583B003468DF80730194B5B79DBB23F
:102FE000002B01D0112326E04FF480711548FFF724
:102FF000E9FC134B1B68002B06D0114B01225A71C0
:1030000001211048FFF7FEFC9DF8073019460D48D6
:10301000FFF7CAFC0A4B1B68002B0BD100BF4FF413
:1030200080710848FFF7DCFC034683F00103DBB244
:10303000002BF4D10023184603B05DF804FB00BF59
:10304000F00600200090024000B585B00390039B7D
:103050001B78FF2B0BD0039B5B78FF2B07D0039BC8
:103060009B78FF2B03D0039BDB78FF2B01D1002340
:1030700054E0039B1B78184600230193032300931D
:10308000002301220021FFF739FF039B5B781846DC
:103090000023019303230093002301220021FFF763
:1030A0002DFF039B9B781846002301930323009375
:1030B000002301220021FFF721FF039BDB78184644
:1030C0000023019303230093002301220021FFF733
:1030D00015FF039B1B79FF2B0BD0039B1B79184615
:1030E0000023019303230093002301220021FFF713
:1030F00005FF039B5B79FF2B0BD0039B5B79184685
:103100000023019303230093002301220021FFF7F2
:10311000F5FE03990348FFF7A1FC0123184605B00B
:103120005DF804FB0090024000B583B06B46194681
:103130001648FFF7E7FC9DF800301846FFF70FFF31
:103140009DF801301846FFF70AFF9DF80230184637
:10315000FFF705FF9DF803301846FFF700FF9DF8C5
:103160000430FF2B04D09DF804301846FFF7F7FE1B
:103170009DF80530FF2B04D09DF805301846FFF769
:10318000EEFE00BF03B05DF804FB00BF00900240FC
:1031900000B583B000238DF80730642300934FF40B
:1031A00080711048FFF71CFC0346002B03D001235D
:1031B0008DF8073008E00A20FFF7DEFB009B013B9B
:1031C0000093009B002BEAD19DF8073083F00103A8
:1031D000DBB2002B01D00D2300E00023184603B022
:1031E0005DF804FB0090024000B585B003900291A9
:1031F0000192039B002B03D12B49B02007F0C4F8A8
:103200002A4B1B79002B01D0082349E0039B043390
:103210001846FFF719FF034683F00103DBB2002BCA
:1032200001D007233CE0039B1B6819462048FFF7A9
:1032300093FC039B0A3319461D48FFF797FC039B39
:103240000E3319461A48FFF7B4FC184B00225A7186
:10325000164A029B1360154A019B93600121144892
:10326000FFF7DAFB029B002B08D0039B9B7C1946DF
:103270002920FFF745FB2920FFF762FB0B4B0122BA
:103280001A710B48FFF7D2FB4FF480710848FFF723
:1032900099FB00210648FFF787FBFFF779FF0346FC
:1032A000184605B05DF804FB10240100F00600206C
:1032B0000090024000B585B0039002910192244B2A
:1032C0001B79002B03D12349DD2007F05DF8204B4B
:1032D0005B79DBB2002B01D0112335E04FF4807114
:1032E0001D48FFF76FFB029B002B06D0039B5B780A
:1032F000029A19461848FFF7C5FC01211648FFF746
:103300008BFB03991448FFF783FDFFF741FF03464A
:103310000D2B09D1039B1B79002B03D10D49F620FE
:1033200007F032F80D230FE04FF480710A48FFF7E1
:1033300049FB019B002B06D0039B5B78019A194641
:103340000548FFF709FD0023184605B05DF804FBAA
:10335000F0060020102401000090024008B5174B31
:103360001B79002B04D116494FF4BE7007F00CF8FE
:103370001448FFF76DFD0346002B04D00122012104
:103380001048FFF775FD2920FFF7E8FA01210D48E5
:10339000FFF742FB10210B48FFF706FB0948FFF738
:1033A0004FFB4FF480710748FFF70CFBFFF7BCFEA3
:1033B000024B00221A7100BF08BD00BFF0060020BA
:1033C000102401000090024000B585B003900291E6
:1033D0000192194B1B79002B04D118494FF4CB7083
:1033E00006F0D2FF039B002B04D1144940F2971042
:1033F00006F0CAFF0398FFF767FA034683F001035C
:10340000DBB2002B08D10398FFF76CFA034683F078
:103410000103DBB2002B01D0102309E0019B029ACB
:1034200003990748FFF7F4FB0820FFF7D1FD034697
:10343000184605B05DF804FBF006002010240100DA
:103440000090024000B585B0039002910192194BA3
:103450001B79002B04D118494FF4D37006F094FF68
:10346000039B002B04D1144940F2A71006F08CFFF7
:103470000398FFF729FA034683F00103DBB2002B20
:1034800008D10398FFF72EFA034683F00103DBB25D
:10349000002B01D0102309E0019B029A03990748F1
:1034A000FFF7CAFB0420FFF793FD0346184605B05B
:1034B0005DF804FBF006002010240100009002409B
:1034C00000B583B0034600918DF80730114B1B798E
:1034D000002B04D1104940F2B51006F055FF009BB7
:1034E0001846FFF7FFF9034683F00103DBB2002B18
:1034F00001D010230AE09DF807301A4600990748CA
:10350000FFF7AEFB0C20FFF763FD0346184603B040
:103510005DF804FBF006002010240100009002403A
:1035200008B54FF480710B48FFF75AFA0346002B99
:103530000ED0094B00225A714FF480710548FFF7F5
:1035400041FA054B1B68044A9268114600209847CF
:1035500000BF08BD00900240F006002084B0034682
:10356000ADF80630BDF8063003F1804303F5504353
:1035700000221A60BDF8063003F1804303F5504382
:103580001B680393039B00BF04B07047024BD3F842
:103590000835DBB21846704700D0004000B583B054
:1035A0004FF48070FFF7DAFFFFF7F0FF03468DF866
:1035B0000730054B1B689DF807201046984700BF51
:1035C00003B05DF804FB00BFFC06002082B0034698
:1035D0008DF807309DF90730002B0CDB9DF8073084
:1035E00003F01F0205499DF907305B09012000FA2D
:1035F00002F241F8232000BF02B0704700E100E072
:1036000082B0034600918DF807309DF90730002BFA
:103610000ADB009BDAB20C499DF907305201D2B2A5
:103620000B4483F800230BE0009BDAB207499DF8B6
:10363000073003F00F03043B5201D2B20B441A7659
:1036400000BF02B0704700BF00E100E000ED00E005
:1036500000B583B003460A468DF8073013468DF84F
:1036600006309DF80630072B03D908496B2006F079
:103670008BFE9DF806209DF9073011461846FFF78E
:10368000BFFF00BF03B05DF804FB00BFE4240100EE
:1036900000B583B003468DF807309DF90730184612
:1036A000FFF794FF00BF03B05DF804FB84B0039004
:1036B00002910192039B029A02F5A872019943F8C4
:1036C000221000BF04B0704782B001900091019BAE
:1036D000009AC3F8042300BF02B0704782B0019083
:1036E0000091019B009AC3F8082300BF02B0704705
:1036F00082B001900091019BD3F80423009B1340FA
:10370000184602B0704782B001900B46ADF8023007
:10371000BDF80230019A13441B68184602B0704786
:1037200084B001900B46ADF80230BDF80230019A2A
:10373000134400221A60BDF80230019A13441B683A
:103740000393039B00BF04B0704782B00190019BBC
:10375000D3F80435184602B07047000000B583B0B6
:1037600001900091009BB3F5805F04D306494FF4AC
:10377000BE7006F009FE019B009AC3F8082500BF41
:1037800003B05DF804FB00BF1425010082B0019076
:103790000091019B009AC3F8442300BF02B0704718
:1037A00082B001900091019B009AC3F8482300BFAA
:1037B00002B0704700B587B0039002910192029B5E
:1037C000002B03D13149512006F0DEFD019B002B77
:1037D00003D12E49522006F0D7FD039B5B79194691
:1037E0002B4A019B42F82130039B5B791946294AF9
:1037F0000B465B000B4413441B78002B03D00823BB
:103800000593059B3DE0039B93F90420029B9B7865
:1038100019461046FFF71CFF039B93F90430184626
:10382000FFF736FF039B1A68029B1B881946104658
:10383000FFF794FF039B5B791946029B1879154AA1
:103840000B465B000B441344013302461A70039B82
:103850005B791946029BD8780E4A0B465B000B44F5
:103860001344023302461A70039B5B791946094AD6
:103870000B465B000B44134401221A70002305938E
:10388000059B184607B05DF804FB00BF4825010002
:10389000000700200807002000B58BB003900291BC
:1038A00001928DF80330039B5B791946484A0B4619
:1038B0005B000B4413441B78002B03D14549B42013
:1038C00006F062FD039B9B791A46029B934203D349
:1038D0004049B52006F058FD4FF48032029B02FAB1
:1038E00003F30693029B9BB250339BB29B00ADF84F
:1038F0001630039B1B6806991846FFF751FF039B80
:103900001B6806991846FFF7E9FE019B23F07F43E9
:103910000193039B5B7919462D4A0B465B000B44D0
:10392000134401331B78002B2CD0039B1B68019A96
:1039300002991846FFF7BAFE039B1B681846FFF76B
:1039400004FF0990099A019BD31A0893099A019BD5
:103950009A4205D2089B03F1FF1303F57F430893B6
:10396000039B5B7919461A4A0B465B000B441344D0
:1039700002331B781A46089B93420ADA0D230793F9
:10398000079B21E0039B1B68019A02991846FFF7E9
:103990008DFE9DF80330002B0DD0039B1B68BDF8F6
:1039A000162011461846FFF7BBFE039B1B680699BD
:1039B0001846FFF789FE039B1B6806991846FFF718
:1039C000E5FE00230793079B18460BB05DF804FB48
:1039D000080700204825010000B589B00390029136
:1039E00001924FF4803306934FF4A073ADF81E306C
:1039F0000023059330E006990398FFF779FE03460C
:103A0000002B1ED0BDF81E3019460398FFF77BFE31
:103A10000346002B15D006990398FFF7C1FE0699BF
:103A20000398FFF75BFEBDF81E3019460398FFF7B9
:103A300077FE2D4A029B52F82330059AD2B21046E7
:103A40009847069B5B000693BDF81E300433ADF823
:103A50001E30059B01330593059A019B9A42CAD3F8
:103A60004FF48073ADF81E3001210398FFF740FE3C
:103A70000346002B14D0BDF81E3019460398FFF7FB
:103A800042FE0346002B0BD0BDF81E3019460398AA
:103A9000FFF746FE144A029B52F823300420984751
:103AA0004FF48273ADF81E3002210398FFF720FE19
:103AB0000346002B14D0BDF81E3019460398FFF7BB
:103AC00022FE0346002B0BD0BDF81E30194603988A
:103AD000FFF726FE044A029B52F823300520984740
:103AE00000BF09B05DF804FB0007002008B5032201
:103AF00000210248FFF770FF00BF08BD00B0004082
:103B000008B5042201210248FFF766FF00BF08BD87
:103B10000040024082B003468DF807309DF8073020
:103B200003F1804303F5E04301221A6000BF02B0B5
:103B3000704782B00346ADF80630BDF8063003F199
:103B4000804303F5E0431B68002B14BF01230023CF
:103B5000DBB2184602B0704784B00346ADF80630B9
:103B6000BDF8063003F1804303F5E04300221A60FC
:103B7000BDF8063003F1804303F5E0431B6803936F
:103B8000039B00BF04B0704782B001900091054ACA
:103B9000019BC2F82C36034A009BC2F8303600BFA6
:103BA00002B070470070004000B58FB04FF48270D3
:103BB000FFF7BFFF0346002B46D04FF48270FFF79C
:103BC000CBFF904B93F82E3083F00103DBB2002B38
:103BD00004D18C4B93F82F30002B35D000238DF877
:103BE0001C30884B5B680893864B1B899BB2ADF8F1
:103BF0002430844BDB68002B03D1824B00221A74E3
:103C000019E0804B1A8B7F4B5A837E4BDB687D4AD1
:103C100053607C4B1A8B7B4B1A817A4B0022DA6003
:103C2000784B93F82E3083F00103DBB2002B02D0E7
:103C30000020FFF76FFF734B1B6807AA10469847D9
:103C4000704B002283F82F206E4B93F82E30002B00
:103C500062D04FF48070FFF76CFF0346002B5BD0FF
:103C60004FF48070FFF778FF664B5A8B654B93F8E3
:103C70002D309BB29A421CD9624B5A8B614B93F800
:103C80002D309BB2D31A9AB25E4B5A835D4B5A6861
:103C90005C4B1B899BB219465A4B5B8BCB1A5B0062
:103CA0001344584A92F82D2011461846FFF76CFF2E
:103CB0002BE0544B5A8B534B93F82D309BB29A42C6
:103CC00014D1504BDB68002B10D04E4B012283F8EF
:103CD0002F204C4B00225A834A4BDB68494A92F80A
:103CE0002D2011461846FFF74FFF0EE0454B5A8B2B
:103CF000444B93F82D309BB29A4206D1414B01229E
:103D000083F82F203F4B00225A834FF48270FFF735
:103D100023FF0420FFF7FEFE4FF48870FFF709FF32
:103D20000346002B0ED04FF48870FFF715FF354B7C
:103D300000221A7402238DF81030324B1B6804AA3B
:103D4000104698474FF48A70FFF7F3FE0346002BA6
:103D500007D04FF48A70FFF7FFFE2A4B00221A7437
:103D60004CE0284B5B690D9345E00D9B0A930A9B41
:103D7000002B01D1202303E00A9BB3FA83F3DBB2CB
:103D80000C934FF000420C9B22FA03F3DB430D9A95
:103D900013400D930C9B9BB246339BB29B00ADF836
:103DA0002E30BDF82E301846FFF7C3FE0346002B19
:103DB00021D0BDF82E301846FFF7CEFE01238DF836
:103DC0000430BDF82E30A3F58C73DB08DBB28DF820
:103DD0000830BDF82E30A3F58C7303F00403002BDC
:103DE0000CBF01230023DBB28DF80930054B1B68A3
:103DF00001AA104698470D9B002BB6D100BF0FB00B
:103E00005DF804FB1007002084B001900B46ADF86C
:103E10000230BDF80230019A134400221A60BDF846
:103E20000230019A13441B680393039B00BF04B044
:103E3000704782B001900B46ADF80230BDF80230F9
:103E4000019A13441B68002B14BF01230023DBB22B
:103E5000184602B07047000000B583B00190019B86
:103E60001B68184600F05AF80346002B04D10B4992
:103E70004FF4F67006F088FA019B1B681F2B02D8DE
:103E80004FF0A04306E0019B1B6803F01F02019B5B
:103E90001A60034B184603B05DF804FB742601005A
:103EA0000003005000B585B0019001AB1846FFF744
:103EB000D3FF0390019B012202FA03F319460398F2
:103EC00000F018F800BF05B05DF804FB00B585B040
:103ED000019001AB1846FFF7BFFF0390019B012241
:103EE00002FA03F31946039800F00EF800BF05B07C
:103EF0005DF804FB82B001900091019B009AC3F829
:103F0000082500BF02B0704782B001900091019B6C
:103F1000009AC3F80C2500BF02B0704784B001902E
:103F2000019B5B09029300230393029B002B03D0A8
:103F3000029B012B04D007E04FF0FF33039303E013
:103F40004FF6FF73039300BF019B03F01F03019320
:103F5000039A019B22FA03F303F00103002B14BF21
:103F600001230023DBB2184604B0704700B583B0CC
:103F70000190019BDB7FFF2B0ED0019B9B7F002BD1
:103F800005D0019BDB7F1846FFF7A0FF04E0019BF3
:103F9000DB7F1846FFF786FF019B00225A77019BC3
:103FA00000221A72019B1B68019A02F10800019A13
:103FB00052681146984700BF03B05DF804FB00004B
:103FC00000B583B0019000914FF48C710198FFF718
:103FD00030FF0346002B10D04FF48C710198FFF78F
:103FE00013FF009B1B68002B04D1064940F2972069
:103FF00006F0CAF90098FFF7B9FF00BF03B05DF8FB
:1040000004FB00BFAC26010008B503490348FFF7D5
:10401000D7FF00BF08BD00BFAC07002000F0024082
:1040200082B003468DF807309DF90730002B0CDB7A
:104030009DF8073003F01F0205499DF907305B0921
:10404000012000FA02F241F8232000BF02B07047BD
:1040500000E100E082B0034600918DF807309DF941
:104060000730002B0ADB009BDAB20C499DF90730C0
:104070005201D2B20B4483F800230BE0009BDAB26A
:1040800007499DF8073003F00F03043B5201D2B2F9
:104090000B441A7600BF02B0704700BF00E100E099
:1040A00000ED00E082B00190019B1B0B5BB2184653
:1040B00002B0704700B583B003460A468DF807305A
:1040C00013468DF806309DF80630072B03D90849B2
:1040D0006B2006F059F99DF806209DF9073011462E
:1040E0001846FFF7B7FF00BF03B05DF804FB00BF41
:1040F000A427010000B583B003468DF807309DF971
:1041000007301846FFF78CFF00BF03B05DF804FBD3
:1041100082B001900B468DF803309DF80330019A70
:10412000134401221A6000BF02B0704784B00190AE
:104130000B46ADF80230BDF80230019A134400225C
:104140001A60BDF80230019A13441B680393039B65
:1041500000BF04B0704782B001900B46ADF802304A
:10416000BDF80230019A13441B68002B14BF0123D1
:104170000023DBB2184602B0704782B00190009174
:10418000019B009AC3F8042300BF02B0704782B0BD
:1041900001900091019B009AC3F8082300BF02B070
:1041A000704782B001900091019BD3F80423009BDB
:1041B0001340002B14BF01230023DBB2184602B0CA
:1041C000704782B001900B468DF80330019BD3F805
:1041D000043523F003029DF8033003F003031A4370
:1041E000019BC3F8042500BF02B0704782B0019064
:1041F0000B468DF80330019BD3F8083523F00302FA
:104200009DF8033003F003031A43019BC3F808250C
:1042100000BF02B0704782B001900B468DF80330AA
:10422000019BD3F8103523F00F029DF8033003F003
:104230000F031A43019BC3F8102500BF02B070475B
:1042400084B003900B4601928DF80B309DF80B2043
:10425000039B02F5A872019943F8221000BF04B035
:10426000704782B00190019B9B0003F5A0739BB245
:10427000184602B0704782B001904FF48032019B23
:1042800002FA03F3184602B07047000010B588B078
:10429000039002910192039B1B791A4613465B001F
:1042A00013449B00704A13440693029B002B03D1D6
:1042B0006E494A2006F068F8019B002B03D16B4938
:1042C0004B2006F061F8069B1B7A002B03D00823D5
:1042D0000593059BC4E0039B1B68654A93420FD17D
:1042E000029B9B78012B64D0029B9B78002B60D0B3
:1042F000029B9B78022B5CD0029B9B78032B58D0AF
:10430000039B1B685B4A93420FD1029B9B78012B56
:104310004FD0029B9B78002B4BD0029B9B78022BAB
:1043200047D0029B9B78032B43D0039B1B68524AC8
:1043300093420FD1029B9B78012B3AD0029B9B7832
:10434000002B36D0029B9B78022B32D0029B9B78AD
:10435000032B2ED0039B1B68484A93420FD1029B2C
:104360009B78012B25D0029B9B78002B21D0029BB0
:104370009B78022B1DD0029B9B78032B19D0039BAB
:104380001B683F4A93420FD1029B9B78012B10D0B0
:10439000029B9B78002B0CD0029B9B78022B08D0B1
:1043A000029B9B78032B04D030495F2005F0ECFF83
:1043B00000E000BF069B019A1A60029B5A68069BA8
:1043C0005A6000238DF81F3010E0039B1C689DF895
:1043D0001F301846FFF745FF034619462046FFF7F2
:1043E000A5FE9DF81F3001338DF81F30039B5B79CC
:1043F0009DF81F209A42E8D3039B1B681846FFF7DD
:1044000051FE03461A46029BDB7819461046FFF719
:1044100051FE039B1B681846FFF744FE03461846EF
:10442000FFF768FE039B1A68029B5B7819461046EB
:10443000FFF7C7FE039B1A68029B9B78194610463C
:10444000FFF7D4FE039B1A68029B1B78194610469F
:10445000FFF7E1FE069B01221A7200230593059BDC
:10446000184608B010BD00BFD0070020DC270100AF
:10447000008000400090004000A0004000A00140EB
:1044800000B0014000B583B00190019B1B79194633
:10449000114A0B465B000B449B00134408331B7806
:1044A000012B03D00D498F2005F06EFF019B1B6887
:1044B00000211846FFF72CFE019B1B791946064A7E
:1044C0000B465B000B449B001344083302221A7016
:1044D00000BF03B05DF804FBD0070020DC2701001B
:1044E00000B583B00190019B1B7919460B4A0B461E
:1044F0005B000B449B00134408331B78002B03D153
:104500000749B32005F040FF019B1B680C211846AA
:10451000FFF7FEFD00BF03B05DF804FBD0070020ED
:10452000DC27010010B586B0039001921A460B46B5
:104530008DF80B3013468DF80A309DF80B30184675
:10454000FFF799FE05909DF80A30002B12D0039BCF
:104550001C689DF80B301846FFF783FE034619468A
:104560002046FFF7E3FD039B1B6805991846FFF7FC
:1045700004FE05E0039B1B6805991846FFF707FE3C
:10458000039B1B689DF80B10019A1846FFF758FE15
:1045900000BF06B010BD00B587B00390029113466E
:1045A0008DF8073000238DF8153030E09DF8153078
:1045B0001846FFF756FE0346ADF816309DF8153045
:1045C0001846FFF758FE0490BDF8163019460398B8
:1045D000FFF7C1FD0346002B14D004990398FFF7A1
:1045E000E0FD0346002B0DD0BDF8163019460398A8
:1045F000FFF79CFD029B1B68029A5168BDF81620CC
:10460000104698479DF8153001338DF815309DF808
:1046100015209DF807309A42C8D300BF00BF07B0ED
:104620005DF804FB08B5042202490348FFF7B3FF15
:1046300000BF08BDD00700200080004008B504225C
:1046400002490348FFF7A7FF00BF08BDDC070020B1
:104650000090004008B5042202490348FFF79BFF81
:1046600000BF08BDE807002000A0004008B50622F2
:1046700002490348FFF78FFF00BF08BDF407002081
:1046800000A0014008B5062202490348FFF783FF56
:1046900000BF08BD0008002000B0014082B0034602
:1046A0008DF807309DF90730002B0CDB9DF80730A3
:1046B00003F01F0205499DF907305B09012000FA4C
:1046C00002F241F8232000BF02B0704700E100E091
:1046D00082B0034600918DF807309DF90730002B1A
:1046E0000ADB009BDAB20C499DF907305201D2B2C5
:1046F0000B4483F800230BE0009BDAB207499DF8D6
:10470000073003F00F03043B5201D2B20B441A7678
:1047100000BF02B0704700BF00E100E000ED00E024
:1047200082B00190019B1B0B5BB2184602B0704730
:1047300000B583B003460A468DF8073013468DF85E
:1047400006309DF80630072B03D908496B2005F089
:104750001BFE9DF806209DF9073011461846FFF70D
:10476000B7FF00BF03B05DF804FB00BF28280100BD
:1047700000B583B003468DF807309DF90730184621
:10478000FFF78CFF00BF03B05DF804FB82B001901F
:104790000B468DF803309DF80330019A1344012233
:1047A0001A6000BF02B0704784B001900B46ADF8AC
:1047B0000230BDF80230019A134400221A60BDF89D
:1047C0000230019A13441B680393039B00BF04B09B
:1047D000704782B001900B46ADF80230BDF8023050
:1047E000019A13441B68002B14BF01230023DBB282
:1047F000184602B0704782B001900091019B009A68
:10480000C3F8042300BF02B0704782B0019000914A
:10481000019B009AC3F8082300BF02B0704782B022
:104820000190019B0522C3F8002500BF02B070472C
:1048300082B00190019B0022C3F8002500BF02B0A6
:10484000704784B0039002910192039B029AC3F8CF
:104850000825039B019AC3F80C2500BF04B07047DC
:1048600082B001900091019B009AC3F8242500BFFB
:1048700002B0704784B00190019BD3F8C434039315
:10488000019B039AC3F8C424039B184604B07047E5
:1048900082B001900B468DF803309DF80320019BF8
:1048A000C3F8882500BF02B0704782B00190019B19
:1048B000D3F81835DBB2184602B0704782B00190C9
:1048C0000B468DF803309DF80320019BC3F81C258F
:1048D00000BF02B0704782B001900091019B009A26
:1048E000C3F8002200BF02B07047000000B583B0DB
:1048F0000190019B1B68184600F04FF80346002BFF
:1049000004D10B494FF4F67005F03EFD019B1B6886
:104910001F2B02D84FF0A04306E0019B1B6803F059
:104920001F02019B1A60034B184603B05DF804FB9D
:10493000582801000003005000B585B001900846DA
:1049400011461A4603468DF803300B468DF80230A7
:1049500013468DF8013001AB1846FFF7C7FF0390EF
:104960009DF803209DF802305B001A439DF801304A
:104970009B001A439DF818301B0242EA03019DF880
:104980001C301B04019A1943039B02F5E07243F8A3
:10499000221000BF05B05DF804FB84B00190019BBC
:1049A0005B09029300230393029B002B03D0029B1D
:1049B000012B04D007E04FF0FF33039303E04FF6E1
:1049C000FF73039300BF019B03F01F030193039A3E
:1049D000019B22FA03F303F00103002B14BF012310
:1049E0000023DBB2184604B0704784B00190032363
:1049F0000393019B03F00103002B02D04FF4024309
:104A00000393019B03F00203002B02D048F2012321
:104A10000393019B03F00403002B02D048F202230E
:104A20000393039B184604B0704700B583B0019010
:104A30000091009B5A6B009B9B6A9A4207D0019899
:104A4000FFF7F6FE0198FFF7EAFE002300E00123DE
:104A5000184603B05DF804FB00B58BB005900491D7
:104A600003920293049B002B03D14D49AA2005F029
:104A70008BFC049B1A68049B5B689A4203D14849EB
:104A8000AB2005F081FC059B1B791A4613461B01E0
:104A90009B1A9B00434A13440893089B93F82E30BB
:104AA000002B03D008230793079B74E0059B1A682B
:104AB000059B1B7919463C4B53F82130194610468B
:104AC000FDF7E2FC0346002B03D011230793079B5D
:104AD00061E0089B039A1A60089B029A5A60089B3F
:104AE00000229A60089B002283F82D20089B002258
:104AF00083F83120089B002283F83020049B5A7BE6
:104B0000089B83F83820049B186800230193062330
:104B10000093032300220021FFF70EFF049B586837
:104B20000023019306230093032300220021FFF7B3
:104B300003FF059B1B680993049B1968049B5B6832
:104B40001A460998FFF77DFE049B9B681946099851
:104B5000FFF786FE089B1B68002B15D0059B1B6882
:104B60001846FFF7DDFD03461A46049B1B7B1946DA
:104B70001046FFF7DDFD059B1B681846FFF7D0FDCB
:104B800003461846FFF7F4FD089B012283F82E2008
:104B900000230793079B18460BB05DF804FB00BF8A
:104BA0008C2801000C080020D428010000B585B035
:104BB0000190019B1B791A4613461B019B1A9B000F
:104BC0000D4A13440393039B93F82E30012B04D01A
:104BD0000A494FF4857005F0D7FB019B1B680293CF
:104BE0000298FFF71CFE039B022283F82E2000BFD1
:104BF00005B05DF804FB00BF0C0800208C28010004
:104C000000B583B001900091009B5A6B009B9B6A9A
:104C10009A420AD2009B5A6A009B5B6B13441B7832
:104C200019460198FFF74AFE1EE0009B93F82C30CE
:104C3000002B05D01C210198FFF7A8FD002314E0EC
:104C4000009B1B6A03F04003002B09D01C21019834
:104C5000FFF79CFD009B012283F82D20002304E038
:104C600014210198FFF792FD0123184603B05DF867
:104C700004FB10B582B001900091009B5A6B009B21
:104C80009B6A9A4244D2009B5A6A009B5B6BD41881
:104C90000198FFF70AFE03462370009B5B6B5A1CCA
:104CA000009B5A63009B5A6B009B9B6A013B9A4294
:104CB0000AD1009B1B6A03F04003002B04D10221A0
:104CC0000198FFF708FE1FE0009B5A6B009B9B6A50
:104CD0009A4207D1009B1B6A03F04003002B01D1CD
:104CE000012316E0009B5A6B009B9B6A9A420BD1F2
:104CF000009B1B6A03F04003002B05D0009B02229F
:104D000083F82D20002304E020210198FFF73EFDC9
:104D10000123184602B010BD00B585B00190009186
:104D200000238DF80F304FF482710198FFF751FD89
:104D30000346002B07D04FF482710198FFF734FD32
:104D400001238DF80F30009B93F82F30002B0FD0EC
:104D50004FF492710198FFF727FD4FF48E7101987F
:104D6000FFF722FD4FF484710198FFF71DFD78E0F5
:104D70004FF492710198FFF72CFD0346002B0DD0E4
:104D80004FF492710198FFF70FFD14210198FFF77E
:104D9000FDFC009B012283F82F2062E04FF48E710E
:104DA0000198FFF716FD0346002B2BD04FF48E71B0
:104DB0000198FFF7F9FC009B5B6B5A1C009B5A6340
:104DC0004FF492710198FFF704FD0346002B0DD0BC
:104DD0004FF492710198FFF7E7FC14210198FFF757
:104DE000D5FC009B012283F82F203AE0009901981E
:104DF000FFF706FF034683F00103DBB2002B30D040
:104E0000002354E04FF484710198FFF7E2FC03465D
:104E1000002B26D04FF484710198FFF7C5FC4FF4A6
:104E200092710198FFF7D5FC0346002B0DD04FF48B
:104E300092710198FFF7B8FC14210198FFF7A6FCC6
:104E4000009B012283F82F200BE000990198FFF7C7
:104E500010FF034683F00103DBB2002B01D00023D7
:104E600025E09DF80F30002B20D0009B002283F816
:104E70002D20009B93F82F3083F00103DBB2002B31
:104E800012D000990198FFF7D0FD0346002B14BF04
:104E900001230023DBB283F00103DBB203F0010343
:104EA000DAB2009B83F82F20002300E0012318468C
:104EB00005B05DF804FB000000B587B001900091DB
:104EC00000230593384B03934FF482710198FFF749
:104ED0006BFC4FF492710198FFF766FC4FF48E71F2
:104EE0000198FFF761FC4FF484710198FFF75CFCB7
:104EF00000210198FFF7EFFC009B00225A63009B02
:104F0000002283F82F2020210198FFF73FFC009B0F
:104F100093F82D30012B03D008210198FFF736FCC0
:104F200000990198FFF76CFE009B1B68002B0DD0C9
:104F3000009B40F286229A60009B9B68194601986C
:104F4000FFF759FC2AE0039B013B0393039B002BD3
:104F500006DD00990198FFF7DFFE0346002BF2D132
:104F6000009B93F82F30002B0DD00198FFF782FCA7
:104F70000490049B002B04D00498FFF736FD0590A5
:104F800001E003230593039B002B07DC0198FFF747
:104F90004FFC0198FFF743FC03230593059B18463C
:104FA00007B05DF804FB00BFA086010000B587B024
:104FB00001900091002305933D4B03934FF48271C0
:104FC0000198FFF7F1FB4FF492710198FFF7ECFBAA
:104FD0004FF48E710198FFF7E7FB4FF4847101984D
:104FE000FFF7E2FB009B00225A63009B002283F83C
:104FF0002F20009B9B6A012B0AD1009B1B6A03F0A8
:105000004003002B04D102210198FFF764FC03E068
:1050100001210198FFF75FFC20210198FFF7B6FB03
:10502000009B93F82D30022B03D000210198FFF74D
:10503000ADFB009B1B68002B0DD0009B40F286222D
:105040009A60009B9B6819460198FFF7D4FB2AE001
:10505000039B013B0393039B002B06DD0099019802
:10506000FFF75AFE0346002BF2D1009B93F82F3036
:10507000002B0DD00198FFF7FDFB0490049B002B43
:1050800004D00498FFF7B1FC059001E003230593D9
:10509000039B002B07DC0198FFF7CAFB0198FFF781
:1050A000BEFB03230593059B184607B05DF804FB80
:1050B000A086010030B587B0039002910192009361
:1050C00000230593029B93F82D30012B05D1019B02
:1050D0001B78012B01D108236DE0029B93F82D3042
:1050E000022B05D1019B1B78012B01D0082362E024
:1050F00032490398FFF789FB029B93F83030DBB20B
:10510000002B09D0029B9B6819460398FFF773FB9D
:1051100011230593059B4EE0009B03F00403002B35
:105120000CBF01230023DAB2029B83F83020029BDC
:10513000009A1A62029B019A03F10C0415460FCDE6
:105140000FC42B682360019B5A68029B9A62019BE3
:10515000DA68029B5A62019B5B7819460398FFF755
:1051600097FB019B1B78012B17D0019B1B78002B11
:1051700004D1009B03F02003002B01D0012300E0A9
:10518000002303F00103DAB2029B83F82C2002997A
:105190000398FFF791FE059004E002990398FFF74A
:1051A00005FF0590029B1B68002B03D1029B002288
:1051B00083F83020059B184607B030BD86420400B6
:1051C00000B587B003900291019200230593039BE1
:1051D0001B791A4613461B019B1A9B00144A134461
:1051E0000493049B1B68002B08D1029B1B78022BA5
:1051F00004D1104940F2862005F0C6F8049B1B68D4
:10520000002B08D1029B1B78032B04D1094940F2E3
:10521000872005F0B9F8039B1868019B029A04994E
:10522000FFF748FF0590059B184607B05DF804FBA3
:105230000C0800208C28010000B58BB0039001926F
:1052400000930B468DF80B3001238DF814309DF838
:105250000B308DF81530009B069300230793019BBC
:1052600008930023099305AB002219460398FFF722
:10527000A7FF034618460BB05DF804FB30B58BB0B2
:1052800001900091009B1B68002B04D14A4940F219
:10529000BA2005F079F800990198FFF73DFD034623
:1052A000002B40F08680009B93F82F3083F00103A1
:1052B000DBB2002B33D0009B1B7B022B03D0009B67
:1052C0001B7B032B2BD1009B5A6A009B9B699A4244
:1052D00025D1009BDA69009B5A62009B5A69009BAA
:1052E0009A62009B1B6A03F02003002B14BF01236A
:1052F0000023DAB2009B83F82C20009B002283F865
:105300002D20009B1B7B032B04D100990198FFF7F4
:10531000D3FD4FE000990198FFF748FE4AE0009B5B
:1053200004AC03F10C050FCD0FC42B682360009B68
:1053300093F82F30002B22D00198FFF79BFA0990A9
:10534000099B03F00203002B03D001238DF80C30DE
:1053500018E0099B03F00403002B03D002238DF80F
:105360000C300FE0099B03F00103002B03D0032353
:105370008DF80C3006E004238DF80C3002E0002399
:105380008DF80C30009B002283F83020009B1B6AB4
:1053900003F00403002B04D0009B93F82F30002B64
:1053A00008D0009B1B68009A516803AA10469847D2
:1053B00000E000BF0BB030BD8C28010008B50349E8
:1053C0000348FFF75BFF00BF08BD00BF0C080020CB
:1053D0000030004008B503494FF04020FFF74EFF72
:1053E00000BF08BD4808002082B00190019B9A00D0
:1053F000024B1B681344184602B070472C2C010066
:1054000082B00190019B03F1804303F51C331846E1
:1054100002B0704782B00190019B03F1804303F515
:105420001C33184602B0704700B583B003468DF8B0
:1054300007309DF807301846FFF7E2FF03460122C8
:105440001A60BFF36F8F00BFBFF34F8F00BF00BF65
:1054500003B05DF804FB00B583B00346ADF8063039
:10546000BDF806301846FFF7CBFF034600221A604E
:10547000BFF36F8F00BFBFF34F8F00BF00BF03B0FC
:105480005DF804FB00B583B00346ADF80630BDF807
:1054900006301846FFF7BEFF03461B68002B14BFFB
:1054A00001230023DBB2184603B05DF804FB00B50E
:1054B00085B00346ADF80630BDF806301846FFF754
:1054C000E1FF03468DF80F309DF80F30002B04D01C
:1054D000BDF806301846FFF7BEFF9DF80F3018469E
:1054E00005B05DF804FB0000024BD3F80433184606
:1054F000704700BF00700240024BD3F800341846DA
:10550000704700BF0070024082B00190064A019BC4
:10551000C2F80034BFF36F8F00BFBFF34F8F00BFDF
:1055200000BF02B0704700BF0070024000B583B0FA
:10553000FFF7E2FF01900198FFF7E6FFBFF36F8FDF
:1055400000BFBFF34F8F00BF019B184603B05DF84B
:1055500004FB0000024BD3F86C341846704700BFC0
:105560000070024082B00190064A019BC2F86C3480
:10557000BFF36F8F00BFBFF34F8F00BF00BF02B0FC
:10558000704700BF0070024000B583B0FFF7E2FF34
:1055900001900198FFF7E6FF019B184603B05DF804
:1055A00004FB0000024BD3F88034DBB2184670478E
:1055B0000070024000B585B003468DF807309DF9B4
:1055C0000730002B05DA9DF8073003F00F03082B96
:1055D0000EDD9DF90730002B05DB9DF8073003F049
:1055E0000F03082B04DD1C4940F25F4004F0CCFEA1
:1055F0009DF90730002B04DA17494FF48C6004F052
:10560000C3FE9DF8073003F00803002B0CD0134BAA
:10561000D3F8C0340393039B03F48033002B01D0F1
:1056200000230393039B13E09DF8073003F0080366
:10563000002B04D0084940F26B4004F0A5FE074A55
:105640009DF8073003F00F0303F5947352F82330ED
:10565000184605B05DF804FB202B010000700240E5
:1056600000B585B003468DF807309DF90730002B53
:1056700005DA9DF8073003F00F03082B0EDD9DF9C6
:105680000730002B05DB9DF8073003F00F03082BD4
:1056900004DD184940F2714004F076FE9DF90730B0
:1056A000002B04DA134940F2724004F06DFE9DF8BD
:1056B000073003F00803002B04D10E4940F2734079
:1056C00004F062FE0C4BD3F8C0340393039B002B11
:1056D00003D14FF0FF33039306E0039B03F48033C1
:1056E000002B01D000230393039B184605B05DF8FF
:1056F00004FB00BF202B01000070024000B583B006
:1057000003468DF807309DF90730002B05DB9DF827
:10571000073003F00803002B04D00C4940F283400B
:1057200004F032FE0A4A9DF8073003F00F0303F538
:105730009473002142F82310BFF36F8F00BFBFF3B3
:105740004F8F00BF00BF03B05DF804FB202B0100AA
:105750000070024082B003468DF80730034A9DF87E
:105760000730C2F8083500BF02B070470070024031
:10577000024BD3F820351846704700BF0070024036
:10578000044BD3F82C35002B14BF01230023DBB2CC
:10579000184670470070024000B587B0034602917A
:1057A00001928DF80F309DF90F30002B36DA9DF8FD
:1057B0000F3003F00803002B08D0354A029BC2F8D3
:1057C000A036334A019BC2F8A4365DE09DF80F3045
:1057D00003F00F038DF816309DF81630072B04D90F
:1057E0002C4940F2345004F0CFFD29499DF8162091
:1057F00013469B0013449B000B4403F5C063029ABD
:105800001A6023499DF8162013469B0013449B0001
:105810000B4403F20463019A1A6035E09DF80F30DF
:1058200003F00803002B08D0194A029BC2F8A037E6
:10583000174A019BC2F8A43726E09DF80F3003F009
:105840000F038DF817309DF81730072B04D9114935
:1058500040F2435004F098FD0D499DF8172013467F
:105860009B0013449B000B4403F5E063029A1A600B
:1058700007499DF8172013469B0013449B000B44D7
:1058800003F20473019A1A6000BF07B05DF804FBCD
:1058900000700240202B010082B0164B1B68019360
:1058A000154B1B680093019B082B1FD1009B052BF8
:1058B0001AD801A252F823F0D1580000D5580000A0
:1058C000D9580000DD580000E1580000E5580000FC
:1058D00001230CE001230AE0012308E0012306E094
:1058E000012304E0012302E0012300E00023184625
:1058F00002B07047300100103401001008B5FFF706
:10590000CBFF0346184608BD00B583B003468DF8AB
:1059100007309DF90730002B05DA9DF8073003F0BA
:105920000F03082B0EDD9DF90730002B05DB9DF8DA
:10593000073003F00F03082B04DD0B494FF4B97057
:1059400004F022FD9DF90730002B01DA074A00E040
:10595000074A9DF8073003F00F035B0013441B88D0
:10596000184603B05DF804FB582B0100042C01001D
:10597000182C010000B583B003468DF807309DF95F
:105980000730002B05DA9DF8073003F00F03082BD2
:105990000EDD9DF90730002B05DB9DF8073003F085
:1059A0000F03082B04DD054940F2852004F0ECFCD0
:1059B0009DF80730184603B05DF804FB582B010032
:1059C00000B583B003468DF807309DF90730002BF2
:1059D00005DA9DF8073003F00F03082B0EDD9DF963
:1059E0000730002B05DB9DF8073003F00F03082B71
:1059F00004DD0C4940F2922004F0C6FC9DF907300A
:105A0000002B01DA042200E028229DF8073003F081
:105A10000F03DBB29B00DBB21344DBB2184603B0CA
:105A20005DF804FB582B010000B583B003468DF8E8
:105A300007309DF90730002B05DA9DF8073003F099
:105A40000F03082B0EDD9DF90730002B05DB9DF8B9
:105A5000073003F00F03082B04DD0B4940F2A220AE
:105A600004F092FC9DF90730002B01DA074A00E0B0
:105A7000074A9DF8073003F00F031B011344184633
:105A800003B05DF804FB00BF582B0100280900207B
:105A90009808002000B583B003468DF807309DF9C3
:105AA0000730002B05DA9DF8073003F00F03082BB1
:105AB0000EDD9DF90730002B05DB9DF8073003F064
:105AC0000F03082B04DD0B4940F2B52004F05CFC09
:105AD0009DF90730002B01DA002200E010229DF82A
