:1000000000000420750300005D030000B5510000EE
:1000100061030000630300006503000000000000AE
:100020000000000000000000000000006703000066
:1000300069030000000000006B0300006D03000076
:10004000E50B00006F030000E90E0000B90E000090
:10005000C50E00006F030000850700007517000043
:10006000211B0000351B0000491B00003D1700004C
:100070006F030000611500006F0300006F030000B4
:10008000392A0000A1470000F50F0000DD0E000036
:10009000851900008B1900009119000097190000C4
:1000A0009D190000A31900005D1B0000711B0000DA
:1000B000B50F0000290A0000000000000000000049
:1000C0006F030000C50F0000D50F0000D10E000027
:1000D0004D170000010900006F030000B92900005E
:1000E0006F0300003D150000ED8D000000000000D2
:1000F00000000000E50F00000000000051190000A2
:1001000000000000000000000000000000000000EF
:1001100000000000000000000000000000000000DF
:1001200000000000000000000000000000000000CF
:1001300000000000000000000000000000000000BF
:1001400000000000000000000000000000000000AF
:10015000000000000000000000000000000000009F
:10016000000000000000000000000000000000008F
:10017000000000000000000000000000000000007F
:10018000000000000000000000000000000000006F
:10019000000000000000000000000000000000005F
:1001A000000000000000000000000000000000004F
:1001B000000000000000000000000000000000003F
:1001C000000000000000000000000000000000002F
:1001D000000000000000000000000000000000001F
:1001E000000000000000000000000000000000000F
:1001F00000000000000000000000000000000000FF
:10020000354936480A1A02D0072291438D463449AF
:1002100034480A1A06D00722914381F30988022242
:1002200082F3148830483149314A00F044F83148AB
:100230003149324A00F03FF831483249324A00F041
:100240003AF832483249334A00F035F832483349F7
:10025000334A00F030F833483349344A00F02BF881
:1002600033483449344A00F026F8344834490022EF
:1002700000F02CF833483449002200F027F83348C6
:100280003349091A082902DB002202604160314A21
:1002900090471F481F49884205D00268043003B4C4
:1002A000904703BCF7E700208646EC46002000217B
:1002B000294A9047FEE7884207D0521A05D00378B2
:1002C00001300B700131013AF9D17047884202D0F8
:1002D00002700130FAE770470000042000E00320BC
:1002E000000004200000042024BE000014020020AE
:1002F00060020020D0030000D0030000C49400007E
:1003000024BE000014020020140200209C9900006A
:100310009C9900009C9900009C9900009C99000009
:100320009C9900009C9900009C99000024BE00004C
:1003300070BE000060020020600200206002002009
:10034000AC610020AC610020AC610020AC610020F9
:10035000AC8100209D030000B1300000FEE7FEE705
:10036000FEE7FEE7FEE7FEE7FEE7FEE7FEE7FEE765
:1003700000F002B8FFF7FCBF0F484FF007018843B9
:1003800085460E4880470E48016841F470010160BF
:10039000BFF34F8FBFF36F8FFFF732BF09480A4992
:1003A0000A4A884207D0521A05D0037801300B70F0
:1003B0000131013AF9D17047000004203576000080
:1003C00088ED00E088970000000000201402002063
:1003D0000A4B185C1F288ABF094B4FF0A04300F05E
:1003E0001F00D3F804250121814021EA02000A40C0
:1003F000C3F80805C3F80C25704700BF9C9900009E
:100400000003005038B5074C051E04F1080318BF5F
:100410001C4623682BB11A6822605B6828469847FF
:10042000F7E738BD6802002020B9054B01225A7059
:10043000FFF7E8BF012802D1014A9070F8E7704742
:100440006002002038B50C4C23789BB90B486360E0
:10045000A3602361E36000F00DF9054600F016F992
:1004600001232370064BD3F800340BB10123A37092
:10047000284638BD8525F5E76002002029040000E4
:100480000000014038B5134CA378054603F0FF0087
:1004900073B115B16B6801209847002004F07CF916
:1004A000E3680133E3600020BDE8384004F076B92A
:1004B00004F072F925B1226913463BB92A6025611F
:1004C000E368002BECD100F0F7F8E9E79D42F7D0A4
:1004D0001B68F2E7600200201FB503788DF800303A
:1004E0008388ADF8043083688DF80630C3688DF8D2
:1004F0000730036902934369054A0393054B684635
:1005000053F8213052F82110984705B05DF804FBEC
:10051000C4020020CC020020024B4FF4807043F054
:1005200001031847C09900001F2886BF054A00F044
:100530001F004FF0A042012303FA00F0C2F80805A3
:10054000704700BF000300502DE9F047154690F8B2
:100550000080394A42F82850384A42F828304B7B0C
:1005600006460C46A3B30868DFF8D8904FF0A041C8
:1005700000F5E07340F20C6241F82320636803F554
:10058000E073002741F82320FFF7CEFF6068FFF7F4
:10059000CBFF236803F5E07340F20D6241F823209E
:1005A000636803F5E0734FF0010A41F82320FFF779
:1005B000B3FF63681F2B8ABF4A464FF0A04203F087
:1005C0001F03D2F8102522FA03F3DB070BD507BB74
:1005D000002D1B4A434608BF2A462146301DBDE870
:1005E000F04701F0C1BC23681F2B86BF03F01F0337
:1005F0004A464FF0A0420AFA03F3C2F80C35FFF75F
:100600008BFF01372068FFF78FFFFFF785FF092F6A
:10061000CFD163681F2B86BF0A4903F01F034FF039
:10062000A041012202FA03F3C1F80C35FFF774FF71
:100630006068FFF779FFCBE7CC020020C4020020FE
:10064000D90400000003005010B5034653E8000F22
:1006500000EA010243E8002494F0000FF6D110BD37
:1006600000F18040002382B0036003680193019B86
:1006700002B07047044A137923B9012110609180B8
:100680001846704785207047D4020020084B1A682E
:10069000D20704D4C02283F8002301221A604FF04D
:1006A00080420123C2F81835024A1370704700BF18
:1006B00000E100E0DC02002008B54FF48270FFF793
:1006C000CFFF4FF080430222C3F8042301229A6037
:1006D00008BD00004FF0804110B5D1F8003163B182
:1006E0004FF48070FFF7BCFF0D4B58790122C1F821
:1006F000082310B95A711B6898474FF08042D2F80E
:10070000043163B14FF48270FFF7AAFF0223C2F8ED
:100710000833034BBDE810401B680120184710BD8B
:10072000D402002000F1804000F5C040002382B0D8
:10073000036003680193019B02B0704703681F2B9D
:1007400083BF03F01F03036001484FF0A0407047D0
:100750000003005007B5019001A8FFF7EFFF019BD0
:1007600000EB8300D0F8003723F44033C0F80037A3
:10077000D0F8003743EA0141C0F8001703B05DF834
:1007800004FB00002DE9FF470024CDE90244584D49
:100790004FF48072012102F1804303F5C04390B20F
:1007A0001B68012B06D1D5F804330B4202D0FFF7AA
:1007B000B9FF0C430432B2F5907F4FEA4101EAD110
:1007C0004B4BD3F87C31012B11D14FF4BE70FFF7A6
:1007D000A9FF4FF0A04344F00044D3F82025029233
:1007E000C3F82025D3F820280392C3F82028E3B2C9
:1007F000D3B1404F00250126344210D0AB0003F1A5
:10080000804303F5C043D3F81005D3F8101557F80B
:10081000253023B1C1F30141C0F3052098470135CC
:10082000082D4FEA4606E7D1002C59DA314D324CFB
:10083000324E4FF00008012716F9013B5A1C3CD0FC
:10084000C3F3C201103169445FFA83F911F8081C3F
:1008500003F03F0203F0070307FA03F319422CD019
:1008600001A80192FFF76AFF019B03F5E07350F8BE
:100870002330C3F3014ABAF1020F0CBF0321022156
:100880001046FFF767FF01A80192FFF757FF019B92
:1008900007FA03F3C0F82035AB1893F9303055F858
:1008A000233053B14FEA9911032904D0BAF1020F52
:1008B00019D1012901D11046984708F10108B8F172
:1008C000040FB9D14FF0A043D3F820250292C3F80A
:1008D0002025D4F820350393C4F820351343A7D13D
:1008E00004B0BDE8F087BAF1030FE6D10229E1E7D1
:1008F00000600040E00200200003005040030020A0
:10090000F0B53F4B3F4CD3F8142185B08AB100229B
:10091000C3F81421D3F814310093009B637943F09A
:10092000080303F01202122A637104BF43F020038C
:100930006371334BD3F804218AB10022C3F8042138
:10094000D3F804310193019B637943F0040303F06E
:100950001102112A637104BF43F020036371284B15
:10096000D3F80821BAB10025C3F80851D3F80821FB
:100970000292029A24480422C3F808232946C3F8A5
:100980000055236898472368204829469847012343
:10099000237105B0F0BD637903F00F020F2A08D070
:1009A000D80701D4190704D462799207F1D45B0700
:1009B000EFD56279276802F0F30312F020020BD022
:1009C00023F0300343F010036371012100203B4604
:1009D00005B0BDE8F04018470B4D95E8030002AEA6
:1009E00086E8030015E9030043F0100385E80300DF
:1009F000C4E90222637101213046B847C9E700BF4C
:100A0000005002404C0300205C03002054030020EF
:100A100000F1804000F5E830002382B003600368F5
:100A20000193019B02B070471FB53C493C4CD1F883
:100A30000021002A47D04FF48070FFF7E9FFA37C24
:100A4000DA4302F0010204EB8201496811B9617CCA
:100A500002292DD1607C022818BF04EB83034FF0DC
:100A600000010BBF01235868637459604FF0010304
:100A70008DF80C10E1740EBF02910290A2748DF8F3
:100A80000430236801A89847637C022B01D101231D
:100A90006374237D53B101238DF804300023029346
:100AA0008DF80C30237501A82368984704B010BD59
:100AB000E37C002BE8D18DF80430029301238DF8FC
:100AC0000C30E374DDE7D1F80431002BE1D04FF4B2
:100AD0008270FFF79DFFC1F80025A37C627404EBD0
:100AE00083038DF80C2059688DF8042021B15A60D9
:100AF0000291236801A89847A37CDB4303F001031C
:100B000004EB83035A682AB1029200225A6001A8BA
:100B1000236898470023A374BBE700BF00D00140BF
:100B20006403002000F1804382B01A68002A14BFD9
:100B30000120002004D000221A601B680193019B51
:100B400002B070474FF0804310B5D3F804436207FA
:100B500007D54FF48470FFF7E5FF10B11E4B1B68FB
:100B60009847A30608D54FF48A70FFF7DBFF18B14A
:100B70001A4B00201B689847600608D54FF48C700C
:100B8000FFF7D0FF18B1154B01201B6898472106CD
:100B900008D54FF48E70FFF7C5FF18B1104B002039
:100BA0001B689847E20508D54FF49070FFF7BAFF2D
:100BB00018B10B4B01201B689847A3050AD54FF4C9
:100BC0009270FFF7AFFF28B1054BBDE810401B68DE
:100BD0000220184710BD00BF7C03002080030020C6
:100BE0008403002008B5FFF7ADFFBDE80840FFF71C
:100BF00071BD00002DE9F84F134DDFF85080074616
:100C00004FF0000A04264FF001095FFA8AFB00202A
:100C100009FA0BF403F0C0FD2C420AD0D8F80030DA
:100C200014EA030201BF2343C8F8003087F800B07C
:100C30001646002003F0B2FD1EB1A5430AF1010AD9
:100C4000E3D13046BDE8F88FFFFF0F008803002096
:100C5000012310B503FA00F4C4F313037BB1094B6D
:100C60000020C3F8084503F097FD074B186820EAF9
:100C700004001860002003F091FD002010BD072043
:100C8000FCE700BF00F001408803002010B5A1B1CF
:100C90009AB101238340C3F3130484B10A4C24683E
:100CA00023420ED0C00000F1804000F5F830C0F8BB
:100CB0001015C0F81425002010BD0E20FCE70720F9
:100CC000FAE70820F8E700BF88030020074A01235D
:100CD0001268834013421FBF00F51170044B43F8A4
:100CE0002010002008BF0820704700BF88030020A4
:100CF00000F00140012303FA00F0C0F313031BB11D
:100D0000054B1B68184204D0044BC3F804050020AF
:100D100070470820704700BF8803002000F00140A2
:100D2000012303FA00F0C0F313031BB1054B1B684A
:100D3000184204D0044BC3F808050020704708206F
:100D4000704700BF8803002000F001402DE9F84FF4
:100D5000DFF84C8007464FF0000A3F2504264FF08D
:100D600001095FFA8AFB002009FA0BF403F014FD75
:100D70002C420AD098F8003013EA040201BF234342
:100D800088F8003087F800B01646002003F006FD12
:100D90001EB1A5430AF1010AE3D13046BDE8F88F40
:100DA0008C03002070B5104C012303FA00F5227863
:100DB00015F03F0F14BF002607262A4211D0C000AD
:100DC00000F1804000F5F8304360002003F0E4FCBF
:100DD0002378002023EA0503237003F0DFFC30466C
:100DE00070BD0826FBE700BF8C030020012303FA37
:100DF00000F2910608D006490978114206D0054A4A
:100E000042F83030002070470720704708207047B4
:100E10008C03002000F0014038B501238B409A0676
:100E200005460C4615D00D4A12781A4213D0002000
:100E300003F0B2FCA10001F1804101F5F831D1F8D5
:100E400000080543C1F80058002003F0A7FC00206B
:100E500038BD0720FCE70820FAE700BF8C0300201C
:100E60000E4B9842024610D0B0F1402F0FD003F540
:100E7000003398420DD0A3F5803398420BD0084937
:100E800008488A4218BF0020704707487047074843
:100E90007047074870470748704700BF0030004060
:100EA00000200040B00300209003002098030020A1
:100EB000A0030020A8030020014B1B68184700BFB7
:100EC00090030020014B1B68184700BF98030020C7
:100ED000014B1B68184700BFA0030020014B1B6893
:100EE000184700BFA8030020014B1B68184700BF2C
:100EF000B003002070B50D46FFF7B2FF044608B9F5
:100F0000002070BD002003F047FC267916B90123AC
:100F100025602371002003F041FC002EF0D0112049
:100F2000EFE70023435082B043580193019B02B086
:100F30007047D0F8103170B505460C4653B14FF4E8
:100F40008871FFF7EEFF63795A0703D523680BB169
:100F500001209847D5F814315BB14FF48A712846C7
:100F6000FFF7DFFF63791B0703D523680BB102206E
:100F70009847D5F81C315BB128464FF48E71FFF7C6
:100F8000D0FF607910F0100002D1236803B19847B8
:100F9000D5F8043163B14FF482712846FFF7C1FFE1
:100FA0000123237123681BB1BDE87040032018475B
:100FB00070BD000001490248FFF7BBBFB803002025
:100FC00000C0014001490248FFF7B3BFC003002041
:100FD0000010024001490248FFF7ABBFC8030020E0
:100FE0000020024001490248FFF7A3BFD0030020C0
:100FF00000D0024010B52D4CD4F8003186B0C3B1FA
:10100000D4F80433D90714D50023C4F80031D4F838
:1010100000310193019B4FF48073ADF81030D4F888
:101020000C358DF81230224B06AA12E903001B681A
:101030009847D4F80431E3B1D4F804339A0718D5AB
:101040000023C4F80431D4F804310293029B4FF416
:101050008273ADF81030D4F81835ADF81230D4F8EA
:101060004835ADF81430124B06AA12E903001B688C
:101070009847D4F80831BBB1D4F804335B0713D5D3
:101080000023C4F80831D4F808310393039B4FF4CC
:101090008473ADF8103006AA054B12E903001B68F3
:1010A00006B0BDE81040184706B010BD0020014052
:1010B000D80300201F2886BF00F01F00044B4FF00C
:1010C000A04300F5E070022243F82020704700BFE3
:1010D000000300500F4B5A7910B502F0FF04B2B96B
:1010E0000D491A68C1F800411AB101245C71C1F8B8
:1010F000044300F1804000F524300123036022B94D
:10110000054AD2F80031002BFBD0002000E011206E
:1011100010BD00BFDC030020009002400E4B0238DF
:10112000D3F83C26D3F83836072813D8DFE800F088
:10113000110F0D0B0A080604100EC871100C8871EF
:10114000100A48710A711A0ECA701A0C8A701A0AAB
:101150004A700B70704700BF0090024002380728A9
:101160001FD8DFE800F02927251123211F04CB79A0
:101170001B068A7943EA02434A7943EA02230A7941
:1011800013430E4AC2F83C36CB781B068A7843EAF2
:1011900002434A7843EA02230A781343074AC2F813
:1011A000383670470023E4E70023E5E70023E6E74D
:1011B0000023EBE70023ECE70023EDE7009002407B
:1011C00070B5084D084E642445F00105D6F800318D
:1011D00033B94FF42070A847013CF7D10D2070BD02
:1011E0000020FCE7009A0000009002402DE9F04743
:1011F0006D4E3379002B40F0D18090F80480B8F127
:10120000FF0F00F0CE8090F805E0BEF1FF0F00F078
:10121000C88090F806C0BCF1FF0F00F0C280C7790B
:10122000FF2F00F0BE80B8F11F0F8BBF08F01F0327
:1012300043465E4C4FF0A04403F5E073BEF11F0F30
:1012400040F2023544F823508BBF0EF01F03734663
:10125000564C4FF0A04403F5E073BCF11F0F40F271
:10126000023544F823508BBF0CF01F0363464F4CEC
:101270004FF0A04403F5E0731F2F40F2023544F80D
:1012800023508BBF07F01F033B46484C4FF0A04450
:1012900003F5E07340F2023544F82350047AFF2C42
:1012A0000DD01F2C93BF234604F01F033F4D4FF07A
:1012B000A04503F5E07340F2023945F82390437AE4
:1012C000FF2B0ED01F2B93BF1D4603F01F05DFF829
:1012D000DC904FF0A04905F5E07540F2023A49F87C
:1012E00025A0FF2C324D08BF4FF0FF34FF2B08BF65
:1012F0004FF0FF33C5F82485C5F828E5C5F830C59B
:10130000C5F83475C5F83845C5F83C350368C5F8E7
:101310004035037BC77A847A9B0143EAC7032343A2
:10132000447B002C14BF802400242343C5F844359B
:10133000D5F80036847B90F810C0477C23F07F43BB
:1013400023F0FF032343C47B43EA4C63002C14BF08
:101350004FF08074002443EA07732343C5F8003636
:101360000023737101233160B260C5F8083341B1C5
:10137000837C104A5B01DBB282F829334FF400739F
:1013800053600B4B012200213271C3F80025BDE8E8
:10139000F047C3F800111A60FFF712BF0820BDE83C
:1013A000F0870720FBE700BFDC03002000030050AC
:1013B0000090024000E100E0F8B51546194A527964
:1013C000044602F0FF004ABB174EC6F8000111B1F7
:1013D0006078FFF7C3FE0123C6F80833A37862786C
:1013E0001B0343EA022322781343E27843EA4233A1
:1013F000227943EA8233627943EAC233C6F834364B
:10140000FFF7DEFE0D2808D00027C6F800713DB1B9
:1014100060782946FFF782FE3846F8BD1120FCE7C8
:101420002846FAE7DC03002000900240F8B5224B82
:10143000D3F8342602F44032B2F5803F04BF1F4A8D
:10144000C3F834261E4A4FF40071C2F88410BFF36B
:101450004F8FBFF36F8F0122C3F808231A615A65BB
:101460000022C3F80025C3F80021D3F82405D3F8DF
:101470002875D3F83065D3F83455D3F83845D3F808
:101480003C15C0B2FFF716FEF8B2FFF713FEF0B23C
:10149000FFF710FEE8B2FFF70DFEE0B2FF28C9B279
:1014A00001D0FFF707FEFF2902D00846FFF702FE32
:1014B000044B00221A71F8BD0090024000010300A5
:1014C00000E100E0DC03002000F06043B3F1005FC6
:1014D0000BD1830709D1064BC3F81025C3F81405B7
:1014E000C3F818150820FFF7F5BD1020704700BF9E
:1014F0000090024000F06043B3F1005F0BD183071E
:1015000009D1064BC3F80425C3F80805C3F80C1528
:101510000420FFF7DFBD1020704700BF009002409D
:101520008B0707D1044BC3F81C15C3F820050C200A
:10153000FFF7D0BD1020704700900240064AD2F855
:1015400000313BB1054B002058719968C2F8000189
:101550001A681047704700BF00900240DC0300206B
:10156000074B0022C3F8002182B0D3F8002101927A
:10157000019AD3F80805034B1B68C0B202B01847A4
:1015800000D00040E80300200023435082B04358BD
:101590000193019B02B070472DE9F047DFF8988076
:1015A00004460D46914600F5A07A4FF48037002698
:1015B000D4F80433B10001F5A0713B4289B20DD0DB
:1015C000DAF8003053B1C4F848732046C4F8087301
:1015D000FFF7DAFF58F82530F0B298470136B145E9
:1015E0004FEA47070AF1040AE2D1D4F80433DA07D4
:1015F0000CD5D4F800314BB120464FF48071FFF781
:10160000C3FF0D4B042053F825309847D4F804331A
:101610009B070ED5D4F804315BB120464FF482719C
:10162000FFF7B2FF044B052053F82530BDE8F04723
:101630001847BDE8F08700BFF4030020F0B51A4C4E
:1016400043791A4D44F8232003EB4303EB5C43BB7F
:1016500090F904408B7802795B01002CDBB21BDB34
:10166000134E371987F800330123640902F01F0273
:1016700003FA02F246F8242003680A88C3F8082512
:1016800043790879C97803EB4303EA1850709170E5
:101690000122EA540020F0BD064C02F00F02A354D0
:1016A000EAE70820F7E700BFF4030020EC0300207E
:1016B00000E100E014ED00E02DE9F04105464FF4B3
:1016C000803400681C4F8C40C0F84843C0F8084381
:1016D00095F805C00CEB4C063E4422F07F4296F88C
:1016E000018001F5A8764FEA4C0E40F82620B8F1AB
:1016F000000F11D0D0F80485F4446744A8EB02062B
:10170000904538BF06F1FF16BA7838BF06F57F4618
:10171000B24201DD0D200CE03BB15031890089B2AD
:10172000FFF732FF2B68C3F804432B680020C3F88F
:101730004443BDE8F08100BFEC03002002480322CF
:101740000021FFF729BF00BF00B00040024804227B
:101750000121FFF721BF00BF0040024000F180409F
:1017600000F5E040002382B0036003680193019B11
:1017700002B07047F0B5524B524CD3F8043185B0EB
:10178000002B3DD094F82E204FF48270FFF7E6FF37
:101790002AB394F82F3013BB494AD2F80031002BFA
:1017A00032D04FF48070FFF7D9FF638B94F82D008F
:1017B000834250D921891B1A9BB289B26383CB1A09
:1017C000616801EB4303C2F82C36C2F830064FF4CF
:1017D0008270FFF7C3FF3A4B01225A6014E063683E
:1017E00002932389ADF80C30E36800218DF80410D2
:1017F00033BB2374236801A89847002384F82F3053
:1018000094F82E30002BC7D12D4BD3F810315BB19B
:101810004FF48870FFF7A2FF0023237402238DF892
:10182000043001A823689847254BD3F81431EBB155
:101830004FF48A70FFF792FF0023237405B0F0BDC8
:10184000208B608363602081E160002AD2D11C4B31
:1018500001221A60CEE7BAD1E368012184F82F1083
:1018600013B100216183AEE76383B0E766694FF08F
:1018700000470125002EE1D0B6FA86F227FA02F3DE
:101880004632920026EA030602F1804303F5E04364
:101890001B68002BEED01046A2F58C72FFF75EFF9E
:1018A000D30882F00402C2F380028DF808308DF86C
:1018B000045023688DF8092001A89847DAE700BF93
:1018C00000700040FC0300201F2886BF054A00F07E
:1018D0001F004FF0A042012303FA00F0C2F80C05EC
:1018E000704700BF000300501F2886BF054A00F064
:1018F0001F004FF0A042012303FA00F0C2F80805D0
:10190000704700BF00030050D0F8183107B5DBB1B5
:101910000023C0F81831D0F81831C87F0193FF2890
:10192000019B03D08B7F63B1FFF7CEFF00230846F6
:101930000B724B7750F8083B496803B05DF804EB35
:101940001847FFF7D1FFF1E703B05DF804FB000093
:1019500001490248FFF7D8BF9804002000F0024078
:1019600030B4064A52F82040054A002532F81010DB
:1019700022F81050234630BC184700BFC80400208E
:10198000BC0400200020FFF7EBBF0120FFF7E8BFF9
:101990000220FFF7E5BF0320FFF7E2BF0420FFF7B7
:1019A000DFBF0520FFF7DCBF2DE9F3470024064623
:1019B0000F46904600F5A0754FF48039A2462B687B
:1019C0008BB1D6F8043309FA04F21A420BD0C5F8E9
:1019D00000A02B680193A000019B00F5A07398B2B2
:1019E000D7E9003198470134444505F10405E6D1B3
:1019F00002B0BDE8F0870000F7B506792F4D0C2343
:101A00007343EF183C7A002C55D1EA504B687B6049
:101A1000477903682246A446D4B2A7423CD8CA7884
:101A200043F307345201002CC3F30733D2B23DDB3A
:101A3000234F07EB040C8CF800230122640903F008
:101A40001F0302FA03F347F8243003684A78D3F8F7
:101A5000040502F0030220F003000243C3F804254A
:101A6000D3F808058A7820F0030002F0030202434D
:101A7000C3F80825D3F810050A7820F00F0102F00A
:101A80000F020A43C3F810250C2303FB065501235C
:101A90002B72002003B0F0BD940004F5A074013255
:101AA00043F804C01C590194019CB5E7054C03F0B0
:101AB0000F03E254C9E70820ECE700BFE004002070
:101AC00000E100E014ED00E0036801221A600279F1
:101AD000034B0C2101FB023302221A72704700BF34
:101AE000E004002003680122DA60704737B54FF444
:101AF000803400688C407BB18B0003F5A073002517
:101B0000C550C3580193019BC0F8044301F5A87167
:101B100040F8212003B030BDC0F80843F6E70000CC
:101B2000024903480422FFF73FBF00BFE004002042
:101B300000800040024903480422FFF735BF00BF80
:101B4000EC04002000900040024903480422FFF703
:101B50002BBF00BFF804002000A00040024903484A
:101B60000622FFF721BF00BF0405002000A00140AE
:101B7000024903480622FFF717BF00BF10050020E7
:101B800000B001400023435082B043580193019BB1
:101B900002B070478B6A4A6B9A4210B54FF001034E
:101BA00005D2496A8A5CC0F81C251A4604E091F8FF
:101BB0002C201AB1C3610022104610BD0C6A6406C5
:101BC00003D5C36181F82D30F6E74361EDE770B5C9
:101BD000D0F8046105460C4626B14FF48271FFF738
:101BE000D1FF012694F82F2022B34FF4927128469A
:101BF000FFF7C8FF4FF48E71FFF7C4FF4FF48471F5
:101C0000FFF7C0FF002E69D094F82F20002384F83E
:101C10002D3092BBA36A616B99421CBF1646052307
:101C200086F001061CBFC5F80025C5F8003584F80C
:101C30002F6023E0D5F824314BB14FF49271284640
:101C4000FFF7A0FF01236B6184F82F30DAE7D5F8A6
:101C50001C31ABB14FF48E712846FFF793FF636BD5
:101C600001336363D5F8243113B14FF49271E7E780
:101C70002146FFF78FFF0028C4D10022104670BD17
:101C8000D5F80831002BBDD04FF484712846FFF7FA
:101C900079FFD5F82431002BE7D1636BA16A8B4221
:101CA000B0D2616AD5F81805C854636BA16A0133D4
:101CB000481E8342636308D1206A400610D4022381
:101CC000C5F8003201232B629CE78B42FAD1236ACC
:101CD0005B0697D5022384F82D30CFE70122CDE7AC
:101CE0008B42EFD1F6E7000037B5314B01930D463B
:101CF0004FF48271FFF746FF4FF49271FFF742FFF6
:101D00004FF48E71FFF73EFF4FF48471FFF73AFFF7
:101D10000023C0F800326B6385F82F300123036283
:101D200095F82D209A4218BF836029460446FFF794
:101D300031FF2B6883B140F28623AB60AB68C4F8F7
:101D40000433002003B030BD29462046FFF73FFF93
:101D500028B1019B013B0193019B002BF4DC95F81A
:101D60002F0050B9019B002BECDC0023C4F8003598
:101D70000523C4F800350320E4E7D4F8C434C4F8DC
:101D8000C43493B113F0010F14BF4FF40240032089
:101D900048F2012213F0020F18BF104613F0040F8F
:101DA00048F2022318BF1846DCE70320DAE700BF39
:101DB000A086010037B5344B01930D464FF4827174
:101DC000FFF7E0FE4FF49271FFF7DCFE4FF48E71E7
:101DD000FFF7D8FE4FF48471FFF7D4FE00236B6346
:101DE00085F82F30AB6A012B044617D12B6A5B06AE
:101DF00014D40223C4F800320123236295F82D2065
:101E0000022A18BF23602B6893B140F28623AB608F
:101E1000AB68C4F80433002003B030BD0123E9E708
:101E200029462046FFF7D3FE28B1019B013B0193D1
:101E3000019B002BF4DC95F82F0050B9019B002B7F
:101E4000EADC0023C4F800350523C4F8003503207C
:101E5000E2E7D4F8C434C4F8C43493B113F0010FEA
:101E600014BF4FF40240032048F2012213F0020F86
:101E700018BF104613F0040F48F2022318BF18468B
:101E8000DCE70320DAE700BFA0860100F0B587B0E9
:101E900007460C46FFF79BFE002846D194F82FC05A
:101EA000D4F820E0BCF1000F1FD1237B9A1E012A39
:101EB0001BD8616AA269914217D1E2696262CEF3CE
:101EC000401E6269A262032B84F82CE084F82DC0C6
:101ED0002146384604D107B0BDE8F040FFF704BF03
:101EE00007B0BDE8F040FFF765BF04F10C060FCE68
:101EF00001AD0FC533682B60BCF1000F20D0D7F8BF
:101F0000C434C7F8C434990711D501238DF80030C3
:101F100000231EF0040F84F8303002D0BCF1000F13
:101F200003D0D4E900316846984707B0F0BD5A079E
:101F300001D50223EAE7DB074CBF03230423E5E7CF
:101F40008DF800C0E4E7000001490248FFF79EBF9A
:101F50001C0500200030004002494FF04020FFF7F0
:101F600095BF00BF580500202DE9F84F07793B4E7B
:101F70004FF03C0A0AFB07FA06EB0A059B4695F868
:101F80002E3080460C469146002B63D1344B0068BE
:101F900053F82710FEF7AEFF00285DD12168637B60
:101FA00085F838301F298CBF01F01F030B4603F55D
:101FB000E07388BF2B4AA86098BF4FF0A04240F260
:101FC0000C6C85F8300042F823C06268C5F804B094
:101FD0001F2A8CBF02F01F03134685F82D0085F8D9
:101FE000310003F5E07388BF1E4D46F80A9098BF94
:101FF0004FF0A04545F823C0D8F80030C3F80815C5
:10200000C3F80C25A268C3F82425B9F1000F14D039
:10201000227B43F3073152010029C3F30733D2B2C5
:1020200013DB114C651885F800230122490903F0E0
:102030001F0302FA03F344F821303C2303FB076635
:10204000012386F82E30BDE8F88F084903F00F030E
:10205000CA54F2E70820F6E71120F4E71C05002037
:102060002C9A00000003005000E100E014ED00E0B5
:10207000036802790521C3F80015044B3C2101FBDC
:102080000233022283F82E20704700BF1C05002077
:102090002DE9F047314F0479D0F800903C2303FB41
:1020A00004730D4693F82D30012B944604D10B7820
:1020B000012B06D1082011E0022B02D10B78012B55
:1020C000F8D13C26264BC9F8083306FB047696F86F
:1020D00030302BB1B368C9F804331120BDE8F08764
:1020E0008CF00403C3F3800386F83030C6F820C0B8
:1020F000A846B8E80F0006F10C0EAEE80F00D8F8BD
:102100000030CEF800306B68B362EB6873626B78B6
:10211000C9F888352B78C4EB041A012B07EB8A0A1F
:1021200017D09BB9CCF3401C3C2303FB04735146EE
:1021300083F82CC04846FFF7D7FD3C235C433A198F
:102140003B59002BCAD182F83030C7E74FF0010C61
:10215000EAE751464846FFF72DFEEEE71C05002052
:102160008642040010B586B0012402930023CDE915
:1021700003328DF805101A4601A98DF80440059325
:10218000FFF786FF06B010BD10F0080F074B06D012
:10219000D3F8C00410F4803F18BF0020704700F04F
:1021A0000F0000F5947053F8200070470070024053
:1021B0004FF08053D3F83001A0F108035842584142
:1021C00070470000054B10F0800FA3F1900208BF8C
:1021D000134600F00F0003EB00107047300600209C
:1021E00010F0800F14BF0023102300F00F001844DC
:1021F0007047000008B5FFF7DBFF18B1034B002262
:10220000C3F81C2C024B00221A7008BD007002405B
:102210009505002007B5094A00231370084AADF858
:10222000053013708DF8073001238DF80430054B0D
:1022300001A81B68984703B05DF804FB94050020D3
:10224000C4060020C00600207047000008B5014603
:10225000FFF7D0FF0846FFF7B5FF827B032A0AD1BC
:102260000846FFF7BDFF01218140BDE80840044852
:10227000C943FEF7E9B90368002BF1D008BD00BFE0
:10228000980500208720FFF7E1BF8620FFF7DEBF1B
:102290008520FFF7DBBF8420FFF7D8BF8320FFF73F
:1022A000D5BF8220FFF7D2BF8120FFF7CFBF00004C
:1022B00008B5FFF79FFF084B93F89E20032A06D12D
:1022C000BDE8084005486FF00101FEF7BDB9D3F83D
:1022D0009030002BF4D008BDA00500209805002008
:1022E000012273B502FA01F51E491F4E0B6810F06A
:1022F000800F43EA050304460B6027D000F00F026D
:102300001A4B33F8123003F1804303F51C331A687B
:102310004AB100221A60BFF36F8FBFF34F8F80283E
:1023200011D0FFF793FF316829400AD106238DF8B9
:1023300004308DF806408DF807100D4B01A81B687E
:10234000984702B070BDFFF7B3FFECE733681D425A
:10235000F7D106238DF804308DF806008DF807209C
:10236000EBE700BF9C05002098050020449A000080
:10237000C006002008B5054B1A781046FFF730FF5D
:10238000BDE8084001461046FFF7AABFC40600207A
:10239000FFF78EBF07B500238DF804300B4BD3F841
:1023A0002025ADF80620D3F8C034094A002B136865
:1023B0000CBF4FF480714FF001210B431360054BAC
:1023C00001A81B68984703B05DF804FB0070024049
:1023D0009C050020C006002007B5FFF70BFF0D4B42
:1023E00093F88E20032A11D0D3F8803073B90A48AD
:1023F0006FF08071FEF728F906238DF8043008236A
:10240000ADF80630054B01A81B68984703B05DF88E
:1024100004FB00BFA005002098050020C006002096
:1024200007B5FFF7E7FE114B93F81E21032A07D1EA
:102430000F486FF4807103B05DF804EBFEF704B948
:10244000D3F8103173B90A486FF48071FEF7FCF8C5
:1024500006238DF804308823ADF80630054B01A81B
:102460001B68984703B05DF804FB00BFA00500207F
:1024700098050020C00600202DE9F04F5D4E33780E
:1024800085B0002B6DD15C4C5C4B196823681940FA
:1024900067D011F0012367D093FAA3F1002966D029
:1024A000B1FA81F10F2964D9A1F110085FFA88F817
:1024B0004046FFF787FE4FF0010B4FFA88FA0BFA00
:1024C00001F1BAF1000F81466FEA010B54DA03689B
:1024D0008289416802A8984708B9C9F80000FFF747
:1024E00067FE18B1464B8222C3F81C2C01232168D9
:1024F000039A3370D9F8083001EA0B011344BAF19A
:10250000000F2160C9F8083008F0080002993C4B20
:1025100008F00F085EDA002854D0C3F8A016C3F8FC
:10252000A426042303EB880303F1804303F51C3343
:1025300001221A60BFF36F8FBFF34F8F314B324AC6
:102540002F4913EA2A0338BF134633F8183003F132
:10255000804303F51C331A681AB9D1F80021002A08
:10256000F9D005B0BDE8F08F91FAA1F196E72021EE
:102570009AE741F080089BE74046FFF705FEB9F86F
:102580000C20D9F80410D9F800500346074602A8D9
:10259000A847029A002A9FD0039A97429CD9022703
:1025A00089F80E7059461548FEF74EF806238DF847
:1025B0000430164B8DF806801B688DF8077001A853
:1025C000984761E7142000FB0833C3F80016C3F8EE
:1025D0000426A6E728B1C3F8A017C3F8A427282328
:1025E000A0E7142000FB0833C3F80017C3F8042742
:1025F000F5E700BF950500209C0500209805002008
:1026000000700240449A0000569A0000C006002064
:1026100037B50446FFF7EEFD2046FFF7D3FD837B79
:10262000032B0DD12046FFF7DBFD01218140C9437B
:102630000F48FEF709F803B0BDE83040FFF71CBFB4
:102640000568002DF7D12046FFF7CAFD0121814022
:10265000C9430748FDF7F8FF06238DF80430054B02
:102660008DF806401B688DF8075001A89847E2E7EF
:1026700098050020C00600200720FFF7C9BF0620EC
:10268000FFF7C6BF0520FFF7C3BF0420FFF7C0BF99
:102690000320FFF7BDBF0220FFF7BABF0120FFF7FD
:1026A000B7BF000038B5134BD3F86C44C3F86C4483
:1026B000BFF36F8FBFF34F8F01251CB9BDE83840C2
:1026C000FFF7DABE94FAA4F171B1B1FA81F30F2BDE
:1026D00019460BDDA1F11000C0B205FA01F324EA9E
:1026E0000304FFF7FDFDE8E72021F3E743F0800056
:1026F000F3E700BF00700240254B13B5D3F8004448
:10270000C3F80044BFF36F8FBFF34F8FBFF36F8FDA
:10271000BFF34F8FE1050ED51E4B01221A70002327
:10272000ADF805308DF8073002238DF804301A4BD0
:1027300001A81B689847A2050DD5164A00231370FF
:10274000ADF805308DF8073003238DF80430124BB7
:1027500001A81B689847630518D50E4A1378ABB1DA
:10276000002313700A4A0121C2F808159165BFF3CE
:102770006F8FBFF34F8FADF805308DF8073004230E
:102780008DF80430044B01A81B68984702B010BDB7
:102790000070024094050020C0060020034B012277
:1027A000DA64BFF36F8FBFF34F8F70470070024042
:1027B00013B5FFF71FFD114B9A7B032A07D1104871
:1027C0006FF4803102B0BDE81040FDF73DBF1C68DA
:1027D0007CB96FF480310A48FDF736FF06238DF887
:1027E0000430084BADF806401B6801A8984702B0BA
:1027F00010BD02B0BDE81040FFF7D0BFA00500201B
:1028000098050020C006002010B50446002001F005
:10281000C3FF2046FFF7E4FC0D4901220B6802FAD2
:1028200000F023EA000314F008020B600AD104F060
:102830000F04084B04F5947443F82420BFF36F8F02
:10284000BFF34F8FBDE81040002001F0A7BF00BFCD
:102850009C05002000700240F7B50446002001F0FE
:102860009BFF2046FFF7AEFC05462046FFF7B8FC6D
:10287000012214F0800F02FA00F22D4818D10368EB
:1028800032EA03010AD02046FFF7BEFF0323AB73F1
:10289000002003B0BDE8F04001F080BF23EA02034E
:1028A00029600360234B186820EA02001860EDE7F6
:1028B000230715D4802C204B2ED004F00F0101F2F9
:1028C000DA314900C3F80018D3F80418D3F80468C3
:1028D000C9B241F002013143C3F80418D3F80438F7
:1028E000144E0168336861EA03071742D0D01343DE
:1028F00021EA02013360002301602B600323AB73E4
:102900008DF807300D4B8DF8064006221B688DF8B8
:10291000042001A89847BBE740F2B471C3F800183F
:10292000D3F80418D3F80468C9B241F00401D2E71F
:10293000980500209C05002000700240C006002081
:1029400073B5184B184CD3F880542368174EDA43EC
:10295000174B31781B6892B208461A43FFF740FCC8
:10296000012303FA00F0104202D00846FFF774FF7B
:102970006FF0011105F080050D483570FDF764FE1C
:10298000236843F0010323600023ADF805308DF880
:10299000073005238DF80430064B01A81B689847C3
:1029A00002B070BD007002409C050020C4060020EB
:1029B00098050020C00600201C4BD3F80413002308
:1029C0002DE9F04101241D4671B9194F03F40006A9
:1029D00023F400044FF00108D4B9FFF74DFD1EB3F6
:1029E000BDE8F041FFF7ACBF91FAA1F21148B2FA8D
:1029F00082F29600304404FA02F206682EB10560B5
:102A0000BFF36F8FBFF34F8F134321EA0201DBE760
:102A100094FAA4F5B5FA85F557F8253008FA05F5C6
:102A2000984724EA0504D7E7BDE8F081007002402A
:102A3000689A00000071024013B5084CD4F80031C8
:102A40004BB1074B1B6898470023C4F80031D4F8FA
:102A500000310193019B02B010BD00BF0000014096
:102A6000C80600201F2886BF00F01F00044B4FF04F
:102A7000A04300F5E070032243F82020704700BF18
:102A800000030050014B01221A707047602E002095
:102A900008B5064B06481A6A002101235209FEF7C1
:102AA0000BFEBDE80840034804F0CAB8342B0020F0
:102AB000109F0000D89E000038B5054D044645F033
:102AC00001054FF47A40A847013CFAD138BD00BF58
:102AD000D09E0000024B0822C3F80825704700BFB3
:102AE00000030050024B0822C3F80C25704700BFBA
:102AF000000300501F288CBF094A4FF0A0424FF03E
:102B00000103D2F8041588BF00F01F0003FA00F09B
:102B100020EA01030840C2F80835C2F80C057047E6
:102B20000003005073B50B78012B05460C462AD0E4
:102B3000022B22D0FBB901F037F90028FBD1234B3F
:102B40005B88022B0AD92248224B626822491B1A51
:102B5000DB081B0443F0030001F096FA1F4861688C
:102B60000026067005F032F8D4E90112284604F078
:102B7000BBF91B4B1E7002B070BD002002B0BDE857
:102B80007040FDF725BC2E20FFF7B4FF01F00CF9D3
:102B90000028FBD1124B1B78002BECD0D4E901129A
:102BA000284604F0A1F90F4803F0CCFE02460028A5
:102BB000E1D10C48694603F0CCFE08B101F088FD74
:102BC000DDE90012284604F08CF9D4E770000020FB
:102BD00018950000D0950000D09A0000CC06002087
:102BE000612E0020E094000070B500208AB004F04F
:102BF00067FF684D002404F053FF0134B4F5807F73
:102C000005F8010BF7D1644E0FCE05AC0FC456F892
:102C1000103962492360002205A8FEF7E7FA08B1DF
:102C200001F056FD5E4D6B88022B09D95D485E4B65
:102C30005E49C01AC008000440F0030001F020FA09
:102C400040238DF80B305A4B70699B88039000220B
:102C5000114603A8ADF81030FEF7AEFB08B101F045
:102C600037FD00229923114603A88DF80C30FEF79A
:102C7000A3FB08B101F02CFD01238DF80C300022DC
:102C800002230DF10B0103A88DF80D30FEF794FB24
:102C900008B101F01DFD474C002101202170FEF715
:102CA0003FFC08B101F014FD2378002BFCD0002379
:102CB00023706B88022B09D93A483B4B3E49C01A16
:102CC000C008000440F0030001F0DAF931480022A6
:102CD0004FF48071FEF7F8FB08B101F0F9FC23789E
:102CE000002BFCD0002323706B88022B09D92D48C0
:102CF0002D4B3249C01AC008000440F0030001F017
:102D0000BFF92F4800224FF48071FEF7F3FB2378C0
:102D1000002BFCD0002323706B88022B11D9224B8F
:102D200020482849C01AC008000440F00300019060
:102D300001F0A6F96B88022B03D92349019801F011
:102D40009FF91F4913484FF4807204F06FFE6B889F
:102D500090B9022B09D91348134B1C49C01AC0085B
:102D6000000440F0030001F08BF9194B01221A70A6
:102D7000FEF75CFB0AB070BD022BF9D90A4B09487B
:102D80001449C01AC008000440F0030001F078F9AB
:102D9000EEE700BF602D0020B49E0000852A0000F1
:102DA00070000020D095000018950000DD9A00000A
:102DB000C89E0000602E0020F39A0000189B0000BF
:102DC000602C0020369B0000409B00004B9B0000C5
:102DD000642E00205B9B0000F7B5184B184C1A8836
:102DE0009B788DF80630174B174D184E184FADF8DD
:102DF0000420E41AE408240444F0030401A928464A
:102E000000F00AFB20B1134B01221A7003B0F0BD91
:102E100005223146384604F064F80F4B5B88022BDC
:102E200003D90E49204601F02BF94FF47A70FFF7D1
:102E300043FE00F0B9FF0028FBD1DFE77A9B0000DA
:102E4000D095000018950000CC060020220200203A
:102E5000D89E0000622E0020700000206D9B0000B4
:102E600007B50C4B0C49186800909B880B48ADF8CF
:102E700004300B2204F035F84FF47A70FFF71CFE93
:102E80006946074800F0C8FA431E5842584103B04B
:102E90005DF804FB7D9B000014020020D89E00001A
:102EA000CC06002038B5764C6388022B09D97548CA
:102EB000754B7649C01AC008000440F0030001F0C9
:102EC000DFF86420FFF7F8FD00F06EFF0028FBD16B
:102ED0002E20FFF7C7FD2320FFF7C4FD6C4D09200E
:102EE000FFF7C0FD0423C5F81C376420FFF7E4FD9D
:102EF000D5F81035674DDA09C3F3C0132B7063881A
:102F0000022B0BD95F48604B6349C01AC00800040C
:102F100002F0010240F0030001F0B6F86420FFF770
:102F2000CBFD00F041FF0028FBD12A786388002AFE
:102F300075D0022B09D95348534B5849C01AC008C1
:102F4000000440F0030001F09BF84FF4FA70FFF723
:102F5000C9FDFFF7B1FD00F027FF0028FBD1638812
:102F6000022B09D94748484B4D49C01AC0080004F4
:102F700040F0030001F084F84FF4FA60FFF7AAFD77
:102F8000FFF79AFD00F010FF0028FBD14FF4FA6024
:102F9000FFF7A8FDFFF790FD6388022B09D9394898
:102FA000394B4049C01AC008000440F0030001F04A
:102FB00067F84FF4FA60FFF77FFD00F0F5FE002898
:102FC000FBD16388022B09D92E482F4B3649C01AF2
:102FD000C008000440F0030001F052F84FF4FA700A
:102FE000FFF780FDFFF768FD4FF4FA60FFF772FD11
:102FF000FFF762FD4FF4FA60FFF774FDFFF75CFD29
:103000006388022B3AD9204B1E482849C01AC008B1
:103010000004BDE8384040F0030001F031B8022B55
:1030200009D91848184B2049C01AC008000440F0BC
:10303000030001F025F84FF4FA70FFF753FDFFF796
:103040003BFD4FF4FA60FFF745FDFFF735FD4FF408
:10305000FA60FFF747FDFFF72FFD6388022B09D9C0
:103060000848094B1149C01AC008000440F0030089
:1030700001F006F800F098FE0028FBD138BD00BF33
:1030800070000020D095000018950000839B000080
:1030900000030050662E0020979B0000A89B0000B4
:1030A000B49B0000C99B0000E19B0000FC9B00005A
:1030B00030B58BB0FDF7C6F908B101F009FB00206F
:1030C000FDF7E0F94FF48041002000F04FFC08B11B
:1030D00001F0FEFA182401F0EBFA2246002104A8C0
:1030E00004F041FD1423CDE90234642306934FF02C
:1030F000EB73089306238DF82530A84BA84A02A944
:10310000184603F0E3FD08B101F0E2FAA34803F02A
:10311000B1FE4FF47A70FFF7CFFCA2499F48052219
:1031200003F0DFFE08B101F0D3FA00F0B9F99E4CCC
:10313000FFF7B8FE4FF4FA70FFF7BEFC00F096F907
:103140004FF4FA70FFF7B8FC6388022B09D997484F
:10315000974B9849C01AC008000440F0030000F0E3
:103160008FFF4FF4FA70FFF7A7FC00F01DFE002858
:10317000FBD1914D914A297891480123FEF7F2FF46
:103180006388002840F0C080022B0AD98748884B0A
:103190002A788C49C01AC008000440F0030000F0EF
:1031A00073FF894B01221A704FF4FA70FFF784FC09
:1031B00000F0FAFD0028FBD13220FFF77DFCFFF77D
:1031C0000BFE6388022B09D97848794B7F49C01AD6
:1031D000C008000440F0030000F052FF7C4D4FF4A3
:1031E0007A70FFF769FC2B78002B00F0A780FFF7BF
:1031F00037FE784B18706388002800F09380022B0C
:1032000009D96A486A4B7449C01AC008000440F0E2
:10321000030000F035FF00F0C7FD0028FBD1FFF7E9
:10322000E3FC6388022B11D9614B60486B49C01ADB
:10323000C008000440F00300019000F021FF638803
:10324000022B03D96649019800F01AFF654A63888A
:103250001278002A7DD0022B09D95448544B624978
:10326000C01AC008000440F0030000F009FF2B78EA
:1032700083B1584A63881278002A73D0022B09D987
:103280004A484B4B5949C01AC008000440F003009B
:1032900000F0F6FE4C4A63881278002A6BD0022BAD
:1032A00009D94248424B5249C01AC008000440F0B4
:1032B000030000F0E5FE4F4A63881278002A63D0CD
:1032C000022B16D939483A4B4B49C01AC0080004A2
:1032D00040F0030000F0D4FE6388022B09D9334884
:1032E000334B3E49C01AC008000440F0030000F010
:1032F000C7FEC820FFF7E0FB0920FFF7FBFB00F04B
:1033000053FD0028FBD1F4E7012B7FF64DAF284B8E
:1033100026483A49C01AC008000440F0020000F0F4
:10332000AFFE41E7012B7FF676AF2048204B3449B2
:10333000C01AC008000440F002006AE76388012B4D
:103340007FF669AF19481A4B2E49C01AC00800040D
:10335000F1E7022B8BD91548154B2B49C01AC00831
:10336000000480E7022B95D91048114B2749C01A59
:10337000C00800048AE7022B9DD90C480C4B244955
:10338000C01AC008000492E7022BB2D90748084BC4
:103390002049C01AC00800049AE700BFD89E000068
:1033A000252B00002202002070000020D095000094
:1033B000189500000A9C0000200200202102002035
:1033C0001C9F0000209C0000632E0020749C0000C5
:1033D0001F020020652E0020859C0000C09C00007C
:1033E000019D0000622E00202A9D00007B9D0000B0
:1033F000CC9D0000642E00201D9E0000509C00000B
:10340000989C0000A79C0000539D0000A49D000014
:10341000F59D0000469E00002DE9F0410F468046D4
:1034200004F01DFC0446384604F019FC002506464D
:10343000241AAC4202DA0020BDE8F0813246394657
:1034400008EB050004F042FB08B10135F1E701206B
:10345000F2E7000000F01F00034B00F5E0700322CC
:1034600043F82020704700BF000300501FB5094BF0
:103470000FCB6C4684E80F00002307481A4621460C
:10348000FDF762F808B101F023F90448FEF7F0FDFA
:1034900004B010BD289F0000389F00003C9F000032
:1034A00008B52E20FFF7D6FF2620FFF7D3FF024BEB
:1034B0004022C3F8082508BD00030050002110B5C4
:1034C000084604F043F8044608B905F069FB2046B5
:1034D00010BD000008B5074B00221A60BFF35F8FD4
:1034E00005F02AFB014618B9BDE8084004F02EB8E3
:1034F000032008BD682E0020002844D0A0F57000ED
:10350000A0F54060352839D8352837D8DFE800F0F5
:10351000211E362427272A3330363636361E361EED
:103520003939393636363636363636363636363632
:10353000242A24271B2D362D363636363636363697
:10354000212A27361E1E48F21750704748F20350B2
:10355000704748F21350704748F21050704748F2D5
:103560001150704748F21450704748F201507047AC
:1035700048F20250704748F27150704748F21650B6
:10358000704748F27050704708B50121044801F0B7
:1035900044FFBFF35F8FB0FA80F0400908BD00BF61
:1035A000682E002013B502680C4B01919A42044624
:1035B0000FD0FFF7E9FF70B10199201D04F0D2FD93
:1035C000FFF79AFFBFF35F8F054B00221A6002B02E
:1035D00010BD0020FBE748F20450F8E76169614D37
:1035E000682E002000230428CB604B6098BF044B5A
:1035F000044A98BF53F820308A600B60704700BFC0
:10360000D0A40000ACA40000CB6800225A7170471F
:10361000C368DB6800225A717047CB6801225A7177
:103620007047C368DB6801225A7170470D4A8A608F
:1036300070B50D4A0D4C0023121BCB604B600B6024
:1036400012091D469A4207D0E6683679FF2E05D04A
:10365000854202D1A3680B6070BD0135013310347F
:10366000F0E700BFE4A4000088970000789700000E
:103670002DE9F3478368D3F84831C3F340059B072E
:10368000074606D50022114602B0BDE8F04702F019
:10369000D1B9144E144CDFF85880DFF85890DFF899
:1036A00058A0A41B2409A54202D102B0BDE8F087AE
:1036B000F168B3680A79FF2A07D10C4A0821384615
:1036C00002F08CF901351036EDE74879002814BF77
:1036D00041464946CDE9001238465246082102F0DB
:1036E0007DF9EFE77897000088970000B29F00000F
:1036F000A19F0000A99F0000D19F00002DE9F74F76
:10370000154D164C9946641B52F8043C06468846F3
:10371000174624094FF0000B5C4507D1104A0221DF
:10372000304603B0BDE8F04F02F058B9A9680193E4
:10373000184604F06DFAAA46019B103540B93B4685
:10374000424651463046CC4603B0BDE8F04F604794
:103750000BF1010BE0E700BF7897000088970000AD
:10376000F29F0000014BFFF7C9BF00BF153B0000EF
:10377000014BFFF7C3BF00BF09360000014BFFF745
:10378000BDBF00BF1B360000014BFFF7B7BF00BF36
:10379000F13B0000037813F0040216D003F003039A
:1037A000012B03D0022B09D0012070470A68008842
:1037B0000232C0F3831002440A60F5E70B684288C6
:1037C000023303EB92130B60EEE7104670470000E4
:1037D0002DE9F04FDFF810A10F4685B00446861C96
:1037E0000020154600F0D8FFDAF804203A60DAF835
:1037F000083003F580739B1A0AF21C470AF58369A7
:103800000AF21448B34219D30020002D68D004F006
:103810000F039B0143F0050363F30F00DAF8043054
:10382000DAB2033233444AF822000020CAF80430E6
:1038300000F0B4FF012005B0BDE8F08F012138464B
:1038400001F01AFE484601F02FFE404601F02CFE22
:10385000DAF808000090C0B203300AEB8000694635
:10386000FFF798FF009B30BBDAB20AEB8202D16807
:1038700001919A1C0133DBB20AEB83030092D3F867
:103880000CB001F00303012B22D0022B15D083468C
:10389000404601F00CFE10B1009BCAF808305946B2
:1038A000384601F0E9FDDAF80830DAF8042003F5CB
:1038B00080739B1AA6E7D8B2CEE7BDF80630C3F3F3
:1038C000891303334FEA1B4B02EB93030093DFE7AB
:1038D000BDF80430C3F383134FEA1B4B1344F5E7E1
:1038E000A40544F0060099E73C2F0020012907B504
:1038F000034604D08168D1F84811890707D5002212
:103900001146184603B05DF804EB02F093B8536813
:103910000193054B00931368044A022102F05EF8FC
:1039200003B05DF804FB00BF12A0000008A0000077
:1039300030B599B10A4B0B4A0B49D21AD208002371
:103940009A4201D1052006E031F823500468A542CF
:1039500002D10360002030BD0133F1E70846FAE7E9
:1039600018950000F8960000140000202DE9F84F8B
:103970001E4B1F4801221A7002F091FE814690BB37
:103980001C48DFF880801C4CDFF87CA003F027F88F
:10399000A4EB0804E4084D46A54208D10023174AC9
:1039A00019469C421AD022F823100133F9E7002768
:1039B0003E4608EBC50BB54209D058F83610DBF887
:1039C0000000142204F082F80028C8BF0137013635
:1039D000B442F0D12AF825700135DDE70848A2008D
:1039E000002104F0C0F84846BDE8F88F3C2F0020C5
:1039F00014970000A0A40000F89600001600002014
:103A000004010020189500001400002007B5019063
:103A100001A8FFF78DFF30B9019A044B53F832002B
:103A200003B05DF804FB0020FAE700BF1895000022
:103A3000002310B5CB604B60034B8B600C4601211B
:103A4000FFF7E4FF206010BDACA40000074B032982
:103A500003EBC00006D0042906D0022918BF0021BC
:103A6000084670470179FBE74179F9E718950000AE
:103A700030B5124C00EB400054F8215002FA00F32C
:103A8000072202FA00F06B400D4A03406B40C3F37B
:103A9000821044F8213002EB8101C3F3C20282425A
:103AA00038BF0246C3F34220824203F0070338BF07
:103AB0000246934238BF13464B8030BD04010020BC
:103AC0001400002013B50446019101A8114693B1DA
:103AD000FFF72EFF10B1002002B010BD01990B4A74
:103AE00004EB440052F8212007238340134023FABB
:103AF00000F0C0B2F0E7FFF71BFF0028EBD1019AFE
:103B0000034B03EBC2039879E6E700BF04010020F2
:103B100018950000294B2A4A2DE9F04F9B1A4FEACD
:103B2000D30ACB685B7985B005460E461BB9254A9A
:103B3000022101F053FF244B244ADFF8A48008211E
:103B4000284601F04BFF224A0821284601F046FF93
:103B50000024544502D105B0BDE8F08FF36893F816
:103B6000049001231A4621464846FFF7ABFF002385
:103B70000746012221464846FFF7A4FF01210428F9
:103B800081468346204628BF4FF00409FFF73EFFD9
:103B90005FFA89F90F4A58F82910034658F82700A8
:103BA0000D4F0090CB4598BF1746CDE901170B4A42
:103BB0000821284601F012FF0134CAE7F8960000F8
:103BC0001895000029A000003CA0000048A00000BB
:103BD00066A000001EAF000027A00000A3A0000008
:103BE000BCA4000013460A46C168FFF793BF00005B
:103BF0002DE9F04F2DED028B054683B09B4616460E
:103C0000002A5DD0DBF80070CB68554993F804A01A
:103C1000384603F0FDFF0446F0B9012E09D1514AA0
:103C20000221284603B0BDEC028BBDE8F04F01F045
:103C3000D5BEDBF804304C4F57F8041B00930A2222
:103C4000184603F043FF002800F083800134052C60
:103C5000009BF1D1454A15E04549384603F0D8FFAD
:103C6000044668B9012E36D04FF00108414B424A54
:103C7000A3EB02094FEAD9030093DFF808914FE064
:103C80003E4A3B460221284603B0BDEC028BBDE80C
:103C9000F04F01F0A3BE00231A4631465046FFF70D
:103CA00011FFA04211D200213046FFF7AFFE42467D
:103CB00003460221284601F091FE0136BE42EAD1B8
:103CC00003B0BDEC028BBDE8F08F22463146504672
:103CD000FFF7CEFEF1E7274F274BDFF8A480FF1A4E
:103CE000FF080026EAE700213846FFF78FFE18EEAE
:103CF000101A202203F0EAFE034608B1013716E04D
:103D00000246019039465046FFF7DCFEA042019B77
:103D100018D3224639465046FFF7AAFE08F101089B
:103D2000B045CDD25BF8283008EE103A0027009B52
:103D3000BB42D8D15BF828304A460221284601F020
:103D40004DFEEBE719463846FFF760FE0C4A034686
:103D5000F3E7022EE4B2BED04FF0020886E700BFC0
:103D6000B9A00000C0A00000BCA400002BA100006E
:103D7000D7A00000F896000018950000DFA0000012
:103D8000F4A0000017A1000013460A46C168FFF71F
:103D90002FBF0000034BD3E90130C31A58425841EA
:103DA000704700BF3C2F00202DE9F04385B0FFF79E
:103DB000F1FF0546002840F00A81864CC4F818043B
:103DC000BFF34F8FA3680093DBB2033304EB830090
:103DD0006946FFF7DFFC009B18B1D4F81824002ACD
:103DE00063D0DAB2991C013304EB8202DBB204EB3C
:103DF0008303D268DB68029302F00303022B019273
:103E000000915DD1BDF8063073489DF80450C3F3AE
:103E100089184746502F28BF502707F1080167F33C
:103E20008F13C1F30901ADF8063002F050FCC5F361
:103E3000C2050646002800F0B18002F077FC00239E
:103E4000082201A9304602F083FC0099CB43DBB283
:103E50000133C9B20331B7EB830F4FEA830204EB9E
:103E600081012AD95FFA82F90823A7EB09073046B6
:103E700002F06EFCFFB209F10803584903F0FC039D
:103E80003A46304602F064FC009B08F1030803EB5D
:103E900098030093D4F81834002B49D1D4F8107447
:103EA000DFF84C914FF0070867E062689A428BD8C0
:103EB000A260284605B0BDE8F08308233A46E0E753
:103EC000012B6BD1BDF804504348C5F3831106297B
:103ED00028BF062161F38915023101F00F01890025
:103EE000ADF8045002F0F3FBC5F3C2050646002806
:103EF00054D002F01BFC0023082201A9304602F036
:103F000027FC0027BDF80420C2F38312BB009742B0
:103F100003F10803BED200994A1CC9B203310092D2
:103F200004EB81010422304602F012FC0137E9E77C
:103F3000304602F0FFFBFFF72DFF80F00100C5B215
:103F4000B7E7FB685A79B2B11B79BDF8081003EBEB
:103F5000430259F8211008FA02F3052D03EA010380
:103F600023FA02F308BF0325AB4204D33B68314672
:103F70001B6838469847FB681F68002FE1D1304620
:103F800002F0D8FB384600F007FCD4F818340BB91F
:103F9000009BA360002000F001FCCCE7D4F81044A3
:103FA00074B90F4B5B88012BC5D90E4B0E480F49D6
:103FB000C01AC008000440F0020000F061F8BAE73F
:103FC000236820469B689847E3681C68E8E700255B
:103FD0006FE700BF3C2F002014970000482F0020FF
:103FE0007000002018950000D095000048A1000046
:103FF000040100202DE9F34704460E46924601A92C
:10400000012218469946FFF7E3FB1B4F10B3019DB1
:104010004FF00008AA1CC84508EB020123D117483D
:10402000002101F0FAF980F31000000440EA144086
:10403000E4006B1C04F03804DBB2EDB244F0010480
:1040400007EB8303033544EA881444EA8624D860E6
:1040500047F825403B781BB1FFF7A6FE0028FBD1AF
:1040600002B0BDE8F087C9B207EB81015AF82830E9
:10407000CB6008F10108CEE73C2F00205833002028
:1040800000231A46FFF7B6BF07B50123019201AA24
:10409000FFF7B0FF03B05DF804FB1FB5CDE90123C6
:1040A000069B039301AA0323FFF7A4FF05B05DF865
:1040B00004FB1FB5CDE90023069B0293079B0393E6
:1040C0006A460423FFF796FF05B05DF804FB000085
:1040D0002DE9F84388461B49D1F8103405460024E1
:1040E0001A468AB9EA681471A3B9C1F8105413606A
:1040F000154B164EF61AF608002703F10709B742CA
:104100000DD12046BDE8F883D2681079A04212D0C4
:104110001268E6E7DB68196811601D60E8E719F8C6
:104120003720EB6842453946187928BF4246FFF7E9
:104130009FFC0137E3E701340A2CD1D14FF0FF3463
:10414000DFE700BF3C2F002018950000F896000024
:1041500038B5084B0125D3F810441D7004B938BD9B
:10416000E3685D71236820465B689847E3681C68D4
:10417000F4E700BF3C2F002010B588B00023CDE944
:104180000233CDE9003304931F4B204A0593204BA3
:1041900006929B1A9B08079302AA6B4643F227419B
:1041A00041F26E0000F0F8FFB0B905A902A800F0D6
:1041B000EBFF184B5B88022B04460AD91648174BB5
:1041C0001749C01AC0080004224640F00300FFF758
:1041D0005BFF204608B010BD48F20963984210D139
:1041E00005A902A800F0CCFF0A4B5B88022B04460D
:1041F000EFD90948094B0B49C01AC00800042246F0
:10420000E3E70324E5E700BF6E1027340401002034
:10421000F401002070000020D095000018950000E7
:1042200059A100008AA1000010B58368D3F8483175
:104230009B07044605D50022BDE81040114601F059
:10424000F9BBFFF799FF30B9044A08212046BDE8C1
:10425000104001F0C3BB024A0221F7E7BBA10000F6
:10426000D3A1000000B589B00023CDE90533CDE925
:104270000133079305AA01AB43F2274141F26E00D7
:1042800000F08AFF90B9CDE9030003A905A800F06A
:104290002DFF40B91048114A0499121A03F03AFC54
:1042A00005A800F049FF09B05DF804FB48F2096376
:1042B00098420FD10A4B5B88012B09D909480A4B58
:1042C0000A49C01AC008000440F00200FFF7D8FEF7
:1042D0000520E8E70320E6E704010020F4010020C0
:1042E00070000020D095000018950000F8A1000093
:1042F00010B58368D3F848319B07044605D50022E2
:10430000BDE81040114601F095BBFFF7ABFF30B997
:10431000044A08212046BDE8104001F05FBB024A74
:104320000221F7E71DA2000035A2000030B5C388C6
:1043300085B004460D4633B1144A00921449154A1B
:10434000284601F056FE217A05291DD0637A4BB12B
:10435000A088FFF77BFB104B104953F8202028461C
:1043600001F047FE227A0E4BA08853F822200392D8
:104370000021FFF74BFB039A0A490346284605B084
:10438000BDE8304001F035BE05B030BD4CA60000A0
:1043900034A600002CA60000A4A600003BB000003C
:1043A000C8A6000051A6000007B503460846197AC2
:1043B000052911D05B7A2BB1094A0A49019001F015
:1043C00018FE01980849019001F013FE019803B00E
:1043D0005DF804EB01F002BE002AF8D0F2E700BF5E
:1043E0004CA600003BB000001CAF00002DE9F043DC
:1043F00085B01F460C9D002395F80C902B73064644
:104400000C46904629463846FFF790FFB8F1060F54
:1044100009D8DFE808F00412181F2833400031469D
:10442000284601F0E6FD002229463846FFF7BCFF8A
:1044300085F80C9005B0BDE8F08322683146284627
:1044400001F0D7FDEFE7D4E900233146284601F01B
:10445000D0FDE8E7A36800933146D4E9002328465D
:1044600001F0C7FDDFE7E3680193A36800933146DD
:10447000D4E90023284601F0BCFDD4E72369029368
:10448000E3680193A36800933146D4E900232846EA
:1044900001F0AFFDC7E76369039323690293E36803
:1044A0000193A36800933146D4E90023284601F024
:1044B000A0FDB8E708292DE9F74F80460E461746BC
:1044C0001C463DD800251B7B2573214610460193D1
:1044D000FFF72CFFDFF88CA0DFF88CB0AE4232D9AA
:1044E00018F805205946204601F083FD0135082DB6
:1044F000F4D11B49DFF874A0DFF874B0204601F056
:1045000078FD4FF000094E4524D918F809507E2D4A
:104510001ED8284603F082FA002814BF2A462E220D
:104520005946204601F065FD09F10109B9F1080F6E
:10453000E9D1012221463846FFF736FF019B23735C
:1045400003B0BDE8F08F5146204601F052FDCDE7A3
:104550002E22E5E75146204601F04BFDE4E700BF7F
:1045600065A6000061A600005BA6000063A600002F
:1045700067A600007047000007B5054B0093054A89
:104580004FF4807300F033F803B05DF804FB00BF14
:1045900099450000F53300202DE9F843884614467C
:1045A000B2B10F4B0F4E0325002743F001092246FD
:1045B00008EB0701002003F0A9F90744241A48B9C1
:1045C00033782BB14FF47A40C847013D02D13570A2
:1045D000BDE8F88301233370002CE8D1F8E700BF71
:1045E000E0A60000F4330020704703F0BFB9F0B537
:1045F00095B008460C4616461D4602F097F81A9AE2
:104600000D920023082205A920460A938DF82C302C
:104610000C93CDE9086502F0A5F8079B0293069B71
:10462000039302238DF811309DF8143003F0030238
:10463000012A1DD1BDF81420059DC3F3C203C2F3A6
:1046400083168DF81030B20008230EA9204602F020
:1046500089F8C5F3952508AB0093324602AB0EA945
:104660002846FFF7C3FE204602F064F815B0F0BDFF
:10467000022AF8D1BDF81650C3F3C203C5F3891559
:104680008DF810300827082D2E4628BF08263B46F7
:1046900032460EA9204602F065F8AD1B08AB02AA0F
:1046A00031460EA83744FFF705FF002DEBD1DAE7BE
:1046B00008B5FFF79AFF04480421FFF709FD034BF3
:1046C00001225A7108BD00BF78970000280200201F
:1046D0001FB50021039001AA44F20100CDE90111A8
:1046E00000F004F805B05DF804FB000010B572B6E8
:1046F000FFF72EFDFFF758FB0028FBD1164C63880F
:104700004BB11648164B1749C01AC008000440F0B8
:104710000100FFF7B5FC144BD3F8F030DB0700D5F0
:1047200000BE6388012B09D90C480D4B0F49C01AF4
:10473000C008000440F00200FFF7A2FCBFF34F8F57
:1047400009490B4BCA6802F4E0621343CB60BFF324
:104750004F8F00BFFDE700BF70000020D095000024
:10476000189500004CA7000000ED00E058A70000DD
:104770000400FA0572B6024A1368013313607047E9
:10478000F8340020034A1368013B136003B962B692
:10479000704700BFF8340020FFF7ECBFFFF7F2BF0F
:1047A000024B034A1B681068184700BF04350020FD
:1047B000FC34002070B5064D0646002455F8043B35
:1047C0000BB1304698470134042CF7D170BD00BFBF
:1047D000143500204388033300EB830399420BD345
:1047E00082884FF6FF739A4208D0038833B18068FD
:1047F000431C5842584170470220704701207047BF
:10480000033080B240F2FE33984230B51FD8134BCC
:104810001A783AB91C895D892C440444A4B2B4F5D1
:10482000806F0AD91A7DAAB99A8BDC8B2244024484
:1048300092B2B2F5806F0DD801220A80144614227C
:1048400002FB04335A8910445881002030BD48F2DD
:104850000860FBE748F20660F8E700BF4835002033
:104860000B4A0C495388142000FB0311CB6833B961
:104870000420496810700122074801F047BE07492B
:104880000523137002238B80012209680023F3E7BC
:104890002C35002048350020000000207435002011
:1048A00007B5002305490093054A09680548082310
:1048B00001F068FD03B05DF804FB00BF7435002013
:1048C000DCA700000000002007B50023014600938C
:1048D000034A0448082301F055FD03B05DF804FBCA
:1048E000D4A700000000002013B500230C4600935D
:1048F0000146084A0848042301F044FD38B9074B33
:10490000142101FB043101230B7402B010BD48F2E5
:104910000D60FAE7D0A70000000000204835002015
:1049200037B50A480A4B42689C88196853880325A2
:10493000033305709BB2002000909B0001EB8401C3
:10494000044801F01FFD03B030BD00BF2C3500202E
:10495000743500200000002010B50146044800F026
:10496000E7FC1C220446002103F0FDF8204610BDA0
:104970003002002038B5144B14220D4602FB0030E3
:104980002B68446804F58051A3B15C88033403EBC1
:1049900084048C4215D22368013312D02046FFF7DD
:1049A00019FF012808D002280BD00028F1D12C6073
:1049B000012038BD0834ECE76388033304EB83043B
:1049C000E7E70020F5E700BF48350020426873B5EF
:1049D00004460D466AB3234BD9688A4229D31B6922
:1049E0009A4226D812F0030323D11F49008909896E
:1049F00088421ED12068916888421AD11B484168BC
:104A00008A4203D901F580518A420DD381698A42D5
:104A10000CD901F580518A4208D201222A80B3FACA
:104A200083F0400902B070BD1A46F7E748F2096307
:104A3000F5E700262E800196288801A9FFF79AFF46
:104A400030B92B8801339BB2012B2B80F3D9E9E7D6
:104A5000019B226899689142EED16360024B1B89E9
:104A60002381DFE7000000202C350020483500209E
:104A70002DE9F8431C461D4B1B7806460F4615468C
:104A800073B382B37CB3DFF86C804FF01409A38852
:104A9000012B02D948F2096020E009FB03F318F862
:104AA00003302BB9A0882146FFF764FF20B92060AE
:104AB000A3880133A380EAE723681EB1998832886E
:104AC0009142EFD11FB119883A889142EAD19A6890
:104AD000C5E90023064B1B892B810020BDE8F88324
:104AE00048F20160FAE748F20460F7E72435002055
:104AF0002C3500204835002008B5074B5888191D73
:104B0000FFF738FF18B1BDE80840FFF709BFBDE85F
:104B10000840FFF7A5BE00BF2C3500202DE9F04767
:104B20009F4FDFF8A08288B006463B6823B99D48B6
:104B3000414600F037FC38603D6829784B1E052B54
:104B400007D8DFE813F020007400740006010601A6
:104B50005D0148F20E641422002103A803F003F85B
:104B600041F61D539C4208BF00243B6804941A7808
:104B7000023A042A00F2FC81DFE812F0DD01E901CB
:104B80000B0213021A022EB1874B00225A604FF417
:104B90000644E0E72B79032B1CD8DFE803F014026E
:104BA0002A35824A1378022B1AD0137D022B4FF03C
:104BB000010317D114214B43D1180020D054486869
:104BC000FFF782FE03E001232B71FFF769FE002847
:104BD00000F0B980744B00225A6048F20D64BAE7C5
:104BE0000023E7E7704A13700023536041F61D5419
:104BF000B1E76F496F48002302222B718A80096850
:104C0000012201F083FCE2E76B4B684C5B88684A49
:104C100014214B43E11800262E714D681068156071
:104C2000958848600D810221E6549180C8E7B5F867
:104C300014A0AA7DDFF87491AEB1022AEB8806D9E0
:104C4000142101FB0A91DA1C088902440A8114220A
:104C500002FB0A99C3F57F43B9F80A20FD331344D8
:104C6000A9F80A3093E7142303FB0A9318895C68B8
:104C700004EB8004062A69D8DFE802F0274E3644A8
:104C80001D5A040041F61D54AA7DEB88022A06D95C
:104C9000142101FB0A91DA1C088902440A811422BA
:104CA00002FB0A99C3F57F43B9F80A20FD33134488
:104CB000A9F80A304FE74148414900234360AB69F6
:104CC0000360FFF783FE00285BD00223AB7500234F
:104CD00000930423EA182146364801F053FB0028CC
:104CE00031D048F20D64CFE72B69002B14BF0323AA
:104CF0000123AB750023009305F10C02042304F19A
:104D00000801E9E70123AB750022EB8800922A69CC
:104D10009B0004F10C01DFE703290CBF05230623E8
:104D2000AB7500230093042305F10802E118D3E7D3
:104D30000623AB75224B1988204B5868FFF7D4FD2A
:104D400004460028A0D108B0BDE8F08748F20E6400
:104D50009AE7002E7FF41BAF2B79012B34D0022B66
:104D60003FF444AF002B7FF4F4AE02232B710DF11E
:104D70000A01EB68039303A8CDE90466FFF726FE5A
:104D800010B948F20964E6E60498BDF80A10838871
:104D9000EB8003882B81FFF7A7FD044629E000BFC5
:104DA0004435002030020020243500204835002002
:104DB00074350020000000202C350020083500202C
:104DC0007C3500203C350020DFF8009203AA4B46DA
:104DD0003146A81DFFF74CFE044670B9B9F804101F
:104DE0000498FFF781FD044648F209639C423FF4B2
:104DF000FDAE002C7FF4AFAEA5E7C9E90066F3E78E
:104E0000002E7FF4C4AE6C4B1A7BBAB11E731A78B5
:104E1000013A062A3FF69DAE01A151F822F000BFEB
:104E2000CB4E0000F14E00000F4F0000154F000068
:104E3000534B00001B4F00002D4F00001A78072A2B
:104E4000E5D801A151F822F0694E00000F4E000094
:104E50000F4E00008F4E0000A34E0000C74E000012
:104E6000C74E00008B4E00001A89544901321A8146
:104E700000225A801A730A78B2FA82F252099A72A0
:104E80000A7DB2FA82F25209DA72012207E04C4935
:104E900058688A884088033202448A8002221A7045
:104EA000B5E75C88454A4649142505FB0422086895
:104EB000546850608888108102200C60888000212E
:104EC00011740622EBE70722E9E79A7A32B9DA7A17
:104ED0008AB900221A705A805A6087E63749002240
:104EE0009A72CA68002AF2D1097C0029EFD05A8050
:104EF000FFF702FE51E70022DA72304A116A0029F8
:104F0000E7D192F82420002AE3D00122EFE7FFF74F
:104F100007FD42E7FFF7A4FC3FE75A88274B14211F
:104F200001FB02335868FFF7CFFC36E700225A60D6
:104F3000FFF7B6FC31E701228DF80C201A89ADF895
:104F400018209A88DB68ADF81A20059310E0022239
:104F50008DF80C201A89ADF818209A88ADF81A201F
:104F6000DA689B7D05929A1F534253418DF81C309D
:104F700003A8FFF71FFC0026414612483E6000F0E0
:104F80003CFA1148012100F083FA00287FF4CDADEE
:104F9000D9E603228DF80C20DA88ADF818201A899A
:104FA000D0E704228DF80C20DB88ADF81830DFE75D
:104FB00005238DF80C30DBE72C3500204835002028
:104FC000743500203002002070350020803500202C
:104FD0004068FFF7A3BD000008B50548012100F0B7
:104FE0003FFA18B9BDE80840FFF798BD08BD00BFFB
:104FF000703500202DE9F3419846374B1B78064663
:105000000D46002B5CD000295DD009884FF6FF7358
:1050100099425BD06B88002B58D06B689B0758D1A6
:105020004AB92F890DF102013846FFF7E9FB30B18B
:1050300002B0BDE8F08113885788ADF8023001A8AE
:10504000FFF78AFC044660B9BDF80220234B142107
:1050500001FB023358890338C01B588148F20760AE
:10506000E6E780F8008000238375BDF80230838274
:105070006B68036101211A4800F0FEF92B88238137
:10508000B8F1030F6B88A38004BF0423A3754FF00E
:10509000000508BF3368E06008BFA3611148E780DE
:1050A000658101A900F06EF936B1E36833600E4BFB
:1050B00075601B89B5723381FFF78EFF0020B7E75B
:1050C00048F20160B4E748F20460B1E748F20360D7
:1050D000AEE748F20260ABE72435002048350020F7
:1050E00040350020300200202C35002073B50D46DD
:1050F0000446C8B1C1B10DF10601FFF767FCB0B1BC
:10510000BDF806300B486668142202FB030001213B
:105110000C3000F0B1F963682E600C336B60012332
:10512000A372002002B070BD48F20460FAE748F2B2
:105130000960F7E74835002013B50446A8B10DF122
:105140000601FFF743FC98B1BDF806200B4B142174
:1051500001FB0233DA6872B1A27A62B1DA68002028
:10516000013ADA60A07202B010BD48F20460FAE7BA
:1051700048F20960F7E748F20560F4E74835002097
:1051800002230022FFF736BF18B103230022FFF7E6
:1051900031BF48F20460704707B5ADF80600ADF8BE
:1051A00004100DF1060001A9FFF762FC03B05DF8E1
:1051B00004FB00001EF0040F1CBFEFF309800AE09F
:1051C000EFF308800549064A884201D8904202D888
:1051D0008D464FF00000034B1847000000000420EC
:1051E00000E003200D520000BFF34F8F0549064B2E
:1051F000CA6802F4E0621343CB60BFF34F8F00BF75
:10520000FDE700BF00ED00E00400FA052DE9F74FCF
:105210000546FEF79DFFFEF7C7FD0028FBD1374C82
:105220003748384B384E9F6A7388241AE4082404A0
:1052300044F00104002D59D0D3B1AA693349204666
:10524000FEF722FF73889BB1EB680193AB68009374
:105250002F49D5E900232046FEF72BFF73883BB189
:10526000EB6900932B49D5E904232046FEF715FF8F
:10527000244BDB6A990705D573881BB12649204664
:10528000FEF7FEFEDFF8A0A0DFF8A0B04FF00008A8
:105290004FF0010909FA08F33B4208D05AF82820D8
:1052A0002AB173881BB159462046FEF7EDFE08F17E
:1052B0000108B8F11A0FEDD13A0607D573882BB162
:1052C000104B16495A6B2046FEF7DEFE3B0407D50D
:1052D00073882BB10B4B12499A6B2046FEF7D4FE14
:1052E0002846FFF781FF03B0BDE8F08F002BBFD049
:1052F0000C492046FEF7C4FEBAE700BF78960000CE
:105300001895000000ED00E0C4000020E4A70000B4
:10531000F9A700002EA8000089A80000D8A8000066
:10532000F8A8000056A80000D4AD0000CDA80000E9
:1053300037B550E8013F9DB2C48925448489A54210
:1053400028BF2D1B0489A54202BFBFF32F8F002267
:1053500007E0C5EA030540E80154002CE9D14FF00D
:1053600001028DF803200193019A0A609DF8031051
:1053700001F0FF0321B1006810FA82F003B030BDE4
:105380001846FBE70A884B889A4209D150E8012F5A
:10539000C2EA024240E80123002BF7D10120704706
:1053A0000020704737B550E8023F1FFAA3F5C488C4
:1053B000A54202BFBFF32F8F00220DE0C489254410
:1053C0008489A54228BF2D1BC3EA054540E8025445
:1053D000002CE8D14FF001028DF803200193019ACF
:1053E0000A609DF8031001F0FF0321B1006800EB93
:1053F000124003B030BD1846FBE70A884B889A423A
:1054000009D150E8022FC2EA224240E80223002BD1
:10541000F7D1012070470020704710B5034653E8CC
:10542000000F0A4643E8002494F0000FF7D110BDA6
:1054300010B5034653E8002F42EA010043E8000498
:1054400094F0000FF6D110BD10B5034653E8000FDD
:1054500000EA010243E8002494F0000FF6D110BDE9
:1054600010B5034653E8000F00EB010243E80024A7
:1054700094F0000FF6D110BD10B5034653E8002F8D
:1054800002EB010043E8000494F0000FF6D110BDD8
:1054900010B5034653E8002FA2EB010043E80004D7
:1054A00094F0000FF6D110BD0121FFF7C1BF00211C
:1054B000FFF7CABF2DE9F0478368D3F84831C3F33B
:1054C00040059B0788B0074606D50022114608B064
:1054D000BDE8F04700F0AEBA012906D91E4A022104
:1054E00008B0BDE8F04700F079BA1C4C1C4EDFF85C
:1054F00074A04FF06408A946361B1C23B6FBF3F6D4
:10550000AE4204F11C0402D108B0BDE8F08754F8A3
:105510001C0C54E90623017900689A1A1B1ADBB2A5
:10552000039308FB03F3B3FBF2F3CDE9019334F8E3
:10553000043C0093CDE9061254F8083C11FB08F135
:105540003846B1FBF2F1CDE904215246082100F0C2
:1055500045FA0135D4E700BF7EAE0000F8960000A2
:105560003097000091AE000010B590B1D0E9012352
:1055700001689B1ADBB20A60013BDBB2FF2B0268B9
:1055800002D10020107110BD11684C1C14600B700A
:10559000F2E70E20F7E738B504460020FFF7FCF8E5
:1055A000226863681168994213D9481E106011F887
:1055B000013CE568218B01FB0355A36811791B1A97
:1055C000DBB2994200D213710020FFF7E7F82846BA
:1055D00038BD0025F8E738B5054600200C46FFF732
:1055E000DBF82A681368591C1160E968641A298B72
:1055F000B4FBF1F41C70BDE838400020FFF7CEB8D2
:105600002DE9F843089E1D460C46F1B9194E1A497A
:10561000891BB2EBD10F4FEAD10905D2174F0436DF
:1056200007EB8207A14502D100232B6009E056F861
:1056300034803868D8F8001002F0EAFA18B9C5F8D2
:105640000080BDE8F8830134ECE70028ECD0017855
:10565000436839B13146104698473368002BE3D090
:105660002E60EEE7110103EB02125B58002BDBD03A
:105670002A60E6E73897000078970000F4010020E0
:1056800008B102F0ECBA704707B58368DA7E8A4247
:105690001ED01B228DF800205B228DF801203122C4
:1056A0008DF802203B228DF8032033228DF8042050
:1056B00001F12F028DF805206D22D9768DF8062094
:1056C00000228DF80720044900696A4600F091FC29
:1056D00003B05DF804FB00BF3BB000000A4609B10F
:1056E000FFF7D2BF8168CA760069024A024900F01A
:1056F00080BC00BFBDB300003BB0000007B58368AD
:105700001A7F8A4218D01B228DF800205B228DF868
:10571000012034228DF8022001F12F028DF80320A0
:105720006D2219778DF8042000228DF80520044998
:1057300000696A4600F05DFC03B05DF804FB00BF41
:105740003BB000002DE9F34105460F461446002604
:1057500014B902B0BDE8F081686803682246D3F846
:105760000C80B91901ABC047019B1E44E41A002B01
:10577000EED1AB681A78032AEAD0D3F84821920612
:10578000FBD5B3F848216FF34512A3F84821DFE7B2
:105790000A46014900F02DBCA0AF000011B100691C
:1057A000FFF7F6BF70470000014900F022BC00BFC0
:1057B0001DAF00000A4619B10249006900F019BC8A
:1057C000704700BFA6AF00000A4619B10249006940
:1057D00000F00FBC704700BFACAF00002DE9F04FE8
:1057E000044685B00E4690460025705D02F00EF925
:1057F00020BB5FFA88FA3046FFF742FFA3685B7E62
:10580000401BA3EB080B584506EB050918D94A467F
:10581000002712F8011B039308460292019102F03F
:10582000F5F8DDE9022318B101990A2931D0BB4608
:1058300008EB07018B422BD90137EAE70135D4E7A2
:105840004B460027B84217D013F8012B0A2A05EB64
:10585000070A1BD1206900F0C1FB49463A462046A1
:10586000FFF770FF2069FFF79FFF5FFA88F120467E
:105870000AF10105FFF792FF2069711900F0B9FBE9
:10588000206905B0BDE8F04FFFF78EBF0137D9E7BB
:105890005F46206900F0A2FB3A4649462046FFF7E2
:1058A00051FF3D44705D02F0B1F838B92069FFF74F
:1058B0007BFF51462046FFF771FF9CE70135F1E77A
:1058C0002DE9F34105468068424F0024802221469D
:1058D000A0308DF8034002F046F93F49286900F0F6
:1058E00088FB286900F07AFB4FF47A7647F00107CD
:1058F000686803680122D3F810800DF1030101AB41
:10590000C047019B5BB94FF6C010B847019B002B05
:10591000EED1013EB6B2002EEAD10D2035E09DF861
:105920000330AA681B2B48D092F8A0101B29EDD198
:10593000522B42D11444002384F8A03092F8A110D5
:105940005B291FD102F1A20602211D4616F8010BA8
:105950004C1C3B28E1B264B21AD1002C20DB01F1CF
:10596000A0041444002314F8010BD8B9FA2B28BF63
:10597000FA23FA2D13752B4628BFFA23937582F864
:10598000A00002E082F8A0300B2002B0BDE8F08158
:1059900005EB850300EB4303303B80299DB2D5D155
:1059A0000C20F2E703EB830300EB43004E1C30387E
:1059B00083B23006F1B2F3D4D5E711190134E4B261
:1059C000092C81F8A030A1D9002382F8A03004204E
:1059D000DBE700BFE0B30000CAB300000CB473B54E
:1059E00006AB044653F8046B01938368D3F848511F
:1059F0006D0719D5DD7E8D4216D0B3F81B50FFF729
:105A00006DFE206901AA314600F072FBE9B2204622
:105A1000FFF764FE290A02D02046FFF76FFE02B0AE
:105A2000BDE8704002B07047206901AA314600F01D
:105A30005FFBF4E72DE9F04F8BB0836817466C4AA3
:105A4000009204466B4A5B680D460821FFF7C6FFCB
:105A5000A6687068FFF714FEB168033082B211B116
:105A60002046FFF7BBFE644A00212046FFF7B6FF41
:105A7000002F3DD0002D3BD04FF00C0AA9460AFB69
:105A8000075A0826D9F80400FFF7FAFD8046D9F82E
:105A90000000FFF7F5FD4044B04209F10C0988BF52
:105AA00086B2CA45EED106F10408544B544A00931D
:105AB0001FFA88F806F107090821204643461FFA15
:105AC00089F9FFF78BFF4F494A462046FFF786FECC
:105AD0002DB1DFF82CB14FF0000ABA450AD1A36806
