:1000000000000420750300005D030000F93F0000BC
:1000100061030000630300006503000000000000AE
:100020000000000000000000000000006703000066
:1000300069030000000000006B0300006D03000076
:10004000750A00006F030000790D0000490D0000E3
:10005000550D00006F030000150600007D11000023
:10006000291500003D150000511500004511000044
:100070006F030000690F00006F0300006F030000B2
:100080003D1E0000E5350000850E00006D0D0000EE
:100090008D13000093130000991300009F130000BC
:1000A000A5130000AB1300006515000079150000D2
:1000B000450E0000B908000000000000000000002C
:1000C0006F030000550E0000650E0000610D00007A
:1000D00055110000910700006F030000BD1D0000D6
:1000E0006F030000450F00002183000000000000A6
:1000F00000000000750E0000000000005913000011
:1001000000000000000000000000000000000000EF
:1001100000000000000000000000000000000000DF
:1001200000000000000000000000000000000000CF
:1001300000000000000000000000000000000000BF
:1001400000000000000000000000000000000000AF
:10015000000000000000000000000000000000009F
:10016000000000000000000000000000000000008F
:10017000000000000000000000000000000000007F
:10018000000000000000000000000000000000006F
:10019000000000000000000000000000000000005F
:1001A000000000000000000000000000000000004F
:1001B000000000000000000000000000000000003F
:1001C000000000000000000000000000000000002F
:1001D000000000000000000000000000000000001F
:1001E000000000000000000000000000000000000F
:1001F00000000000000000000000000000000000FF
:10020000354936480A1A02D0072291438D463449AF
:1002100034480A1A06D00722914381F30988022242
:1002200082F3148830483149314A00F044F83148AB
:100230003149324A00F03FF831483249324A00F041
:100240003AF832483249334A00F035F832483349F7
:10025000334A00F030F833483349344A00F02BF881
:1002600033483449344A00F026F8344834490022EF
:1002700000F02CF833483449002200F027F83348C6
:100280003349091A082902DB002202604160314A21
:1002900090471F481F49884205D00268043003B4C4
:1002A000904703BCF7E700208646EC46002000217B
:1002B000294A9047FEE7884207D0521A05D00378B2
:1002C00001300B700131013AF9D17047884202D0F8
:1002D00002700130FAE770470000042000E00320BC
:1002E00000000420000004203CB0000014020020A4
:1002F00050020020D0030000D0030000F889000065
:100300003CB000001402002014020020D08E000037
:10031000D08E0000D08E0000D08E0000D08E000065
:10032000D08E0000D08E0000D08E00003CB00000C7
:1003300078B000005002002050020020500200203F
:10034000B0420020B0420020B0420020B042002065
:10035000B06200209D030000A9210000FEE7FEE737
:10036000FEE7FEE7FEE7FEE7FEE7FEE7FEE7FEE765
:1003700000F002B8FFF7FCBF0F484FF007018843B9
:1003800085460E4880470E48016841F470010160BF
:10039000BFF34F8FBFF36F8FFFF732BF09480A4992
:1003A0000A4A884207D0521A05D0037801300B70F0
:1003B0000131013AF9D1704700000420496400007E
:1003C00088ED00E0BC8C000000000020140200203A
:1003D0000A4B185C1F288ABF094B4FF0A04300F05E
:1003E0001F00D3F804250121814021EA02000A40C0
:1003F000C3F80805C3F80C25704700BFD08E000075
:100400000003005038B5074C051E04F1080318BF5F
:100410001C4623682BB11A6822605B6828469847FF
:10042000F7E738BD5802002020B9054B01225A7069
:10043000FFF7E8BF012802D1014A9070F8E7704742
:100440005002002038B50C4C23789BB90B486360F0
:10045000A3602361E36000F055F8054600F05EF804
:1004600001232370064BD3F800340BB10123A37092
:10047000284638BD8525F5E75002002029040000F4
:100480000000014038B5134CA378054603F0FF0087
:1004900073B115B16B6801209847002003F09EF8F6
:1004A000E3680133E3600020BDE8384003F098B80A
:1004B00003F094F825B1226913463BB92A602561FF
:1004C000E368002BECD100F03FF8E9E79D42F7D05C
:1004D0001B68F2E75002002010B5034653E8000FF6
:1004E00000EA010243E8002494F0000FF6D110BDA9
:1004F00000F18040002382B0036003680193019BF8
:1005000002B07047044A137923B901211060918029
:100510001846704785207047B4020020084B1A68BF
:10052000D20704D4C02283F8002301221A604FF0BE
:1005300080420123C2F81835024A1370704700BF89
:1005400000E100E0BC02002008B54FF48270FFF724
:10055000CFFF4FF080430222C3F8042301229A60A8
:1005600008BD00004FF0804110B5D1F8003163B1F3
:100570004FF48070FFF7BCFF0D4B58790122C1F892
:10058000082310B95A711B6898474FF08042D2F87F
:10059000043163B14FF48270FFF7AAFF0223C2F85F
:1005A0000833034BBDE810401B680120184710BDFD
:1005B000B402002000F1804000F5C040002382B06A
:1005C000036003680193019B02B0704703681F2B0F
:1005D00083BF03F01F03036001484FF0A040704742
:1005E0000003005007B5019001A8FFF7EFFF019B42
:1005F00000EB8300D0F8003723F44033C0F8003715
:10060000D0F8003743EA0141C0F8001703B05DF8A5
:1006100004FB00002DE9FF470024CDE90244584DBA
:100620004FF48072012102F1804303F5C04390B280
:100630001B68012B06D1D5F804330B4202D0FFF71B
:10064000B9FF0C430432B2F5907F4FEA4101EAD181
:100650004B4BD3F87C31012B11D14FF4BE70FFF717
:10066000A9FF4FF0A04344F00044D3F820250292A4
:10067000C3F82025D3F820280392C3F82028E3B23A
:10068000D3B1404F00250126344210D0AB0003F116
:10069000804303F5C043D3F81005D3F8101557F87D
:1006A000253023B1C1F30141C0F30520984701353E
:1006B000082D4FEA4606E7D1002C59DA314D324C6D
:1006C000324E4FF00008012716F9013B5A1C3CD06E
:1006D000C3F3C201103169445FFA83F911F8081CB1
:1006E00003F03F0203F0070307FA03F319422CD08B
:1006F00001A80192FFF76AFF019B03F5E07350F830
:100700002330C3F3014ABAF1020F0CBF03210221C7
:100710001046FFF767FF01A80192FFF757FF019B03
:1007200007FA03F3C0F82035AB1893F9303055F8C9
:10073000233053B14FEA9911032904D0BAF1020FC3
:1007400019D1012901D11046984708F10108B8F1E3
:10075000040FB9D14FF0A043D3F820250292C3F87B
:100760002025D4F820350393C4F820351343A7D1AE
:1007700004B0BDE8F087BAF1030FE6D10229E1E742
:1007800000600040C0020020000300502003002051
:10079000F0B53F4B3F4CD3F8142185B08AB100220D
:1007A000C3F81421D3F814310093009B637943F00C
:1007B000080303F01202122A637104BF43F02003FE
:1007C0006371334BD3F804218AB10022C3F80421AA
:1007D000D3F804310193019B637943F0040303F0E0
:1007E0001102112A637104BF43F020036371284B87
:1007F000D3F80821BAB10025C3F80851D3F808216D
:100800000292029A24480422C3F808232946C3F816
:1008100000552368984723682048294698470123B4
:10082000237105B0F0BD637903F00F020F2A08D0E1
:10083000D80701D4190704D462799207F1D45B0771
:10084000EFD56279276802F0F30312F020020BD093
:1008500023F0300343F010036371012100203B4675
:1008600005B0BDE8F04018470B4D95E8030002AE17
:1008700086E8030015E9030043F0100385E8030050
:10088000C4E90222637101213046B847C9E700BFBD
:10089000005002402C0300203C03002034030020C1
:1008A00000F1804000F5E830002382B00360036867
:1008B0000193019B02B070471FB53C493C4CD1F8F5
:1008C0000021002A47D04FF48070FFF7E9FFA37C96
:1008D000DA4302F0010204EB8201496811B9617C3C
:1008E00002292DD1607C022818BF04EB83034FF04E
:1008F00000010BBF01235868637459604FF0010376
:100900008DF80C10E1740EBF02910290A2748DF864
:100910000430236801A89847637C022B01D101238E
:100920006374237D53B101238DF8043000230293B7
:100930008DF80C30237501A82368984704B010BDCA
:10094000E37C002BE8D18DF80430029301238DF86D
:100950000C30E374DDE7D1F80431002BE1D04FF423
:100960008270FFF79DFFC1F80025A37C627404EB41
:1009700083038DF80C2059688DF8042021B15A604A
:100980000291236801A89847A37CDB4303F001038D
:1009900004EB83035A682AB1029200225A6001A82C
:1009A000236898470023A374BBE700BF00D0014031
:1009B0004403002000F1804382B01A68002A14BF6B
:1009C0000120002004D000221A601B680193019BC3
:1009D00002B070474FF0804310B5D3F8044362076C
:1009E00007D54FF48470FFF7E5FF10B11E4B1B686D
:1009F0009847A30608D54FF48A70FFF7DBFF18B1BC
:100A00001A4B00201B689847600608D54FF48C707D
:100A1000FFF7D0FF18B1154B01201B68984721063E
:100A200008D54FF48E70FFF7C5FF18B1104B0020AA
:100A30001B689847E20508D54FF49070FFF7BAFF9E
:100A400018B10B4B01201B689847A3050AD54FF43A
:100A50009270FFF7AFFF28B1054BBDE810401B684F
:100A60000220184710BD00BF5C0300206003002077
:100A70006403002008B5FFF7ADFFBDE80840FFF7AD
:100A800071BD00002DE9F84F134DDFF85080074687
:100A90004FF0000A04264FF001095FFA8AFB00209C
:100AA00009FA0BF402F09AFD2C420AD0D8F8003073
:100AB00014EA030201BF2343C8F8003087F800B0EE
:100AC0001646002002F08CFD1EB1A5430AF1010A72
:100AD000E3D13046BDE8F88FFFFF0F006803002028
:100AE000012310B503FA00F4C4F313037BB1094BDF
:100AF0000020C3F8084502F071FD074B186820EA92
:100B000004001860002002F06BFD002010BD0720DB
:100B1000FCE700BF00F001406803002010B5A1B160
:100B20009AB101238340C3F3130484B10A4C2468AF
:100B300023420ED0C00000F1804000F5F830C0F82C
:100B40001015C0F81425002010BD0E20FCE707206A
:100B5000FAE70820F8E700BF68030020074A0123EE
:100B60001268834013421FBF00F51170044B43F815
:100B70002010002008BF0820704700BF6803002035
:100B800000F00140012303FA00F0C0F313031BB18E
:100B9000054B1B68184204D0044BC3F80405002021
:100BA00070470820704700BF6803002000F0014034
:100BB000012303FA00F0C0F313031BB1054B1B68BC
:100BC000184204D0044BC3F80805002070470820E1
:100BD000704700BF6803002000F001402DE9F84F86
:100BE000DFF84C8007464FF0000A3F2504264FF0FF
:100BF00001095FFA8AFB002009FA0BF402F0EEFC0F
:100C00002C420AD098F8003013EA040201BF2343B3
:100C100088F8003087F800B01646002002F0E0FCAB
:100C20001EB1A5430AF1010AE3D13046BDE8F88FB1
:100C30006C03002070B5104C012303FA00F52278F4
:100C400015F03F0F14BF002607262A4211D0C0001E
:100C500000F1804000F5F8304360002002F0BEFC57
:100C60002378002023EA0503237002F0B9FC304604
:100C700070BD0826FBE700BF6C030020012303FAC8
:100C800000F2910608D006490978114206D0054ABB
:100C900042F8303000207047072070470820704726
:100CA0006C03002000F0014038B501238B409A0608
:100CB00005460C4615D00D4A12781A4213D0002072
:100CC00002F08CFCA10001F1804101F5F831D1F86E
:100CD00000080543C1F80058002002F081FC002004
:100CE00038BD0720FCE70820FAE700BF6C030020AE
:100CF0000E4B9842024610D0B0F1402F0FD003F5B2
:100D0000003398420DD0A3F5803398420BD00849A8
:100D100008488A4218BF00207047074870470748B4
:100D20007047074870470748704700BF00300040D1
:100D30000020004090030020700300207803002072
:100D40008003002088030020014B1B68184700BF68
:100D500070030020014B1B68184700BF7803002078
:100D6000014B1B68184700BF80030020014B1B6824
:100D7000184700BF88030020014B1B68184700BFBD
:100D80009003002070B50D46FFF7B2FF044608B986
:100D9000002070BD002002F021FC267916B9012345
:100DA00025602371002002F01BFC002EF0D01120E2
:100DB000EFE70023435082B043580193019B02B0F8
:100DC0007047D0F8103170B505460C4653B14FF45A
:100DD0008871FFF7EEFF63795A0703D523680BB1DB
:100DE00001209847D5F814315BB14FF48A71284639
:100DF000FFF7DFFF63791B0703D523680BB10220E0
:100E00009847D5F81C315BB128464FF48E71FFF737
:100E1000D0FF607910F0100002D1236803B1984729
:100E2000D5F8043163B14FF482712846FFF7C1FF52
:100E30000123237123681BB1BDE8704003201847CC
:100E400070BD000001490248FFF7BBBF98030020B6
:100E500000C0014001490248FFF7B3BFA0030020D2
:100E60000010024001490248FFF7ABBFA803002071
:100E70000020024001490248FFF7A3BFB003002051
:100E800000D0024010B52D4CD4F8003186B0C3B16B
:100E9000D4F80433D90714D50023C4F80031D4F8AA
:100EA00000310193019B4FF48073ADF81030D4F8FA
:100EB0000C358DF81230224B06AA12E903001B688C
:100EC0009847D4F80431E3B1D4F804339A0718D51D
:100ED0000023C4F80431D4F804310293029B4FF488
:100EE0008273ADF81030D4F81835ADF81230D4F85C
:100EF0004835ADF81430124B06AA12E903001B68FE
:100F00009847D4F80831BBB1D4F804335B0713D544
:100F10000023C4F80831D4F808310393039B4FF43D
:100F20008473ADF8103006AA054B12E903001B6864
:100F300006B0BDE81040184706B010BD00200140C3
:100F4000B8030020064AD2F800313BB1054B00201F
:100F500058719968C2F800011A681047704700BFBD
:100F600000900240BC030020074B0022C3F8002180
:100F700082B0D3F800210192019AD3F80805034BFF
:100F80001B68C0B202B0184700D00040C803002060
:100F90000023435082B043580193019B02B0704735
:100FA0002DE9F047DFF8988004460D46914600F59C
:100FB000A07A4FF480370026D4F80433B10001F54D
:100FC000A0713B4289B20DD0DAF8003053B1C4F8B9
:100FD00048732046C4F80873FFF7DAFF58F8253045
:100FE000F0B298470136B1454FEA47070AF1040AC3
:100FF000E2D1D4F80433DA070CD5D4F800314BB180
:1010000020464FF48071FFF7C3FF0D4B042053F8C7
:1010100025309847D4F804339B070ED5D4F8043113
:101020005BB120464FF48271FFF7B2FF044B0520FD
:1010300053F82530BDE8F0471847BDE8F08700BFFA
:10104000D4030020F0B51A4C43791A4D44F82320FC
:1010500003EB4303EB5C43BB90F904408B780279CC
:101060005B01002CDBB21BDB134E371987F8003312
:101070000123640902F01F0203FA02F246F8242059
:1010800003680A88C3F8082543790879C97803EB0F
:101090004303EA18507091700122EA540020F0BD19
:1010A000064C02F00F02A354EAE70820F7E700BF5E
:1010B000D4030020CC03002000E100E014ED00E0A8
:1010C0002DE9F04105464FF4803400681C4F8C40F8
:1010D000C0F84843C0F8084395F805C00CEB4C062F
:1010E0003E4422F07F4296F8018001F5A8764FEA4F
:1010F0004C0E40F82620B8F1000F11D0D0F804852E
:10110000F4446744A8EB0206904538BF06F1FF1689
:10111000BA7838BF06F57F46B24201DD0D200CE0FB
:101120003BB15031890089B2FFF732FF2B68C3F819
:1011300004432B680020C3F84443BDE8F08100BF9E
:10114000CC030020024803220021FFF729BF00BF83
:1011500000B00040024804220121FFF721BF00BF78
:101160000040024000F1804000F5E040002382B0E2
:10117000036003680193019B02B07047F0B5524BC6
:10118000524CD3F8043185B0002B3DD094F82E207A
:101190004FF48270FFF7E6FF2AB394F82F3013BBA9
:1011A000494AD2F80031002B32D04FF48070FFF75B
:1011B000D9FF638B94F82D00834250D921891B1AE3
:1011C0009BB289B26383CB1A616801EB4303C2F817
:1011D0002C36C2F830064FF48270FFF7C3FF3A4B4B
:1011E00001225A6014E0636802932389ADF80C3041
:1011F000E36800218DF8041033BB2374236801A831
:101200009847002384F82F3094F82E30002BC7D154
:101210002D4BD3F810315BB14FF48870FFF7A2FF6C
:101220000023237402238DF8043001A82368984713
:10123000254BD3F81431EBB14FF48A70FFF792FFCE
:101240000023237405B0F0BD208B60836360208190
:10125000E160002AD2D11C4B01221A60CEE7BAD13C
:10126000E368012184F82F1013B100216183AEE7F8
:101270006383B0E766694FF000470125002EE1D097
:10128000B6FA86F227FA02F34632920026EA0306FD
:1012900002F1804303F5E0431B68002BEED01046BB
:1012A000A2F58C72FFF75EFFD30882F00402C2F34E
:1012B00080028DF808308DF8045023688DF80920DD
:1012C00001A89847DAE700BF00700040DC03002067
:1012D0001F2886BF054A00F01F004FF0A0420123DF
:1012E00003FA00F0C2F80C05704700BF000300507D
:1012F0001F2886BF054A00F01F004FF0A0420123BF
:1013000003FA00F0C2F80805704700BF0003005060
:10131000D0F8183107B5DBB10023C0F81831D0F888
:101320001831C87F0193FF28019B03D08B7F63B1E5
:10133000FFF7CEFF002308460B724B7750F8083BAF
:10134000496803B05DF804EB1847FFF7D1FFF1E7F8
:1013500003B05DF804FB000001490248FFF7D8BF65
:101360007804002000F0024030B4064A52F82040D1
:10137000054A002532F8101022F81050234630BCE0
:10138000184700BFA80400209C0400200020FFF79D
:10139000EBBF0120FFF7E8BF0220FFF7E5BF032006
:1013A000FFF7E2BF0420FFF7DFBF0520FFF7DCBF38
:1013B0002DE9F347002406460F46904600F5A07538
:1013C0004FF48039A2462B688BB1D6F8043309FA62
:1013D00004F21A420BD0C5F800A02B680193A000BC
:1013E000019B00F5A07398B2D7E90031984701340A
:1013F000444505F10405E6D102B0BDE8F0870000E0
:10140000F7B506792F4D0C237343EF183C7A002C67
:1014100055D1EA504B687B60477903682246A44661
:10142000D4B2A7423CD8CA7843F307345201002C07
:10143000C3F30733D2B23DDB234F07EB040C8CF828
:1014400000230122640903F01F0302FA03F347F8A3
:10145000243003684A78D3F8040502F0030220F030
:1014600003000243C3F80425D3F808058A7820F066
:10147000030002F003020243C3F80825D3F8100565
:101480000A7820F00F0102F00F020A43C3F810257A
:101490000C2303FB065501232B72002003B0F0BD83
:1014A000940004F5A074013243F804C01C5901945F
:1014B000019CB5E7054C03F00F03E254C9E708208F
:1014C000ECE700BFC004002000E100E014ED00E004
:1014D000036801221A600279034B0C2101FB0233DD
:1014E00002221A72704700BFC00400200368012264
:1014F000DA60704737B54FF4803400688C407BB1B8
:101500008B0003F5A0730025C550C3580193019BC0
:10151000C0F8044301F5A87140F8212003B030BDA4
:10152000C0F80843F6E70000024903480422FFF729
:101530003FBF00BFC00400200080004002490348B4
:101540000422FFF735BF00BFCC040020009000400C
:10155000024903480422FFF72BBF00BFD804002034
:1015600000A00040024903480622FFF721BF00BF48
:10157000E404002000A00140024903480622FFF7CE
:1015800017BF00BFF004002000B0014010F0080FAA
:10159000074B06D0D3F8C00410F4803F18BF0020DA
:1015A000704700F00F0000F5947053F8200070476A
:1015B000007002404FF08053D3F83001A0F10803CF
:1015C0005842584170470000054B10F0800FA3F1BE
:1015D000900208BF134600F00F0003EB00107047A5
:1015E0009805002010F0800F14BF0023102300F096
:1015F0000F0018447047000008B5FFF7DBFF18B173
:10160000034B0022C3F81C2C024B00221A7008BDA9
:1016100000700240FD04002007B5094A0023137042
:10162000084AADF8053013708DF8073001238DF8A6
:101630000430054B01A81B68984703B05DF804FB14
:10164000FC0400202C060020280600207047000023
:1016500008B50146FFF7D0FF0846FFF7B5FF827BCC
:10166000032A0AD10846FFF7BDFF01218140BDE8EA
:1016700008400448C943FEF72FBF0368002BF1D090
:1016800008BD00BF000500208720FFF7E1BF8620CE
:10169000FFF7DEBF8520FFF7DBBF8420FFF7D8BF51
:1016A0008320FFF7D5BF8220FFF7D2BF8120FFF74D
:1016B000CFBF000008B5FFF79FFF084B93F89E20AF
:1016C000032A06D1BDE8084005486FF00101FEF786
:1016D00003BFD3F89030002BF4D008BD08050020DC
:1016E00000050020012273B502FA01F51E491F4EC4
:1016F0000B6810F0800F43EA050304460B6027D007
:1017000000F00F021A4B33F8123003F1804303F557
:101710001C331A684AB100221A60BFF36F8FBFF3FF
:101720004F8F802811D0FFF793FF316829400AD1ED
:1017300006238DF804308DF806408DF807100D4B08
:1017400001A81B68984702B070BDFFF7B3FFECE734
:1017500033681D42F7D106238DF804308DF806005A
:101760008DF80720EBE700BF0405002000050020EE
:10177000528F00002806002008B5054B1A78104645
:10178000FFF730FFBDE8084001461046FFF7AABF4B
:101790002C060020FFF78EBF07B500238DF804301C
:1017A0000B4BD3F82025ADF80620D3F8C034094AF6
:1017B000002B13680CBF4FF480714FF001210B43D5
:1017C0001360054B01A81B68984703B05DF804FB44
:1017D00000700240040500202806002007B5FFF72E
:1017E0000BFF0D4B93F88E20032A11D0D3F88030D5
:1017F00073B90A486FF08071FEF76EFE06238DF80C
:1018000004300823ADF80630054B01A81B68984743
:1018100003B05DF804FB00BF0805002000050020B0
:101820002806002007B5FFF7E7FE114B93F81E21AD
:10183000032A07D10F486FF4807103B05DF804EB01
:10184000FEF74ABED3F8103173B90A486FF48071BD
:10185000FEF742FE06238DF804308823ADF80630EB
:10186000054B01A81B68984703B05DF804FB00BF57
:101870000805002000050020280600202DE9F04F73
:101880005D4E337885B0002B6DD15C4C5C4B196894
:101890002368194067D011F0012367D093FAA3F1B0
:1018A000002966D0B1FA81F10F2964D9A1F110089D
:1018B0005FFA88F84046FFF787FE4FF0010B4FFABA
:1018C00088FA0BFA01F1BAF1000F81466FEA010BB9
:1018D00054DA03688289416802A8984708B9C9F8B0
:1018E0000000FFF767FE18B1464B8222C3F81C2C9C
:1018F00001232168039A3370D9F8083001EA0B01FB
:101900001344BAF1000F2160C9F8083008F008004C
:1019100002993C4B08F00F085EDA002854D0C3F857
:10192000A016C3F8A426042303EB880303F1804325
:1019300003F51C3301221A60BFF36F8FBFF34F8F83
:10194000314B324A2F4913EA2A0338BF134633F882
:10195000183003F1804303F51C331A681AB9D1F823
:101960000021002AF9D005B0BDE8F08F91FAA1F16D
:1019700096E720219AE741F080089BE74046FFF771
:1019800005FEB9F80C20D9F80410D9F80050034628
:10199000074602A8A847029A002A9FD0039A9742B6
:1019A0009CD9022789F80E7059461548FEF794FD18
:1019B00006238DF80430164B8DF806801B688DF8D1
:1019C000077001A8984761E7142000FB0833C3F8AB
:1019D0000016C3F80426A6E728B1C3F8A017C3F879
:1019E000A4272823A0E7142000FB0833C3F800171E
:1019F000C3F80427F5E700BFFD040020040500201C
:101A00000005002000700240528F0000648F00002B
:101A10002806002037B50446FFF7EEFD2046FFF705
:101A2000D3FD837B032B0DD12046FFF7DBFD012186
:101A30008140C9430F48FEF74FFD03B0BDE8304079
:101A4000FFF71CBF0568002DF7D12046FFF7CAFD40
:101A500001218140C9430748FEF73EFD06238DF86A
:101A60000430054B8DF806401B688DF8075001A81F
:101A70009847E2E700050020280600200720FFF72E
:101A8000C9BF0620FFF7C6BF0520FFF7C3BF04206C
:101A9000FFF7C0BF0320FFF7BDBF0220FFF7BABFAB
:101AA0000120FFF7B7BF000038B5134BD3F86C44E3
:101AB000C3F86C44BFF36F8FBFF34F8F01251CB980
:101AC000BDE83840FFF7DABE94FAA4F171B1B1FA7B
:101AD00081F30F2B19460BDDA1F11000C0B205FAFE
:101AE00001F324EA0304FFF7FDFDE8E72021F3E713
:101AF00043F08000F3E700BF00700240254B13B5B0
:101B0000D3F80044C3F80044BFF36F8FBFF34F8F87
:101B1000BFF36F8FBFF34F8FE1050ED51E4B012230
:101B20001A700023ADF805308DF8073002238DF8C8
:101B300004301A4B01A81B689847A2050DD5164A18
:101B400000231370ADF805308DF8073003238DF8AE
:101B50000430124B01A81B689847630518D50E4A3C
:101B60001378ABB1002313700A4A0121C2F808159B
:101B70009165BFF36F8FBFF34F8FADF805308DF8D0
:101B8000073004238DF80430044B01A81B689847E4
:101B900002B010BD00700240FC04002028060020A6
:101BA000034B0122DA64BFF36F8FBFF34F8F70478F
:101BB0000070024013B5FFF71FFD114B9A7B032AFB
:101BC00007D110486FF4803102B0BDE81040FEF735
:101BD00083BC1C687CB96FF480310A48FEF77CFC3A
:101BE00006238DF80430084BADF806401B6801A8A9
:101BF000984702B010BD02B0BDE81040FFF7D0BF5B
:101C000008050020000500202806002010B5044625
:101C1000002001F0E3FC2046FFF7E4FC0D4901221F
:101C20000B6802FA00F023EA000314F008020B60CC
:101C30000AD104F00F04084B04F5947443F82420EF
:101C4000BFF36F8FBFF34F8FBDE81040002001F04E
:101C5000C7BC00BF0405002000700240F7B5044671
:101C6000002001F0BBFC2046FFF7AEFC05462046F5
:101C7000FFF7B8FC012214F0800F02FA00F22D48A1
:101C800018D1036832EA03010AD02046FFF7BEFFED
:101C90000323AB73002003B0BDE8F04001F0A0BC0B
:101CA00023EA020329600360234B186820EA02003C
:101CB0001860EDE7230715D4802C204B2ED004F0BC
:101CC0000F0101F2DA314900C3F80018D3F8041803
:101CD000D3F80468C9B241F002013143C3F80418D3
:101CE000D3F80438144E0168336861EA03071742D9
:101CF000D0D0134321EA02013360002301602B603E
:101D00000323AB738DF807300D4B8DF80640062288
:101D10001B688DF8042001A89847BBE740F2B47116
:101D2000C3F80018D3F80418D3F80468C9B241F016
:101D30000401D2E7000500200405002000700240E5
:101D40002806002073B5184B184CD3F8805423682C
:101D5000174EDA43174B31781B6892B208461A4384
:101D6000FFF740FC012303FA00F0104202D00846BE
:101D7000FFF774FF6FF0011105F080050D48357015
:101D8000FEF7AAFB236843F0010323600023ADF8AC
:101D900005308DF8073005238DF80430064B01A877
:101DA0001B68984702B070BD007002400405002017
:101DB0002C06002000050020280600201C4BD3F82C
:101DC000041300232DE9F04101241D4671B9194F78
:101DD00003F4000623F400044FF00108D4B9FFF720
:101DE0004DFD1EB3BDE8F041FFF7ACBF91FAA1F283
:101DF0001148B2FA82F29600304404FA02F2066800
:101E00002EB10560BFF36F8FBFF34F8F134321EAED
:101E10000201DBE794FAA4F5B5FA85F557F8253009
:101E200008FA05F5984724EA0504D7E7BDE8F081EC
:101E300000700240788F00000071024013B5084C1A
:101E4000D4F800314BB1074B1B6898470023C4F806
:101E50000031D4F800310193019B02B010BD00BFE6
:101E600000000140300600201F2886BF00F01F0040
:101E7000044B4FF0A04300F5E070032243F820200C
:101E8000704700BF0003005008B5064B06481A6AA9
:101E9000002101235209FFF713F9BDE80840034868
:101EA00003F0F0BDF40E002030910000F890000027
:101EB00038B5054D044645F001054FF47A40A84772
:101EC000013CFAD138BD00BFF0900000012300F0C2
:101ED0001F0003FA00F0024BC3F80C05704700BF67
:101EE000000300501F288CBF094A4FF0A0424FF05A
:101EF0000103D2F8041588BF00F01F0003FA00F0B8
:101F000020EA01030840C2F80835C2F80C05704702
:101F10000003005010B50B78012B0C4622D0022B89
:101F20001BD0CBB900F062FE0028FBD1114B5B88BF
:101F3000022B0AD91048114B62681149C01AC00817
:101F4000000440F0030000F0C1FF61680D4804F098
:101F5000D9FD0D4B01221A7010BDBDE810400020C4
:101F6000FEF736BA2E20FFF7BDFF00F03FFE002837
:101F7000FBD1F1E770000020048B00004C8A0000C8
:101F8000E08F000034060020800F00202DE9F04192
:101F90000F46804604F0FFFD0446384604F0FBFD82
:101FA00000250646241AAC4202DA0020BDE8F08182
:101FB0003246394608EB050004F000FD08B1013552
:101FC000F1E70120F2E70000F7B5174B174C1A882C
:101FD0009B788DF80630164B164D174E174FADF8FF
:101FE0000420E41AE408240444F0030401A9284668
:101FF000FFF7CCFF08B103B0F0BD052231463846EB
:1020000003F091FE0E4B5B88022B03D90D4920464D
:1020100000F058FF4FF47A70FFF74AFF00F0E6FD3A
:102020000028FBD1E2E700BFFA8F0000048B00001C
:102030004C8A00003406002014020020F8900000B2
:1020400070000020ED8F000038B54C4C6388022BE7
:1020500009D94B484B4B4C49C01AC008000440F00A
:10206000030000F02FFF4FF47A70FFF721FF00F01C
:10207000BDFD01460028FAD12E20FFF7F5FE434DA5
:102080002320FFF7F1FE0920FFF7EEFEC5F81C172D
:102090004FF4FA70FFF70CFFD5F810353C4DDA0914
:1020A000C3F3C0132B706388022B0BD93448354B14
:1020B0003849C01AC008000402F0010240F00300D1
:1020C00000F004FF4FF4FA70FFF7F2FE00F08EFD0F
:1020D0000028FBD12A7863888AB1022B09D92848C5
:1020E000284B2D49C01AC008000440F0030000F03E
:1020F000E9FE29782948BDE8384004F06DBB022B81
:1021000009D91F481F4B2649C01AC008000440F0D7
:10211000030000F0D7FE2E20FFF7D8FE2320FFF7A4
:10212000D5FE4FF4FA70FFF7C3FE184B4FF4804210
:10213000C3F808250822C3F8082540F6B830FFF791
:10214000B7FE2E20FFF7C2FE2320FFF7BFFE40F6AA
:10215000B830FFF7ADFE6388022B09D90848094B58
:102160001049C01AC008000440F0030000F0AAFEA5
:1021700000F03CFD0028FBD138BD00BF70000020FE
:10218000048B00004C8A0000FD8F0000000300500B
:10219000810F002011900000229000002E9000007E
:1021A0003A900000559000002DE9F04389B0FEF709
:1021B00049F908B101F0AEF90020FEF763F94FF4D8
:1021C0008041002000F0F0FA08B101F0A3F91824D2
:1021D00001F090F92246002102A804F060FC1423CB
:1021E000CDE90034642304934FF0EB730693062388
:1021F0008DF81D30364B374A6946184603F088FC87
:1022000008B101F087F9324803F056FD4FF47A70B7
:10221000FFF74EFE30492E48052203F084FD08B139
:1022200001F078F9FFF710FF2C4C2D4EFFF7CCFE94
:102230002C4BE41A7388E4082404022B44F00304B2
:1022400003D92949204600F03DFE4FF47A70FFF78C
:102250002FFE7388022B03D92449204600F032FE5A
:1022600000F0C4FC0028FBD11B4FDFF86480DFF8CE
:1022700084900546C820FFF71BFE09200135FFF7B3
:1022800031FE00F0B3FC0028FBD13222B5FBF2F3A3
:1022900002FB1353002BEDD105223946404603F0D3
:1022A00042FD7388022B04D911492A46204600F0CA
:1022B0000DFE0920FFF716FE7388022B03D949464D
:1022C000204600F0FFFD00F091FC0028FBD1D1E793
:1022D000F8900000151F000014020020048B00007D
:1022E000700000204C8A0000639000007490000091
:1022F0008090000092900000002110B5084604F084
:102300001DF8044608B905F0E5FE204610BD0000A2
:1023100008B5074B00221A60BFF35F8F05F0A6FED9
:10232000014618B9BDE8084004F008B8032008BD0C
:10233000840F0020002844D0A0F57000A0F5406074
:10234000352839D8352837D8DFE800F0211E362463
:1023500027272A3330363636361E361E3939393677
:10236000363636363636363636363636242A24274C
:102370001B2D362D3636363636363636212A27365A
:102380001E1E48F21750704748F20350704748F23B
:102390001350704748F21050704748F21150704780
:1023A00048F21450704748F20150704748F202500A
:1023B000704748F27150704748F21650704748F223
:1023C0007050704708B50121044801F048FFBFF381
:1023D0005F8FB0FA80F0400908BD00BF840F002075
:1023E00013B502680C4B01919A4204460FD0FFF7D7
:1023F000E9FF70B10199201D05F04EF9FFF79AFF32
:10240000BFF35F8F054B00221A6002B010BD0020A1
:10241000FBE748F20450F8E76169614D840F002042
:1024200000230428CB604B6098BF044B044A98BF3C
:1024300053F820308A600B60704700BFC0960000E0
:102440009C960000CB6800225A717047C368DB6815
:1024500000225A717047CB6801225A717047C368D5
:10246000DB6801225A7170470D4A8A6070B50D4AC7
:102470000D4C0023121BCB604B600B6012091D46F4
:102480009A4207D0E6683679FF2E05D0854202D100
:10249000A3680B6070BD013501331034F0E700BF55
:1024A000D4960000BC8C0000AC8C00002DE9F347F2
:1024B0008368D3F84831C3F340059B07074606D528
:1024C0000022114602B0BDE8F04702F0D5B9144E23
:1024D000144CDFF85880DFF85890DFF858A0A41BA0
:1024E0002409A54202D102B0BDE8F087F168B368C3
:1024F0000A79FF2A07D10C4A0821384602F090F9E0
:1025000001351036EDE74879002814BF41464946A9
:10251000CDE9001238465246082102F081F9EFE772
:10252000AC8C0000BC8C0000A291000091910000D6
:1025300099910000C19100002DE9F74F154D164CFF
:102540009946641B52F8043C0646884617462409FF
:102550004FF0000B5C4507D1104A0221304603B012
:10256000BDE8F04F02F05CB9A9680193184604F089
:10257000EBFAAA46019B103540B93B46424651460C
:102580003046CC4603B0BDE8F04F60470BF1010B7D
:10259000E0E700BFAC8C0000BC8C0000E2910000C2
:1025A000014BFFF7C9BF00BF59290000014BFFF7DE
:1025B000C3BF00BF45240000014BFFF7BDBF00BFF4
:1025C00057240000014BFFF7B7BF00BF352A0000BA
:1025D000037813F0040216D003F00303012B03D099
:1025E000022B09D0012070470A6800880232C0F32C
:1025F000831002440A60F5E70B684288023303EB5C
:1026000092130B60EEE71046704700002DE9F04F83
:10261000DFF810A10F4685B00446861C0020154641
:1026200000F0DCFFDAF804203A60DAF8083003F54D
:1026300080739B1A0AF21C470AF583690AF2144850
:10264000B34219D30020002D68D004F00F039B0182
:1026500043F0050363F30F00DAF80430DAB2033213
:1026600033444AF822000020CAF8043000F0B8FFD2
:10267000012005B0BDE8F08F0121384601F01EFEB3
:10268000484601F033FE404601F030FEDAF808001B
:102690000090C0B203300AEB80006946FFF798FF54
:1026A000009B30BBDAB20AEB8202D16801919A1C1E
:1026B0000133DBB20AEB83030092D3F80CB001F0D4
:1026C0000303012B22D0022B15D08346404601F094
:1026D00010FE10B1009BCAF808305946384601F088
:1026E000EDFDDAF80830DAF8042003F580739B1A60
:1026F000A6E7D8B2CEE7BDF80630C3F3891303339B
:102700004FEA1B4B02EB93030093DFE7BDF8043065
:10271000C3F383134FEA1B4B1344F5E7A40544F0BE
:10272000060099E758100020012907B5034604D098
:102730008168D1F84811890707D50022114618464B
:1027400003B05DF804EB02F097B853680193054BB2
:1027500000931368044A022102F062F803B05DF8A6
:1027600004FB00BF02920000F891000030B599B15F
:102770000A4B0B4A0B49D21AD20800239A4201D1C4
:10278000052006E031F823500468A54202D1036019
:10279000002030BD0133F1E70846FAE74C8A00001B
:1027A0002C8C0000140000202DE9F84F1E4B1F4810
:1027B00001221A7002F095FE814690BB1C48DFF89A
:1027C00080801C4CDFF87CA003F02BF8A4EB0804FD
:1027D000E4084D46A54208D10023174A19469C42F9
:1027E0001AD022F823100133F9E700273E4608EB00
:1027F000C50BB54209D058F83610DBF8000014229A
:1028000004F0DCF80028C8BF01370136B442F0D12B
:102810002AF825700135DDE70848A200002104F000
:102820003EF94846BDE8F88F58100020488C00005B
:10283000909600002C8C000016000020040100205F
:102840004C8A00001400002007B5019001A8FFF792
:102850008DFF30B9019A044B53F8320003B05DF894
:1028600004FB0020FAE700BF4C8A0000002310B5EB
:10287000CB604B60034B8B600C460121FFF7E4FFFC
:10288000206010BD9C960000094B013903EBC0008D
:10289000032909D8DFE801F00A0204060420704782
:1028A00000797047407970470020704702207047D8
:1028B0004C8A000030B5124C00EB400054F8215017
:1028C00002FA00F3072202FA00F06B400D4A0340BF
:1028D0006B40C3F3821044F8213002EB8101C3F353
:1028E000C202824238BF0246C3F34220824203F052
:1028F000070338BF0246934238BF13464B8030BDB2
:10290000040100201400002013B50446019101A821
:10291000114693B1FFF72AFF10B1002002B010BD9D
:1029200001990B4A04EB440052F82120072383400D
:10293000134023FA00F0C0B2F0E7FFF717FF0028BA
:10294000EBD1019A034B03EBC2039879E6E700BF92
:10295000040100204C8A0000294B2A4A2DE9F04F3F
:102960009B1A4FEAD30ACB685B7985B005460E46C1
:102970001BB9254A022101F053FF244B244ADFF8FA
:10298000A4800821284601F04BFF224A082128464E
:1029900001F046FF0024544502D105B0BDE8F08F98
:1029A000F36893F8049001231A4621464846FFF73E
:1029B000ABFF00230746012221464846FFF7A4FF4C
:1029C0000121032881468346204628BF4FF0030992
:1029D000FFF73AFF5FFA89F90F4A58F829100346C2
:1029E00058F827000D4F0090CB4598BF1746CDE90A
:1029F00001170B4A0821284601F012FF0134CAE7EB
:102A00002C8C00004C8A0000199200002C920000CF
:102A100038920000569200000EA1000017920000AC
:102A200093920000AC96000013460A46C168FFF777
:102A300093BF00002DE9F04F2DED028B054683B0CA
:102A40009B461646002A5DD0DBF80070CB685549DE
:102A500093F804A0384604F077F80446F0B9012E44
:102A600009D1514A0221284603B0BDEC028BBDE8D2
:102A7000F04F01F0D5BEDBF804304C4F57F8041B83
:102A800000930A22184603F099FF002800F0838083
:102A90000134052C009BF1D1454A15E045493846E3
:102AA00004F052F8044668B9012E36D04FF0010800
:102AB000414B424AA3EB02094FEAD9030093DFF8E6
:102AC00008914FE03E4A3B460221284603B0BDEC48
:102AD000028BBDE8F04F01F0A3BE00231A46314639
:102AE0005046FFF711FFA04211D200213046FFF7F8
:102AF000ABFE424603460221284601F091FE013614
:102B0000BE42EAD103B0BDEC028BBDE8F08F224695
:102B100031465046FFF7CEFEF1E7274F274BDFF84F
:102B2000A480FF1AFF080026EAE700213846FFF7D5
:102B30008BFE18EE101A202203F040FF034608B166
:102B4000013716E00246019039465046FFF7DCFE99
:102B5000A042019B18D3224639465046FFF7AAFEF1
:102B600008F10108B045CDD25BF8283008EE103AE4
:102B70000027009BBB42D8D15BF828304A4602218F
:102B8000284601F04DFEEBE719463846FFF75CFE9C
:102B90000C4A0346F3E7022EE4B2BED04FF002081F
:102BA00086E700BFA9920000B0920000AC9600003A
:102BB0001B930000C79200002C8C00004C8A000080
:102BC000CF920000E49200000793000013460A46EB
:102BD000C168FFF72FBF0000034BD3E90130C31AD0
:102BE00058425841704700BF581000202DE9F0436B
:102BF00085B0FFF7F1FF0546002840F00A81864CBA
:102C0000C4F81804BFF34F8FA3680093DBB20333FB
:102C100004EB83006946FFF7DBFC009B18B1D4F896
:102C20001824002A63D0DAB2991C013304EB820223
:102C3000DBB204EB8303D268DB68029302F0030388
:102C4000022B019200915DD1BDF8063073489DF8CA
:102C50000450C3F389184746502F28BF502707F167
:102C6000080167F38F13C1F30901ADF8063002F0D4
:102C700050FCC5F3C2050646002800F0B18002F002
:102C800077FC0023082201A9304602F083FC00995A
:102C9000CB43DBB20133C9B20331B7EB830F4FEA49
:102CA000830204EB81012AD95FFA82F90823A7EB9A
:102CB0000907304602F06EFCFFB209F108035849DB
:102CC00003F0FC033A46304602F064FC009B08F136
:102CD000030803EB98030093D4F81834002B49D170
:102CE000D4F81074DFF84C914FF0070867E0626881
:102CF0009A428BD8A260284605B0BDE8F08308232D
:102D00003A46E0E7012B6BD1BDF804504348C5F3C8
:102D10008311062928BF062161F38915023101F0CC
:102D20000F018900ADF8045002F0F3FBC5F3C205B2
:102D30000646002854D002F01BFC0023082201A9FB
:102D4000304602F027FC0027BDF80420C2F38312AE
:102D5000BB00974203F10803BED200994A1CC9B2D6
:102D60000331009204EB81010422304602F012FC90
:102D70000137E9E7304602F0FFFBFFF72DFF80F057
:102D80000100C5B2B7E7FB685A79B2B11B79BDF84B
:102D9000081003EB430259F8211008FA02F3052D3D
:102DA00003EA010323FA02F308BF0325AB4204D36D
:102DB0003B6831461B6838469847FB681F68002F00
:102DC000E1D1304602F0D8FB384600F007FCD4F8D9
:102DD00018340BB9009BA360002000F001FCCCE785
:102DE000D4F8104474B90F4B5B88012BC5D90E4B36
:102DF0000E480F49C01AC008000440F0020000F05D
:102E000061F8BAE7236820469B689847E3681C6826
:102E1000E8E700256FE700BF58100020488C00004D
:102E200064100020700000204C8A0000048B000019
:102E300038930000040100202DE9F34704460E46B4
:102E4000924601A9012218469946FFF7DFFB1B4F66
:102E500010B3019D4FF00008AA1CC84508EB020101
:102E600023D11748002101F0FAF980F31000000483
:102E700040EA1440E4006B1C04F03804DBB2EDB20D
:102E800044F0010407EB8303033544EA881444EA61
:102E90008624D86047F825403B781BB1FFF7A6FE93
:102EA0000028FBD102B0BDE8F087C9B207EB810171
:102EB0005AF82830CB6008F10108CEE758100020FE
:102EC0007414002000231A46FFF7B6BF07B501238C
:102ED000019201AAFFF7B0FF03B05DF804FB1FB534
:102EE000CDE90123069B039301AA0323FFF7A4FF67
:102EF00005B05DF804FB1FB5CDE90023069B0293E6
:102F0000079B03936A460423FFF796FF05B05DF81D
:102F100004FB00002DE9F84388461B49D1F8103422
:102F2000054600241A468AB9EA681471A3B9C1F8A3
:102F300010541360154B164EF61AF608002703F1CD
:102F40000709B7420DD12046BDE8F883D268107951
:102F5000A04212D01268E6E7DB68196811601D60B4
:102F6000E8E719F83720EB6842453946187928BF59
:102F70004246FFF79FFC0137E3E701340A2CD1D129
:102F80004FF0FF34DFE700BF581000204C8A0000EC
:102F90002C8C000038B5084B0125D3F810441D7067
:102FA00004B938BDE3685D71236820465B689847C3
:102FB000E3681C68F4E700BF5810002010B588B023
:102FC0000023CDE90233CDE9003304931F4B204A9F
:102FD0000593204B06929B1A9B08079302AA6B4607
:102FE00043F2274141F26E0000F0F8FFB0B905A9A5
:102FF00002A800F0EBFF184B5B88022B04460AD9AD
:103000001648174B1749C01AC0080004224640F062
:103010000300FFF75BFF204608B010BD48F20963CC
:10302000984210D105A902A800F0CCFF0A4B5B889A
:10303000022B0446EFD90948094B0B49C01AC008B6
:1030400000042246E3E70324E5E700BF6E102734BF
:1030500004010020F401002070000020048B000017
:103060004C8A0000499300007A93000010B58368F1
:10307000D3F848319B07044605D50022BDE810402F
:10308000114601F0F9BBFFF799FF30B9044A082156
:103090002046BDE8104001F0C3BB024A0221F7E719
:1030A000AB930000C393000000B589B00023CDE9C5
:1030B0000533CDE90133079305AA01AB43F227415C
:1030C00041F26E0000F08AFF90B9CDE9030003A938
:1030D00005A800F02DFF40B91048114A0499121AB2
:1030E00003F0B4FC05A800F049FF09B05DF804FB4B
:1030F00048F2096398420FD10A4B5B88012B09D92A
:1031000009480A4B0A49C01AC008000440F00200EE
:10311000FFF7D8FE0520E8E70320E6E704010020DA
:10312000F401002070000020048B00004C8A000095
:10313000E893000010B58368D3F848319B07044634
:1031400005D50022BDE81040114601F095BBFFF700
:10315000ABFF30B9044A08212046BDE8104001F019
:103160005FBB024A0221F7E70D940000259400009E
:1031700030B5C38885B004460D4633B1144A009279
:103180001449154A284601F056FE217A05291DD01A
:10319000637A4BB1A088FFF777FB104B104953F8C7
:1031A0002020284601F047FE227A0E4BA08853F8D3
:1031B000222003920021FFF747FB039A0A490346A6
:1031C000284605B0BDE8304001F035BE05B030BD41
:1031D0003C980000249800001C980000949800007F
:1031E0002BA20000B89800004198000007B50346E4
:1031F0000846197A052911D05B7A2BB1094A0A4988
:10320000019001F018FE01980849019001F013FEA9
:10321000019803B05DF804EB01F002BE002AF8D07B
:10322000F2E700BF3C9800002BA200000CA10000B8
:103230002DE9F04385B01F460C9D002395F80C90B6
:103240002B7306460C46904629463846FFF790FFFA
:10325000B8F1060F09D8DFE808F00412181F283368
:1032600040003146284601F0E6FD00222946384656
:10327000FFF7BCFF85F80C9005B0BDE8F08322682D
:103280003146284601F0D7FDEFE7D4E90023314667
:10329000284601F0D0FDE8E7A36800933146D4E961
:1032A0000023284601F0C7FDDFE7E3680193A36828
:1032B00000933146D4E90023284601F0BCFDD4E751
:1032C00023690293E3680193A36800933146D4E92C
:1032D0000023284601F0AFFDC7E763690393236924
:1032E0000293E3680193A36800933146D4E9002375
:1032F000284601F0A0FDB8E708292DE9F74F8046E0
:103300000E4617461C463DD800251B7B25732146DB
:1033100010460193FFF72CFFDFF88CA0DFF88CB08C
:10332000AE4232D918F805205946204601F083FDF7
:103330000135082DF4D11B49DFF874A0DFF874B013
:10334000204601F078FD4FF000094E4524D918F8C9
:1033500009507E2D1ED8284603F028FB002814BFF4
:103360002A462E225946204601F065FD09F1010941
:10337000B9F1080FE9D1012221463846FFF736FF9F
:10338000019B237303B0BDE8F08F5146204601F046
:1033900052FDCDE72E22E5E75146204601F04BFDD8
:1033A000E4E700BF55980000519800004B980000DA
:1033B00053980000579800007047000007B5054B70
:1033C0000093054A4FF4807300F033F803B05DF8C2
:1033D00004FB00BFDD330000111500202DE9F84388
:1033E00088461446B2B10F4B0F4E0325002743F019
:1033F0000109224608EB0701002003F0A1F9074468
:10340000241A48B933782BB14FF47A40C847013DAC
:1034100002D13570BDE8F88301233370002CE8D168
:10342000F8E700BFD098000010150020704703F0A7
:10343000D1B9F0B595B01D46164608460C4602F0C7
:1034400097F81A9B0D93CDE9086500252B460822B5
:1034500005A920460A958DF82C500C9502F0A4F889
:10346000079B0293069B03939DF814308DF811502F
:1034700003F00302012A1DD1BDF81420059DC3F3FA
:10348000C203C2F383168DF81030B20008230EA9D0
:10349000204602F089F8C5F3952508AB0093324623
:1034A00002AB0EA92846FFF7C3FE204602F064F8DF
:1034B00015B0F0BD022AF8D1BDF81650C3F3C2030F
:1034C000C5F389158DF810300827082D2E4628BF22
:1034D00008263B4632460EA9204602F065F8AD1B91
:1034E00008AB02AA31460EA83744FFF705FF002DAE
:1034F000EBD1DAE708B5FFF79AFF04480421FFF79C
:1035000009FD034B01225A7108BD00BFAC8C0000BD
:103510001C0200201FB50021039001AA44F2010003
:10352000CDE9011100F004F805B05DF804FB0000DE
:1035300010B572B6FFF72EFDFFF758FB0028FBD140
:10354000164C63884BB11648164B1749C01AC00871
:10355000000440F00100FFF7B5FC144BD3F8F03045
:10356000DB0700D500BE6388012B09D90C480D4B41
:103570000F49C01AC008000440F00200FFF7A2FC87
:10358000BFF34F8F09490B4BCA6802F4E062134343
:10359000CB60BFF34F8F00BFFDE700BF700000207E
:1035A000048B00004C8A00003C99000000ED00E014
:1035B000489900000400FA0572B6024A1368013304
:1035C0001360704714160020034A1368013B136010
:1035D00003B962B6704700BF14160020FFF7ECBFB6
:1035E000FFF7F2BF024B034A1B681068184700BF81
:1035F000201600201816002070B5064D064600243F
:1036000055F8043B0BB1304698470134042CF7D1F0
:1036100070BD00BF301600204388033300EB8303E6
:1036200099420BD382884FF6FF739A4208D00388E1
:1036300033B18068431C584258417047022070479C
:1036400001207047033080B240F2FE33984230B51B
:103650001FD8134B1A783AB91C895D892C4404444D
:10366000A4B2B4F5806F0AD91A7DAAB99A8BDC8B03
:103670002244024492B2B2F5806F0DD801220A8032
:103680001446142202FB04335A8910445881002046
:1036900030BD48F20860FBE748F20660F8E700BF7B
:1036A000641600200B4A0C495388142000FB0311B8
:1036B000CB6833B90420496810700122074801F033
:1036C00047BE07490523137002238B800122096836
:1036D0000023F3E7481600206416002000000020B5
:1036E0009016002007B5002305490093054A096894
:1036F0000548082301F068FD03B05DF804FB00BF36
:1037000090160020CC9900000000002007B500238F
:1037100001460093034A0448082301F055FD03B015
:103720005DF804FBC49900000000002013B50023DD
:103730000C4600930146084A0848042301F044FD62
:1037400038B9074B142101FB043101230B7402B07B
:1037500010BD48F20D60FAE7C0990000000000209B
:103760006416002037B50A480A4B42689C881968DD
:1037700053880325033305709BB2002000909B0003
:1037800001EB8401044801F01FFD03B030BD00BF10
:1037900048160020901600200000002010B50146B9
:1037A000044800F0E7FC1C220446002103F077F9EE
:1037B000204610BD2402002038B5144B14220D46BB
:1037C00002FB00302B68446804F58051A3B15C888B
:1037D000033403EB84048C4215D22368013312D0E6
:1037E0002046FFF719FF012808D002280BD0002837
:1037F000F1D12C60012038BD0834ECE76388033335
:1038000004EB8304E7E70020F5E700BF641600201F
:10381000426873B504460D466AB3234BD9688A42A1
:1038200029D31B699A4226D812F0030323D11F49DA
:103830000089098988421ED12068916888421AD17E
:103840001B4841688A4203D901F580518A420DD351
:1038500081698A420CD901F580518A4208D201223D
:103860002A80B3FA83F0400902B070BD1A46F7E728
:1038700048F20963F5E700262E800196288801A901
:10388000FFF79AFF30B92B8801339BB2012B2B80B5
:10389000F3D9E9E7019B226899689142EED1636010
:1038A000024B1B892381DFE700000020481600201F
:1038B000641600202DE9F8431C461D4B1B78064674
:1038C0000F46154673B382B37CB3DFF86C804FF0BC
:1038D0001409A388012B02D948F2096020E009FBF2
:1038E00003F318F803302BB9A0882146FFF764FFD3
:1038F00020B92060A3880133A380EAE723681EB1C2
:10390000998832889142EFD11FB119883A88914243
:10391000EAD19A68C5E90023064B1B892B81002058
:10392000BDE8F88348F20160FAE748F20460F7E77F
:1039300040160020481600206416002008B5074BEA
:103940005888191DFFF738FF18B1BDE80840FFF788
:1039500009BFBDE80840FFF7A5BE00BF481600201C
:103960002DE9F0479F4FDFF8A08288B006463B68FC
:1039700023B99D48414600F037FC38603D682978FE
:103980004B1E052B07D8DFE813F0200074007400ED
:10399000060106015D0148F20E641422002103A80D
:1039A00003F07DF841F61D539C4208BF00243B689C
:1039B00004941A78023A042A00F2FC81DFE812F03B
:1039C000DD01E9010B0213021A022EB1874B00221E
:1039D0005A604FF40644E0E72B79032B1CD8DFE84C
:1039E00003F014022A35824A1378022B1AD0137D71
:1039F000022B4FF0010317D114214B43D1180020A3
:103A0000D0544868FFF782FE03E001232B71FFF7D3
:103A100069FE002800F0B980744B00225A6048F219
:103A20000D64BAE70023E7E7704A13700023536080
:103A300041F61D54B1E76F496F48002302222B71F4
:103A40008A800968012201F083FCE2E76B4B684C35
:103A50005B88684A14214B43E11800262E714D689B
:103A600010681560958848600D810221E6549180A8
:103A7000C8E7B5F814A0AA7DDFF87491AEB1022AA8
:103A8000EB8806D9142101FB0A91DA1C088902444B
:103A90000A81142202FB0A99C3F57F43B9F80A2070
:103AA000FD331344A9F80A3093E7142303FB0A9368
:103AB00018895C6804EB8004062A69D8DFE802F004
:103AC000274E36441D5A040041F61D54AA7DEB884A
:103AD000022A06D9142101FB0A91DA1C0889024442
:103AE0000A81142202FB0A99C3F57F43B9F80A2020
:103AF000FD331344A9F80A304FE7414841490023F8
:103B00004360AB690360FFF783FE00285BD00223AC
:103B1000AB75002300930423EA182146364801F0D0
:103B200053FB002831D048F20D64CFE72B69002BFE
:103B300014BF03230123AB750023009305F10C028E
:103B4000042304F10801E9E70123AB750022EB88A7
:103B500000922A699B0004F10C01DFE703290CBFE6
:103B600005230623AB7500230093042305F1080207
:103B7000E118D3E70623AB75224B1988204B586810
:103B8000FFF7D4FD04460028A0D108B0BDE8F087B7
:103B900048F20E649AE7002E7FF41BAF2B79012BBD
:103BA00034D0022B3FF444AF002B7FF4F4AE022359
:103BB0002B710DF10A01EB68039303A8CDE90466AC
:103BC000FFF726FE10B948F20964E6E60498BDF84E
:103BD0000A108388EB8003882B81FFF7A7FD04463A
:103BE00029E000BF601600202402002040160020BB
:103BF00064160020901600200000002048160020C7
:103C0000241600209816002058160020DFF8009295
:103C100003AA4B463146A81DFFF74CFE044670B977
:103C2000B9F804100498FFF781FD044648F20963CF
:103C30009C423FF4FDAE002C7FF4AFAEA5E7C9E98E
:103C40000066F3E7002E7FF4C4AE6C4B1A7BBAB16A
:103C50001E731A78013A062A3FF69DAE01A151F86B
:103C600022F000BF0F3D0000353D0000533D000035
:103C7000593D0000973900005F3D0000713D000094
:103C80001A78072AE5D801A151F822F0AD3C0000CE
:103C9000533C0000533C0000D33C0000E73C0000D4
:103CA0000B3D00000B3D0000CF3C00001A89544939
:103CB00001321A8100225A801A730A78B2FA82F20B
:103CC00052099A720A7DB2FA82F25209DA7201221C
:103CD00007E04C4958688A884088033202448A8049
:103CE00002221A70B5E75C88454A4649142505FB4F
:103CF00004220868546850608888108102200C6093
:103D00008880002111740622EBE70722E9E79A7AFE
:103D100032B9DA7A8AB900221A705A805A6087E674
:103D2000374900229A72CA68002AF2D1097C002918
:103D3000EFD05A80FFF702FE51E70022DA72304AD4
:103D4000116A0029E7D192F82420002AE3D0012249
:103D5000EFE7FFF707FD42E7FFF7A4FC3FE75A88CC
:103D6000274B142101FB02335868FFF7CFFC36E7DD
:103D700000225A60FFF7B6FC31E701228DF80C20D3
:103D80001A89ADF818209A88DB68ADF81A200593D7
:103D900010E002228DF80C201A89ADF818209A88BC
:103DA000ADF81A20DA689B7D05929A1F5342534161
:103DB0008DF81C3003A8FFF71FFC0026414612486F
:103DC0003E6000F03CFA1148012100F083FA00281F
:103DD0007FF4CDADD9E603228DF80C20DA88ADF85A
:103DE00018201A89D0E704228DF80C20DB88ADF862
:103DF0001830DFE705238DF80C30DBE7481600208C
:103E00006416002090160020240200208C1600204A
:103E10009C1600204068FFF7A3BD000008B50548C8
:103E2000012100F03FFA18B9BDE80840FFF798BD3E
:103E300008BD00BF8C1600202DE9F3419846374B92
:103E40001B7806460D46002B5CD000295DD0098802
:103E50004FF6FF7399425BD06B88002B58D06B688C
:103E60009B0758D14AB92F890DF102013846FFF757
:103E7000E9FB30B102B0BDE8F08113885788ADF896
:103E8000023001A8FFF78AFC044660B9BDF80220A1
:103E9000234B142101FB023358890338C01B58817E
:103EA00048F20760E6E780F8008000238375BDF8DC
:103EB000023083826B68036101211A4800F0FEF929
:103EC0002B882381B8F1030F6B88A38004BF0423E0
:103ED000A3754FF0000508BF3368E06008BFA36119
:103EE0001148E780658101A900F06EF936B1E368F9
:103EF00033600E4B75601B89B5723381FFF78EFFFF
:103F00000020B7E748F20160B4E748F20460B1E787
:103F100048F20360AEE748F20260ABE740160020CB
:103F2000641600205C1600202402002048160020A1
:103F300073B50D460446C8B1C1B10DF10601FFF7D6
:103F400067FCB0B1BDF806300B486668142202FB6E
:103F5000030001210C3000F0B1F963682E600C33CE
:103F60006B600123A372002002B070BD48F20460B0
:103F7000FAE748F20960F7E76416002013B5044633
:103F8000A8B10DF10601FFF743FC98B1BDF806207A
:103F90000B4B142101FB0233DA6872B1A27A62B1D1
:103FA000DA680020013ADA60A07202B010BD48F26F
:103FB0000460FAE748F20960F7E748F20560F4E7C1
:103FC0006416002002230022FFF736BF18B1032336
:103FD0000022FFF731BF48F20460704707B5ADF823
:103FE0000600ADF804100DF1060001A9FFF762FC10
:103FF00003B05DF804FB00001EF0040F1CBFEFF3DC
:1040000009800AE0EFF308800549064A884201D892
:10401000904202D88D464FF00000034B1847000035
:104020000000042000E0032051400000BFF34F8F48
:104030000549064BCA6802F4E0621343CB60BFF344
:104040004F8F00BFFDE700BF00ED00E00400FA0560
:104050002DE9F74F0546FEF79DFFFEF7C7FD002847
:10406000FBD1374C3748384B384E9F6A7388241A37
:10407000E408240444F00104002D59D0D3B1AA6906
:1040800033492046FEF722FF73889BB1EB6801930A
:10409000AB6800932F49D5E900232046FEF72BFF9C
:1040A00073883BB1EB6900932B49D5E90423204683
:1040B000FEF715FF244BDB6A990705D573881BB102
:1040C00026492046FEF7FEFEDFF8A0A0DFF8A0B0EC
:1040D0004FF000084FF0010909FA08F33B4208D0FD
:1040E0005AF828202AB173881BB159462046FEF79A
:1040F000EDFE08F10108B8F11A0FEDD13A0607D527
:1041000073882BB1104B16495A6B2046FEF7DEFE22
:104110003B0407D573882BB10B4B12499A6B204691
:10412000FEF7D4FE2846FFF781FF03B0BDE8F08F0D
:10413000002BBFD00C492046FEF7C4FEBAE700BFF3
:10414000AC8B00004C8A000000ED00E0C4000020B1
:10415000D4990000E99900001E9A0000799A0000A5
:10416000C89A0000E89A0000469A0000C49F000028
:10417000BD9A000037B550E8013F9DB2C48925447F
:104180008489A54228BF2D1B0489A54202BFBFF325
:104190002F8F002207E0C5EA030540E80154002CF8
:1041A000E9D14FF001028DF803200193019A0A60D2
:1041B0009DF8031001F0FF0321B1006810FA82F0AE
:1041C00003B030BD1846FBE70A884B889A4209D1F4
:1041D00050E8012FC2EA024240E80123002BF7D148
:1041E000012070470020704737B550E8023F1FFAA2
:1041F000A3F5C488A54202BFBFF32F8F00220DE0B4
:10420000C48925448489A54228BF2D1BC3EA0545DE
:1042100040E80254002CE8D14FF001028DF8032051
:104220000193019A0A609DF8031001F0FF0321B188
:10423000006800EB124003B030BD1846FBE70A8867
:104240004B889A4209D150E8022FC2EA224240E844
:104250000223002BF7D1012070470020704710B5D2
:10426000034653E8000F0A4643E8002494F0000F89
:10427000F7D110BD10B5034653E8002F42EA010004
:1042800043E8000494F0000FF6D110BD10B50346CA
:1042900053E8000F00EA010243E8002494F0000F05
:1042A000F6D110BD10B5034653E8000F00EB010234
:1042B00043E8002494F0000FF6D110BD10B503467A
:1042C00053E8002F02EB010043E8000494F0000FD4
:1042D000F6D110BD10B5034653E8002FA2EB010044
:1042E00043E8000494F0000FF6D110BD0121FFF760
:1042F000C1BF0021FFF7CABF2DE9F0478368D3F89B
:104300004831C3F340059B0788B0074606D5002215
:10431000114608B0BDE8F04700F0AEBA012906D951
:104320001E4A022108B0BDE8F04700F079BA1C4CE3
:104330001C4EDFF874A04FF06408A946361B1C23FE
:10434000B6FBF3F6AE4204F11C0402D108B0BDE89E
:10435000F08754F81C0C54E90623017900689A1A76
:104360001B1ADBB2039308FB03F3B3FBF2F3CDE9B3
:10437000019334F8043C0093CDE9061254F8083C4C
:1043800011FB08F13846B1FBF2F1CDE904215246A8
:10439000082100F045FA0135D4E700BF6EA0000007
:1043A0002C8C0000648C000081A0000010B590B13E
:1043B000D0E9012301689B1ADBB20A60013BDBB242
:1043C000FF2B026802D10020107110BD11684C1C37
:1043D00014600B70F2E70E20F7E738B504460020B2
:1043E000FFF7FCF8226863681168994213D9481EE8
:1043F000106011F8013CE568218B01FB0355A368AF
:1044000011791B1ADBB2994200D213710020FFF719
:10441000E7F8284638BD0025F8E738B505460020FE
:104420000C46FFF7DBF82A681368591C1160E9682D
:10443000641A298BB4FBF1F41C70BDE838400020ED
:10444000FFF7CEB82DE9F843089E1D460C46F1B99A
:10445000194E1A49891BB2EBD10F4FEAD10905D287
:10446000174F043607EB8207A14502D100232B60CA
:1044700009E056F834803868D8F8001002F064FB80
:1044800018B9C5F80080BDE8F8830134ECE70028CE
:10449000ECD00178436839B131461046984733680B
:1044A000002BE3D02E60EEE7110103EB02125B5804
:1044B000002BDBD02A60E6E76C8C0000AC8C00009F
:1044C000F401002008B102F066BB704707B58368AD
:1044D000DA7E8A421ED01B228DF800205B228DF8E6
:1044E000012031228DF802203B228DF80320332257
:1044F0008DF8042001F12F028DF805206D22D97668
:104500008DF8062000228DF80720044900696A46CC
:1045100000F091FC03B05DF804FB00BF2BA200008B
:104520000A4609B1FFF7D2BF8168CA760069024A1C
:10453000024900F080BC00BFADA500002BA2000026
:1045400007B583681A7F8A4218D01B228DF8002095
:104550005B228DF8012034228DF8022001F12F0218
:104560008DF803206D2219778DF8042000228DF834
:104570000520044900696A4600F05DFC03B05DF85F
:1045800004FB00BF2BA200002DE9F34105460F46B6
:104590001446002614B902B0BDE8F08168680368CB
:1045A0002246D3F80C80B91901ABC047019B1E44C9
:1045B000E41A002BEED1AB681A78032AEAD0D3F8BC
:1045C00048219206FBD5B3F848216FF34512A3F8B2
:1045D0004821DFE70A46014900F02DBC90A1000008
:1045E00011B10069FFF7F6BF70470000014900F004
:1045F00022BC00BF0DA100000A4619B102490069A2
:1046000000F019BC704700BF96A100000A4619B11E
:104610000249006900F00FBC704700BF9CA1000078
:104620002DE9F04F044685B00E4690460025705D9A
:1046300002F0B4F920BB5FFA88FA3046FFF742FF78
:10464000A3685B7E401BA3EB080B584506EB0509EE
:1046500018D94A46002712F8011B03930846029214
:10466000019102F09BF9DDE9022318B101990A29B1
:1046700031D0BB4608EB07018B422BD90137EAE763
:104680000135D4E74B460027B84217D013F8012B69
:104690000A2A05EB070A1BD1206900F0C1FB494635
:1046A0003A462046FFF770FF2069FFF79FFF5FFA49
:1046B00088F120460AF10105FFF792FF2069711980
:1046C00000F0B9FB206905B0BDE8F04FFFF78EBFE1
:1046D0000137D9E75F46206900F0A2FB3A46494618
:1046E0002046FFF751FF3D44705D02F057F938B99D
:1046F0002069FFF77BFF51462046FFF771FF9CE7DB
:104700000135F1E72DE9F34105468068424F002469
:1047100080222146A0308DF8034002F0C0F93F49C5
:10472000286900F088FB286900F07AFB4FF47A765C
:1047300047F00107686803680122D3F810800DF183
:10474000030101ABC047019B5BB94FF6C010B847EE
:10475000019B002BEED1013EB6B2002EEAD10D2016
:1047600035E09DF80330AA681B2B48D092F8A010C2
:104770001B29EDD1522B42D11444002384F8A030E0
:1047800092F8A1105B291FD102F1A20602211D4659
:1047900016F8010B4C1C3B28E1B264B21AD1002C74
:1047A00020DB01F1A0041444002314F8010BD8B954
:1047B000FA2B28BFFA23FA2D13752B4628BFFA23AC
:1047C000937582F8A00002E082F8A0300B2002B0BE
:1047D000BDE8F08105EB850300EB4303303B802906
:1047E0009DB2D5D10C20F2E703EB830300EB43002D
:1047F0004E1C303883B23006F1B2F3D4D5E711192C
:104800000134E4B2092C81F8A030A1D9002382F848
:10481000A0300420DBE700BFD0A50000BAA500004F
:104820000CB473B506AB044653F8046B019383686C
:10483000D3F848516D0719D5DD7E8D4216D0B3F8F7
:104840001B50FFF76DFE206901AA314600F072FB94
:10485000E9B22046FFF764FE290A02D02046FFF79E
:104860006FFE02B0BDE8704002B07047206901AA37
:10487000314600F05FFBF4E72DE9F04F8BB0836821
:1048800017466C4A009204466B4A5B680D46082145
:10489000FFF7C6FFA6687068FFF714FEB168033023
:1048A00082B211B12046FFF7BBFE644A00212046C8
:1048B000FFF7B6FF002F3DD0002D3BD04FF00C0A84
:1048C000A9460AFB075A0826D9F80400FFF7FAFDA3
:1048D0008046D9F80000FFF7F5FD4044B04209F1E9
:1048E0000C0988BF86B2CA45EED106F10408544BC4
:1048F000544A00931FFA88F806F107090821204658
:1049000043461FFA89F9FFF78BFF4F494A46204675
:10491000FFF786FE2DB1DFF82CB14FF0000ABA4543
:104920000AD1A368D3F80C80B8F1000F3ED10BB0C8
:10493000BDE8F08F0826D8E7D5E9002373B32AB382
:104940000192424A00920821414A2046FFF768FF3F
:104950006868FFF7B7FD03902868FFF7B3FD039978
:10496000B31C591A091AC9B22046FFF739FE394952
:1049700020693A2200F05FFAA96899B14A462046B8
:10498000FFF74EFE0AF1010A0C35C8E700934346D3
:104990005A4608212046FFF743FFEDE7002AEBD0F7
:1049A0000092F4E72069FFF721FEEBE70022059271
:1049B000174606AE009605AB0121404602F10109FB
:1049C000FFF740FD059D3DB12868FFF77BFDB8422C
:1049D00000D987B24A46EDE7B9F1010FA7D01E4AC8
:1049E000DFF860A029462046FFF71AFF2A46BD1CC3
:1049F000ADB205AB00960121404602F10109FFF777
:104A000021FD059B002B92D01B68009308212B46AB
:104A100052462046FFF704FF059B596831B17A1DC5
:104A200092B22046FFF7FCFD4A46E2E72069FFF715
:104A3000DDFDF9E7BFA5000025A200002EA20000C1
:104A4000D6A5000038A2000040A200003CA700004C
:104A500053A20000579800005CA2000000221146FB
:104A6000FFF70ABF022910B5044608D18368D3F8BE
:104A700048319B0703D5BDE81040FFF7EFBF206921
:104A8000054A064900F0D7F92069054A0349BDE8FF
:104A9000104000F0D0B900BFB6A500002BA2000066
:104AA000B1A50000012906D0022906D18368D3F8F8
:104AB00048319B0701D5FFF7D1BF024A0221FFF71A
:104AC000AFBE00BFDAA1000038B58368D3F8482133
:104AD000C2F3400592070C4606D500221146FFF7A7
:104AE000CBFE2C46204638BD0029FBD05B68024A2D
:104AF0000221FFF795FEF5E76AA20000012937B50C
:104B00000546144604D103B0BDE83040FFF7A6BF08
:104B1000023918BF0121FFF7D7FF48B96368019335
:104B2000044B0093044A236802212846FFF778FECD
:104B300003B030BD0292000085A20000012907B534
:104B400004D103B05DF804EBFFF788BF02290AD156
:104B500053680193084B00931368084AFFF760FEFF
:104B600003B05DF804FB8CBF0121002103B05DF8A8
:104B700004EBFFF7A9BF00BF0292000085A200006E
:104B8000013910B518BF01210446FFF79DFF40B958
:104B9000044A0549206900F04EF9A36845F218025D
:104BA0001A8310BDA7A500002BA200000129F7B5AC
:104BB0000446154633D18568FFF7A4FD18BBA368EA
:104BC00020691F7D9E7DFA21FFF704FD20691D49A4
:104BD000FA2200F030F92046FFF794FD98B9A36857
:104BE000197D6976A368C91B9B7D2B762046C9B2C7
:104BF000FFF70CFD297E891BC9B2204603B0BDE832
:104C0000F040FFF7F9BCA36845F218021A830E4A78
:104C10000421204603B0BDE8F040FFF701BE0229A1
:104C200094BF00210121FFF74FFF48B96B68019342
:104C3000064B00932B68064A02212046FFF7F0FD41
:104C400003B0F0BDA2A100008EA2000002920000FD
:104C500085A200002DE9F041013986B018BF01217D
:104C60000546FFF731FF40BBAB68DFF85480D3F84F
:104C700040610446EEB1082C1BD0304600230922C7
:104C800003A900F091FC9DF81420A968304609237F
:104C90000132A03100F088FCAB68049EA033009381
:104CA000671C2346424600212846FFF7B9FD3C46D3
:104CB000E0E7AB68002283F8A02006B0BDE8F081F1
:104CC000C8A20000013910B518BF01210446FFF742
:104CD000FBFE30B9A368B3F8482160F38202A3F861
:104CE000482110BD013910B518BF01210446FFF756
:104CF000EBFE30B9A268B2F8483143F00403A2F8E1
:104D0000483110BD013910B518BF01210446FFF725
:104D1000DBFE30B9A368B3F8482160F3C302A3F8FF
:104D2000482110BD013910B518BF01210446FFF715
:104D3000CBFE30B9A268B2F8483143F00803A2F8BC
:104D4000483110BD022973B50D4694BF00210121E1
:104D500004461646FFF7B8FE014658B9022D0BD19E
:104D6000736801930C4B00930C4A33682946204624
:104D7000FFF756FD02B070BDA368094AD3F8483169
:104D800013F0080F074B18BF1346074A204602B01E
:104D9000BDE87040FFF744BD0292000085A200000C
:104DA00052900000D2A20000D6A20000013910B536
:104DB00018BF01210446FFF787FE48B9A368C3F86E
:104DC0003801E3685B68BDE81040186800F025BD55
:104DD00010BD00007FB5013918BF01210446FFF75F
:104DE00073FE0546B8B9E3685B681E68304600F09C
:104DF00011FDB268A168C3B2CDE90132642043431A
:104E0000B3FBF2F3DBB20093D1F83831034A294601
:104E10002046FFF705FD04B070BD00BFE7A200000B
:104E2000826810B504462AB1436901680069984751
:104E30000023A36010BD0EB403B5039921B104ABE8
:104E400001AA019300F076F802B05DF804EB03B01C
:104E500070470A2938B504460D4602D10D21FFF7E7
:104E6000F8FFA3682268591CA160D554D4E9013227
:104E70009A4204D32046BDE83840FFF7D1BF38BD81
:104E80002DE9F84F9846DDE90A43154682460F465C
:104E90000A464FF00109AA420FD2C14538BFC146A8
:104EA00013F0010B01D16CB900240126B8F1010FF8
:104EB0001BD908F1FF386E43F8E709F10109B2FB8D
:104EC000F5F2E8E79B070ED5B8F1000F0CBF3026CE
:104ED0002026A145E9D2013C31465046FFF7B9FFF3
:104EE000002CF6D1E0E72026F3E7B7FBF6F39D426E
:104EF000E1D9DFF83C80B7FBF6F3504618F8031011
:104F000006FB1377FFF7A5FF3346AB42B6FBF5F67A
:104F1000F1D2BBF1000F02D00CB1A14501D3BDE825
:104F2000F88F20215046013CFFF793FFF4E700BFC4
:104F300063A700002DE9F74F05461746884600296C
:104F400000F03E8118F8011B49B92B7B002B00F0C3
:104F50003781284603B0BDE8F04FFFF761BF252930
:104F600040F0B780002698F800302D2B424608F11B
:104F7000010823D0302B24D02B2B25D000242A2B22
:104F800002F1010123D13B681A1D1B683A601C44E1
:104F90000A4613782E2B26D101324FF0000A104614
:104FA00010F8011BA1F1300CBCF1090F1DD80A2328
:104FB00003FB0A13A3F1300A0246F0E746F00106AC
:104FC000D1E746F00206CEE746F00406CBE711F83B
:104FD000013CA3F130000928DBD80A2202FB04348B
:104FE000303C0A46CBE74FF0000A12F8011B01F0F3
:104FF000FB0068289046F8D0782909D86F290CD88A
:10500000632962D022D8252963D0582900F08880EE
:1050100098F80030002B95D197E770390829F7D818
:1050200001A353F821F000BF9B5100001150000074
:105030001150000031510000115000000F510000CC
:10504000115000001150000021510000642901D0CE
:105050006929DDD13A68D2F80090111D89EAE97218
:105060003960A2EBE9724FF0010B092A35DCD34518
:1050700038BFD3462CB1B9F1000F01DB720700D560
:10508000013CB30702D5BAF1000F03D0F00701D4F9
:105090004CBB0024B9F1000F2DDAC9F100092D2114
:1050A0002846FFF7D6FE06F00302022A04D1BAF121
:1050B000000F01D11CBB0024CDE9004653460A2253
:1050C00049462846FFF7DCFEA2E73B681A1D19781F
:1050D0003A602846FFF7BDFE9AE70A230BF1010B61
:1050E000B2FBF3F2C1E7A345D4D220212846013C0C
:1050F000FFF7AFFECCE77107D5D52B21D0E7A3454D
:10510000DAD230212846013CFFF7A3FED2E7396806
:10511000CDE900460A1D3A6053460A220968D0E7E5
:1051200039680A1D3A60CDE9004653461022F5E77A
:105130003B681A1D3A6016F00106D3F8009024D19E
:10514000B9F1000F03D0484601F025FD0646B442F0
:105150001DD809F1FF3919F8011F00293FF458AF94
:105160002846FFF776FEF6E728460136FFF771FE80
:1051700019F806100029F7D1A642BFF449AF202143
:105180002846013CFFF765FEF6E70026F0E7202100
:105190002846013CFFF75DFED9E73B681A1D3A60DF
:1051A000302128461C68FFF754FE78212846FFF777
:1051B00050FE00220823CDE900322146102280E76C
:1051C00003B0BDE8F08F00BF2DE9F743DDF828807C
:1051D000B0B9524B5B88002B00F09780504B514880
:1051E000514AC01AC0080E24504B00940004504984
:1051F00040F00100FDF773FE204603B0BDE8F083E8
:105200006AB9464B5B88002B7FD0454B4548494ADD
:10521000C01AC0080E24454B00940004E7E7D0F8FC
:1052200000E0BEF1000F0DD13C4B5B88002B6ED02F
:105230003B4B3C48404AC01AC00808243B4B0094F2
:105240000004D4E76BB9354B5B88002B61D0344B3D
:1052500034483A4AC01AC0080924344B0094000468
:10526000C5E74568D5F80490B3FBF9F509FB15359A
:105270006DB12A4B5B88002B4BD0294B2948304A13
:10528000C01AC0080924294B00940004AFE78D0719
:105290000DD0224B5B88002B3DD0214B2148294A61
:1052A000C01AC0081024214B009400049FE712F09C
:1052B000030F0CD0194B5B886BB3194B1948224A6A
:1052C000C01AC0081024194B009400048FE7C56869
:1052D000A9420DD34D1EEC180569AC4208D8CDF893
:1052E0002880DEF80C40A44603B0BDE8F0436047D8
:1052F0000A4B5B887BB10A4B0A48144AC01AC008A3
:1053000010240A4B0094000471E70E2474E708246B
:1053100072E7092470E710246EE700BFD400002074
:105320004C8A0000CC8B000073A700001CA9000071
:1053300078A70000F5A70000A1A70000B4A700000F
:10534000FBA7000025A800003DA8000060A8000001
:10535000F7B5A0B9374B5B88002B63D0364B374885
:10536000374AC01AC0080E24364B00940004364950
:1053700040F00100FDF7B3FD204603B0F0BDD0F8CA
:1053800000C0BCF1000F0DD12A4B5B88002B4BD025
:10539000294B2A482D4AC01AC0080824294B0094DA
:1053A0000004E4E76AB9234B5B88002B3ED0224B14
:1053B0002248274AC01AC0080924224B009400043E
:1053C000D5E74568D5F800E00EF1FF350D420CD069
:1053D000184B5B8863B3184B18481E4AC01AC008A4
:1053E0001024184B00940004C1E7C568A9420CD3EF
:1053F0004D1E0EFB02540569AC4206D8DCF8104085
:10540000A44603B0BDE8F04060470A4B5B887BB11F
:10541000094B0A48104AC01AC0081024094B0094CE
:105420000004A4E70E24A7E70824A5E70924A3E7BE
:105430001024A1E7D40000204C8A0000CC8B00008F
:1054400073A7000009A9000078A70000A1A7000029
:10545000B4A7000087A80000ADA800002DE9F84F10
:10546000B0F806A04579D2F800B09DF828900AFB64
:1054700005F5043D88460BEB0301A94203F1040442
:1054800088BFA5EB030BB4FBFAF607460AFB1644EC
:10549000C2F800B04EB9AAEB04055D4528BF5D46D1
:1054A000BBF1000F04D1BDE8F88F3F68013EF1E782
:1054B000043408EB06003C442A46B9F1000F0DD035
:1054C0002146ABEB050B01F0C1FADA452E443F68EB
:1054D00055464FF0000428BF5D46E1E701462046EF
:1054E000EFE7FEF763BFF8B546790146721E054641
:1054F000002393422D6803D30024A64202D8F8BDAE
:105500000133F6E70F682846FEF787FF0134394676
:10551000F3E72DE9F843068BCD1C0746FEF75DFF48
:10552000043E35440446B5FBF6F5F0B14FF4807304
:10553000EDB28380C680013D076081464FF00008D0
:10554000A84512D23846FEF748FF064648B16379AF
:105550000133637108F10108C9F800000760814652
:10556000EEE72046FFF7BFFF34462046BDE8F8834C
:1055700001210430FEF7A2BE10B50121044604301B
:10558000FEF7A8FEC0B220B92046BDE81040FFF7E4
:10559000AABF10BD1FB503920022009203AAFFF715
:1055A0005DFF05B05DF804FB1FB503920122009278
:1055B00003AAFFF753FF05B05DF804FB0268136808
:1055C0005268934291BFD01A80680130801888BF1A
:1055D000C01A7047036881681A685B688B4234BFE1
:1055E00001330023D31A58425841704770B504461E
:1055F00000200D46FDF7F2FF2046FFF7EBFF10B14C
:10560000237C002B3BD12368A1685E685A688A42DC
:1056100034BF013200225A6028B11A6891428CBF0F
:10562000013200221A60E2686368511E072920D8FF
:10563000DFE801F004101F141F1F1F182A789A5565
:105640002046FFF7BBFF23689A68824200D2986029
:10565000002415E02A8823F81620F1E72A6843F889
:105660002620EDE7D5E9000103EBC603C3E90001FD
:10567000E6E7294602FB063001F0E8F9E0E70424FA
:105680000020FDF7ADFF204670BD10B50446002098
:10569000FDF7A4FF23680020186058609860BDE8FB
:1056A0001040FDF79DBF10B504460020FDF796FFA2
:1056B0002046FFF783FF04460020FDF791FF2046B8
:1056C00010BD00002DE9F04F8368D3F84831C3F3D3
:1056D00040059B078BB0064606D5002211460BB04D
:1056E000BDE8F04FFFF7C8B8012906D9204A0221CA
:1056F0000BB0BDE8F04FFFF793B81E4C1E4BDFF820
:105700008090DFF880A01B1B1C22B3FBF2F8A84599
:1057100002D10BB0BDE8F08FE36809932368A76856
:10572000D3F808B02046FFF7BEFF94F810E0134A04
:10573000642303FB00F1BEF1000F18BF4A4603FBD0
:105740000BF3B3FBF7F3CDE9043BB1FBF7F1099B96
:105750000191CDE90672CDE90207009352466369D3
:1057600008213046FFF75CF801351C34CFE700BF55
:105770006EA00000F88900004C8A00003CA90000DF
:1057800045A9000051A90000036818685B68C31AA6
:1057900058425841704770B5054600200C461646E1
:1057A000FDF71CFF2846FFF7EFFF002830D12B68DC
:1057B00019682EB91A68A868824238BF561C1E6044
:1057C000EA686B68501E07281CD8DFE800F0040C5C
:1057D0001B101B1B1B145B5C237000240020FDF7B7
:1057E000FFFE204670BD33F811302380F5E753F8F3
:1057F00021302360F1E703EBC103D3E90023C4E9BF
:105800000023EAE701FB0231204601F01FF9E4E73B
:105810000524E3E7036898687047036800229A60EC
:105820007047836800225A60C3E904229A60DA60F4
:105830001A6070474FF4A06300FB0330084B1A183E
:10584000A0F5806030B50344064C03F580619342B7
:10585000A1EB030003D253F8045BA542F7D030BD9F
:10586000001700200ED0ADDE2DE9F04FDFF8FC90E0
:10587000DFF80881DFF808B185B005460026002072
:10588000FDF7ACFED9F800705FFA86FA2FB1D9F8AF
:1058900004702E4B002F08BF1F460020FDF7A0FE0E
:1058A000002F3FD05046FFF7C5FF33465A46082128
:1058B00004462846FEF7B4FF3B46254A0821284601
:1058C000FEF7AEFF08F2FF33002C35D04FF48062B4
:1058D0006420CDE902424443A40ACDE900341D4AC4
:1058E000434608212846FEF79BFF1B4B1B78534578
:1058F0002AD01A4B1A684FF00043F3401342184A5B
:10590000184B08BF1346184A08212846FEF788FF9F
:10591000164A0C2303FB062308219B68144A2846D9
:10592000FEF77EFF0136032E09F10C0908F5A06889
:10593000A5D105B0BDE8F08F00930E4A434608217B
:105940002846FEF76DFFD0E70B4BDCE731AA0000DD
:105950005EAA00006CAA0000A4160020A816002071
:1059600049AA000040AA0000BEAA000000260020AC
:10597000CBAA0000A6AA000038AA00000018002048
:1059800053AA000013B504460068FEF726FD0190F7
:1059900010B9002002B010BD606801A9FFF726FE13
:1059A0000028F6D1E269A069D36801990133D36078
:1059B000626A00F0A8FC0120ECE77FB50B78044692
:1059C000042B58D8DFE803F02110033D48000123E1
:1059D0008DF804304B6802938B680393E3691A686F
:1059E000586801A990470EE0C36993F8263053B96F
:1059F000FFF7C8FF38B9E36993F82520002A3AD0A9
:105A0000012283F8262004B070BDC3698A685E69EC
:105A1000901B30D01A6902441A614A68002532444A
:105A2000CDE902208DF8045060685D612A4603F1DB
:105A30001801FFF7B0FE0028D0D02846FDF76AFD18
:105A4000CCE70023CDE90133039302238DF8043022
:105A50000B798DF80830C1E7C36949681A6958693C
:105A60000A44121A1A6100220192039203228DF84D
:105A700004200291B3E7002004B0BDE87040FDF7B8
:105A800049BD0000836930B5DB681A0B43F3073367
:105A9000002B85B004460CDB02F01F015B090122DC
:105AA0008A402033174941F82320BFF34F8FBFF3BB
:105AB0006F8FA3695B68D3F84C05E3691A6982426A
:105AC0000FD200218DF80410D3E90515821A0D4478
:105AD000CDE902520A44C3E9040201A91A685868D0
