:1000000000000420750300005D0300005F03000092
:1000100061030000630300006503000000000000AE
:100020000000000000000000000000006703000066
:1000300069030000000000006B0300006D03000076
:100040006F0300006F0300008D0B00005D0B0000CC
:10005000690B00006F0300001D0700006F03000024
:100060008114000095140000A91400005112000032
:100070006F030000751000006F0300006F030000A5
:100080006F0300006F0300006F030000810B00008E
:100090006F0300006F0300006F0300006F03000098
:1000A0006F0300006F030000BD140000D1140000B6
:1000B0006F0300006F03000000000000000000005C
:1000C0006F0300006F0300006F030000750B00005A
:1000D000611200006F0300006F0300006F03000057
:1000E0006F030000511000006F03000000000000CB
:1000F000000000006F03000000000000F912000083
:1001000000000000000000000000000000000000EF
:1001100000000000000000000000000000000000DF
:1001200000000000000000000000000000000000CF
:1001300000000000000000000000000000000000BF
:1001400000000000000000000000000000000000AF
:10015000000000000000000000000000000000009F
:10016000000000000000000000000000000000008F
:10017000000000000000000000000000000000007F
:10018000000000000000000000000000000000006F
:10019000000000000000000000000000000000005F
:1001A000000000000000000000000000000000004F
:1001B000000000000000000000000000000000003F
:1001C000000000000000000000000000000000002F
:1001D000000000000000000000000000000000001F
:1001E000000000000000000000000000000000000F
:1001F00000000000000000000000000000000000FF
:10020000354936480A1A02D0072291438D463449AF
:1002100034480A1A06D00722914381F30988022242
:1002200082F3148830483149314A00F044F83148AB
:100230003149324A00F03FF831483249324A00F041
:100240003AF832483249334A00F035F832483349F7
:10025000334A00F030F833483349344A00F02BF881
:1002600033483449344A00F026F8344834490022EF
:1002700000F02CF833483449002200F027F83348C6
:100280003349091A082902DB002202604160314A21
:1002900090471F481F49884205D00268043003B4C4
:1002A000904703BCF7E700208646EC46002000217B
:1002B000294A9047FEE7884207D0521A05D00378B2
:1002C00001300B700131013AF9D17047884202D0F8
:1002D00002700130FAE770470000042000E00320BC
:1002E0000000042000000420988D00003001002050
:1002F0009C030020D0030000D0030000006C00002D
:10030000988D00003001002030010020046F0000B3
:10031000046F0000046F0000046F0000046F000011
:10032000046F0000046F0000046F0000988D00004F
:10033000049000009C0300209C0300209C030020EC
:100340005C3800205C3800205C3800205C380020DD
:100350005C5800209D03000035240000FEE7FEE706
:10036000FEE7FEE7FEE7FEE7FEE7FEE7FEE7FEE765
:1003700000F002B8FFF7FCBF0F484FF007018843B9
:1003800085460E4880470E48016841F470010160BF
:10039000BFF34F8FBFF36F8FFFF732BF09480A4992
:1003A0000A4A884207D0521A05D0037801300B70F0
:1003B0000131013AF9D17047000004207565000051
:1003C00088ED00E0D46D0000000000203001002026
:1003D0000A4B185C1F288ABF094B4FF0A04300F05E
:1003E0001F00D3F804250121814021EA02000A40C0
:1003F000C3F80805C3F80C25704700BF046F000060
:100400000003005038B5074C051E04F1080318BF5F
:100410001C4623682BB11A6822605B6828469847FF
:10042000F7E738BDA403002020B9054B01225A701C
:10043000FFF7E8BF012802D1014A9070F8E7704742
:100440009C03002038B50C4C23789BB90B486360A3
:10045000A3602361E36000F001F9054600F00AF9AA
:1004600001232370064BD3F800340BB10123A37092
:10047000284638BD8525F5E79C03002029040000A7
:100480000000014038B5134CA378054603F0FF0087
:1004900073B115B16B6801209847002003F0EAFAA8
:1004A000E3680133E3600020BDE8384003F0E4BABC
:1004B00003F0E0FA25B1226913463BB92A602561B1
:1004C000E368002BECD100F0EBF8E9E79D42F7D0B0
:1004D0001B68F2E79C0300201FB503788DF80030FD
:1004E0008388ADF8043083688DF80630C3688DF8D2
:1004F0000730036902934369054A0393054B684635
:1005000053F8213052F82110984705B05DF804FBEC
:100510000004002008040020024B4FF4807043F0D8
:1005200001031847306F00001F2886BF054A00F0FE
:100530001F004FF0A042012303FA00F0C2F80805A3
:10054000704700BF000300502DE9F047154690F8B2
:100550000080394A42F82850384A42F828304B7B0C
:1005600006460C46A3B30868DFF8D8904FF0A041C8
:1005700000F5E07340F20C6241F82320636803F554
:10058000E073002741F82320FFF7CEFF6068FFF7F4
:10059000CBFF236803F5E07340F20D6241F823209E
:1005A000636803F5E0734FF0010A41F82320FFF779
:1005B000B3FF63681F2B8ABF4A464FF0A04203F087
:1005C0001F03D2F8102522FA03F3DB070BD507BB74
:1005D000002D1B4A434608BF2A462146301DBDE870
:1005E000F04701F071B923681F2B86BF03F01F038A
:1005F0004A464FF0A0420AFA03F3C2F80C35FFF75F
:100600008BFF01372068FFF78FFFFFF785FF092F6A
:10061000CFD163681F2B86BF0A4903F01F034FF039
:10062000A041012202FA03F3C1F80C35FFF774FF71
:100630006068FFF779FFCBE7080400200004002082
:10064000D90400000003005000F18040002382B074
:10065000036003680193019B02B07047044A137959
:1006600023B901211060918018467047852070479A
:1006700010040020084B1A68D20704D4C02283F863
:10068000002301221A604FF080420123C2F818357E
:10069000024A1370704700BF00E100E01804002018
:1006A00008B54FF48270FFF7CFFF4FF0804302226E
:1006B000C3F8042301229A6008BD00F1804000F5D0
:1006C000C040002382B0036003680193019B02B025
:1006D0007047000003681F2B83BF03F01F030360F4
:1006E00001484FF0A04070470003005007B501904B
:1006F00001A8FFF7EFFF019B00EB8300D0F8003764
:1007000023F44033C0F80037D0F8003743EA014102
:10071000C0F8001703B05DF804FB00002DE9FF47A7
:100720000024CDE90244584D4FF48072012102F1BA
:10073000804303F5C04390B21B68012B06D1D5F866
:1007400004330B4202D0FFF7B8FF0C430432B2F57A
:10075000907F4FEA4101EAD14B4BD3F87C31012B1A
:1007600011D14FF4BE70FFF7A8FF4FF0A04344F043
:100770000044D3F820250292C3F82025D3F820287E
:100780000392C3F82028E3B2D3B1404F00250126DD
:10079000344210D0AB0003F1804303F5C043D3F8DB
:1007A0001005D3F8101557F8253023B1C1F30141D6
:1007B000C0F3052098470135082D4FEA4606E7D1DA
:1007C000002C59DA314D324C324E4FF000080127DF
:1007D00016F9013B5A1C3CD0C3F3C20110316944E5
:1007E0005FFA83F911F8081C03F03F0203F00703D6
:1007F00007FA03F319422CD001A80192FFF76AFF10
:10080000019B03F5E07350F82330C3F3014ABAF1BA
:10081000020F0CBF032102211046FFF767FF01A85A
:100820000192FFF757FF019B07FA03F3C0F8203549
:10083000AB1893F9303055F8233053B14FEA991182
:10084000032904D0BAF1020F19D1012901D11046B0
:10085000984708F10108B8F1040FB9D14FF0A0434F
:10086000D3F820250292C3F82025D4F8203503932D
:10087000C4F820351343A7D104B0BDE8F087BAF11E
:10088000030FE6D10229E1E7006000401C040020CC
:10089000000300507C0400202DE9F84F134DDFF8D1
:1008A000508007464FF0000A04264FF001095FFA16
:1008B0008AFB002009FA0BF403F0DCF82C420AD082
:1008C000D8F8003014EA030201BF2343C8F800300F
:1008D00087F800B01646002003F0CEF81EB1A543FD
:1008E0000AF1010AE3D13046BDE8F88FFFFF0F009F
:1008F00088040020012310B503FA00F4C4F31303A5
:100900007BB1094B0020C3F8084503F0B3F8074B4F
:10091000186820EA04001860002003F0ADF80020F9
:1009200010BD0720FCE700BF00F001408804002054
:1009300010B5A1B19AB101238340C3F3130484B16C
:100940000A4C246823420ED0C00000F1804000F51C
:10095000F830C0F81015C0F81425002010BD0E2086
:10096000FCE70720FAE70820F8E700BF880400202A
:10097000074A01231268834013421FBF00F511701C
:10098000044B43F82010002008BF0820704700BF28
:100990008804002000F00140012303FA00F0C0F3B6
:1009A00013031BB1054B1B68184204D0044BC3F85A
:1009B0000405002070470820704700BF880400200D
:1009C00000F00140012303FA00F0C0F313031BB150
:1009D000054B1B68184204D0044BC3F808050020DF
:1009E00070470820704700BF8804002000F00140D5
:1009F0002DE9F84FDFF84C8007464FF0000A3F25FD
:100A000004264FF001095FFA8AFB002009FA0BF473
:100A100003F030F82C420AD098F8003013EA0402B0
:100A200001BF234388F8003087F800B01646002045
:100A300003F022F81EB1A5430AF1010AE3D13046C2
:100A4000BDE8F88F8C04002070B5104C012303FA28
:100A500000F5227815F03F0F14BF002607262A4222
:100A600011D0C00000F1804000F5F8304360002054
:100A700003F000F82378002023EA0503237002F036
:100A8000FBFF304670BD0826FBE700BF8C0400204A
:100A9000012303FA00F2910608D0064909781142B1
:100AA00006D0054A42F830300020704707207047D2
:100AB000082070478C04002000F0014038B5012365
:100AC0008B409A0605460C4615D00D4A12781A42FC
:100AD00013D0002002F0CEFFA10001F1804101F50A
:100AE000F831D1F800080543C1F80058002002F0A1
:100AF000C3FF002038BD0720FCE70820FAE700BF4D
:100B00008C0400200E4B9842024610D0B0F1402FCA
:100B10000FD003F5003398420DD0A3F580339842EF
:100B20000BD0084908488A4218BF00207047074880
:100B3000704707487047074870470748704700BF2D
:100B40000030004000200040B0040020900400204D
:100B500098040020A0040020A8040020014B1B687A
:100B6000184700BF90040020014B1B68184700BFC6
:100B700098040020014B1B68184700BFA004002008
:100B8000014B1B68184700BFA8040020014B1B68DD
:100B9000184700BFB004002070B50D46FFF7B2FF44
:100BA000044608B9002070BD002002F063FF2679DA
:100BB00016B9012325602371002002F05DFF002E8D
:100BC000F0D01120EFE700001F2886BF00F01F00C3
:100BD000044B4FF0A04300F5E070022243F82020C0
:100BE000704700BF000300500F4B5A7910B502F058
:100BF000FF04B2B90D491A68C1F800411AB10124C5
:100C00005C71C1F8044300F1804000F524300123F9
:100C1000036022B9054AD2F80031002BFBD0002036
:100C200000E0112010BD00BFB80400200090024079
:100C30000E4B0238D3F83C26D3F83836072813D8A1
:100C4000DFE800F0110F0D0B0A080604100EC87142
:100C5000100C8871100A48710A711A0ECA701A0CA9
:100C60008A701A0A4A700B70704700BF00900240E9
:100C7000023807281FD8DFE800F029272511232193
:100C80001F04CB791B068A7943EA02434A7943EA77
:100C900002230A7913430E4AC2F83C36CB781B066E
:100CA0008A7843EA02434A7843EA02230A781343E4
:100CB000074AC2F8383670470023E4E70023E5E727
:100CC0000023E6E70023EBE70023ECE70023EDE752
:100CD0000090024070B5084D084E642445F00105AF
:100CE000D6F8003133B94FF42070A847013CF7D152
:100CF0000D2070BD0020FCE7506F00000090024006
:100D00002DE9F0476D4E3379002B40F0D18090F8FB
:100D10000480B8F1FF0F00F0CE8090F805E0BEF13E
:100D2000FF0F00F0C88090F806C0BCF1FF0F00F084
:100D3000C280C779FF2F00F0BE80B8F11F0F8BBFB4
:100D400008F01F0343465E4C4FF0A04403F5E073E8
:100D5000BEF11F0F40F2023544F823508BBF0EF056
:100D60001F037346564C4FF0A04403F5E073BCF1EB
:100D70001F0F40F2023544F823508BBF0CF01F03C5
:100D800063464F4C4FF0A04403F5E0731F2F40F231
:100D9000023544F823508BBF07F01F033B46484CF5
:100DA0004FF0A04403F5E07340F2023544F82350BD
:100DB000047AFF2C0DD01F2C93BF234604F01F0391
:100DC0003F4D4FF0A04503F5E07340F2023945F87E
:100DD0002390437AFF2B0ED01F2B93BF1D4603F0A9
:100DE0001F05DFF8DC904FF0A04905F5E07540F2F3
:100DF000023A49F825A0FF2C324D08BF4FF0FF34CE
:100E0000FF2B08BF4FF0FF33C5F82485C5F828E550
:100E1000C5F830C5C5F83475C5F83845C5F83C3552
:100E20000368C5F84035037BC77A847A9B0143EA9F
:100E3000C7032343447B002C14BF80240024234396
:100E4000C5F84435D5F80036847B90F810C0477C4F
:100E500023F07F4323F0FF032343C47B43EA4C6327
:100E6000002C14BF4FF08074002443EA077323431F
:100E7000C5F800360023737101233160B260C5F8F4
:100E8000083341B1837C104A5B01DBB282F829331D
:100E90004FF4007353600B4B012200213271C3F8F1
:100EA0000025BDE8F047C3F800111A60FFF712BF34
:100EB0000820BDE8F0870720FBE700BFB80400204A
:100EC000000300500090024000E100E0F8B5154634
:100ED000194A5279044602F0FF004ABB174EC6F881
:100EE000000111B16078FFF7C3FE0123C6F8083393
:100EF000A37862781B0343EA022322781343E27843
:100F000043EA4233227943EA8233627943EAC233C5
:100F1000C6F83436FFF7DEFE0D2808D00027C6F8E5
:100F200000713DB160782946FFF782FE3846F8BD72
:100F30001120FCE72846FAE7B804002000900240A0
:100F4000F8B5224BD3F8342602F44032B2F5803F94
:100F500004BF1F4AC3F834261E4A4FF40071C2F87A
:100F60008410BFF34F8FBFF36F8F0122C3F80823A4
:100F70001A615A650022C3F80025C3F80021D3F88E
:100F80002405D3F82875D3F83065D3F83455D3F851
:100F90003845D3F83C15C0B2FFF716FEF8B2FFF79C
:100FA00013FEF0B2FFF710FEE8B2FFF70DFEE0B25D
:100FB000FF28C9B201D0FFF707FEFF2902D008467B
:100FC000FFF702FE044B00221A71F8BD00900240A8
:100FD0000001030000E100E0B804002000F06043DD
:100FE000B3F1005F0BD1830709D1064BC3F810257D
:100FF000C3F81405C3F818150820FFF7F5BD102035
:10100000704700BF0090024000F06043B3F1005F02
:101010000BD1830709D1064BC3F80425C3F8080593
:10102000C3F80C150420FFF7DFBD1020704700BF88
:10103000009002408B0707D1044BC3F81C15C3F87E
:1010400020050C20FFF7D0BD102070470090024013
:10105000064AD2F800313BB1054B0020587199681F
:10106000C2F800011A681047704700BF00900240A4
:10107000B8040020074B0022C3F8002182B0D3F847
:1010800000210192019AD3F80805034B1B68C0B2F6
:1010900002B0184700D00040C40400200023435091
:1010A00082B043580193019B02B070472DE9F0478D
:1010B000DFF8988004460D46914600F5A07A4FF47B
:1010C00080370026D4F80433B10001F5A0713B420B
:1010D00089B20DD0DAF8003053B1C4F84873204615
:1010E000C4F80873FFF7DAFF58F82530F0B29847D4
:1010F0000136B1454FEA47070AF1040AE2D1D4F8B4
:101100000433DA070CD5D4F800314BB120464FF444
:101110008071FFF7C3FF0D4B042053F8253098472B
:10112000D4F804339B070ED5D4F804315BB12046C4
:101130004FF48271FFF7B2FF044B052053F82530BE
:10114000BDE8F0471847BDE8F08700BFD004002095
:10115000F0B51A4C43791A4D44F8232003EB4303AE
:10116000EB5C43BB90F904408B7802795B01002C67
:10117000DBB21BDB134E371987F8003301236409F8
:1011800002F01F0203FA02F246F8242003680A88DC
:10119000C3F8082543790879C97803EB4303EA18B3
:1011A000507091700122EA540020F0BD064C02F00C
:1011B0000F02A354EAE70820F7E700BFD00400209D
:1011C000C804002000E100E014ED00E02DE9F0414A
:1011D00005464FF4803400681C4F8C40C0F84843EB
:1011E000C0F8084395F805C00CEB4C063E4422F0CD
:1011F0007F4296F8018001F5A8764FEA4C0E40F840
:101200002620B8F1000F11D0D0F80485F4446744CB
:10121000A8EB0206904538BF06F1FF16BA7838BF32
:1012200006F57F46B24201DD0D200CE03BB15031A6
:10123000890089B2FFF732FF2B68C3F804432B689B
:101240000020C3F84443BDE8F08100BFC80400207B
:10125000024803220021FFF729BF00BF00B0004071
:10126000024804220121FFF721BF00BF00400240D5
:101270001F2886BF054A00F01F004FF0A04201233F
:1012800003FA00F0C2F80C05704700BF00030050DD
:101290001F2886BF054A00F01F004FF0A04201231F
:1012A00003FA00F0C2F80805704700BF00030050C1
:1012B000D0F8183107B5DBB10023C0F81831D0F8E9
:1012C0001831C87F0193FF28019B03D08B7F63B146
:1012D000FFF7CEFF002308460B724B7750F8083B10
:1012E000496803B05DF804EB1847FFF7D1FFF1E759
:1012F00003B05DF804FB000001490248FFF7D8BFC6
:101300004405002000F002402DE9F3470024064682
:101310000F46904600F5A0754FF48039A2462B6821
:101320008BB1D6F8043309FA04F21A420BD0C5F88F
:1013300000A02B680193A000019B00F5A07398B258
:10134000D7E9003198470134444505F10405E6D159
:1013500002B0BDE8F0870000F7B506792F4D0C23E9
:101360007343EF183C7A002C55D1EA504B687B60F0
:10137000477903682246A446D4B2A7423CD8CA782B
:1013800043F307345201002CC3F30733D2B23DDBE1
:10139000234F07EB040C8CF800230122640903F0AF
:1013A0001F0302FA03F347F8243003684A78D3F89E
:1013B000040502F0030220F003000243C3F80425F1
:1013C000D3F808058A7820F0030002F003020243F4
:1013D000C3F80825D3F810050A7820F00F0102F0B1
:1013E0000F020A43C3F810250C2303FB0655012303
:1013F0002B72002003B0F0BD940004F5A0740132FC
:1014000043F804C01C590194019CB5E7054C03F056
:101410000F03E254C9E70820ECE700BF680500208D
:1014200000E100E014ED00E0036801221A60027997
:10143000034B0C2101FB023302221A72704700BFDA
:101440006805002003680122DA60704737B54FF461
:10145000803400688C407BB18B0003F5A0730025BD
:10146000C550C3580193019BC0F8044301F5A8710E
:1014700040F8212003B030BDC0F80843F6E7000073
:10148000024903480422FFF73FBF00BF6805002060
:1014900000800040024903480422FFF735BF00BF27
:1014A0007405002000900040024903480422FFF721
:1014B0002BBF00BF8005002000A000400249034868
:1014C0000622FFF721BF00BF8C05002000A00140CD
:1014D000024903480622FFF717BF00BF9805002006
:1014E00000B001400023435082B043580193019B58
:1014F00002B070478B6A4A6B9A4210B54FF00103F5
:1015000005D2496A8A5CC0F81C251A4604E091F8A5
:101510002C201AB1C3610022104610BD0C6A64066B
:1015200003D5C36181F82D30F6E74361EDE770B56F
:10153000D0F8046105460C4626B14FF48271FFF7DE
:10154000D1FF012694F82F2022B34FF49271284640
:10155000FFF7C8FF4FF48E71FFF7C4FF4FF484719B
:10156000FFF7C0FF002E69D094F82F20002384F8E5
:101570002D3092BBA36A616B99421CBF16460523AE
:1015800086F001061CBFC5F80025C5F8003584F8B3
:101590002F6023E0D5F824314BB14FF492712846E7
:1015A000FFF7A0FF01236B6184F82F30DAE7D5F84D
:1015B0001C31ABB14FF48E712846FFF793FF636B7C
:1015C00001336363D5F8243113B14FF49271E7E727
:1015D0002146FFF78FFF0028C4D10022104670BDBE
:1015E000D5F80831002BBDD04FF484712846FFF7A1
:1015F00079FFD5F82431002BE7D1636BA16A8B42C8
:10160000B0D2616AD5F81805C854636BA16A01337A
:10161000481E8342636308D1206A400610D4022327
:10162000C5F8003201232B629CE78B42FAD1236A72
:101630005B0697D5022384F82D30CFE70122CDE752
:101640008B42EFD1F6E7000037B5314B01930D46E1
:101650004FF48271FFF746FF4FF49271FFF742FF9C
:101660004FF48E71FFF73EFF4FF48471FFF73AFF9E
:101670000023C0F800326B6385F82F30012303622A
:1016800095F82D209A4218BF836029460446FFF73B
:1016900031FF2B6883B140F28623AB60AB68C4F89E
:1016A0000433002003B030BD29462046FFF73FFF3A
:1016B00028B1019B013B0193019B002BF4DC95F8C1
:1016C0002F0050B9019B002BECDC0023C4F800353F
:1016D0000523C4F800350320E4E7D4F8C434C4F883
:1016E000C43493B113F0010F14BF4FF40240032030
:1016F00048F2012213F0020F18BF104613F0040F36
:1017000048F2022318BF1846DCE70320DAE700BFDF
:10171000A086010037B5344B01930D464FF482711A
:10172000FFF7E0FE4FF49271FFF7DCFE4FF48E718D
:10173000FFF7D8FE4FF48471FFF7D4FE00236B63EC
:1017400085F82F30AB6A012B044617D12B6A5B0654
:1017500014D40223C4F800320123236295F82D200B
:10176000022A18BF23602B6893B140F28623AB6036
:10177000AB68C4F80433002003B030BD0123E9E7AF
:1017800029462046FFF7D3FE28B1019B013B019378
:10179000019B002BF4DC95F82F0050B9019B002B26
:1017A000EADC0023C4F800350523C4F80035032023
:1017B000E2E7D4F8C434C4F8C43493B113F0010F91
:1017C00014BF4FF40240032048F2012213F0020F2D
:1017D00018BF104613F0040F48F2022318BF184632
:1017E000DCE70320DAE700BFA0860100F0B587B090
:1017F00007460C46FFF79BFE002846D194F82FC001
:10180000D4F820E0BCF1000F1FD1237B9A1E012ADF
:101810001BD8616AA269914217D1E2696262CEF374
:10182000401E6269A262032B84F82CE084F82DC06C
:101830002146384604D107B0BDE8F040FFF704BFA9
:1018400007B0BDE8F040FFF765BF04F10C060FCE0E
:1018500001AD0FC533682B60BCF1000F20D0D7F865
:10186000C434C7F8C434990711D501238DF800306A
:1018700000231EF0040F84F8303002D0BCF1000FBA
:1018800003D0D4E900316846984707B0F0BD5A0745
:1018900001D50223EAE7DB074CBF03230423E5E776
:1018A0008DF800C0E4E7000001490248FFF79EBF41
:1018B000A40500200030004002494FF04020FFF70F
:1018C00095BF00BFE00500202DE9F84F07793B4E9A
:1018D0004FF03C0A0AFB07FA06EB0A059B4695F80F
:1018E0002E3080460C469146002B63D1344B006865
:1018F00053F82710FFF750F900285DD12168637B6A
:1019000085F838301F298CBF01F01F030B4603F503
:10191000E07388BF2B4AA86098BF4FF0A04240F206
:101920000C6C85F8300042F823C06268C5F804B03A
:101930001F2A8CBF02F01F03134685F82D0085F87F
:10194000310003F5E07388BF1E4D46F80A9098BF3A
:101950004FF0A04545F823C0D8F80030C3F808156B
:10196000C3F80C25A268C3F82425B9F1000F14D0E0
:10197000227B43F3073152010029C3F30733D2B26C
:1019800013DB114C651885F800230122490903F087
:101990001F0302FA03F344F821303C2303FB0766DC
:1019A000012386F82E30BDE8F88F084903F00F03B5
:1019B000CA54F2E70820F6E71120F4E7A405002056
:1019C000706F00000003005000E100E014ED00E043
:1019D000036802790521C3F80015044B3C2101FB83
:1019E0000233022283F82E20704700BFA405002096
:1019F0002DE9F047314F0479D0F800903C2303FBE8
:101A000004730D4693F82D30012B944604D10B78C6
:101A1000012B06D1082011E0022B02D10B78012BFB
:101A2000F8D13C26264BC9F8083306FB047696F815
:101A300030302BB1B368C9F804331120BDE8F0870A
:101A40008CF00403C3F3800386F83030C6F820C05E
:101A5000A846B8E80F0006F10C0EAEE80F00D8F863
:101A60000030CEF800306B68B362EB6873626B785D
:101A7000C9F888352B78C4EB041A012B07EB8A0AC6
:101A800017D09BB9CCF3401C3C2303FB0473514695
:101A900083F82CC04846FFF7D7FD3C235C433A1936
:101AA0003B59002BCAD182F83030C7E74FF0010C08
:101AB000EAE751464846FFF72DFEEEE7A405002071
:101AC0008642040010B586B0012402930023CDE9BC
:101AD00003328DF805101A4601A98DF804400593CC
:101AE000FFF786FF06B010BD1F2886BF00F01F005D
:101AF000044B4FF0A04300F5E070032243F8202090
:101B0000704700BF00030050014B01221A7070475C
:101B1000B42D002008B5064B06481A6A002101239F
:101B20005209FFF753FBBDE80840034804F086B8AC
:101B3000882A0020507400001874000038B5054D44
:101B4000044645F001054FF47A40A847013CFAD11C
:101B500038BD00BF10740000024B0822C3F80825EE
:101B6000704700BF00030050024B0822C3F80C2549
:101B7000704700BF000300501F288CBF094A4FF078
:101B8000A0424FF00103D2F8041588BF00F01F00F7
:101B900003FA00F020EA01030840C2F80835C2F851
:101BA0000C0570470003005073B50B78012B0546F8
:101BB0000C462AD0022B22D0FBB901F071FA002882
:101BC000FBD1234B5B88022B0AD92248224B626847
:101BD00022491B1ADB081B0443F0030001F0D0FB71
:101BE0001F4861680026067004F090FFD4E90112D6
:101BF000284604F077F91B4B1E7002B070BD002020
:101C000002B0BDE87040FEF7E3BB2E20FFF7B4FF43
:101C100001F046FA0028FBD1124B1B78002BECD0C8
:101C2000D4E90112284604F05DF90F4803F030FFB3
:101C300002460028E1D10C48694603F030FF08B1A4
:101C400001F0B4FEDDE90012284604F048F9D4E7BB
:101C500040000020546C0000AC6C00007D6F000060
:101C600020060020B52D00201C6C000070B500205F
:101C70008AB004F0C5FE684D002404F0B1FE0134C2
:101C8000B4F5807F05F8010BF7D1644E0FCE05AC9B
:101C90000FC456F8103962492360002205A8FFF7E7
:101CA0002FF808B101F082FE5E4D6B88022B09D936
:101CB0005D485E4B5E49C01AC008000440F0030056
:101CC00001F05AFB40238DF80B305A4B70699B880A
:101CD00003900022114603A8ADF81030FFF7F6F884
:101CE00008B101F063FE00229923114603A88DF884
:101CF0000C30FFF7EBF808B101F058FE01238DF826
:101D00000C30002202230DF10B0103A88DF80D30D9
:101D1000FFF7DCF808B101F049FE474C0021012033
:101D20002170FFF787F908B101F040FE2378002BFE
:101D3000FCD0002323706B88022B09D93A483B4B17
:101D40003E49C01AC008000440F0030001F014FB33
:101D5000314800224FF48071FFF740F908B101F0DB
:101D600025FE2378002BFCD0002323706B88022BE8
:101D700009D92D482D4B3249C01AC008000440F043
:101D8000030001F0F9FA2F4800224FF48071FFF7A9
:101D90003BF92378002BFCD0002323706B88022BA7
:101DA00011D9224B20482849C01AC008000440F02D
:101DB0000300019001F0E0FA6B88022B03D923495C
:101DC000019801F0D9FA1F4913484FF4807204F0CA
:101DD000CDFD6B8890B9022B09D91348134B1C49D0
:101DE000C01AC008000440F0030001F0C5FA194B06
:101DF00001221A70FFF7A4F80AB070BD022BF9D9BE
:101E00000A4B09481449C01AC008000440F00300F6
:101E100001F0B2FAEEE700BFB42C0020F47300002A
:101E2000091B000040000020AC6C0000546C000056
:101E30008A6F000008740000B42D0020A06F00001D
:101E4000C56F0000B42B0020E36F0000ED6F0000B1
:101E5000F86F0000B92D002008700000F7B5184B8E
:101E6000184C1A889B788DF80630174B174D184E72
:101E7000184FADF80420E41AE408240444F00304E5
:101E800001A9284600F0D0FC20B1134B01221A70A2
:101E900003B0F0BD05223146384604F020F80F4B60
:101EA0005B88022B03D90E49204601F065FA4FF4F6
:101EB0007A70FFF743FE01F0F3F80028FBD1DFE76B
:101EC00027700000AC6C0000546C0000200600205D
:101ED0005C03002018740000B72D00204000002093
:101EE0001A70000007B50C4B0C49186800909B88CD
:101EF0000B48ADF804300B2203F0F1FF4FF47A7079
:101F0000FFF71CFE6946074800F08EFC431E58424E
:101F1000584103B05DF804FB2A700000480100201E
:101F2000187400002006002038B5764C6388022B18
:101F300009D97548754B7649C01AC008000440F0AD
:101F4000030001F019FA6420FFF7F8FD01F0A8F88A
:101F50000028FBD12E20FFF7C7FD2320FFF7C4FD8B
:101F60006C4D0920FFF7C0FD0423C5F81C37642021
:101F7000FFF7E4FDD5F81035674DDA09C3F3C01358
:101F80002B706388022B0BD95F48604B6349C01AE2
:101F9000C008000402F0010240F0030001F0F0F973
:101FA0006420FFF7CBFD01F07BF80028FBD12A78F5
:101FB0006388002A75D0022B09D95348534B5849DE
:101FC000C01AC008000440F0030001F0D5F94FF436
:101FD000FA70FFF7C9FDFFF7B1FD01F061F80028C5
:101FE000FBD16388022B09D94748484B4D49C01A99
:101FF000C008000440F0030001F0BEF94FF4FA609D
:10200000FFF7AAFDFFF79AFD01F04AF80028FBD17F
:102010004FF4FA60FFF7A8FDFFF790FD6388022BED
:1020200009D93948394B4049C01AC008000440F06A
:10203000030001F0A1F94FF4FA60FFF77FFD01F012
:102040002FF80028FBD16388022B09D92E482F4B8B
:102050003649C01AC008000440F0030001F08CF9B2
:102060004FF4FA70FFF780FDFFF768FD4FF4FA6058
:10207000FFF772FDFFF762FD4FF4FA60FFF774FDA2
:10208000FFF75CFD6388022B3AD9204B1E48284994
:10209000C01AC0080004BDE8384040F0030001F059
:1020A0006BB9022B09D91848184B2049C01AC0082F
:1020B000000440F0030001F05FF94FF4FA70FFF7FD
:1020C00053FDFFF73BFD4FF4FA60FFF745FDFFF7C7
:1020D00035FD4FF4FA60FFF747FDFFF72FFD6388EA
:1020E000022B09D90848094B1149C01AC00800043D
:1020F00040F0030001F040F900F0D2FF0028FBD1CE
:1021000038BD00BF40000020AC6C0000546C0000E3
:102110003070000000030050BB2D00204470000010
:102120005570000061700000767000008E70000035
:10213000A970000070B5A14BA14C18689A889B79D2
:1021400086B08DF80E309F4BADF80C201A889B7826
:102150008DF806309C4B02901868ADF8042004906E
:102160009A889B798DF816300920ADF81420FFF776
:1021700003FD6388022B09D99448954B9549C01AF1
:10218000C008000440F0030001F0F6F892499348BB
:10219000052203F0A4FE924990480D2203F09FFE11
:1021A0004FF4FA70FFF7CAFC8E498C480D2203F0F9
:1021B00096FE4FF4FA70FFF7C1FC8B4987480C225A
:1021C00003F08DFE4FF4FA70FFF7B8FC6388022B22
:1021D00009D97E487E4B8549C01AC008000440F0EA
:1021E000030001F0C9F800F05BFF0028FBD14FF4B9
:1021F000FA60FFF7A3FC00F053FF0028FBD14FF477
:10220000FA60FFF79BFC00F04BFF0028FBD14FF476
:10221000FA60FFF793FC00F043FF0028FBD14FF476
:10222000FA60FFF78BFC00F03BFF0028FBD1704900
:102230006A48704E092203F052FE4FF47A70FFF79D
:102240007DFC6D4965480C2203F049FE4FF47A701D
:10225000FFF774FC694961480B2203F040FE4FF41C
:10226000FA70FFF76BFC012501A9304600F0DCFA9B
:10227000012808BF0A254FF4FA700135FFF75EFC0C
:102280000B2DF1D15E4955485A4E152203F027FE19
:102290004FF4FA70FFF752FC5A4950480C2203F0F1
:1022A0001EFE4FF4FA70FFF749FC57494B48442291
:1022B00003F015FE4FF4FA70FFF740FC534947480E
:1022C0001A2203F00CFE4FF4FA70FFF737FC504966
:1022D0004248292203F003FE4FF4FA70FFF72EFC68
:1022E0004C493E48582203F0FAFD4FF4FA70FFF7CC
:1022F00025FC49493948672203F0F1FD4FF4FA7093
:10230000FFF71CFC454935480C2203F0E8FD4FF46B
:10231000FA70FFF713FC012501A9304600F084FA9A
:10232000012808BF0A254FF4FA700135FFF706FCB3
:102330000B2DF1D13A4929482E4E2C2203F0CFFD26
:102340004FF4FA70FFF7FAFB36492448302203F0C5
:10235000C6FD4FF4FA70FFF7F1FB33491F4808221E
:1023600003F0BDFD012504A9304600F05DFA012807
:1023700008BF0A254FF4FA700135FFF7DFFB0B2D7C
:10238000F1D11C4802A900F04FFA0128054612D1EC
:102390006388022B09D90E480C4B24491B1ADB0811
:1023A0001B0443F0030000F0E7FF214B01221A70E9
:1023B000284606B070BD0025FAE700BFE9700000AE
:1023C0004000002027700000F0700000AC6C00009E
:1023D000546C0000B77000005C030020187400000B
:1023E000FF01002053010020F3010020C470000011
:1023F0005003002020060020600100206C01002016
:102400003902002030010020AF010020B502002079
:1024100027030020CF0200204E0200203C010020B4
:102420000D02002077010020A7010020DA700000D3
:10243000B62D002070B58AB0FEF704F808B101F09F
:10244000B5FA0020FEF71EF84FF48041002000F09E
:1024500009FC08B101F0AAFA182401F097FA224603
:10246000002104A804F01FFB1423CDE902346423E7
:1024700006934FF0EB73089306238DF82530AB4B92
:10248000AB4A02A9184603F01FFC08B101F08EFA0E
:10249000A64803F0EDFC4FF47A70FFF74FFBA54917
:1024A000A248052203F01BFD08B101F07FFA00F0FD
:1024B000FFF9A14CFFF738FD4FF4FA70FFF73EFB30
:1024C00000F0DCF94FF4FA70FFF738FB6388022B59
:1024D00009D99A489A4B9B49C01AC008000440F099
:1024E000030000F049FF4FF4FA70FFF727FB00F0FC
:1024F000D7FD0028FBD1944D944A297894480123B4
:10250000FFF7E0FA6388002840F0D980022B0AD94F
:102510008A488B4B2A788F49C01AC008000440F0C3
:10252000030000F02DFF8C4B01221A704FF4FA705B
:10253000FFF704FB00F0B4FD0028FBD13220FFF7C9
:10254000FDFAFFF78BFC6388022B09D97B487C4B93
:102550008249C01AC008000440F0030000F00CFFDC
:102560007F4E4FF47A70FFF7E9FA3378002B00F0D2
:10257000C080FFF7B7FC7B4B18706388002800F021
:10258000AC80022B09D96D486D4B7749C01AC00841
:10259000000440F0030000F0EFFE744D2B78002B98
:1025A00040F0B280FFF762FB6388022B11D9644BC5
:1025B00062486F49C01AC008000440F0030001904F
:1025C00000F0DAFE6388022B03D96A49019800F013
:1025D000D3FE694A63881278002A00F0E580022B56
:1025E00009D95648564B6549C01AC008000440F046
:1025F000030000F0C1FE33788BB15A4A6388127829
:10260000002A00F0DB80022B09D94C484C4B5C4976
:10261000C01AC008000440F0030000F0ADFE2B78A3
:102620008BB1584A63881278002A00F0D180022BBF
:1026300009D94248424B5449C01AC008000440F02E
:10264000030000F099FE444A63881278002A00F0E3
:10265000C980022B09D93948394B4C49C01AC008E6
:10266000000440F0030000F087FE494A63881278B6
:10267000002A00F0C180022B16D93048304B454962
:10268000C01AC008000440F0030000F075FE638823
:10269000022B09D929482A4B3549C01AC008000421
:1026A00040F0030000F068FEC820FFF747FA092059
:1026B000FFF762FA00F0F4FC0028FBD1F4E7012BED
:1026C0007FF634AF1E4B1D483349C01AC0080004C2
:1026D00040F0020000F050FE28E7012B7FF65DAFCE
:1026E0001648174B2D49C01AC008000440F00200DC
:1026F00051E76388012B7FF650AF1048104B2849F3
:10270000C01AC0080004F1E7FFF714FD254B18605C
:102710004FF47A70FFF712FA00F0C2FC0028FBD1E8
:1027200000F0BEFC0028FBD13CE700BF187400009D
:10273000A91B00005C03002040000020AC6C0000DE
:10274000546C0000F77000005A0300205B03002067
:102750005C7400000D710000B82D00206171000054
:102760000C020020BA2D00207271000059030020D5
:10277000AD710000EE710000B72D0020177200004F
:1027800068720000B62D0020B97200000A730000C4
:10279000B92D00205B7300003D71000085710000C1
:1027A000947100001C060020022B7FF624AF17480E
:1027B000174B1849C01AC008000418E7022B7FF60F
:1027C0002EAF1248124B1449C01AC008000422E769
:1027D000022B7FF638AF0D480D4B1049C01AC008C8
:1027E00000042CE7022B7FF640AF0848084B0C4949
:1027F000C01AC008000434E7022B7FF655AF034827
:10280000034B0849C01AC00800043CE7AC6C000048
:10281000546C00004072000091720000E2720000EF
:1028200033730000847300002DE9F0410F468046A9
:1028300004F0B5F90446384604F0B1F9002506461F
:10284000241AAC4202DA0020BDE8F0813246394653
:1028500008EB050004F0DAF808B10135F1E70120D2
:10286000F2E7000000F01F00034B00F5E0700322C8
:1028700043F82020704700BF000300501FB5094BEC
:102880000FCB6C4684E80F00002307481A46214608
:10289000FDF75AFE08B101F089F80448FFF798F8EF
:1028A00004B010BD68740000787400007C740000EF
:1028B00008B52E20FFF7D6FF07492820FFF7D2FFE3
:1028C0004FF48073C1F80C352620FFF7CBFF40236F
:1028D000C1F8083508BD00BF0003005000230428DC
:1028E000CB604B6098BF044B044A98BF53F820302C
:1028F0008A600B60704700BF0C7A0000E879000026
:10290000CB6800225A717047C368DB6800225A7195
:102910007047CB6801225A717047C368DB68012297
:102920005A7170470D4A8A6070B50D4A0D4C0023EC
:10293000121BCB604B600B6012091D469A4207D0F8
:10294000E6683679FF2E05D0854202D1A3680B6078
:1029500070BD013501331034F0E700BF207A00006C
:10296000D46D0000C46D00002DE9F3478368D3F8EF
:102970004831C3F340059B07074606D500221146A0
:1029800002B0BDE8F04702F0FBB8144E144CDFF87B
:102990005880DFF85890DFF858A0A41B2409A542FE
:1029A00002D102B0BDE8F087F168B3680A79FF2A66
:1029B00007D10C4A0821384602F0B6F80135103626
:1029C000EDE74879002814BF41464946CDE9001299
:1029D00038465246082102F0A7F8EFE7C46D000020
:1029E000D46D0000E7740000D6740000DE740000AF
:1029F000067500002DE9F74F154D164C9946641BDE
:102A000052F8043C06468846174624094FF0000B4E
:102A10005C4507D1104A0221304603B0BDE8F04FB3
:102A200002F082B8A9680193184604F091F8AA460A
:102A3000019B103540B93B46424651463046CC4694
:102A400003B0BDE8F04F60470BF1010BE0E700BFBA
:102A5000C46D0000D46D000027750000014BFFF726
:102A6000C9BF00BF0D2E0000014BFFF7C3BF00BF61
:102A700001290000014BFFF7BDBF00BF1329000073
:102A8000014BFFF7B7BF00BFE92E0000037813F03A
:102A9000040216D003F00303012B03D0022B09D04C
:102AA000012070470A6800880232C0F38310024494
:102AB0000A60F5E70B684288023303EB92130B6060
:102AC000EEE71046704700002DE9F04FDFF810A147
:102AD0000F4685B00446861C0020154600F0CAFF4C
:102AE000DAF804203A60DAF8083003F580739B1AAC
:102AF0000AF21C470AF583690AF21448B34219D353
:102B00000020002D68D004F00F039B0143F0050363
:102B100063F30F00DAF80430DAB2033233444AF8D0
:102B200022000020CAF8043000F0A6FF012005B002
:102B3000BDE8F08F0121384601F043FD484601F021
:102B400058FD404601F055FDDAF808000090C0B28B
:102B500003300AEB80006946FFF798FF009B30BB0B
:102B6000DAB20AEB8202D16801919A1C0133DBB21E
:102B70000AEB83030092D3F80CB001F00303012B9E
:102B800022D0022B15D08346404601F035FD10B10E
:102B9000009BCAF808305946384601F012FDDAF8B1
:102BA0000830DAF8042003F580739B1AA6E7D8B240
:102BB000CEE7BDF80630C3F3891303334FEA1B4B4E
:102BC00002EB93030093DFE7BDF80430C3F38313F4
:102BD0004FEA1B4B1344F5E7A40544F0060099E7C0
:102BE0008C2E0020012907B5034604D08168D1F856
:102BF0004811890707D500221146184603B05DF831
:102C000004EB01F0BDBF53680193054B00931368BB
:102C1000044A022101F088FF03B05DF804FB00BF05
:102C2000477500003D75000030B599B10A4B0B4A5D
:102C30000B49D21AD20800239A4201D1052006E09E
:102C400031F823500468A54202D10360002030BD52
:102C50000133F1E70846FAE7546C0000546D0000B8
:102C6000140000202DE9F84F1E4B1F4801221A7056
:102C700002F0BBFD814690BB1C48DFF880801C4CF5
:102C8000DFF87CA002F051FFA4EB0804E4084D46F5
:102C9000A54208D10023174A19469C421AD022F8AF
:102CA00023100133F9E700273E4608EBC50BB54278
:102CB00009D058F83610DBF80000142203F0A6FE05
:102CC0000028C8BF01370136B442F0D12AF8257078
:102CD0000135DDE70848A200002103F0E4FE484684
:102CE000BDE8F88F8C2E0020706D0000DC790000AC
:102CF000546D00001600002094000020546C000069
:102D00001400002007B5019001A8FFF78DFF30B92E
:102D1000019A044B53F8320003B05DF804FB002025
:102D2000FAE700BF546C0000002310B5CB604B6085
:102D3000034B8B600C460121FFF7E4FF206010BDC0
:102D4000E8790000074B032903EBC00006D00429F3
:102D500006D0022918BF0021084670470179FBE719
:102D60004179F9E7546C000030B5124C00EB40009B
:102D700054F8215002FA00F3072202FA00F06B40E7
:102D80000D4A03406B40C3F3821044F8213002EB3C
:102D90008101C3F3C202824238BF0246C3F342201C
:102DA000824203F0070338BF0246934238BF1346FE
:102DB0004B8030BD940000201400002013B5044661
:102DC000019101A8114693B1FFF72EFF10B1002029
:102DD00002B010BD01990B4A04EB440052F82120C7
:102DE00007238340134023FA00F0C0B2F0E7FFF757
:102DF0001BFF0028EBD1019A034B03EBC203987928
:102E0000E6E700BF94000020546C0000294B2A4ADA
:102E10002DE9F04F9B1A4FEAD30ACB685B7985B056
:102E200005460E461BB9254A022101F07DFE244BC2
:102E3000244ADFF8A4800821284601F075FE224AC2
:102E40000821284601F070FE0024544502D105B047
:102E5000BDE8F08FF36893F8049001231A462146E9
:102E60004846FFF7ABFF00230746012221464846AC
:102E7000FFF7A4FF0121042881468346204628BF8E
:102E80004FF00409FFF73EFF5FFA89F90F4A58F83F
:102E90002910034658F827000D4F0090CB4598BFE6
:102EA0001746CDE901170B4A0821284601F03CFEE0
:102EB0000134CAE7546D0000546C00005E750000D8
:102EC000717500007D7500009B7500003582000063
:102ED0005C750000D8750000F879000013460A46BA
:102EE000C168FFF793BF00002DE9F04F2DED028B75
:102EF000054683B09B461646002A5DD0DBF800707D
:102F0000CB68554993F804A0384603F021FE0446E7
:102F1000F0B9012E09D1514A0221284603B0BDEC77
:102F2000028BBDE8F04F01F0FFBDDBF804304C4FE1
:102F300057F8041B00930A22184603F067FD002887
:102F400000F083800134052C009BF1D1454A15E047
:102F50004549384603F0FCFD044668B9012E36D0D9
:102F60004FF00108414B424AA3EB02094FEAD90353
:102F70000093DFF808914FE03E4A3B460221284685
:102F800003B0BDEC028BBDE8F04F01F0CDBD0023D6
:102F90001A4631465046FFF711FFA04211D20021D8
:102FA0003046FFF7AFFE424603460221284601F0B5
:102FB000BBFD0136BE42EAD103B0BDEC028BBDE8D9
:102FC000F08F224631465046FFF7CEFEF1E7274FFD
:102FD000274BDFF8A480FF1AFF080026EAE700214C
:102FE0003846FFF78FFE18EE101A202203F00EFD70
:102FF000034608B1013716E00246019039465046B3
:10300000FFF7DCFEA042019B18D32246394650460A
:10301000FFF7AAFE08F10108B045CDD25BF82830D1
:1030200008EE103A0027009BBB42D8D15BF828304D
:103030004A460221284601F077FDEBE7194638465B
:10304000FFF760FE0C4A0346F3E7022EE4B2BED05F
:103050004FF0020886E700BFEE750000F57500002E
:10306000F8790000607600000C760000546D0000D6
:10307000546C000014760000297600004C760000A5
:1030800013460A46C168FFF72FBF0000034BD3E980
:103090000130C31A58425841704700BF8C2E00209F
:1030A0002DE9F04385B0FFF7F1FF0546002840F019
:1030B0000A81864CC4F81804BFF34F8FA3680093AD
:1030C000DBB2033304EB83006946FFF7DFFC009BB0
:1030D00018B1D4F81824002A63D0DAB2991C01334D
:1030E00004EB8202DBB204EB8303D268DB68029359
:1030F00002F00303022B019200915DD1BDF806306E
:1031000073489DF80450C3F389184746502F28BFD1
:10311000502707F1080167F38F13C1F30901ADF8D8
:10312000063002F07AFBC5F3C2050646002800F01F
:10313000B18002F0A1FB0023082201A9304602F071
:10314000ADFB0099CB43DBB20133C9B20331B7EB1E
:10315000830F4FEA830204EB81012AD95FFA82F9D7
:103160000823A7EB0907304602F098FBFFB209F1EC
:103170000803584903F0FC033A46304602F08EFB40
:10318000009B08F1030803EB98030093D4F818346C
:10319000002B49D1D4F81074DFF84C914FF0070898
:1031A00067E062689A428BD8A260284605B0BDE805
:1031B000F08308233A46E0E7012B6BD1BDF80450B9
:1031C0004348C5F38311062928BF062161F38915F9
:1031D000023101F00F018900ADF8045002F01DFB2F
:1031E000C5F3C2050646002854D002F045FB002373
:1031F000082201A9304602F051FB0027BDF8042047
:10320000C2F38312BB00974203F10803BED20099B8
:103210004A1CC9B20331009204EB810104223046FA
:1032200002F03CFB0137E9E7304602F029FBFFF7EB
:103230002DFF80F00100C5B2B7E7FB685A79B2B143
:103240001B79BDF8081003EB430259F8211008FA66
:1032500002F3052D03EA010323FA02F308BF032555
:10326000AB4204D33B6831461B6838469847FB683D
:103270001F68002FE1D1304602F002FB384600F013
:10328000F9FBD4F818340BB9009BA360002000F0C0
:10329000F3FBCCE7D4F8104474B90F4B5B88012BD7
:1032A000C5D90E4B0E480F49C01AC008000440F0A3
:1032B000020000F061F8BAE7236820469B6898474F
:1032C000E3681C68E8E700256FE700BF8C2E00204C
:1032D000706D0000982E002040000020546C00000B
:1032E000AC6C00007D760000940000202DE9F347CF
:1032F00004460E46924601A9012218469946FFF758
:10330000E3FB1B4F10B3019D4FF00008AA1CC845FA
:1033100008EB020123D11748002101F023F980F3C3
:103320001000000440EA1440E4006B1C04F0380470
:10333000DBB2EDB244F0010407EB8303033544EA4A
:10334000881444EA8624D86047F825403B781BB1AE
:10335000FFF7A6FE0028FBD102B0BDE8F087C9B296
:1033600007EB81015AF82830CB6008F10108CEE75D
:103370008C2E0020A832002000231A46FFF7B6BF8B
:1033800007B50123019201AAFFF7B0FF03B05DF872
:1033900004FB1FB5CDE90123069B039301AA032378
:1033A000FFF7A4FF05B05DF804FB00002DE9F8432A
:1033B00088461B49D1F81034054600241A468AB9BC
:1033C000EA681471A3B9C1F810541360154B164E76
:1033D000F61AF608002703F10709B7420DD1204677
:1033E000BDE8F883D2681079A04212D01268E6E7EF
:1033F000DB68196811601D60E8E719F83720EB6891
:1034000042453946187928BF4246FFF7ADFC0137DF
:10341000E3E701340A2CD1D14FF0FF34DFE700BFDE
:103420008C2E0020546C0000546D000038B5084B01
:103430000125D3F810441D7004B938BDE3685D71EF
:10344000236820465B689847E3681C68F4E700BF80
:103450008C2E002010B588B00023CDE90233CDE9D1
:10346000003304931F4B204A0593204B06929B1A6E
:103470009B08079302AA6B4643F2274141F26E0074
:1034800000F0EEFFB0B905A902A800F0E1FF184B6B
:103490005B88022B04460AD91648174B1749C01AF5
:1034A000C0080004224640F00300FFF769FF2046F1
:1034B00008B010BD48F20963984210D105A902A8CE
:1034C00000F0C2FF0A4B5B88022B0446EFD9094883
:1034D000094B0B49C01AC00800042246E3E7032445
:1034E000E5E700BF6E10273494000020140100208F
:1034F00040000020AC6C0000546C00008E76000090
:10350000BF76000010B58368D3F848319B070446A6
:1035100005D50022BDE81040114601F031BBFFF790
:1035200099FF30B9044A08212046BDE8104001F057
:10353000FBBA024A0221F7E7F076000008770000A4
:1035400000B589B00023CDE90533CDE901330793F8
:1035500005AA01AB43F2274141F26E0000F080FF63
:1035600090B9CDE9030003A905A800F023FF40B9F5
:103570001048114A0499121A03F06CFA05A800F0D9
:103580003FFF09B05DF804FB48F2096398420FD190
:103590000A4B5B88012B09D909480A4B0A49C01A12
:1035A000C008000440F00200FFF7E6FE0520E8E74F
:1035B0000320E6E7940000201401002040000020D2
:1035C000AC6C0000546C00002D77000010B58368CF
:1035D000D3F848319B07044605D50022BDE81040CA
:1035E000114601F0CDBAFFF7ABFF30B9044A08210C
:1035F0002046BDE8104001F097BA024A0221F7E7E1
:10360000527700006A77000030B5C38885B0044661
:103610000D4633B1144A00921449154A284601F068
:103620008EFD217A05291DD0637A4BB1A088FFF762
:1036300089FB104B104953F82020284601F07FFDEC
:10364000227A0E4BA08853F8222003920021FFF724
:1036500059FB039A0A490346284605B0BDE83040A5
:1036600001F06DBD05B030BD887B0000707B0000AF
:10367000687B0000E07B000053830000047C0000B6
:103680008D7B000007B503460846197A052911D03D
:103690005B7A2BB1094A0A49019001F050FD01986B
:1036A0000849019001F04BFD019803B05DF804EB6F
:1036B00001F03ABD002AF8D0F2E700BF887B000095
:1036C00053830000338200002DE9F04385B01F468C
:1036D0000C9D002395F80C902B7306460C469046E3
:1036E00029463846FFF790FFB8F1060F09D8DFE802
:1036F00008F00412181F283340003146284601F014
:103700001EFD002229463846FFF7BCFF85F80C90C5
:1037100005B0BDE8F08322683146284601F00FFD70
:10372000EFE7D4E900233146284601F008FDE8E739
:10373000A36800933146D4E90023284601F0FFFC3A
:10374000DFE7E3680193A36800933146D4E90023DF
:10375000284601F0F4FCD4E723690293E36801935F
:10376000A36800933146D4E90023284601F0E7FC22
:10377000C7E76369039323690293E3680193A3682E
:1037800000933146D4E90023284601F0D8FCB8E77D
:1037900008292DE9F74F80460E4617461C463DD8AE
:1037A00000251B7B2573214610460193FFF72CFF54
:1037B000DFF88CA0DFF88CB0AE4232D918F80520C3
:1037C0005946204601F0BBFC0135082DF4D11B49B8
:1037D000DFF874A0DFF874B0204601F0B0FC4FF0C1
:1037E00000094E4524D918F809507E2D1ED82846C8
:1037F00003F0B4F8002814BF2A462E22594620466A
:1038000001F09DFC09F10109B9F1080FE9D101228C
:1038100021463846FFF736FF019B237303B0BDE80E
:10382000F08F5146204601F08AFCCDE72E22E5E7D5
:103830005146204601F083FCE4E700BFA17B000075
:103840009D7B0000977B00009F7B0000A37B000016
:103850007047000007B5054B0093054A4FF480738D
:1038600000F033F803B05DF804FB00BF75380000CA
:10387000453300202DE9F84388461446B2B10F4B7A
:103880000F4E0325002743F00109224608EB0701EC
:10389000002002F0DBFF0744241A48B933782BB12B
:1038A0004FF47A40C847013D02D13570BDE8F88336
:1038B00001233370002CE8D1F8E700BF207C000022
:1038C00044330020704702F0F1BFF0B595B00846D0
:1038D0000C4616461D4601F0CFFF1A9A0D920023A2
:1038E000082205A920460A938DF82C300C93CDE9C7
:1038F000086501F0DDFF079B0293069B03930223FB
:103900008DF811309DF8143003F00302012A1DD107
:10391000BDF81420059DC3F3C203C2F383168DF8CE
:103920001030B20008230EA9204601F0C1FFC5F3F4
:10393000952508AB0093324602AB0EA92846FFF747
:10394000C3FE204601F09CFF15B0F0BD022AF8D15D
:10395000BDF81650C3F3C203C5F389158DF81030B6
:103960000827082D2E4628BF08263B4632460EA9BA
:10397000204601F09DFFAD1B08AB02AA31460EA800
:103980003744FFF705FF002DEBD1DAE708B5FFF765
:103990009AFF04480421FFF709FD034B01225A71E5
:1039A00008BD00BFC46D0000640300201FB50021E6
:1039B000039001AA44F20100CDE9011100F004F8DE
:1039C00005B05DF804FB000010B572B6FFF72EFDE0
:1039D000FFF766FB0028FBD1164C63884BB11648F5
:1039E000164B1749C01AC008000440F00100FFF749
:1039F000C3FC144BD3F8F030DB0700D500BE63885E
:103A0000012B09D90C480D4B0F49C01AC0080004FE
:103A100040F00200FFF7B0FCBFF34F8F09490B4B9A
:103A2000CA6802F4E0621343CB60BFF34F8F00BF5C
:103A3000FDE700BF40000020AC6C0000546C0000AB
:103A4000747C000000ED00E0807C00000400FA05BA
:103A500072B6024A1368013313607047483400207D
:103A6000034A1368013B136003B962B6704700BF95
:103A700048340020FFF7ECBFFFF7F2BF70B5064DEA
:103A80000646002455F8043B0BB1304698470134F4
:103A9000042CF7D170BD00BF583400204388033395
:103AA00000EB830399420BD382884FF6FF739A424F
:103AB00008D0038833B18068431C5842584170478E
:103AC0000220704701207047033080B240F2FE337D
:103AD000984230B51FD8134B1A783AB91C895D89C2
:103AE0002C440444A4B2B4F5806F0AD91A7DAAB953
:103AF0009A8BDC8B2244024492B2B2F5806F0DD8CF
:103B000001220A801446142202FB04335A8910440D
:103B10005881002030BD48F20860FBE748F206609B
:103B2000F8E700BF8C3400200B4A0C49538814205E
:103B300000FB0311CB6833B90420496810700122DF
:103B4000074801F089BD07490523137002238B80C4
:103B5000012209680023F3E7703400208C34002030
:103B600000000020B834002007B500230549009369
:103B7000054A09680548082301F0AAFC03B05DF86E
:103B800004FB00BFB8340020C47C0000000000200B
:103B900007B5002301460093034A0448082301F0B7
:103BA00097FC03B05DF804FBBC7C00000000002023
:103BB00013B500230C4600930146084A0848042325
:103BC00001F086FC38B9074B142101FB04310123B5
:103BD0000B7402B010BD48F20D60FAE7B87C00002B
:103BE000000000208C34002037B50A480A4B426898
:103BF0009C88196853880325033305709BB2002005
:103C000000909B0001EB8401044801F061FC03B0CB
:103C100030BD00BF70340020B83400200000002008
:103C200010B50146044800F028FC1C22044600217F
:103C300002F039FF204610BD6C03002038B5144B4C
:103C400014220D4602FB00302B68446804F58051B5
:103C5000A3B15C88033403EB84048C4215D223683F
:103C6000013312D02046FFF719FF012808D002289F
:103C70000BD00028F1D12C60012038BD0834ECE7CE
:103C80006388033304EB8304E7E70020F5E700BF14
:103C90008C340020426873B504460D466AB3234B4A
:103CA000D9688A4229D31B699A4226D812F00303A5
:103CB00023D11F490089098988421ED12068916853
:103CC00088421AD11B4841688A4203D901F58051C4
:103CD0008A420DD381698A420CD901F580518A420A
:103CE00008D201222A80B3FA83F0400902B070BDE5
:103CF0001A46F7E748F20963F5E700262E80019699
:103D0000288801A9FFF79AFF30B92B8801339BB2AD
:103D1000012B2B80F3D9E9E7019B22689968914236
:103D2000EED16360024B1B892381DFE70000002096
:103D3000703400208C3400202DE9F8431C461D4BC4
:103D40001B7806460F46154673B382B37CB3DFF883
:103D50006C804FF01409A388012B02D948F2096046
:103D600020E009FB03F318F803302BB9A0882146A3
:103D7000FFF764FF20B92060A3880133A380EAE73E
:103D800023681EB1998832889142EFD11FB11988FA
:103D90003A889142EAD19A68C5E90023064B1B890B
:103DA0002B810020BDE8F88348F20160FAE748F271
:103DB0000460F7E768340020703400208C34002061
:103DC00008B5074B5888191DFFF738FF18B1BDE833
:103DD0000840FFF709BFBDE80840FFF7A5BE00BFD8
:103DE000703400202DE9F0479F4FDFF8A08288B0A3
:103DF00006463B6823B99D48414600F078FB386091
:103E00003D6829784B1E052B07D8DFE813F020000A
:103E100074007400060106015D0148F20E6414226C
:103E2000002103A802F03FFE41F61D539C4208BF4B
:103E300000243B6804941A78023A042A00F2FC81B8
:103E4000DFE812F0DD01E9010B0213021A022EB1C4
:103E5000874B00225A604FF40644E0E72B79032B8E
:103E60001CD8DFE803F014022A35824A1378022BAB
:103E70001AD0137D022B4FF0010317D114214B43AD
:103E8000D1180020D0544868FFF782FE03E00123D8
:103E90002B71FFF769FE002800F0B980744B0022F7
:103EA0005A6048F20D64BAE70023E7E7704A1370DE
:103EB0000023536041F61D54B1E76F496F4800235A
:103EC00002222B718A800968012201F0C5FBE2E71A
:103ED0006B4B684C5B88684A14214B43E118002601
:103EE0002E714D6810681560958848600D8102211B
:103EF000E6549180C8E7B5F814A0AA7DDFF8749164
:103F0000AEB1022AEB8806D9142101FB0A91DA1C12
:103F1000088902440A81142202FB0A99C3F57F43EF
:103F2000B9F80A20FD331344A9F80A3093E71423A3
:103F300003FB0A9318895C6804EB8004062A69D89D
:103F4000DFE802F0274E36441D5A040041F61D54A6
:103F5000AA7DEB88022A06D9142101FB0A91DA1CFA
:103F6000088902440A81142202FB0A99C3F57F439F
:103F7000B9F80A20FD331344A9F80A304FE7414845
:103F8000414900234360AB690360FFF783FE0028CB
:103F90005BD00223AB75002300930423EA1821466B
:103FA000364801F095FA002831D048F20D64CFE789
:103FB0002B69002B14BF03230123AB75002300934F
:103FC00005F10C02042304F10801E9E70123AB75B4
:103FD0000022EB8800922A699B0004F10C01DFE7C4
:103FE00003290CBF05230623AB750023009304238C
:103FF00005F10802E118D3E70623AB75224B1988B7
:10400000204B5868FFF7D4FD04460028A0D108B023
:10401000BDE8F08748F20E649AE7002E7FF41BAFEC
:104020002B79012B34D0022B3FF444AF002B7FF4CB
:10403000F4AE02232B710DF10A01EB68039303A880
:10404000CDE90466FFF726FE10B948F20964E6E6FA
:104050000498BDF80A108388EB8003882B81FFF752
:10406000A7FD044629E000BF883400206C0300202F
:10407000683400208C340020B83400200000002078
:10408000703400204C340020C034002080340020E4
:10409000DFF8009203AA4B463146A81DFFF74CFEFD
:1040A000044670B9B9F804100498FFF781FD04467E
:1040B00048F209639C423FF4FDAE002C7FF4AFAEA2
:1040C000A5E7C9E90066F3E7002E7FF4C4AE6C4BA8
:1040D0001A7BBAB11E731A78013A062A3FF69DAED2
:1040E00001A151F822F000BF93410000B941000046
:1040F000D7410000DD4100001B3E0000E34100000D
:10410000F54100001A78072AE5D801A151F822F0FC
:1041100031410000D7400000D74000005741000067
:104120006B4100008F4100008F41000053410000AF
:104130001A89544901321A8100225A801A730A7866
:10414000B2FA82F252099A720A7DB2FA82F25209E6
:10415000DA72012207E04C4958688A8840880332A5
:1041600002448A8002221A70B5E75C88454A4649B3
:10417000142505FB04220868546850608888108163
:1041800002200C608880002111740622EBE70722D0
:10419000E9E79A7A32B9DA7A8AB900221A705A8033
:1041A0005A6087E6374900229A72CA68002AF2D11B
:1041B000097C0029EFD05A80FFF702FE51E7002268
:1041C000DA72304A116A0029E7D192F82420002AD5
:1041D000E3D00122EFE7FFF707FD42E7FFF7A4FC7A
:1041E0003FE75A88274B142101FB02335868FFF739
:1041F000CFFC36E700225A60FFF7B6FC31E7012218
:104200008DF80C201A89ADF818209A88DB68ADF873
:104210001A20059310E002228DF80C201A89ADF8BF
:1042200018209A88ADF81A20DA689B7D05929A1FAB
:10423000534253418DF81C3003A8FFF71FFC0026A2
:10424000414612483E6000F07DF91148012100F01E
:10425000C4F900287FF4CDADD9E603228DF80C20F7
:10426000DA88ADF818201A89D0E704228DF80C20DE
:10427000DB88ADF81830DFE705238DF80C30DBE77D
:10428000703400208C340020B83400206C030020EF
:10429000B4340020C43400204068FFF7A3BD000000
:1042A00008B50548012100F080F918B9BDE80840BB
:1042B000FFF798BD08BD00BFB43400202DE9F341DD
:1042C0009846374B1B7806460D46002B5CD00029DC
:1042D0005DD009884FF6FF7399425BD06B88002B45
:1042E00058D06B689B0758D14AB92F890DF102014C
:1042F0003846FFF7E9FB30B102B0BDE8F081138822
:104300005788ADF8023001A8FFF78AFC044660B96F
:10431000BDF80220234B142101FB023358890338D6
:10432000C01B588148F20760E6E780F80080002350
:104330008375BDF8023083826B68036101211A48DE
:1043400000F03FF92B882381B8F1030F6B88A3801D
:1043500004BF0423A3754FF0000508BF3368E06075
:1043600008BFA3611148E780658101A900F0AFF89B
:1043700036B1E36833600E4B75601B89B5723381CB
:10438000FFF78EFF0020B7E748F20160B4E748F27C
:104390000460B1E748F20360AEE748F20260ABE7C1
:1043A000683400208C340020843400206C0300200A
:1043B0007034002073B50D460446C8B1C1B10DF18B
:1043C0000601FFF767FCB0B1BDF806300B48666820
:1043D000142202FB030001210C3000F0F2F86368A4
:1043E0002E600C336B600123A372002002B070BDFD
:1043F00048F20460FAE748F20960F7E78C340020DD
:1044000013B50446A8B10DF10601FFF743FC98B1BE
:10441000BDF806200B4B142101FB0233DA6872B1A0
:10442000A27A62B1DA680020013ADA60A07202B0C2
:1044300010BD48F20460FAE748F20960F7E748F275
:104440000560F4E78C34002002230022FFF736BF1A
:1044500018B103230022FFF731BF48F20460704710
:1044600007B5ADF80600ADF804100DF1060001A97E
:10447000FFF762FC03B05DF804FB37B550E8013F7D
:104480009DB2C48925448489A54228BF2D1B048977
:10449000A54202BFBFF32F8F002207E0C5EA030544
:1044A00040E80154002CE9D14FF001028DF80320BF
:1044B0000193019A0A609DF8031001F0FF0321B1F6
:1044C000006810FA82F003B030BD1846FBE70A8896
:1044D0004B889A4209D150E8012FC2EA024240E8D3
:1044E0000123002BF7D1012070470020704737B51A
:1044F00050E8023F1FFAA3F5C488A54202BFBFF3EC
:104500002F8F00220DE0C48925448489A54228BF4D
:104510002D1BC3EA054540E80254002CE8D14FF0BA
:1045200001028DF803200193019A0A609DF803109F
:1045300001F0FF0321B1006800EB124003B030BD71
:104540001846FBE70A884B889A4209D150E8022FA7
:10455000C2EA224240E80223002BF7D10120704733
:104560000020704710B5034653E8000F0A4643E8A1
:10457000002494F0000FF7D110BD10B5034653E8A6
:10458000002F42EA010043E8000494F0000FF6D146
:1045900010BD10B5034653E8000F00EA010243E8DE
:1045A000002494F0000FF6D110BD10B5034653E877
:1045B000000F00EB010243E8002494F0000FF6D155
:1045C00010BD10B5034653E8002F02EB010043E88D
:1045D000000494F0000FF6D110BD10B5034653E867
:1045E000002FA2EB010043E8000494F0000FF6D185
:1045F00010BD0121FFF7C1BF0021FFF7CABF0000B6
:104600002DE9F0478368D3F84831C3F340059B0791
:1046100088B0074606D50022114608B0BDE8F0472D
:1046200000F0AEBA012906D91E4A022108B0BDE841
:10463000F04700F079BA1C4C1C4EDFF874A04FF024
:104640006408A946361B1C23B6FBF3F6AE4204F100
:104650001C0402D108B0BDE8F08754F81C0C54E9E2
:104660000623017900689A1A1B1ADBB2039308FB30
:1046700003F3B3FBF2F3CDE9019334F8043C009368
:10468000CDE9061254F8083C11FB08F13846B1FB9D
:10469000F2F1CDE904215246082100F045FA013536
:1046A000D4E700BF95810000546D00008C6D0000C0
:1046B000A881000010B590B1D0E9012301689B1AD0
:1046C000DBB20A60013BDBB2FF2B026802D10020A3
:1046D000107110BD11684C1C14600B70F2E70E20B5
:1046E000F7E738B504460020FFF7C4F9226863688D
:1046F0001168994213D9481E106011F8013CE56811
:10470000218B01FB0355A36811791B1ADBB2994277
:1047100000D213710020FFF7AFF9284638BD0025FD
:10472000F8E738B5054600200C46FFF7A3F92A68DC
:104730001368591C1160E968641A298BB4FBF1F401
:104740001C70BDE838400020FFF796B92DE9F8430A
:10475000089E1D460C46F1B9194E1A49891BB2EB49
:10476000D10F4FEAD10905D2174F043607EB820764
:10477000A14502D100232B6009E056F83480386847
:10478000D8F8001002F0E4F918B9C5F80080BDE8C7
:10479000F8830134ECE70028ECD00178436839B1A4
:1047A0003146104698473368002BE3D02E60EEE781
:1047B000110103EB02125B58002BDBD02A60E6E705
:1047C0008C6D0000C46D00001401002008B102F0DF
:1047D000E6B9704707B58368DA7E8A421ED01B228D
:1047E0008DF800205B228DF8012031228DF8022007
:1047F0003B228DF8032033228DF8042001F12F0293
:104800008DF805206D22D9768DF8062000228DF8CE
:104810000720044900696A4600F091FC03B05DF886
:1048200004FB00BF538300000A4609B1FFF7D2BF63
:104830008168CA760069024A024900F080BC00BF64
:10484000D58600005383000007B583681A7F8A422B
:1048500018D01B228DF800205B228DF80120342215
:104860008DF8022001F12F028DF803206D221977B7
:104870008DF8042000228DF80520044900696A465D
:1048800000F05DFC03B05DF804FB00BF5383000043
:104890002DE9F34105460F461446002614B902B02F
:1048A000BDE8F081686803682246D3F80C80B91926
:1048B00001ABC047019B1E44E41A002BEED1AB684C
:1048C0001A78032AEAD0D3F848219206FBD5B3F828
:1048D00048216FF34512A3F84821DFE70A46014952
:1048E00000F02DBCB882000011B10069FFF7F6BFDF
:1048F00070470000014900F022BC00BF3482000074
:104900000A4619B10249006900F019BC704700BF9E
:10491000BE8200000A4619B10249006900F00FBCCE
:10492000704700BFC48200002DE9F04F044685B0F7
:104930000E4690460025705D02F008F820BB5FFA35
:1049400088FA3046FFF742FFA3685B7E401BA3EB6B
:10495000080B584506EB050918D94A46002712F8F6
:10496000011B039308460292019101F0EFFFDDE97C
:10497000022318B101990A2931D0BB4608EB07017F
:104980008B422BD90137EAE70135D4E74B460027A4
:10499000B84217D013F8012B0A2A05EB070A1BD1DE
:1049A000206900F0C1FB49463A462046FFF770FFF8
:1049B0002069FFF79FFF5FFA88F120460AF10105A1
:1049C000FFF792FF2069711900F0B9FB206905B06B
:1049D000BDE8F04FFFF78EBF0137D9E75F4620698A
:1049E00000F0A2FB3A4649462046FFF751FF3D44FE
:1049F000705D01F0ABFF38B92069FFF77BFF5146CE
:104A00002046FFF771FF9CE70135F1E72DE9F341FF
:104A100005468068424F002480222146A0308DF850
:104A2000034002F040F83F49286900F088FB2869FC
:104A300000F07AFB4FF47A7647F001076868036864
:104A40000122D3F810800DF1030101ABC047019B97
:104A50005BB94FF6C010B847019B002BEED1013E69
:104A6000B6B2002EEAD10D2035E09DF80330AA68D9
:104A70001B2B48D092F8A0101B29EDD1522B42D10C
:104A80001444002384F8A03092F8A1105B291FD1B0
:104A900002F1A20602211D4616F8010B4C1C3B2810
:104AA000E1B264B21AD1002C20DB01F1A00414445D
:104AB000002314F8010BD8B9FA2B28BFFA23FA2DDA
:104AC00013752B4628BFFA23937582F8A00002E0E5
:104AD00082F8A0300B2002B0BDE8F08105EB850321
:104AE00000EB4303303B80299DB2D5D10C20F2E787
:104AF00003EB830300EB43004E1C303883B23006D7
:104B0000F1B2F3D4D5E711190134E4B2092C81F8DC
:104B1000A030A1D9002382F8A0300420DBE700BF39
:104B2000F0860000E28600000CB473B506AB0446C4
:104B300053F8046B01938368D3F848516D0719D576
:104B4000DD7E8D4216D0B3F81B50FFF76DFE206955
:104B500001AA314600F072FBE9B22046FFF764FE7D
:104B6000290A02D02046FFF76FFE02B0BDE8704070
:104B700002B07047206901AA314600F05FFBF4E7FC
:104B80002DE9F04F8BB0836817466C4A00920446BB
:104B90006B4A5B680D460821FFF7C6FFA668706880
:104BA000FFF714FEB168033082B211B12046FFF75F
:104BB000BBFE644A00212046FFF7B6FF002F3DD020
:104BC000002D3BD04FF00C0AA9460AFB075A0826D5
:104BD000D9F80400FFF7FAFD8046D9F80000FFF786
:104BE000F5FD4044B04209F10C0988BF86B2CA45C0
:104BF000EED106F10408544B544A00931FFA88F88A
:104C000006F107090821204643461FFA89F9FFF7F4
:104C10008BFF4F494A462046FFF786FE2DB1DFF84D
:104C20002CB14FF0000ABA450AD1A368D3F80C8022
:104C3000B8F1000F3ED10BB0BDE8F08F0826D8E7E1
:104C4000D5E9002373B32AB30192424A00920821A6
:104C5000414A2046FFF768FF6868FFF7B7FD0390F9
:104C60002868FFF7B3FD0399B31C591A091AC9B292
:104C70002046FFF739FE394920693A2200F05FFAF1
:104C8000A96899B14A462046FFF74EFE0AF1010A8B
:104C90000C35C8E7009343465A4608212046FFF7E3
:104CA00043FFEDE7002AEBD00092F4E72069FFF71D
:104CB00021FEEBE700220592174606AE009605ABF3
:104CC0000121404602F10109FFF740FD059D3DB17C
:104CD0002868FFF77BFDB84200D987B24A46EDE766
:104CE000B9F1010FA7D01E4ADFF860A0294620467F
:104CF000FFF71AFF2A46BD1CADB205AB0096012195
:104D0000404602F10109FFF721FD059B002B92D0DF
:104D10001B68009308212B4652462046FFF704FFEC
:104D2000059B596831B17A1D92B22046FFF7FCFD10
:104D30004A46E2E72069FFF7DDFDF9E7E786000074
:104D40004D83000056830000F6860000608300005B
:104D5000688300005C8800007B830000A37B000068
:104D60008483000000221146FFF70ABF022910B514
:104D7000044608D18368D3F848319B0703D5BDE8C2
:104D80001040FFF7EFBF2069054A064900F0D7F948
:104D90002069054A0349BDE8104000F0D0B900BFC2
:104DA000DE86000053830000D9860000012906D06A
:104DB000022906D18368D3F848319B0701D5FFF754
:104DC000D1BF024A0221FFF7AFBE00BF028300003D
:104DD00038B58368D3F84821C2F3400592070C46E2
:104DE00006D500221146FFF7CBFE2C46204638BDE3
:104DF0000029FBD05B68024A0221FFF795FEF5E728
:104E000092830000012937B50546144604D103B04A
:104E1000BDE83040FFF7A6BF023918BF0121FFF7F8
:104E2000D7FF48B963680193044B0093044A236891
:104E300002212846FFF778FE03B030BD4775000019
:104E4000AD830000012907B504D103B05DF804EB80
:104E5000FFF788BF02290AD153680193084B0093DA
:104E60001368084AFFF760FE03B05DF804FB8CBFCF
:104E70000121002103B05DF804EBFFF7A9BF00BFDB
:104E800047750000AD830000013910B518BF01213E
:104E90000446FFF79DFF40B9044A0549206900F028
:104EA0004EF9A36845F218021A8310BDCF860000A0
:104EB000538300000129F7B50446154633D18568B0
:104EC000FFF7A4FD18BBA36820691F7D9E7DFA2112
:104ED000FFF704FD20691D49FA2200F030F9204651
:104EE000FFF794FD98B9A368197D6976A368C91B7B
:104EF0009B7D2B762046C9B2FFF70CFD297E891BCE
:104F0000C9B2204603B0BDE8F040FFF7F9BCA36882
:104F100045F218021A830E4A0421204603B0BDE868
:104F2000F040FFF701BE022994BF00210121FFF7E5
:104F30004FFF48B96B680193064B00932B68064AF4
:104F400002212046FFF7F0FD03B0F0BDCA82000049
:104F5000B683000047750000AD8300002DE9F041E5
:104F6000013986B018BF01210546FFF731FF40BB6C
:104F7000AB68DFF85480D3F840610446EEB1082CEA
:104F80001BD030460023092203A900F091FC9DF8B4
:104F90001420A968304609230132A03100F088FCB2
:104FA000AB68049EA0330093671C23464246002151
:104FB0002846FFF7B9FD3C46E0E7AB68002283F8DE
:104FC000A02006B0BDE8F081F0830000013910B5E3
:104FD00018BF01210446FFF7FBFE30B9A368B3F800
:104FE000482160F38202A3F8482110BD013910B5B1
:104FF00018BF01210446FFF7EBFE30B9A268B2F8F2
:10500000483143F00403A2F8483110BD013910B50E
:1050100018BF01210446FFF7DBFE30B9A368B3F8DF
:10502000482160F3C302A3F8482110BD013910B52F
:1050300018BF01210446FFF7CBFE30B9A268B2F8D1
:10504000483143F00803A2F8483110BD022973B576
:105050000D4694BF0021012104461646FFF7B8FE15
:10506000014658B9022D0BD1736801930C4B009384
:105070000C4A336829462046FFF756FD02B070BD42
:10508000A368094AD3F8483113F0080F074B18BF3B
:105090001346074A204602B0BDE87040FFF744BD02
:1050A00047750000AD830000A6700000FA83000081
:1050B000FE830000013910B518BF01210446FFF737
:1050C00087FE48B9A368C3F83801E3685B68BDE8A8
:1050D0001040186800F025BD10BD00007FB50139F3
:1050E00018BF01210446FFF773FE0546B8B9E3680F
:1050F0005B681E68304600F011FDB268A168C3B25B
:10510000CDE9013264204343B3FBF2F3DBB20093F9
:10511000D1F83831034A29462046FFF705FD04B08F
:1051200070BD00BF0F840000826810B504462AB12C
:1051300043690168006998470023A36010BD0EB45D
:1051400003B5039921B104AB01AA019300F076F8ED
:1051500002B05DF804EB03B070470A2938B5044685
:105160000D4602D10D21FFF7F8FFA3682268591CF4
:10517000A160D554D4E901329A4204D32046BDE857
:105180003840FFF7D1BF38BD2DE9F84F9846DDE92B
:105190000A43154682460F460A464FF00109AA42C5
:1051A0000FD2C14538BFC14613F0010B01D16CB914
:1051B00000240126B8F1010F1BD908F1FF386E4316
:1051C000F8E709F10109B2FBF5F2E8E79B070ED514
:1051D000B8F1000F0CBF30262026A145E9D2013CD2
:1051E00031465046FFF7B9FF002CF6D1E0E7202604
:1051F000F3E7B7FBF6F39D42E1D9DFF83C80B7FB5C
:10520000F6F3504618F8031006FB1377FFF7A5FFD7
:105210003346AB42B6FBF5F6F1D2BBF1000F02D03C
:105220000CB1A14501D3BDE8F88F20215046013CC7
:10523000FFF793FFF4E700BF5F8800002DE9F74F09
:10524000054617468846002900F03E8118F8011BE4
:1052500049B92B7B002B00F03781284603B0BDE80D
:10526000F04FFFF761BF252940F0B780002698F87E
:1052700000302D2B424608F1010823D0302B24D0DA
:105280002B2B25D000242A2B02F1010123D13B68CE
:105290001A1D1B683A601C440A4613782E2B26D12F
:1052A00001324FF0000A104610F8011BA1F1300C3A
:1052B000BCF1090F1DD80A2303FB0A13A3F1300A1E
:1052C0000246F0E746F00106D1E746F00206CEE7D7
:1052D00046F00406CBE711F8013CA3F130000928A1
:1052E000DBD80A2202FB0434303C0A46CBE74FF0FD
:1052F000000A12F8011B01F0FB0068289046F8D064
:10530000782909D86F290CD8632962D022D8252999
:1053100063D0582900F0888098F80030002B95D190
:1053200097E770390829F7D801A353F821F000BF97
:10533000A354000019530000195300003954000011
:1053400019530000175400001953000019530000AE
:1053500029540000642901D06929DDD13A68D2F8C6
:105360000090111D89EAE9723960A2EBE9724FF0F1
:10537000010B092A35DCD34538BFD3462CB1B9F12E
:10538000000F01DB720700D5013CB30702D5BAF16B
:10539000000F03D0F00701D44CBB0024B9F1000F7B
:1053A0002DDAC9F100092D212846FFF7D6FE06F0B7
:1053B0000302022A04D1BAF1000F01D11CBB002460
:1053C000CDE9004653460A2249462846FFF7DCFE4F
:1053D000A2E73B681A1D19783A602846FFF7BDFE20
:1053E0009AE70A230BF1010BB2FBF3F2C1E7A345E5
:1053F000D4D220212846013CFFF7AFFECCE771074D
:10540000D5D52B21D0E7A345DAD230212846013C5F
:10541000FFF7A3FED2E73968CDE900460A1D3A60DE
:1054200053460A220968D0E739680A1D3A60CDE977
:10543000004653461022F5E73B681A1D3A6016F005
:105440000106D3F8009024D1B9F1000F03D04846EB
:1054500001F0A5FB0646B4421DD809F1FF3919F841
:10546000011F00293FF458AF2846FFF776FEF6E704
:1054700028460136FFF771FE19F806100029F7D10A
:10548000A642BFF449AF20212846013CFFF765FE44
:10549000F6E70026F0E720212846013CFFF75DFEF5
:1054A000D9E73B681A1D3A60302128461C68FFF78F
:1054B00054FE78212846FFF750FE00220823CDE94C
:1054C00000322146102280E703B0BDE8F08F00BF14
:1054D0002DE9F743DDF82880B0B9524B5B88002BEB
:1054E00000F09780504B5148514AC01AC0080E2412
:1054F000504B00940004504940F00100FDF749FF73
:10550000204603B0BDE8F0836AB9464B5B88002BA8
:105510007FD0454B4548494AC01AC0080E24454B28
:1055200000940004E7E7D0F800E0BEF1000F0DD1D1
:105530003C4B5B88002B6ED03B4B3C48404AC01A2A
:10554000C00808243B4B00940004D4E76BB9354BEA
:105550005B88002B61D0344B34483A4AC01AC008EB
:105560000924344B00940004C5E74568D5F804903D
:10557000B3FBF9F509FB15356DB12A4B5B88002BA0
:105580004BD0294B2948304AC01AC0080924294B5E
:1055900000940004AFE78D070DD0224B5B88002BF1
:1055A0003DD0214B2148294AC01AC0081024214B64
:1055B000009400049FE712F0030F0CD0194B5B8896
:1055C0006BB3194B1948224AC01AC0081024194B52
:1055D000009400048FE7C568A9420DD34D1EEC1856
:1055E0000569AC4208D8CDF82880DEF80C40A44606
:1055F00003B0BDE8F04360470A4B5B887BB10A4BC0
:105600000A48144AC01AC00810240A4B0094000427
:1056100071E70E2474E7082472E7092470E7102468
:105620006EE700BF80000020546C00002C6D00006D
:105630006F880000188A000074880000F18800005C
:105640009D880000B0880000F788000021890000D4
:10565000398900005C890000F7B5A0B9374B5B8839
:10566000002B63D0364B3748374AC01AC0080E2487
:10567000364B00940004364940F00100FDF789FEE6
:10568000204603B0F0BDD0F800C0BCF1000F0DD132
:105690002A4B5B88002B4BD0294B2A482D4AC01A35
:1056A000C0080824294B00940004E4E76AB9234B9E
:1056B0005B88002B3ED0224B2248274AC01AC008E4
:1056C0000924224B00940004D5E74568D5F800E092
:1056D0000EF1FF350D420CD0184B5B8863B3184BAD
:1056E00018481E4AC01AC0081024184B0094000421
:1056F000C1E7C568A9420CD34D1E0EFB02540569D3
:10570000AC4206D8DCF81040A44603B0BDE8F04037
:1057100060470A4B5B887BB1094B0A48104AC01AA4
:10572000C0081024094B00940004A4E70E24A7E746
:105730000824A5E70924A3E71024A1E7800000209E
:10574000546C00002C6D00006F880000058A00007A
:10575000748800009D880000B088000083890000E4
:10576000A98900002DE9F84FB0F806A04579D2F8D4
:1057700000B09DF828900AFB05F5043D88460BEB28
:105780000301A94203F1040488BFA5EB030BB4FB9A
:10579000FAF607460AFB1644C2F800B04EB9AAEB67
:1057A00004055D4528BF5D46BBF1000F04D1BDE88F
:1057B000F88F3F68013EF1E7043408EB06003C44F3
:1057C0002A46B9F1000F0DD02146ABEB050B01F0D5
:1057D00041F9DA452E443F6855464FF0000428BF92
:1057E0005D46E1E701462046EFE7FEF763BFF8B507
:1057F00046790146721E0546002393422D6803D365
:105800000024A64202D8F8BD0133F6E70F68284607
:10581000FEF787FF01343946F3E72DE9F843068B9D
:10582000CD1C0746FEF75DFF043E35440446B5FB3C
:10583000F6F5F0B14FF48073EDB28380C680013D80
:10584000076081464FF00008A84512D23846FEF79F
:1058500048FF064648B163790133637108F10108D6
:10586000C9F8000007608146EEE72046FFF7BFFF5A
:1058700034462046BDE8F88301210430FEF7A1BE7E
:1058800010B5012104460430FEF7A7FEC0B220B9CE
:105890002046BDE81040FFF7AABF10BD1FB5039218
:1058A0000022009203AAFFF75DFF05B05DF804FB3C
:1058B0001FB503920122009203AAFFF753FF05B020
:1058C0005DF804FB026813685268934291BFD01AD6
:1058D00080680130801888BFC01A704703688168EB
:1058E0001A685B688B4234BF01330023D31A5842D5
:1058F0005841704770B5044600200D46FEF7BAF8CF
:105900002046FFF7EBFF10B1237C002B3BD123682F
:10591000A1685E685A688A4234BF013200225A6028
:1059200028B11A6891428CBF013200221A60E268E5
:105930006368511E072920D8DFE801F004101F1406
:105940001F1F1F182A789A552046FFF7BBFF2368B0
:105950009A68824200D29860002415E02A8823F8D1
:105960001620F1E72A6843F82620EDE7D5E9000183
:1059700003EBC603C3E90001E6E7294602FB063054
:1059800001F068F8E0E704240020FEF775F82046EF
:1059900070BD10B504460020FEF76CF823680020A7
:1059A000186058609860BDE81040FEF765B810B503
:1059B00004460020FEF75EF82046FFF783FF04460A
:1059C0000020FEF759F8204610BD00002DE9F04FE9
:1059D0008368D3F84831C3F340059B078BB0064674
:1059E00006D5002211460BB0BDE8F04FFFF7C8B84E
:1059F000012906D9204A02210BB0BDE8F04FFFF77C
:105A000093B81E4C1E4BDFF88090DFF880A01B1B64
:105A10001C22B3FBF2F8A84502D10BB0BDE8F08F11
:105A2000E36809932368A768D3F808B02046FFF716
:105A3000BEFF94F810E0134A642303FB00F1BEF1AB
:105A4000000F18BF4A4603FB0BF3B3FBF7F3CDE996
:105A5000043BB1FBF7F1099B0191CDE90672CDE959
:105A6000020700935246636908213046FFF75CF84D
:105A700001351C34CFE700BF95810000006C0000A9
:105A8000546C00002B8A0000348A0000408A000019
:105A9000036818685B68C31A58425841704770B56C
:105AA000054600200C461646FDF7E4FF2846FFF7A2
:105AB000EFFF002830D12B6819682EB91A68A86842
:105AC000824238BF561C1E60EA686B68501E072869
:105AD0001CD8DFE800F0040C1B101B1B1B145B5CC4
