:1000000000000420750300005D030000B1610000E2
:1000100061030000630300006503000000000000AE
:100020000000000000000000000000006703000066
:1000300069030000000000006B0300006D03000076
:100040006D0F00006F0300007112000041120000EC
:100050004D1200006F0300000D0B0000FD1A0000A0
:10006000A91E0000BD1E0000D11E0000C51A000020
:100070006F030000E91800006F0300006F03000029
:10008000C12D00009D5700007D1300006512000087
:100090000D1D0000131D0000191D00001F1D000094
:1000A000251D00002B1D0000E51E0000F91E0000AC
:1000B0003D130000B10D0000000000000000000032
:1000C0006F0300004D1300005D1300005912000083
:1000D000D51A0000890C00006F030000412D0000BC
:1000E0006F030000C5180000D59E0000000000004E
:1000F000000000006D13000000000000D91C00008B
:1001000000000000000000000000000000000000EF
:1001100000000000000000000000000000000000DF
:1001200000000000000000000000000000000000CF
:1001300000000000000000000000000000000000BF
:1001400000000000000000000000000000000000AF
:10015000000000000000000000000000000000009F
:10016000000000000000000000000000000000008F
:10017000000000000000000000000000000000007F
:10018000000000000000000000000000000000006F
:10019000000000000000000000000000000000005F
:1001A000000000000000000000000000000000004F
:1001B000000000000000000000000000000000003F
:1001C000000000000000000000000000000000002F
:1001D000000000000000000000000000000000001F
:1001E000000000000000000000000000000000000F
:1001F00000000000000000000000000000000000FF
:10020000354936480A1A02D0072291438D463449AF
:1002100034480A1A06D00722914381F30988022242
:1002200082F3148830483149314A00F044F83148AB
:100230003149324A00F03FF831483249324A00F041
:100240003AF832483249334A00F035F832483349F7
:10025000334A00F030F833483349344A00F02BF881
:1002600033483449344A00F026F8344834490022EF
:1002700000F02CF833483449002200F027F83348C6
:100280003349091A082902DB002202604160314A21
:1002900090471F481F49884205D00268043003B4C4
:1002A000904703BCF7E700208646EC46002000217B
:1002B000294A9047FEE7884207D0521A05D00378B2
:1002C00001300B700131013AF9D17047884202D0F8
:1002D00002700130FAE770470000042000E00320BC
:1002E0000000042000000420B4D00000140200200C
:1002F00034050020D0030000D0030000ACA50000AE
:10030000B4D00000140200201402002084AA0000CF
:1003100084AA000084AA000084AA000084AA000025
:1003200084AA000084AA000084AA0000B4D00000BF
:10033000D4D300003405002034050020340500200B
:10034000AC640020AC640020AC640020AC640020ED
:10035000AC8400209D03000049380000FEE7FEE762
:10036000FEE7FEE7FEE7FEE7FEE7FEE7FEE7FEE765
:1003700000F002B8FFF7FCBF0F484FF007018843B9
:1003800085460E4880470E48016841F470010160BF
:10039000BFF34F8FBFF36F8FFFF732BF09480A4992
:1003A0000A4A884207D0521A05D0037801300B70F0
:1003B0000131013AF9D17047000004204D86000058
:1003C00088ED00E070A8000000000020140200206A
:1003D000074B1B5C1F2B8ABF064A4FF0A04203F05D
:1003E0001F03D2F80405D840C04300F00100704755
:1003F00084AA000000030050074B1B5C1F2B86BF24
:10040000064903F01F034FF0A041012202FA03F353
:10041000C1F80C35704700BF84AA000000030050EB
:10042000074B1B5C1F2B86BF064903F01F034FF0D1
:10043000A041012202FA03F3C1F80835704700BF5A
:1004400084AA00000003005008B50020FFF7E8FF71
:100450000120FFF7E5FF0220FFF7E2FFBDE80840BB
:100460000320FFF7DDBF08B50020FFF7C5FF01201F
:10047000FFF7C2FF0220FFF7BFFFBDE808400320DF
:10048000FFF7BABF0A4B185C1F288ABF094B4FF011
:10049000A04300F01F00D3F804250121814021EA88
:1004A00002000A40C3F80805C3F80C25704700BFD6
:1004B00084AA0000000300500B2809D00C2809D0A2
:1004C000182809D019280CBF03204FF0FF307047BF
:1004D000002070470120704702207047C20710B506
:1004E00004460CD54FF0A0430322C3F83427C3F8C9
:1004F0003827C3F83C27C3F84027FFF7A5FFA30719
:100500000AD54FF0A0430C22C3F82C27C3F830279C
:10051000C3F86027C3F8642710BD000038B5074C46
:10052000051E04F1080318BF1C4623682BB11A6886
:1005300022605B6828469847F7E738BD3C050020F5
:1005400020B9054B01225A70FFF7E8BF012802D1FC
:10055000014A9070F8E770473405002038B50C4C1C
:1005600023789BB90B486360A3602361E36000F0CC
:100570000DF9054600F016F901232370064BD3F858
:1005800000340BB10123A370284638BD8525F5E75B
:1005900034050020410500000000014038B5134C2F
:1005A000A378054603F0FF0073B115B16B68012015
:1005B0009847002005F0D8F8E3680133E360002095
:1005C000BDE8384005F0D2B805F0CEF825B1226973
:1005D00013463BB92A602561E368002BECD100F09B
:1005E000F7F8E9E79D42F7D01B68F2E734050020F1
:1005F0001FB503788DF800308388ADF80430836828
:100600008DF80630C3688DF807300369029343699B
:10061000054A0393054B684653F8213052F82110E0
:10062000984705B05DF804FB98050020A005002060
:10063000024B4FF4807043F001031847B0AA00004A
:100640001F2886BF054A00F01F004FF0A04201237B
:1006500003FA00F0C2F80805704700BF000300501D
:100660002DE9F047154690F80080394A42F82850A5
:10067000384A42F828304B7B06460C46A3B308683C
:10068000DFF8D8904FF0A04100F5E07340F20C6223
:1006900041F82320636803F5E073002741F8232025
:1006A000FFF7CEFF6068FFF7CBFF236803F5E07329
:1006B00040F20D6241F82320636803F5E0734FF0C8
:1006C000010A41F82320FFF7B3FF63681F2B8ABF9D
:1006D0004A464FF0A04203F01F03D2F8102522FA39
:1006E00003F3DB070BD507BB002D1B4A434608BFAE
:1006F0002A462146301DBDE8F04701F0F9BD2368C8
:100700001F2B86BF03F01F034A464FF0A0420AFA90
:1007100003F3C2F80C35FFF78BFF01372068FFF7B2
:100720008FFFFFF785FF092FCFD163681F2B86BF8F
:100730000A4903F01F034FF0A041012202FA03F31C
:10074000C1F80C35FFF774FF6068FFF779FFCBE75E
:10075000A005002098050020F105000000030050CE
:1007600010B5034653E8000F00EA010243E80024F5
:1007700094F0000FF6D110BD00F18040002382B04C
:10078000036003680193019B02B07047044A137928
:1007900023B9012110609180184670478520704769
:1007A000A8050020084B1A68D20704D4C02283F899
:1007B000002301221A604FF080420123C2F818354D
:1007C000024A1370704700BF00E100E0B00500204E
:1007D00008B54FF48270FFF7CFFF4FF0804302223D
:1007E000C3F8042301229A6008BD00004FF0804145
:1007F00010B5D1F8003163B14FF48070FFF7BCFF42
:100800000D4B58790122C1F8082310B95A711B68A1
:1008100098474FF08042D2F8043163B14FF48270B0
:10082000FFF7AAFF0223C2F80833034BBDE81040CC
:100830001B680120184710BDA805002000F180406A
:1008400000F5C040002382B0036003680193019B60
:1008500002B0704703681F2B83BF03F01F030360C0
:1008600001484FF0A04070470003005007B50190C9
:1008700001A8FFF7EFFF019B00EB8300D0F80037E2
:1008800023F44033C0F80037D0F8003743EA014181
:10089000C0F8001703B05DF804FB0000054B4FF0F3
:1008A000FF32072843F8202084BFC01880F8582062
:1008B000704700BFB405002038B51D4991F86A3073
:1008C000A3BB4FF6FF70FF245A09012A0CBF024652
:1008D0004FF0FF3203F01F05EA40D20748BFCA18A5
:1008E00003F1010348BF82F83040302BECD10024E3
:1008F000E0B20134FFF7D2FF0C2CF9D10D4B0022EE
:100900004A669A800C4BC02083F80603402018608A
:100910004FF4BE70FFF792FF084B4FF00040C3F852
:100920000403012381F86A30104638BD0820FCE733
:10093000B40500201806002000E100E0006000403F
:10094000034B93F86A00003818BF0120704700BFBE
:10095000B4050020F7B53D4F3B18044693F93030FD
:10096000002B71DA8B78C3F34003002B0BBF0825F3
:1009700000250C200820854202D1042003B0F0BDE0
:1009800057F82560013647D138196EB247F825204F
:1009900080F8306013B97B1983F858408B785A0778
:1009A0001AD4D8073AD501A80194FFF753FF019B49
:1009B00000EB8300D0F8003723F00203C0F80037C3
:1009C0002348E20804F0070C012303FA0CF310F8A3
:1009D00002C043EA0C03835488780B7810F00200BD
:1009E00028D0AD0005F1804505F5C0452402D5F8B5
:1009F000102522F44F3222F44072C5F810251B0452
:100A0000D5F8102504F47C5403F440331C431443FC
:100A1000C5F810450020B1E70135ACE701A84A78D8
:100A20000194FFF717FF019B03F5E073920040F874
:100A30002320C5E7083E47FA86F797F8604044EA66
:100A4000831387F8603099E7082097E7B405002002
:100A50001806002073B5244D2E18044696F9302050
:100A6000072A1DDD083A45FA82F595F860309B09A2
:100A7000032B10D1019001A8FFF7ECFE019BD0F8E9
:100A80001015D94001F001010231204602B0BDE845
:100A90007040FFF7EBBE012B0CBF02210321F4E7EE
:100AA000D3B2072B1DD8930003F1804303F5C04355
:100AB000D3F8100540F00100C3F8100502F1400022
:100AC00040B2800080B2FFF7B9FE51B196F93030E4
:100AD00055F823302BB1012303FA02F2034BC3F87C
:100AE000042302B070BD00BFB405002000600040C8
:100AF00007B5019001A8FFF7ADFE019BD0F81005E6
:100B0000D84000F0010003B05DF804FB2DE9FF4779
:100B10000024CDE90244584D4FF48072012102F1C6
:100B2000804303F5C04390B21B68012B06D1D5F872
:100B300004330B4202D0FFF781FE0C430432B2F5BE
:100B4000907F4FEA4101EAD14B4BD3F87C31012B26
:100B500011D14FF4BE70FFF771FE4FF0A04344F087
:100B60000044D3F820250292C3F82025D3F820288A
:100B70000392C3F82028E3B2D3B1404F00250126E9
:100B8000344210D0AB0003F1804303F5C043D3F8E7
:100B90001005D3F8101557F8253023B1C1F30141E2
:100BA000C0F3052098470135082D4FEA4606E7D1E6
:100BB000002C59DA314D324C324E4FF000080127EB
:100BC00016F9013B5A1C3CD0C3F3C20110316944F1
:100BD0005FFA83F911F8081C03F03F0203F00703E2
:100BE00007FA03F319422CD001A80192FFF732FE55
:100BF000019B03F5E07350F82330C3F3014ABAF1C7
:100C0000020F0CBF032102211046FFF72FFE01A89F
:100C10000192FFF71FFE019B07FA03F3C0F820358E
:100C2000AB1893F9303055F8233053B14FEA99118E
:100C3000032904D0BAF1020F19D1012901D11046BC
:100C4000984708F10108B8F1040FB9D14FF0A0435B
:100C5000D3F820250292C3F82025D4F82035039339
:100C6000C4F820351343A7D104B0BDE8F087BAF12A
:100C7000030FE6D10229E1E700600040B40500203F
:100C80000003005014060020F0B53F4B3F4CD3F852
:100C9000142185B08AB10022C3F81421D3F814318D
:100CA0000093009B637943F0080303F01202122AB9
:100CB000637104BF43F020036371334BD3F8042105
:100CC0008AB10022C3F80421D3F804310193019BB7
:100CD000637943F0040303F01102112A637104BF26
:100CE00043F020036371284BD3F80821BAB10025E3
:100CF000C3F80851D3F808210292029A244804222A
:100D0000C3F808232946C3F8005523689847236889
:100D10002048294698470123237105B0F0BD637927
:100D200003F00F020F2A08D0D80701D4190704D402
:100D300062799207F1D45B07EFD56279276802F0F8
:100D4000F30312F020020BD023F0300343F0100322
:100D50006371012100203B4605B0BDE8F040184713
:100D60000B4D95E8030002AE86E8030015E9030089
:100D700043F0100385E80300C4E9022263710121F6
:100D80003046B847C9E700BF0050024020060020A7
:100D9000300600202806002000F1804000F5E830F1
:100DA000002382B0036003680193019B02B0704787
:100DB0001FB53C493C4CD1F80021002A47D04FF4E4
:100DC0008070FFF7E9FFA37CDA4302F0010204EB35
:100DD0008201496811B9617C02292DD1607C022809
:100DE00018BF04EB83034FF000010BBF01235868C9
:100DF000637459604FF001038DF80C10E1740EBF5D
:100E000002910290A2748DF80430236801A89847DB
:100E1000637C022B01D101236374237D53B1012331
:100E20008DF80430002302938DF80C30237501A84F
:100E30002368984704B010BDE37C002BE8D18DF8FF
:100E40000430029301238DF80C30E374DDE7D1F810
:100E50000431002BE1D04FF48270FFF79DFFC1F801
:100E60000025A37C627404EB83038DF80C20596881
:100E70008DF8042021B15A600291236801A8984797
:100E8000A37CDB4303F0010304EB83035A682AB11C
:100E9000029200225A6001A8236898470023A37495
:100EA000BBE700BF00D001403806002000F18043BE
:100EB00082B01A68002A14BF0120002004D000224A
:100EC0001A601B680193019B02B070474FF080438A
:100ED00010B5D3F80443620707D54FF48470FFF7C9
:100EE000E5FF10B11E4B1B689847A30608D54FF4C9
:100EF0008A70FFF7DBFF18B11A4B00201B68984778
:100F0000600608D54FF48C70FFF7D0FF18B1154B71
:100F100001201B689847210608D54FF48E70FFF713
:100F2000C5FF18B1104B00201B689847E20508D593
:100F30004FF49070FFF7BAFF18B10B4B01201B68FC
:100F40009847A3050AD54FF49270FFF7AFFF28B179
:100F5000054BBDE810401B680220184710BD00BFBC
:100F600050060020540600205806002008B5FFF760
:100F7000ADFFBDE80840FFF739BC00002DE9F84F90
:100F8000134DDFF8508007464FF0000A04264FF05B
:100F900001095FFA8AFB002009FA0BF404F0E4FB74
:100FA0002C420AD0D8F8003014EA030201BF2343D0
:100FB000C8F8003087F800B01646002004F0D6FBD1
:100FC0001EB1A5430AF1010AE3D13046BDE8F88F0E
:100FD000FFFF0F005C060020012310B503FA00F4A8
:100FE000C4F313037BB1094B0020C3F8084504F098
:100FF000BBFB074B186820EA04001860002004F0CF
:10100000B5FB002010BD0720FCE700BF00F0014049
:101010005C06002010B5A1B19AB101238340C3F34F
:10102000130484B10A4C246823420ED0C00000F19E
:10103000804000F5F830C0F81015C0F814250020E5
:1010400010BD0E20FCE70720FAE70820F8E700BFF4
:101050005C060020074A01231268834013421FBF29
:1010600000F51170044B43F82010002008BF082041
:10107000704700BF5C06002000F00140012303FA26
:1010800000F0C0F313031BB1054B1B68184204D0DA
:10109000044BC3F80405002070470820704700BFC8
:1010A0005C06002000F00140012303FA00F0C0F3C9
:1010B00013031BB1054B1B68184204D0044BC3F843
:1010C0000805002070470820704700BF5C0600201C
:1010D00000F001402DE9F84FDFF84C8007464FF053
:1010E000000A3F2504264FF001095FFA8AFB002021
:1010F00009FA0BF404F038FB2C420AD098F80030BF
:1011000013EA040201BF234388F8003087F800B0D7
:101110001646002004F02AFB1EB1A5430AF1010A7D
:10112000E3D13046BDE8F88F6006002070B5104C62
:10113000012303FA00F5227815F03F0F14BF0026B3
:1011400007262A4211D0C00000F1804000F5F83097
:101150004360002004F008FB2378002023EA050305
:10116000237004F003FB304670BD0826FBE700BF88
:1011700060060020012303FA00F2910608D0064918
:101180000978114206D0054A42F8303000207047F5
:1011900007207047082070476006002000F00140DB
:1011A00038B501238B409A0605460C4615D00D4AEA
:1011B00012781A4213D0002004F0D6FAA10001F1EF
:1011C000804101F5F831D1F800080543C1F8005815
:1011D000002004F0CBFA002038BD0720FCE70820EF
:1011E000FAE700BF600600200E4B9842024610D07E
:1011F000B0F1402F0FD003F5003398420DD0A3F586
:10120000803398420BD0084908488A4218BF002012
:1012100070470748704707487047074870470748B6
:10122000704700BF003000400020004084060020CE
:10123000640600206C060020740600207C06002056
:10124000014B1B68184700BF64060020014B1B6858
:10125000184700BF6C060020014B1B68184700BFF1
:1012600074060020014B1B68184700BF7C06002055
:10127000014B1B68184700BF8406002070B50D465F
:10128000FFF7B2FF044608B9002070BD002004F04B
:101290006BFA267916B9012325602371002004F02A
:1012A00065FA002EF0D01120EFE70023435082B002
:1012B00043580193019B02B07047D0F8103170B5CC
:1012C00005460C4653B14FF48871FFF7EEFF637982
:1012D0005A0703D523680BB101209847D5F814317C
:1012E0005BB14FF48A712846FFF7DFFF63791B0774
:1012F00003D523680BB102209847D5F81C315BB1A8
:1013000028464FF48E71FFF7D0FF607910F010007F
:1013100002D1236803B19847D5F8043163B14FF483
:1013200082712846FFF7C1FF0123237123681BB197
:10133000BDE870400320184770BD00000149024815
:10134000FFF7BBBF8C06002000C0014001490248E6
:10135000FFF7B3BF94060020001002400149024885
:10136000FFF7ABBF9C060020002002400149024865
:10137000FFF7A3BFA406002000D0024010B52D4CFB
:10138000D4F8003186B0C3B1D4F80433D90714D5EA
:101390000023C4F80031D4F800310193019B4FF4CD
:1013A0008073ADF81030D4F80C358DF81230224B24
:1013B00006AA12E903001B689847D4F80431E3B188
:1013C000D4F804339A0718D50023C4F80431D4F8AC
:1013D00004310293029B4FF48273ADF81030D4F8BD
:1013E0001835ADF81230D4F84835ADF81430124B3A
:1013F00006AA12E903001B689847D4F80831BBB16C
:10140000D4F804335B0713D50023C4F80831D4F8AB
:1014100008310393039B4FF48473ADF8103006AA90
:10142000054B12E903001B6806B0BDE810401847E1
:1014300006B010BD00200140AC0600201F2886BF6A
:1014400000F01F00044B4FF0A04300F5E0700222B3
:1014500043F82020704700BF000300500F4B5A791B
:1014600010B502F0FF04B2B90D491A68C1F8004185
:101470001AB101245C71C1F8044300F1804000F509
:1014800024300123036022B9054AD2F80031002B31
:10149000FBD0002000E0112010BD00BFB0060020EE
:1014A000009002400E4B0238D3F83C26D3F8383671
:1014B000072813D8DFE800F0110F0D0B0A08060407
:1014C000100EC871100C8871100A48710A711A0E3A
:1014D000CA701A0C8A701A0A4A700B70704700BFE3
:1014E00000900240023807281FD8DFE800F02927C3
:1014F000251123211F04CB791B068A7943EA024375
:101500004A7943EA02230A7913430E4AC2F83C3669
:10151000CB781B068A7843EA02434A7843EA0223DF
:101520000A781343074AC2F8383670470023E4E7C5
:101530000023E5E70023E6E70023EBE70023ECE7E1
:101540000023EDE70090024070B5084D084E64247A
:1015500045F00105D6F8003133B94FF42070A847A3
:10156000013CF7D10D2070BD0020FCE7F0AA00007F
:10157000009002402DE9F0476D4E3379002B40F08A
:10158000D18090F80480B8F1FF0F00F0CE8090F881
:1015900005E0BEF1FF0F00F0C88090F806C0BCF176
:1015A000FF0F00F0C280C779FF2F00F0BE80B8F1B6
:1015B0001F0F8BBF08F01F0343465E4C4FF0A04443
:1015C00003F5E073BEF11F0F40F2023544F82350DB
:1015D0008BBF0EF01F037346564C4FF0A04403F52B
:1015E000E073BCF11F0F40F2023544F823508BBF6B
:1015F0000CF01F0363464F4C4FF0A04403F5E0731B
:101600001F2F40F2023544F823508BBF07F01F0311
:101610003B46484C4FF0A04403F5E07340F20235DE
:1016200044F82350047AFF2C0DD01F2C93BF23467F
:1016300004F01F033F4D4FF0A04503F5E07340F267
:10164000023945F82390437AFF2B0ED01F2B93BF0E
:101650001D4603F01F05DFF8DC904FF0A04905F5AB
:10166000E07540F2023A49F825A0FF2C324D08BF40
:101670004FF0FF34FF2B08BF4FF0FF33C5F8248530
:10168000C5F828E5C5F830C5C5F83475C5F838453E
:10169000C5F83C350368C5F84035037BC77A847AC2
:1016A0009B0143EAC7032343447B002C14BF8024DF
:1016B00000242343C5F84435D5F80036847B90F8E0
:1016C00010C0477C23F07F4323F0FF032343C47BF8
:1016D00043EA4C63002C14BF4FF08074002443EAAB
:1016E00007732343C5F8003600237371012331606B
:1016F000B260C5F8083341B1837C104A5B01DBB2AC
:1017000082F829334FF4007353600B4B0122002100
:101710003271C3F80025BDE8F047C3F800111A6024
:10172000FFF712BF0820BDE8F0870720FBE700BFE6
:10173000B0060020000300500090024000E100E0ED
:10174000F8B51546194A5279044602F0FF004ABB23
:10175000174EC6F8000111B16078FFF7C3FE0123F0
:10176000C6F80833A37862781B0343EA0223227881
:101770001343E27843EA4233227943EA82336279BF
:1017800043EAC233C6F83436FFF7DEFE0D2808D030
:101790000027C6F800713DB160782946FFF782FE48
:1017A0003846F8BD1120FCE72846FAE7B0060020CD
:1017B00000900240F8B5224BD3F8342602F44032B0
:1017C000B2F5803F04BF1F4AC3F834261E4A4FF4C7
:1017D0000071C2F88410BFF34F8FBFF36F8F0122E7
:1017E000C3F808231A615A650022C3F80025C3F81C
:1017F0000021D3F82405D3F82875D3F83065D3F841
:101800003455D3F83845D3F83C15C0B2FFF716FE6F
:10181000F8B2FFF713FEF0B2FFF710FEE8B2FFF7E1
:101820000DFEE0B2FF28C9B201D0FFF707FEFF2985
:1018300002D00846FFF702FE044B00221A71F8BDE1
:10184000009002400001030000E100E0B00600202B
:1018500000F06043B3F1005F0BD1830709D1064B61
:10186000C3F81025C3F81405C3F818150820FFF7AE
:10187000F5BD1020704700BF0090024000F06043AB
:10188000B3F1005F0BD1830709D1064BC3F80425E0
:10189000C3F80805C3F80C150420FFF7DFBD1020BE
:1018A000704700BF009002408B0707D1044BC3F87C
:1018B0001C15C3F820050C20FFF7D0BD1020704781
:1018C00000900240064AD2F800313BB1054B00209F
:1018D00058719968C2F800011A681047704700BF34
:1018E00000900240B0060020074B0022C3F8002100
:1018F00082B0D3F800210192019AD3F80805034B76
:101900001B68C0B202B0184700D00040BC060020DF
:101910000023435082B043580193019B02B07047AB
:101920002DE9F047DFF8988004460D46914600F512
:10193000A07A4FF480370026D4F80433B10001F5C3
:10194000A0713B4289B20DD0DAF8003053B1C4F82F
:1019500048732046C4F80873FFF7DAFF58F82530BB
:10196000F0B298470136B1454FEA47070AF1040A39
:10197000E2D1D4F80433DA070CD5D4F800314BB1F6
:1019800020464FF48071FFF7C3FF0D4B042053F83E
:1019900025309847D4F804339B070ED5D4F804318A
:1019A0005BB120464FF48271FFF7B2FF044B052074
:1019B00053F82530BDE8F0471847BDE8F08700BF71
:1019C000C8060020F0B51A4C43791A4D44F823207C
:1019D00003EB4303EB5C43BB90F904408B78027943
:1019E0005B01002CDBB21BDB134E371987F8003389
:1019F0000123640902F01F0203FA02F246F82420D0
:101A000003680A88C3F8082543790879C97803EB85
:101A10004303EA18507091700122EA540020F0BD8F
:101A2000064C02F00F02A354EAE70820F7E700BFD4
:101A3000C8060020C006002000E100E014ED00E030
:101A40002DE9F04105464FF4803400681C4F8C406E
:101A5000C0F84843C0F8084395F805C00CEB4C06A5
:101A60003E4422F07F4296F8018001F5A8764FEAC5
:101A70004C0E40F82620B8F1000F11D0D0F80485A4
:101A8000F4446744A8EB0206904538BF06F1FF1600
:101A9000BA7838BF06F57F46B24201DD0D200CE072
:101AA0003BB15031890089B2FFF732FF2B68C3F890
:101AB00004432B680020C3F84443BDE8F08100BF15
:101AC000C0060020024803220021FFF729BF00BF03
:101AD00000B00040024804220121FFF721BF00BFEF
:101AE0000040024000F1804000F5E040002382B059
:101AF000036003680193019B02B07047F0B5524B3D
:101B0000524CD3F8043185B0002B3DD094F82E20F0
:101B10004FF48270FFF7E6FF2AB394F82F3013BB1F
:101B2000494AD2F80031002B32D04FF48070FFF7D1
:101B3000D9FF638B94F82D00834250D921891B1A59
:101B40009BB289B26383CB1A616801EB4303C2F88D
:101B50002C36C2F830064FF48270FFF7C3FF3A4BC1
:101B600001225A6014E0636802932389ADF80C30B7
:101B7000E36800218DF8041033BB2374236801A8A7
:101B80009847002384F82F3094F82E30002BC7D1CB
:101B90002D4BD3F810315BB14FF48870FFF7A2FFE3
:101BA0000023237402238DF8043001A8236898478A
:101BB000254BD3F81431EBB14FF48A70FFF792FF45
:101BC0000023237405B0F0BD208B60836360208107
:101BD000E160002AD2D11C4B01221A60CEE7BAD1B3
:101BE000E368012184F82F1013B100216183AEE76F
:101BF0006383B0E766694FF000470125002EE1D00E
:101C0000B6FA86F227FA02F34632920026EA030673
:101C100002F1804303F5E0431B68002BEED0104631
:101C2000A2F58C72FFF75EFFD30882F00402C2F3C4
:101C300080028DF808308DF8045023688DF8092053
:101C400001A89847DAE700BF00700040D0060020E6
:101C50001F2886BF054A00F01F004FF0A042012355
:101C600003FA00F0C2F80C05704700BF00030050F3
:101C70001F2886BF054A00F01F004FF0A042012335
:101C800003FA00F0C2F80805704700BF00030050D7
:101C9000D0F8183107B5DBB10023C0F81831D0F8FF
:101CA0001831C87F0193FF28019B03D08B7F63B15C
:101CB000FFF7CEFF002308460B724B7750F8083B26
:101CC000496803B05DF804EB1847FFF7D1FFF1E76F
:101CD00003B05DF804FB000001490248FFF7D8BFDC
:101CE0006C07002000F0024030B4064A52F8204051
:101CF000054A002532F8101022F81050234630BC57
:101D0000184700BF9C070020900700200020FFF725
:101D1000EBBF0120FFF7E8BF0220FFF7E5BF03207C
:101D2000FFF7E2BF0420FFF7DFBF0520FFF7DCBFAE
:101D30002DE9F347002406460F46904600F5A075AE
:101D40004FF48039A2462B688BB1D6F8043309FAD8
:101D500004F21A420BD0C5F800A02B680193A00032
:101D6000019B00F5A07398B2D7E900319847013480
:101D7000444505F10405E6D102B0BDE8F087000056
:101D8000F7B506792F4D0C237343EF183C7A002CDE
:101D900055D1EA504B687B60477903682246A446D8
:101DA000D4B2A7423CD8CA7843F307345201002C7E
:101DB000C3F30733D2B23DDB234F07EB040C8CF89F
:101DC00000230122640903F01F0302FA03F347F81A
:101DD000243003684A78D3F8040502F0030220F0A7
:101DE00003000243C3F80425D3F808058A7820F0DD
:101DF000030002F003020243C3F80825D3F81005DC
:101E00000A7820F00F0102F00F020A43C3F81025F0
:101E10000C2303FB065501232B72002003B0F0BDF9
:101E2000940004F5A074013243F804C01C590194D5
:101E3000019CB5E7054C03F00F03E254C9E7082005
:101E4000ECE700BFB407002000E100E014ED00E083
:101E5000036801221A600279034B0C2101FB023353
:101E600002221A72704700BFB407002003680122E3
:101E7000DA60704737B54FF4803400688C407BB12E
:101E80008B0003F5A0730025C550C3580193019B37
:101E9000C0F8044301F5A87140F8212003B030BD1B
:101EA000C0F80843F6E70000024903480422FFF7A0
:101EB0003FBF00BFB4070020008000400249034834
:101EC0000422FFF735BF00BFC0070020009000408C
:101ED000024903480422FFF72BBF00BFCC070020B4
:101EE00000A00040024903480622FFF721BF00BFBF
:101EF000D807002000A00140024903480622FFF74E
:101F000017BF00BFE407002000B00140002343508A
:101F100082B043580193019B02B070478B6A4A6BB1
:101F20009A4210B54FF0010305D2496A8A5CC0F8A5
:101F30001C251A4604E091F82C201AB1C361002236
:101F4000104610BD0C6A640603D5C36181F82D30BC
:101F5000F6E74361EDE770B5D0F8046105460C463D
:101F600026B14FF48271FFF7D1FF012694F82F209C
:101F700022B34FF492712846FFF7C8FF4FF48E71D9
:101F8000FFF7C4FF4FF48471FFF7C0FF002E69D044
:101F900094F82F20002384F82D3092BBA36A616B44
:101FA00099421CBF1646052386F001061CBFC5F8E2
:101FB0000025C5F8003584F82F6023E0D5F82431DA
:101FC0004BB14FF492712846FFF7A0FF01236B61DC
:101FD00084F82F30DAE7D5F81C31ABB14FF48E71AD
:101FE0002846FFF793FF636B01336363D5F8243111
:101FF00013B14FF49271E7E72146FFF78FFF0028F6
:10200000C4D10022104670BDD5F80831002BBDD0D8
:102010004FF484712846FFF779FFD5F82431002B5F
:10202000E7D1636BA16A8B42B0D2616AD5F818051B
:10203000C854636BA16A0133481E8342636308D1AD
:10204000206A400610D40223C5F8003201232B6217
:102050009CE78B42FAD1236A5B0697D5022384F86A
:102060002D30CFE70122CDE78B42EFD1F6E700001C
:1020700037B5314B01930D464FF48271FFF746FFA0
:102080004FF49271FFF742FF4FF48E71FFF73EFF5E
:102090004FF48471FFF73AFF0023C0F800326B63FE
:1020A00085F82F300123036295F82D209A4218BF3E
:1020B000836029460446FFF731FF2B6883B140F265
:1020C0008623AB60AB68C4F80433002003B030BD96
:1020D00029462046FFF73FFF28B1019B013B0193B2
:1020E000019B002BF4DC95F82F0050B9019B002BCD
:1020F000ECDC0023C4F800350523C4F800350320C8
:10210000E4E7D4F8C434C4F8C43493B113F0010F35
:1021100014BF4FF40240032048F2012213F0020FD3
:1021200018BF104613F0040F48F2022318BF1846D8
:10213000DCE70320DAE700BFA086010037B5344BA7
:1021400001930D464FF48271FFF7E0FE4FF4927158
:10215000FFF7DCFE4FF48E71FFF7D8FE4FF4847169
:10216000FFF7D4FE00236B6385F82F30AB6A012B99
:10217000044617D12B6A5B0614D40223C4F800323C
:102180000123236295F82D20022A18BF23602B68B3
:1021900093B140F28623AB60AB68C4F804330020EF
:1021A00003B030BD0123E9E729462046FFF7D3FEFF
:1021B00028B1019B013B0193019B002BF4DC95F8B6
:1021C0002F0050B9019B002BEADC0023C4F8003536
:1021D0000523C4F800350320E2E7D4F8C434C4F87A
:1021E000C43493B113F0010F14BF4FF40240032025
:1021F00048F2012213F0020F18BF104613F0040F2B
:1022000048F2022318BF1846DCE70320DAE700BFD4
:10221000A0860100F0B587B007460C46FFF79BFE8D
:10222000002846D194F82FC0D4F820E0BCF1000F6C
:102230001FD1237B9A1E012A1BD8616AA269914291
:1022400017D1E2696262CEF3401E6269A262032B7B
:1022500084F82CE084F82DC02146384604D107B01C
:10226000BDE8F040FFF704BF07B0BDE8F040FFF75E
:1022700065BF04F10C060FCE01AD0FC533682B60AE
:10228000BCF1000F20D0D7F8C434C7F8C434990784
:1022900011D501238DF8003000231EF0040F84F8BF
:1022A000303002D0BCF1000F03D0D4E900316846D1
:1022B000984707B0F0BD5A0701D50223EAE7DB07CC
:1022C0004CBF03230423E5E78DF800C0E4E70000DA
:1022D00001490248FFF79EBFF00700200030004090
:1022E00002494FF04020FFF795BF00BF2C080020A7
:1022F0002DE9F84F07793B4E4FF03C0A0AFB07FAED
:1023000006EB0A059B4695F82E3080460C46914612
:10231000002B63D1344B006853F82710FEF7AEFF53
:1023200000285DD12168637B85F838301F298CBF78
:1023300001F01F030B4603F5E07388BF2B4AA8602A
:1023400098BF4FF0A04240F20C6C85F8300042F884
:1023500023C06268C5F804B01F2A8CBF02F01F03B7
:10236000134685F82D0085F8310003F5E07388BF2A
:102370001E4D46F80A9098BF4FF0A04545F823C07F
:10238000D8F80030C3F80815C3F80C25A268C3F8C4
:102390002425B9F1000F14D0227B43F307315201F9
:1023A0000029C3F30733D2B213DB114C651885F84B
:1023B00000230122490903F01F0302FA03F344F842
:1023C00021303C2303FB0766012386F82E30BDE84D
:1023D000F88F084903F00F03CA54F2E70820F6E724
:1023E0001120F4E7F00700201CAB000000030050B0
:1023F00000E100E014ED00E0036802790521C3F874
:102400000015044B3C2101FB0233022283F82E20ED
:10241000704700BFF00700202DE9F047314F0479E5
:10242000D0F800903C2303FB04730D4693F82D3045
:10243000012B944604D10B78012B06D1082011E022
:10244000022B02D10B78012BF8D13C26264BC9F880
:10245000083306FB047696F830302BB1B368C9F820
:1024600004331120BDE8F0878CF00403C3F380032C
:1024700086F83030C6F820C0A846B8E80F0006F14C
:102480000C0EAEE80F00D8F80030CEF800306B68C4
:10249000B362EB6873626B78C9F888352B78C4EB4C
:1024A000041A012B07EB8A0A17D09BB9CCF3401C06
:1024B0003C2303FB0473514683F82CC04846FFF7C6
:1024C000D7FD3C235C433A193B59002BCAD182F813
:1024D0003030C7E74FF0010CEAE751464846FFF7B6
:1024E0002DFEEEE7F00700208642040010B586B00E
:1024F000012402930023CDE903328DF805101A461A
:1025000001A98DF804400593FFF786FF06B010BDC2
:1025100010F0080F074B06D0D3F8C00410F4803F2A
:1025200018BF0020704700F00F0000F5947053F8BA
:1025300020007047007002404FF08053D3F8300104
:10254000A0F108035842584170470000054B10F0B5
:10255000800FA3F1900208BF134600F00F0003EBB9
:10256000001070470409002010F0800F14BF0023F2
:10257000102300F00F0018447047000008B5FFF763
:10258000DBFF18B1034B0022C3F81C2C024B0022C6
:102590001A7008BD007002406908002007B5094A9A
:1025A00000231370084AADF8053013708DF807301A
:1025B00001238DF80430054B01A81B68984703B030
:1025C0005DF804FB680800209809002094090020A9
:1025D0007047000008B50146FFF7D0FF0846FFF737
:1025E000B5FF827B032A0AD10846FFF7BDFF012110
:1025F0008140BDE808400448C943FEF7B1B803680C
:10260000002BF1D008BD00BF6C0800208720FFF729
:10261000E1BF8620FFF7DEBF8520FFF7DBBF842008
:10262000FFF7D8BF8320FFF7D5BF8220FFF7D2BFC7
:102630008120FFF7CFBF000008B5FFF79FFF084BD1
:1026400093F89E20032A06D1BDE8084005486FF0A4
:102650000101FEF785B8D3F89030002BF4D008BD07
:10266000740800206C080020012273B502FA01F5FD
:102670001E491F4E0B6810F0800F43EA0503044605
:102680000B6027D000F00F021A4B33F8123003F121
:10269000804303F51C331A684AB100221A60BFF365
:1026A0006F8FBFF34F8F802811D0FFF793FF3168F2
:1026B00029400AD106238DF804308DF806408DF8A4
:1026C00007100D4B01A81B68984702B070BDFFF7BB
:1026D000B3FFECE733681D42F7D106238DF80430D1
:1026E0008DF806008DF80720EBE700BF700800208A
:1026F0006C08002034AB00009409002008B5054B9D
:102700001A781046FFF730FFBDE808400146104632
:10271000FFF7AABF98090020FFF78EBF07B5002377
:102720008DF804300B4BD3F82025ADF80620D3F8F4
:10273000C034094A002B13680CBF4FF480714FF06E
:1027400001210B431360054B01A81B68984703B098
:102750005DF804FB0070024070080020940900201E
:1027600007B5FFF70BFF0D4B93F88E20032A11D00E
:10277000D3F8803073B90A486FF08071FDF7F0FF2D
:1027800006238DF804300823ADF80630054B01A868
:102790001B68984703B05DF804FB00BF7408002075
:1027A0006C0800209409002007B5FFF7E7FE114BE5
:1027B00093F81E21032A07D10F486FF4807103B0EC
:1027C0005DF804EBFDF7CCBFD3F8103173B90A48BC
:1027D0006FF48071FDF7C4FF06238DF80430882361
:1027E000ADF80630054B01A81B68984703B05DF8AB
:1027F00004FB00BF740800206C080020940900202E
:102800002DE9F04F5D4E337885B0002B6DD15C4CD7
:102810005C4B19682368194067D011F0012367D019
:1028200093FAA3F1002966D0B1FA81F10F2964D996
:10283000A1F110085FFA88F84046FFF787FE4FF0D5
:10284000010B4FFA88FA0BFA01F1BAF1000F814639
:102850006FEA010B54DA03688289416802A898473D
:1028600008B9C9F80000FFF767FE18B1464B82228D
:10287000C3F81C2C01232168039A3370D9F808305F
:1028800001EA0B011344BAF1000F2160C9F80830C6
:1028900008F0080002993C4B08F00F085EDA0028A7
:1028A00054D0C3F8A016C3F8A426042303EB88036E
:1028B00003F1804303F51C3301221A60BFF36F8FCD
:1028C000BFF34F8F314B324A2F4913EA2A0338BFE7
:1028D000134633F8183003F1804303F51C331A68AC
:1028E0001AB9D1F80021002AF9D005B0BDE8F08F5F
:1028F00091FAA1F196E720219AE741F080089BE741
:102900004046FFF705FEB9F80C20D9F80410D9F8B5
:1029100000500346074602A8A847029A002A9FD003
:10292000039A97429CD9022789F80E705946154898
:10293000FDF716FF06238DF80430164B8DF8068040
:102940001B688DF8077001A8984761E7142000FB09
:102950000833C3F80016C3F80426A6E728B1C3F865
:10296000A017C3F8A4272823A0E7142000FB0833EE
:10297000C3F80017C3F80427F5E700BF6908002073
:10298000700800206C0800200070024034AB00008A
:1029900046AB00009409002037B50446FFF7EEFD72
:1029A0002046FFF7D3FD837B032B0DD12046FFF795
:1029B000DBFD01218140C9430F48FDF7D1FE03B083
:1029C000BDE83040FFF71CBF0568002DF7D1204659
:1029D000FFF7CAFD01218140C9430748FDF7C0FE4A
:1029E00006238DF80430054B8DF806401B688DF8E2
:1029F000075001A89847E2E76C08002094090020DE
:102A00000720FFF7C9BF0620FFF7C6BF0520FFF765
:102A1000C3BF0420FFF7C0BF0320FFF7BDBF0220E4
:102A2000FFF7BABF0120FFF7B7BF000038B5134B5F
:102A3000D3F86C44C3F86C44BFF36F8FBFF34F8F70
:102A400001251CB9BDE83840FFF7DABE94FAA4F1BD
:102A500071B1B1FA81F30F2B19460BDDA1F1100012
:102A6000C0B205FA01F324EA0304FFF7FDFDE8E72D
:102A70002021F3E743F08000F3E700BF007002403D
:102A8000254B13B5D3F80044C3F80044BFF36F8F50
:102A9000BFF34F8FBFF36F8FBFF34F8FE1050ED59D
:102AA0001E4B01221A700023ADF805308DF8073057
:102AB00002238DF804301A4B01A81B689847A20521
:102AC0000DD5164A00231370ADF805308DF8073088
:102AD00003238DF80430124B01A81B689847630547
:102AE00018D50E4A1378ABB1002313700A4A01219E
:102AF000C2F808159165BFF36F8FBFF34F8FADF824
:102B000005308DF8073004238DF80430044B01A8FC
:102B10001B68984702B010BD007002406808002092
:102B200094090020034B0122DA64BFF36F8FBFF3D7
:102B30004F8F70470070024013B5FFF71FFD114B18
:102B40009A7B032A07D110486FF4803102B0BDE8A8
:102B50001040FDF705BE1C687CB96FF480310A484F
:102B6000FDF7FEFD06238DF80430084BADF8064056
:102B70001B6801A8984702B010BD02B0BDE8104024
:102B8000FFF7D0BF740800206C08002094090020D3
:102B900010B50446002002F0E7FD2046FFF7E4FCF4
:102BA0000D4901220B6802FA00F023EA000314F039
:102BB00008020B600AD104F00F04084B04F594746A
:102BC00043F82420BFF36F8FBFF34F8FBDE8104051
:102BD000002002F0CBBD00BF700800200070024052
:102BE000F7B50446002002F0BFFD2046FFF7AEFC1B
:102BF00005462046FFF7B8FC012214F0800F02FAC8
:102C000000F22D4818D1036832EA03010AD02046A9
:102C1000FFF7BEFF0323AB73002003B0BDE8F04015
:102C200002F0A4BD23EA020329600360234B186865
:102C300020EA02001860EDE7230715D4802C204B12
:102C40002ED004F00F0101F2DA314900C3F8001868
:102C5000D3F80418D3F80468C9B241F00201314333
:102C6000C3F80418D3F80438144E0168336861EAD5
:102C700003071742D0D0134321EA02013360002337
:102C800001602B600323AB738DF807300D4B8DF87B
:102C9000064006221B688DF8042001A89847BBE770
:102CA00040F2B471C3F80018D3F80418D3F80468DC
:102CB000C9B241F00401D2E76C080020700800207E
:102CC000007002409409002073B5184B184CD3F8DB
:102CD00080542368174EDA43174B31781B6892B241
:102CE00008461A43FFF740FC012303FA00F01042A4
:102CF00002D00846FFF774FF6FF0011105F0800560
:102D00000D483570FDF72CFD236843F00103236067
:102D10000023ADF805308DF8073005238DF8043019
:102D2000064B01A81B68984702B070BD00700240B6
:102D300070080020980900206C08002094090020E9
:102D40001C4BD3F8041300232DE9F04101241D4648
:102D500071B9194F03F4000623F400044FF0010881
:102D6000D4B9FFF74DFD1EB3BDE8F041FFF7ACBF8E
:102D700091FAA1F21148B2FA82F29600304404FAB4
:102D800002F206682EB10560BFF36F8FBFF34F8F5D
:102D9000134321EA0201DBE794FAA4F5B5FA85F5BD
:102DA00057F8253008FA05F5984724EA0504D7E7CF
:102DB000BDE8F0810070024058AB00000071024095
:102DC00013B5084CD4F800314BB1074B1B6898473A
:102DD0000023C4F80031D4F800310193019B02B004
:102DE00010BD00BF000001409C0900201F2886BFC5
:102DF00000F01F00044B4FF0A04300F5E0700322E9
:102E000043F82020704700BF00030050014B01220F
:102E10001A7070473831002002380B2800F2848085
:102E2000DFE800F0778256404B616C1F06142A35AC
:102E30003E4B5B88032B77D93D483E4B3E49C01A39
:102E4000C008000440F0040001F004BF374B5B8869
:102E5000032B69D93648374B3849C01AC0080004DB
:102E6000F0E7324B5B88032B5ED93148314B344954
:102E7000C01AC0080004E5E72C4B5B88032B53D92C
:102E80002B482C4B2F49C01AC0080004DAE7274B07
:102E90005B88032B48D92648264B2B49C01AC0080B
:102EA0000004CFE7214B5B88032B3DD92048214B01
:102EB0002649C01AC0080004C4E71C4B5B88032BDA
:102EC00032D91B481B4B2249C01AC0080004B9E77D
:102ED000164B5B88032B27D91548164B1D49C01A82
:102EE000C0080004AEE7114B5B88032B1CD91048C7
:102EF000104B1949C01AC0080004A3E70B4B5B88AC
:102F0000032B11D90A480B4B1449C01AC0080004FE
:102F100098E7064B5B88032B06D90548054B1049FB
:102F2000C01AC00800048DE7704700BF7000002081
:102F3000B8A6000000A60000C0AB0000D1AB0000A6
:102F4000E3AB0000F4AB000006AC000015AC0000E1
:102F500032AC00004EAC000064AC00007DAC000060
:102F60008DAC000008B5064B06481A6A0021012303
:102F70005209FEF765FDBDE80840034804F06CBE49
:102F80000C2E002070B1000038B1000038B5054D9E
:102F9000044645F001054FF47A40A847013CFAD1B8
:102FA00038BD00BF30B10000024B0822C3F808252D
:102FB000704700BF00030050024B0822C3F80C25E5
:102FC000704700BF000300501F288CBF094A4FF014
:102FD000A0424FF00103D2F8041588BF00F01F0093
:102FE00003FA00F020EA01030840C2F80835C2F8ED
:102FF0000C0570470003005073B50B78012B054694
:103000000C462AD0022B22D0FBB901F0B7FC0028D5
:10301000FBD1234B5B88022B0AD92248224B6268E2
:1030200022491B1ADB081B0443F0030001F016FEC3
:103030001F4861680026067005F03CFED4E90112C5
:10304000284604F05DFF1B4B1E7002B070BD0020CF
:1030500002B0BDE87040FDF715BA2E20FFF7B4FFAF
:1030600001F08CFC0028FBD1124B1B78002BECD01C
:10307000D4E90112284604F043FF0F4804F06EFC27
:1030800002460028E1D10C48694604F06EFC08B104
:1030900002F070FADDE90012284604F02EFFD4E7B2
:1030A0007000002000A60000B8A60000ABAC000035
:1030B000A409002039310020C8A5000070B5002007
:1030C0008AB005F071FD684D002405F05DFD013406
:1030D000B4F5807F05F8010BF7D1644E0FCE05AC37
:1030E0000FC456F8103962492360002205A8FEF784
:1030F00041FA08B102F03EFA5E4D6B88022B09D905
:103100005D485E4B5E49C01AC008000440F00300F1
:1031100001F0A0FD40238DF80B305A4B70699B885D
:1031200003900022114603A8ADF81030FEF708FB0B
:1031300008B102F01FFA00229923114603A88DF866
:103140000C30FEF7FDFA08B102F014FA01238DF8F5
:103150000C30002202230DF10B0103A88DF80D3075
:10316000FEF7EEFA08B102F005FA474C0021012003
:103170002170FEF799FB08B102F0FCF92378002BCF
:10318000FCD0002323706B88022B09D93A483B4BB3
:103190003E49C01AC008000440F0030001F05AFD87
:1031A000314800224FF48071FEF752FB08B102F063
:1031B000E1F92378002BFCD0002323706B88022BCD
:1031C00009D92D482D4B3249C01AC008000440F0DF
:1031D000030001F03FFD2F4800224FF48071FEF7FD
:1031E0004DFB2378002BFCD0002323706B88022B2F
:1031F00011D9224B20482849C01AC008000440F0C9
:103200000300019001F026FD6B88022B03D92349AE
:10321000019801F01FFD1F4913484FF4807205F01B
:1032200079FC6B8890B9022B09D91348134B1C49C0
:10323000C01AC008000440F0030001F00BFD194B58
:1032400001221A70FEF7B6FA0AB070BD022BF9D946
:103250000A4B09481449C01AC008000440F0030092
:1032600001F0F8FCEEE700BF383000200CB10000A0
:103270000D2E000070000020B8A6000000A600007F
:10328000B8AC000020B1000038310020CEAC000006
:10329000F3AC0000382F002011AD00001BAD000082
:1032A00026AD00003D31002036AD0000F7B5184BCB
:1032B000184C1A889B788DF80630174B174D184E0E
:1032C000184FADF80420E41AE408240444F0030481
:1032D00001A9284600F0BAFC20B1134B01221A7054
:1032E00003B0F0BD05223146384604F006FE0F4B10
:1032F0005B88022B03D90E49204601F0ABFC4FF44A
:103300007A70FFF743FE01F039FB0028FBD1DFE7BD
:1033100055AD0000B8A6000000A60000A4090020DA
:103320005904002038B100003B310020700000201B
:1033300048AD000007B50C4B0C49186800909B88FD
:103340000B48ADF804300B2204F0D7FD4FF47A702F
:10335000FFF71CFE6946074800F078FC431E584200
:10336000584103B05DF804FB58AD00004502002051
:1033700038B10000A409002038B5764C6388022BD0
:1033800009D97548754B7649C01AC008000440F049
:10339000030001F05FFC6420FFF7F8FD01F0EEFA96
:1033A0000028FBD12E20FFF721FD2320FFF71EFD73
:1033B0006C4D0920FFF71AFD0423C5F81C37642063
:1033C000FFF7E4FDD5F81035674DDA09C3F3C013F4
:1033D0002B706388022B0BD95F48604B6349C01A7E
:1033E000C008000402F0010240F0030001F036FCC6
:1033F0006420FFF7CBFD01F0C1FA0028FBD12A7849
:103400006388002A75D0022B09D95348534B584979
:10341000C01AC008000440F0030001F01BFC4FF488
:10342000FA70FFF7C9FDFFF7B1FD01F0A7FA002818
:10343000FBD16388022B09D94748484B4D49C01A34
:10344000C008000440F0030001F004FC4FF4FA60EF
:10345000FFF7AAFDFFF79AFD01F090FA0028FBD1D3
:103460004FF4FA60FFF7A8FDFFF790FD6388022B89
:1034700009D93948394B4049C01AC008000440F006
:10348000030001F0E7FB4FF4FA60FFF77FFD01F066
:1034900075FA0028FBD16388022B09D92E482F4BDF
:1034A0003649C01AC008000440F0030001F0D2FB06
:1034B0004FF4FA70FFF780FDFFF768FD4FF4FA60F4
:1034C000FFF772FDFFF762FD4FF4FA60FFF774FD3E
:1034D000FFF75CFD6388022B3AD9204B1E48284930
:1034E000C01AC0080004BDE8384040F0030001F0F5
:1034F000B1BB022B09D91848184B2049C01AC00883
:10350000000440F0030001F0A5FB4FF4FA70FFF750
:1035100053FDFFF73BFD4FF4FA60FFF745FDFFF762
:1035200035FD4FF4FA60FFF747FDFFF72FFD638885
:10353000022B09D90848094B1149C01AC0080004D8
:1035400040F0030001F086FB01F018FA0028FBD1DF
:1035500038BD00BF70000020B8A6000000A6000023
:103560005EAD0000000300503F31002072AD00004E
:1035700083AD00008FAD0000A4AD0000BCAD000025
:10358000D7AD000070B5914B914D18689A889B7922
:1035900086B08DF80E308F4BADF80C201A889B78D2
:1035A0008DF806308C4B02901868ADF8042004901A
:1035B0009A889B798DF816300920ADF81420FFF712
:1035C00003FD6B88022B09D98448854B8549C01AB5
:1035D000C008000440F0030001F03CFB824983482E
:1035E000834E052204F089FC824980480D2204F0B4
:1035F00084FC4FF4FA70FFF7C9FC7F497B480D2229
:1036000004F07BFC4FF4FA70FFF7C0FC7B4977486D
:103610000C2204F072FC4FF4FA70FFF7B7FC784903
:103620007248092204F069FC4FF47A70FFF7AEFC8F
:1036300074496E480C2204F060FC4FF47A70FFF776
:10364000A5FC714969480B2204F057FC4FF4FA704D
:10365000FFF79CFC012401A9304600F0F7FA01288D
:1036600008BF0A244FF4FA700134FFF78FFC0B2CCB
:10367000F1D166495D485E4E0C2204F03EFC4FF4E9
:10368000FA70FFF783FC624958480D2204F035FCBC
:103690004FF4FA70FFF77AFC5E495448152204F0A3
:1036A0002CFC4FF4FA70FFF771FC5B494F480C2279
:1036B00004F023FC4FF4FA70FFF768FC57494B48BD
:1036C000442204F01AFC4FF4FA70FFF75FFC5449EF
:1036D00046481A2204F011FC4FF4FA70FFF756FC2A
:1036E00050494248292204F008FC4FF4FA70FFF7D1
:1036F0004DFC4D493D48582204F0FFFB4FF4FA7051
:10370000FFF744FC49493948672204F0F6FB4FF4BF
:10371000FA70FFF73BFC464934480C2204F0EDFBFD
:103720004FF4FA70FFF732FC012401A9304600F093
:103730008DFA012808BF0A244FF4FA700134FFF70C
:1037400025FC0B2CF1D13B492848294E2C2204F0B2
:10375000D4FB4FF4FA70FFF719FC374923483022A5
:1037600004F0CBFB4FF4FA70FFF710FC33491F480D
:10377000082204F0C2FB012404A9304600F066FAD6
:10378000012808BF0A244FF4FA700134FFF7FEFB4A
:103790000B2CF1D1164802A900F058FA0128044672
:1037A00012D16B88022B09D90D480C4B24491B1AE6
:1037B000DB081B0443F0030001F04CFA214B01220B
:1037C0001A70204606B070BD0024FAE701AE000072
:1037D0007000002055AD000008AE0000B8A6000043
:1037E00000A60000E5AD00005904002038B100003B
:1037F000A4090020FC02002050020020F00200205A
:103800004D0400205D020020690200202C020020EF
:10381000380200203603002014020020AC020020F1
:10382000B203002024040020CC0300204B0300201E
:10383000200200200A03002074020020A4020020BD
:10384000F2AD00003A31002070B58AB0FCF786FE78
:1038500008B101F08FFE0020FCF7A0FE4FF480417C
:10386000002000F06DFE08B101F084FE182401F084
:1038700009FD2246002104A805F0E9F91423CDE949
:103880000234642306934FF0EB73089306238DF8FC
:103890002530AE4BAE4A02A9184604F023FA08B10F
:1038A00001F068FEA94804F0F1FA4FF47A70FFF7CE
:1038B0006DFBA849A548052204F01FFB08B101F0E3
:1038C00059FEA549A54C032000F094FB02F02EFD03
:1038D00000F000FAFFF750FD4FF4FA70FFF756FBC7
:1038E00000F0DEF94FF4FA70FFF750FB6388022B0B
:1038F00009D99B489B4B9C49C01AC008000440F062
:10390000030001F0A7F94FF4FA70FFF73FFB01F055
:1039100035F80028FBD1954D954A29789548012323
:10392000FEF7E4FD6388002840F0D980022B0AD915
:103930008B488C4B2A789049C01AC008000440F08C
:10394000030001F08BF98D4B01221A704FF4FA70CD
:10395000FFF71CFB01F012F80028FBD13220FFF723
:1039600015FBFFF7A3FC6388022B09D97C487D4B2C
:103970008349C01AC008000440F0030001F06AF94E
:10398000804E4FF47A70FFF701FB3378002B00F084
:10399000C080FFF7CFFC7C4B18706388002800F0D4
:1039A000AC80022B09D96E486E4B7849C01AC0080A
:1039B000000440F0030001F04DF9754D2B78002B09
:1039C00040F0B280FFF77AFB6388022B11D9654B78
:1039D00063487049C01AC008000440F00300019019
:1039E00001F038F96388022B03D96B49019801F083
:1039F00031F96A4A63881278002A00F0E780022BC6
:103A000009D95748574B6649C01AC008000440F00E
:103A1000030001F01FF933788BB15B4A6388127899
:103A2000002A00F0DD80022B09D94D484D4B5D493D
:103A3000C01AC008000440F0030001F00BF92B7815
:103A40008BB1594A63881278002A00F0D380022B88
:103A500009D94348434B5549C01AC008000440F0F7
:103A6000030001F0F7F8454A63881278002A00F055
:103A7000CB80022B09D93A483A4B4D49C01AC008AD
:103A8000000440F0030001F0E5F84A4A6388127828
:103A9000002A00F0C380022B16D93148314B464929
:103AA000C01AC008000440F0030001F0D3F8638896
:103AB000022B09D92A482B4B3649C01AC0080004EA
:103AC00040F0030001F0C6F8C820FFF75FFA0920B4
:103AD000FFF77AFA00F052FF0028FBD1F4E7012B40
:103AE0007FF634AF1F4B1E483449C01AC00800048B
:103AF00040F0020001F0AEF828E7012B7FF65DAF41
:103B00001748184B2E49C01AC008000440F00200A4
:103B100051E76388012B7FF650AF1148114B2949BB
:103B2000C01AC0080004F1E7FFF72CFD264B18600F
:103B30004FF47A70FFF72AFA00F020FF0028FBD13B
:103B400000F01CFF0028FBD13CE700BF38B10000AB
:103B5000F92F000059040020192E000070000020E9
:103B6000B8A6000000A600000FAE00005704002019
:103B7000580400207CB1000025AE00003C3100203C
:103B800079AE0000090300203E3100208AAE00001B
:103B900056040020C5AE000006AF00003B310020F7
:103BA0002FAF000080AF00003A310020D1AF0000FD
:103BB00022B000003D31002073B0000055AE00007F
:103BC0009DAE0000ACAE0000A0090020022B7FF6E5
:103BD00022AF1748174B1849C01AC008000416E74F
:103BE000022B7FF62CAF1248124B1449C01AC008A2
:103BF000000420E7022B7FF636AF0D480D4B10492D
:103C0000C01AC00800042AE7022B7FF63EAF08481E
:103C1000084B0C49C01AC008000432E7022B7FF69B
:103C200053AF0348034B0849C01AC00800043AE7E1
:103C3000B8A6000000A6000058AF0000A9AF000021
:103C4000FAAF00004BB000009CB000002DE9F0413D
:103C50000F46804605F077F80446384605F073F8BD
:103C600000250646241AAC4202DA0020BDE8F081A5
:103C70003246394608EB050004F09CFF08B10135D7
:103C8000F1E70120F2E7000000F01F00034B00F510
:103C9000E070032243F82020704700BF000300506B
:103CA0001FB5094B0FCB6C4684E80F000023074873
:103CB0001A462146FCF7D4FC08B101F05BFC04482D
:103CC000FEF79AFB04B010BD88B1000098B1000067
:103CD0009CB1000008B52E20FFF7D6FF0749282029
:103CE000FFF7D2FF4FF48073C1F80C352620FFF7A1
:103CF000CBFF4023C1F8083508BD00BF00030050CA
:103D00000220FCF7BFBB00002DE9F04780460D46BE
:103D1000FCF7D2FB0328044610D8012D10D0022D49
:103D200030D05DB91A4801F0EAFC1A4B04EB4402AA
:103D300013449D78184B1B5DAB4219D0BDE8F0874A
:103D4000144E00EB4003F218F55C5378470053B172
:103D5000DFF84C900E484A464FF4804101F0A6FC33
:103D600008B989F8008027443E440B4BB2781A55B5
:103D7000002DE3D0094B1B68002BDFD02846BDE89F
:103D8000F047184700EB4004024804446578EFE729
:103D900080040020423100205D3100205831002095
:103DA0004031002000780221FFF7AEBF08B5094B73
:103DB0001B7853B10020FCF733FB0120FCF730FBEC
:103DC000BDE808400320FCF72BBBBDE80840FCF72A
:103DD0003BBB00BF41310020F8B57A4C2378054643
:103DE0001BB100232370FFF7E1FF172D00F287803E
:103DF000DFE805F00C1717425364757F878C878CBA
:103E0000949999999999C3C8D0D8E3E3FFF7CEFF65
:103E10006D4801F074FC6D4B002204461A70204678
:103E2000F8BD0020FCF7D4FAF0B10020FCF7F8FA56
:103E3000022D0CBF4FF4E1644FF47A64634B1D70A4
:103E400000254FF400464FF47A7029464FF4FA6289
:103E50000023E4FB060104F097FD2A460146BDE875
:103E6000F840594801F022BCFCF7C6FA022D0CBFFD
:103E7000C8244FF4C874E1E70020FCF7A9FA40B168
:103E80000020FCF7CDFA4FF44874504B03221A700F
:103E9000D6E7FCF7B1FAC824F7E70020FCF798FA58
:103EA00038B10020FCF7BCFA4FF47A64474B042287
:103EB000EDE7FCF7A1FA4FF4C874F7E70020FCF730
:103EC00087FA48B10020FCF7ABFA404B05221A7084
:103ED00040F6CD410022C2E7FCF78EFAF5E700205C
:103EE000FCF7D0FA394B06221A70002240F26661C4
:103EF000B5E70020FCF780FA344B07221A70002443
:103F00008DE701202070FCF7BDFAEEE7012020705C
:103F1000FCF7B8FA00224FF40051A0E7FCF7A3FA2F
:103F20002A4B0C22EAE72A482A4E01F0E8FBD5F199
:103F3000110504461CD0D8B9012D13D0C820454323
:103F400021464FF400474FF47A704FF4FA62002391
:103F5000C5FB070104F018FD224601461C4801F08C
:103F6000A5FB04460220FCF747FA0123337056E70D
:103F70000220FCF755FA0023F8E7FFF717FF134B71
:103F80001222BBE7FFF712FF0020FCF735FA0F4BB8
:103F90001322B3E7FFF70AFF0120FCF72DFA0B4BC2
:103FA0001422ABE7FFF702FF0020FCF725FA0120FF
:103FB000FCF722FA054B1522A0E7FCF754FA034B55
:103FC0001D709CE754310020A00400205C310020CB
:103FD0006004002041310020044B1B68DB0703D53F
:103FE000034B1878FFF7F8BE704700BF5031002030
:103FF0005C31002038B51C4B18601C4B10F00204DB
:10400000054619601AD01A4B1A480E221A700F2250
:10401000DA7010229A7111225A72042140F233325E
:1040200001F03AFA044648B901F08EFA044628B97C
:104030000146114A114801F027FB0446EB0711D550
:104040000120FCF74BFA6CB921460D4A0D4801F0EE
:104050001BFB044630B9BDE838400B4A0B48012130
:1040600001F012BB204638BD5031002058310020ED
:1040700042310020F8B10000A53D00001CB2000054
:10408000D93F000020B20000013D000018B200003E
:10409000002110B5084604F065FA044608B905F099
:1040A000F3FD204610BD000008B5074B00221A6042
:1040B000BFF35F8F05F0B4FD014618B9BDE80840B5
:1040C00004F050BA032008BD64310020002844D019
:1040D000A0F57000A0F54060352839D8352837D8CC
:1040E000DFE800F0211E362427272A333036363603
:1040F000361E361E39393936363636363636363687
:1041000036363636242A24271B2D362D36363636BB
:1041100036363636212A27361E1E48F2175070478B
:1041200048F20350704748F21350704748F210505D
:10413000704748F21150704748F21450704748F2E7
:104140000150704748F20250704748F27150704772
:1041500048F21650704748F27050704708B5012178
:10416000044802F066F9BFF35F8FB0FA80F04009AF
:1041700008BD00BF6431002013B502680C4B0191EB
:104180009A4204460FD0FFF7E9FF70B10199201D54
:1041900005F05CF8FFF79AFFBFF35F8F054B002235
:1041A0001A6002B010BD0020FBE748F20450F8E7A7
:1041B0006169614D6431002000230428CB604B60AD
:1041C00098BF044B044A98BF53F820308A600B60B4
:1041D000704700BF60B700003CB70000CB6800220A
:1041E0005A717047C368DB6800225A717047CB6808
:1041F00001225A717047C368DB6801225A71704707
:104200000D4A8A6070B50D4A0D4C0023121BCB601D
:104210004B600B6012091D469A4207D0E66836795A
:10422000FF2E05D0854202D1A3680B6070BD013519
:1042300001331034F0E700BF74B7000070A800002D
:1042400060A800002DE9F3478368D3F84831C3F331
:1042500040059B07074606D50022114602B0BDE87F
:10426000F04702F0F3BB144E144CDFF85880DFF82F
:104270005890DFF858A0A41B2409A54202D102B02F
:10428000BDE8F087F168B3680A79FF2A07D10C4AC4
:104290000821384602F0AEFB01351036EDE74879CB
:1042A000002814BF41464946CDE90012384652461F
:1042B000082102F09FFBEFE760A8000070A8000053
:1042C00040B200002FB2000037B200005FB2000021
:1042D0002DE9F74F154D164C9946641B52F8043CD6
:1042E00006468846174624094FF0000B5C4507D167
:1042F000104A0221304603B0BDE8F04F02F07ABB0D
:10430000A9680193184604F0F7FCAA46019B1035F2
:1043100040B93B46424651463046CC4603B0BDE824
:10432000F04F60470BF1010BE0E700BF60A8000011
:1043300070A8000080B20000014BFFF7C9BF00BFAA
:10434000E9460000014BFFF7C3BF00BFDD4100009D
:10435000014BFFF7BDBF00BFEF410000014BFFF76E
:10436000B7BF00BFC5470000037813F0040216D0A2
:1043700003F00303012B03D0022B09D00120704767
:104380000A6800880232C0F3831002440A60F5E72D
:104390000B684288023303EB92130B60EEE7104682
:1043A000704700002DE9F04FDFF810A10F4685B0EF
:1043B0000446861C0020154601F0D6F9DAF80420E0
:1043C0003A60DAF8083003F580739B1A0AF21C474A
:1043D0000AF583690AF21448B34219D30020002D6C
:1043E00068D004F00F039B0143F0050363F30F0053
:1043F000DAF80430DAB2033233444AF822000020FB
:10440000CAF8043001F0B2F9012005B0BDE8F08F20
:104410000121384602F03CF8484602F051F8404687
:1044200002F04EF8DAF808000090C0B203300AEB50
:1044300080006946FFF798FF009B30BBDAB20AEBB9
:104440008202D16801919A1C0133DBB20AEB83032B
:104450000092D3F80CB001F00303012B22D0022B01
:1044600015D08346404602F02EF810B1009BCAF8E2
:1044700008305946384602F00BF8DAF80830DAF816
:10448000042003F580739B1AA6E7D8B2CEE7BDF8E7
:104490000630C3F3891303334FEA1B4B02EB93033C
:1044A0000093DFE7BDF80430C3F383134FEA1B4BDF
:1044B0001344F5E7A40544F0060099E738320020DC
:1044C000012907B5034604D08168D1F8481189074E
:1044D00007D500221146184603B05DF804EB02F040
:1044E000B5BA53680193054B00931368044A02213F
:1044F00002F080FA03B05DF804FB00BFA0B2000038
:1045000096B2000030B599B10A4B0B4A0B49D21A4A
:10451000D20800239A4201D1052006E031F8235049
:104520000468A54202D10360002030BD0133F1E7E9
:104530000846FAE700A60000E0A7000014000020EB
:104540002DE9F84F1E4B1F4801221A7003F0B3F8F3
:10455000814690BB1C48DFF880801C4CDFF87CA0B3
:1045600003F049FAA4EB0804E4084D46A54208D13B
:104570000023174A19469C421AD022F8231001330F
:10458000F9E700273E4608EBC50BB54209D058F8BD
:104590003610DBF80000142204F00CFB0028C8BF22
:1045A00001370136B442F0D12AF825700135DDE734
:1045B0000848A200002104F04AFB4846BDE8F88FF5
:1045C00038320020FCA7000030B70000E0A7000050
:1045D000160000200401002000A6000014000020A6
:1045E00007B5019001A8FFF78DFF30B9019A044B80
:1045F00053F8320003B05DF804FB0020FAE700BF77
:1046000000A60000002310B5CB604B60034B8B600D
:104610000C460121FFF7E4FF206010BD3CB700000D
:10462000074B032903EBC00006D0042906D002295A
:1046300018BF0021084670470179FBE74179F9E787
:1046400000A6000030B5124C00EB400054F8215099
:1046500002FA00F3072202FA00F06B400D4A034011
:104660006B40C3F3821044F8213002EB8101C3F3A5
:10467000C202824238BF0246C3F34220824203F0A4
:10468000070338BF0246934238BF13464B8030BD04
:10469000040100201400002013B50446019101A874
:1046A000114693B1FFF72EFF10B1002002B010BDEC
:1046B00001990B4A04EB440052F821200723834060
:1046C000134023FA00F0C0B2F0E7FFF71BFF002809
:1046D000EBD1019A034B03EBC2039879E6E700BFE5
:1046E0000401002000A60000294B2A4A2DE9F04FC2
:1046F0009B1A4FEAD30ACB685B7985B005460E4614
:104700001BB9254A022102F075F9244B244ADFF82F
:10471000A4800821284602F06DF9224A0821284683
:1047200002F068F90024544502D105B0BDE8F08FCD
:10473000F36893F8049001231A4621464846FFF790
:10474000ABFF00230746012221464846FFF7A4FF9E
:104750000121042881468346204628BF4FF00409E2
:10476000FFF73EFF5FFA89F90F4A58F82910034610
:1047700058F827000D4F0090CB4598BF1746CDE95C
:1047800001170B4A0821284602F034F90134CAE720
:10479000E0A7000000A60000B7B20000CAB2000007
:1047A000D6B20000F4B20000B2C10000B5B2000001
:1047B00031B300004CB7000013460A46C168FFF74A
:1047C00093BF00002DE9F04F2DED028B054683B01D
:1047D0009B461646002A5DD0DBF80070CB68554931
:1047E00093F804A0384604F087FA0446F0B9012E85
:1047F00009D1514A0221284603B0BDEC028BBDE825
:10480000F04F02F0F7B8DBF804304C4F57F8041BB8
:1048100000930A22184604F0CDF9002800F08380A6
:104820000134052C009BF1D1454A15E04549384635
:1048300004F062FA044668B9012E36D04FF0010840
:10484000414B424AA3EB02094FEAD9030093DFF838
:1048500008914FE03E4A3B460221284603B0BDEC9A
:10486000028BBDE8F04F02F0C5B800231A4631466E
:104870005046FFF711FFA04211D200213046FFF74A
:10488000AFFE424603460221284602F0B3F8013645
:10489000BE42EAD103B0BDEC028BBDE8F08F2246E8
:1048A00031465046FFF7CEFEF1E7274F274BDFF8A2
:1048B000A480FF1AFF080026EAE700213846FFF728
:1048C0008FFE18EE101A202204F074F9034608B186
:1048D000013716E00246019039465046FFF7DCFEEC
:1048E000A042019B18D3224639465046FFF7AAFE44
:1048F00008F10108B045CDD25BF8283008EE103A37
:104900000027009BBB42D8D15BF828304A460221E1
:10491000284602F06FF8EBE719463846FFF760FECD
:104920000C4A0346F3E7022EE4B2BED04FF0020871
:1049300086E700BF47B300004EB300004CB700004D
:10494000B9B3000065B30000E0A7000000A60000B6
:104950006DB3000082B30000A5B3000013460A4601
:10496000C168FFF72FBF0000034BD3E90130C31A22
:1049700058425841704700BF383200202DE9F043BB
:1049800085B0FFF7F1FF0546002840F00A81864C0C
:10499000C4F81804BFF34F8FA3680093DBB203334E
:1049A00004EB83006946FFF7DFFC009B18B1D4F8E5
:1049B0001824002A63D0DAB2991C013304EB820276
:1049C000DBB204EB8303D268DB68029302F00303DB
:1049D000022B019200915DD1BDF8063073489DF81D
:1049E0000450C3F389184746502F28BF502707F1BA
:1049F000080167F38F13C1F30901ADF8063002F027
:104A000072FEC5F3C2050646002800F0B18002F030
:104A100099FE0023082201A9304602F0A5FE009964
:104A2000CB43DBB20133C9B20331B7EB830F4FEA9B
:104A3000830204EB81012AD95FFA82F90823A7EBEC
:104A40000907304602F090FEFFB209F10803584909
:104A500003F0FC033A46304602F086FE009B08F164
:104A6000030803EB98030093D4F81834002B49D1C2
:104A7000D4F81074DFF84C914FF0070867E06268D3
:104A80009A428BD8A260284605B0BDE8F08308237F
:104A90003A46E0E7012B6BD1BDF804504348C5F31B
:104AA0008311062928BF062161F38915023101F01F
:104AB0000F018900ADF8045002F015FEC5F3C205E0
:104AC0000646002854D002F03DFE0023082201A92A
:104AD000304602F049FE0027BDF80420C2F38312DD
:104AE000BB00974203F10803BED200994A1CC9B229
:104AF0000331009204EB81010422304602F034FEBF
:104B00000137E9E7304602F021FEFFF72DFF80F084
:104B10000100C5B2B7E7FB685A79B2B11B79BDF89D
:104B2000081003EB430259F8211008FA02F3052D8F
:104B300003EA010323FA02F308BF0325AB4204D3BF
:104B40003B6831461B6838469847FB681F68002F52
:104B5000E1D1304602F0FAFD384600F005FED4F807
:104B600018340BB9009BA360002000F0FFFDCCE7D8
:104B7000D4F8104474B90F4B5B88012BC5D90E4B88
:104B80000E480F49C01AC008000440F0020000F0AF
:104B900061F8BAE7236820469B689847E3681C6879
:104BA000E8E700256FE700BF38320020FCA70000CF
:104BB000443200207000002000A60000B8A60000CB
:104BC000D6B30000040100202DE9F34704460E4649
:104BD000924601A9012218469946FFF7E3FB1B4FB5
:104BE00010B3019D4FF00008AA1CC84508EB020154
:104BF00023D11748002101F01CFC80F310000004B1
:104C000040EA1440E4006B1C04F03804DBB2EDB25F
:104C100044F0010407EB8303033544EA881444EAB3
:104C20008624D86047F825403B781BB1FFF7A6FEE5
:104C30000028FBD102B0BDE8F087C9B207EB8101C3
:104C40005AF82830CB6008F10108CEE7383200204E
:104C50005436002000231A46FFF7B6BF07B50123DC
:104C6000019201AAFFF7B0FF03B05DF804FB1FB586
:104C7000CDE90123069B039301AA0323FFF7A4FFB9
:104C800005B05DF804FB1FB5CDE90023069B029338
:104C9000079B03936A460423FFF796FF05B05DF870
:104CA00004FB00002DE9F84388461B49D1F8103475
:104CB000054600241A468AB9EA681471A3B9C1F8F6
:104CC00010541360154B164EF61AF608002703F120
:104CD0000709B7420DD12046BDE8F883D2681079A4
:104CE000A04212D01268E6E7DB68196811601D6007
:104CF000E8E719F83720EB6842453946187928BFAC
:104D00004246FFF79FFC0137E3E701340A2CD1D17B
:104D10004FF0FF34DFE700BF3832002000A600006C
:104D2000E0A7000038B5084B0125D3F810441D70EA
:104D300004B938BDE3685D71236820465B68984715
:104D4000E3681C68F4E700BF3832002010B588B073
:104D50000023CDE90233CDE9003304931F4B204AF1
:104D60000593204B06929B1A9B08079302AA6B4659
:104D700043F2274141F26E0001F00CFAB0B905A9E7
:104D800002A801F0FFF9184B5B88022B04460AD9F0
:104D90001648174B1749C01AC0080004224640F0B5
:104DA0000300FFF75BFF204608B010BD48F209631F
:104DB000984210D105A902A801F0E0F90A4B5B88DE
:104DC000022B0446EFD90948094B0B49C01AC00809
:104DD00000042246E3E70324E5E700BF6E10273412
:104DE00004010020F401002070000020B8A600009B
:104DF00000A60000E7B3000018B4000010B58368F7
:104E0000D3F848319B07044605D50022BDE8104081
:104E1000114601F01BBEFFF799FF30B9044A082183
:104E20002046BDE8104001F0E5BD024A0221F7E747
:104E300049B4000061B4000000B589B00023CDE999
:104E40000533CDE90133079305AA01AB43F22741AE
:104E500041F26E0001F09EF990B9CDE9030003A97B
:104E600005A801F041F940B91048114A0499121AF5
:104E700003F0C4FE05A801F05DF909B05DF804FB7C
:104E800048F2096398420FD10A4B5B88012B09D97C
:104E900009480A4B0A49C01AC008000440F0020041
:104EA000FFF7D8FE0520E8E70320E6E7040100202D
:104EB000F401002070000020B8A6000000A6000049
:104EC00086B4000010B58368D3F848319B070446C8
:104ED00005D50022BDE81040114601F0B7BDFFF72F
:104EE000ABFF30B9044A08212046BDE8104001F06C
:104EF00081BD024A0221F7E7ABB40000C3B4000051
:104F000030B5C38885B004460D4633B1144A0092CB
:104F10001449154A284602F078F8217A05291DD04F
:104F2000637A4BB1A088FFF77BFB104B104953F815
:104F30002020284602F069F8227A0E4BA08853F808
:104F4000222003920021FFF74BFB039A0A490346F4
:104F5000284605B0BDE8304002F057B805B030BD76
:104F6000DCB80000C4B80000BCB8000034B90000D0
:104F7000CFC2000058B90000E1B8000007B50346F1
:104F80000846197A052911D05B7A2BB1094A0A49DA
:104F9000019002F03AF801980849019002F035F8C2
:104FA000019803B05DF804EB02F024B8002AF8D0B1
:104FB000F2E700BFDCB80000CFC20000B0C10000C3
:104FC0002DE9F04385B01F460C9D002395F80C9009
:104FD0002B7306460C46904629463846FFF790FF4D
:104FE000B8F1060F09D8DFE808F00412181F2833BB
:104FF00040003146284602F008F80022294638468B
:10500000FFF7BCFF85F80C9005B0BDE8F08322687F
:105010003146284601F0F9FFEFE7D4E90023314695
:10502000284601F0F2FFE8E7A36800933146D4E98F
:105030000023284601F0E9FFDFE7E3680193A36856
:1050400000933146D4E90023284601F0DEFFD4E77F
:1050500023690293E3680193A36800933146D4E97E
:105060000023284601F0D1FFC7E763690393236952
:105070000293E3680193A36800933146D4E90023C7
:10508000284601F0C2FFB8E708292DE9F74F80460E
:105090000E4617461C463DD800251B7B257321462E
:1050A00010460193FFF72CFFDFF88CA0DFF88CB0DF
:1050B000AE4232D918F805205946204601F0A5FF26
:1050C0000135082DF4D11B49DFF874A0DFF874B066
:1050D000204601F09AFF4FF000094E4524D918F8F8
:1050E00009507E2D1ED8284603F00CFD002814BF61
:1050F0002A462E225946204601F087FF09F1010970
:10510000B9F1080FE9D1012221463846FFF736FFF1
:10511000019B237303B0BDE8F08F5146204601F098
:1051200074FFCDE72E22E5E75146204601F06DFFE2
:10513000E4E700BFF5B80000F1B80000EBB80000EC
:10514000F3B80000F7B800007047000007B5054B42
:105150000093054A4FF4807300F033F803B05DF814
:1051600004FB00BF6D510000F13600202DE9F8432B
:1051700088461446B2B10F4B0F4E0325002743F06B
:105180000109224608EB0701002003F0CBFB07448E
:10519000241A48B933782BB14FF47A40C847013DFF
:1051A00002D13570BDE8F88301233370002CE8D1BB
:1051B000F8E700BF70B90000F0360020704703F038
:1051C000E1BBF0B595B008460C4616461D4602F008
:1051D000B9FA1A9A0D920023082205A920460A93CB
:1051E0008DF82C300C93CDE9086502F0C7FA079BC7
:1051F0000293069B039302238DF811309DF814301F
:1052000003F00302012A1DD1BDF81420059DC3F34C
:10521000C203C2F383168DF81030B20008230EA922
:10522000204602F0ABFAC5F3952508AB0093324651
:1052300002AB0EA92846FFF7C3FE204602F086FA0D
:1052400015B0F0BD022AF8D1BDF81650C3F3C20361
:10525000C5F389158DF810300827082D2E4628BF74
:1052600008263B4632460EA9204602F087FAAD1BBF
:1052700008AB02AA31460EA83744FFF705FF002D00
:10528000EBD1DAE708B5FFF79AFF04480421FFF7EE
:1052900009FD034B01225A7108BD00BF60A8000040
:1052A000C0040020C30710B507D4F023054A400806
:1052B000145C23401943115410BD0901C9B20F23D6
:1052C000F4E700BF0038002030B5094B1C78094BCB
:1052D000196800239C4202DC0022104630BD11F800
:1052E0003350854201EBC302F7D00133F2E700BF30
:1052F000F13700202038002013B504460191FFF754
:10530000E3FF38B143682BB10199204602B0BDE8F4
:105310001040184702B010BD034B04481968002222
:10532000490800F0C3B900BFF4370020C8040020CA
:1053300010B5C0B2FFF7C8FF04460078FBF7D8FBF2
:1053400063785A1E53425341834208D1044BD3E938
:105350000023134303D1BDE81040FFF7DDBF10BDAC
:10536000F837002038B5334A43080446D35CC207F7
:105370004CBF1B0903F00F030D46042B59D8DFE87F
:1053800003F003222A363900002952D00121FFF709
:1053900089FF002000F0E8F90120A4F12003C4F106
:1053A0002001254A20FA01F100FA03F30B43A04043
:1053B000D2E9004120430B43C2E90003BDE8384075
:1053C000002000F0D3B9002918BF02212046BDE813
:1053D0003840FFF767BF41B10321FFF763FF204665
:1053E0000121BDE83840FFF787BF0121EEE701BB8F
:1053F0000421EBE709B10321E8E7FFF753FF294652
:105400002046FFF779FF284600F0AEF90120A4F10D
:105410002003C4F12001084A20FA01F100FA03F345
:105420000B43A040D2E9004124EA000021EA030333
:10543000C2E738BD00380020F83700202DE9F041E0
:10544000124E134F00243378A34208DC114BD3E9EA
:105450000023134318D0BDE8F041FFF75DBF3D685E
:1054600005EBC40815F83400FBF742FB98F801304F
:105470005A1E53425341181A4142414115F8340013
:10548000FFF770FF0134DEE7BDE8F081F13700205F
:1054900020380020F8370020092AF7B505460C46C9
:1054A00016463ED9FBF74CFAE8B11F4B1F481D606A
:1054B0001F4B204F1C70204B002120221E6003F048
:1054C000C6FB1E4B00200021C3E90001013CE4B2F1
:1054D0000326FF2C0DD11A4A1A48002103B0BDE85B
:1054E000F04000F0D1B8FBF7E7F90028DDD003B0B9
:1054F000F0BD9DF8063015F834008DF8046005EB1A
:10550000C40223F007038DF8063001A993788DF8C3
:1055100005303A46FBF71EFA013CE4B20028D8D029
:10552000E5E70720E3E700BF20380020003800202F
:10553000F137002031530000F4370020F837002005
:105540003D540000DCB9000070B5084D084E002441
:105550002B789C4201D3002070BD3368012113F8E1
:105560003400FBF777FA0134F2E700BFF13700208F
:10557000203800201FB50021039001AA44F2010049
:10558000CDE9011100F004F805B05DF804FB00005E
:1055900010B572B6FFF7C6FBFFF7F0F90028FBD194
:1055A000164C63884BB11648164B1749C01AC008F1
:1055B000000440F00100FFF74DFB144BD3F8F0302E
:1055C000DB0700D500BE6388012B09D90C480D4BC1
:1055D0000F49C01AC008000440F00200FFF73AFB70
:1055E000BFF34F8F09490B4BCA6802F4E0621343C3
:1055F000CB60BFF34F8F00BFFDE700BF70000020FE
:10560000B8A6000000A60000E0B9000000ED00E030
:10561000ECB900000400FA0508B50A4800F0A8F843
:10562000094AD2E90031C018084BD3E9002341F1FF
:105630000001904271EB030303D210F1807041F13D
:10564000000108BDFC04002028380020303800206C
:1056500037B505460C460A4801A900F075FE60B151
:105660000570446001A9064800F098FE18B105488D
:1056700000F082F8002003B030BD0420FBE700BF3B
:10568000E8040020FC04002030B56AB103684FF044
:10569000FF344FF0FF355A614A1E5142C3E90245BB
:1056A00051411961002030BD0720FCE7F8B50446E0
:1056B000002017460D4600F057F8D4E90223B3F155
:1056C000FF3F08BFB2F1FF3F15D1FFF7A5FF281834
:1056D00041F10001C4E902010126002000F046F872
:1056E0005EB12369A76103B1256121460020BDE8B1
:1056F000F840FFF7ADBF0026EFE73046F8BD38B5FC
:105700000446002000F030F8D4E90223B3F1FF3F53
:1057100008BFB2F1FF3F1FBF4FF0FF324FF0FF3322
:10572000C4E90223012508BF0025002000F01EF86F
:105730002DB121460120BDE83840FFF789BF28463A
:1057400038BD000072B6024A136801331360704717
:1057500038380020034A1368013B136003B962B66E
:10576000704700BF38380020FFF7ECBFFFF7F2BFEB
:105770000368D3F80405704790F90430002B09DB67
:105780005A09012103F01F0301FA03F340320249D1
:1057900041F82230704700BF00E100E0024B034AAD
:1057A0001B681068184700BF443800203C380020B0
:1057B00070B5064D0646002455F8043B0BB1304643
:1057C00098470134042CF7D170BD00BF5438002035
:1057D0004388033300EB830399420BD382884FF64F
:1057E000FF739A4208D0038833B18068431C584243
:1057F000584170470220704701207047033080B243
:1058000040F2FE33984230B51FD8134B1A783AB99C
:105810001C895D892C440444A4B2B4F5806F0AD974
:105820001A7DAAB99A8BDC8B2244024492B2B2F55B
:10583000806F0DD801220A801446142202FB043323
:105840005A8910445881002030BD48F20860FBE7B7
:1058500048F20660F8E700BF883800200B4A0C4980
:105860005388142000FB0311CB6833B90420496826
:1058700010700122074801F055BE07490523137037
:1058800002238B80012209680023F3E76C38002093
:105890008838002000000020B438002007B500231D
:1058A00005490093054A09680548082301F076FD7B
:1058B00003B05DF804FB00BFB438002070BA0000EC
:1058C0000000002007B5002301460093034A044866
:1058D000082301F063FD03B05DF804FB68BA000023
:1058E0000000002013B500230C4600930146084A2F
:1058F0000848042301F052FD38B9074B142101FB7D
:10590000043101230B7402B010BD48F20D60FAE7B8
:1059100064BA0000000000208838002037B50A482B
:105920000A4B42689C881968538803250333057025
:105930009BB2002000909B0001EB8401044801F021
:105940002DFD03B030BD00BF6C380020B4380020FE
:105950000000002010B50146044800F0F5FC1C22B0
:105960000446002103F073F9204610BD0405002011
:1059700038B5144B14220D4602FB00302B684468E6
:1059800004F58051A3B15C88033403EB84048C429A
:1059900015D22368013312D02046FFF719FF0128E2
:1059A00008D002280BD00028F1D12C60012038BD8E
:1059B0000834ECE76388033304EB8304E7E7002053
:1059C000F5E700BF88380020426873B504460D46ED
:1059D0006AB3234BD9688A4229D31B699A4226D8D5
:1059E00012F0030323D11F490089098988421ED17F
:1059F0002068916888421AD11B4841688A4203D9BD
:105A000001F580518A420DD381698A420CD901F592
:105A100080518A4208D201222A80B3FA83F04009D9
:105A200002B070BD1A46F7E748F20963F5E70026B1
:105A30002E800196288801A9FFF79AFF30B92B889C
:105A400001339BB2012B2B80F3D9E9E7019B22683C
:105A500099689142EED16360024B1B892381DFE795
:105A6000000000206C380020883800202DE9F84321
:105A70001C461D4B1B7806460F46154673B382B372
:105A80007CB3DFF86C804FF01409A388012B02D996
:105A900048F2096020E009FB03F318F803302BB942
:105AA000A0882146FFF764FF20B92060A388013356
:105AB000A380EAE723681EB1998832889142EFD12A
:105AC0001FB119883A889142EAD19A68C5E9002342
:105AD000064B1B892B810020BDE8F88348F201604A
